:100000000C9445010C946D010C946D010C946D01E0
:100010000C946D010C946D010C946D010C946D01A8
:100020000C946D010C946D010C946D010C946D0198
:100030000C946D010C946D010C946D010C946D0188
:100040000C94050F0C946D010C947F100C94CD1042
:100050000C946D010C946D010C946D010C946D0168
:100060000C946D010C946D010001020304050A0B50
:100070000C0D0E0F111213141516CF01D501DB0153
:10008000E301EC01F601FF0106020E0215021C025B
:100090002402504120506F77657209203D2025537E
:1000A0000D0A00435243204C656E67746809203D79
:1000B0002025530D0A004D6F64656C0909203D2011
:1000C00025530D0A00446174612052617465092052
:1000D0003D2025530D0A0044594E50442F464541BA
:1000E0005455524500434F4E4649470052465F53D0
:1000F000455455500052465F434800454E5F5258A4
:100100004144445200454E5F41410052585F5057B0
:100110005F50302D360054585F41444452005258CD
:100120005F414444525F50322D350052585F414484
:1001300044525F50302D31000D0A002530327800D6
:10014000203078002553092563203D000D0A00204A
:10015000307825303278002553092563203D004F43
:100160004253455256455F54583D253032783A2027
:10017000504F4C535F434E543D2578204152435FCE
:10018000434E543D25780D0A0053544154555309AC
:1001900009203D203078253032782052585F445273
:1001A0003D25782054585F44533D2578204D4158D3
:1001B0005F52543D25782052585F505F4E4F3D2589
:1001C000782054585F46554C4C3D25780D0A003137
:1001D0004D42505300324D425053003235304B4265
:1001E0005053006E524632344C3031006E5246321B
:1001F000344C30312B0044697361626C65640038A3
:100200002062697473003136206269747300504152
:100210005F4D494E0050415F4C4F570050415F4881
:100220004947480050415F4D4158000000000024FC
:100230000027002A0000000000250028002B0000F5
:100240000000002300260029000404040404040420
:100250000402020202020203030303030301020475
:100260000810204080010204081020010204081038
:100270002000000007000201000003040600000047
:10028000000000000000E904391211241FBECFEF66
:10029000D8E0DEBFCDBF12E0A0E0B1E0E2ECF8E2D2
:1002A00002C005900D92A83CB107D9F713E0A8EC65
:1002B000B2E001C01D92AB39B107E1F712E0CAE824
:1002C000D2E004C02297FE010E942414C638D10750
:1002D000C9F70E948F120C945F140C940000FC016B
:1002E00005900020E9F7809590958E0F9F1F089547
:1002F000FB01DC0102C001900D9241505040D8F743
:1003000008950F931F93CF93DF938C01EB01009718
:1003100031F46115710519F420E030E038C081E056
:1003200090E06EE070E00E94E503FC019C01009704
:1003300071F180E88383209771F0D387C28781E8C9
:1003400083838091950390919603892B21F4F093F8
:100350009603E093950301151105C9F011870087F5
:100360008381826083838091970390919803892B86
:1003700071F4F0939803E09397038091990390911F
:100380009A03892B21F4F0939A03E0939903C9010E
:10039000DF91CF911F910F910895A0E0B0E0E3EDC0
:1003A000F1E00C943814FE013596619171918091C1
:1003B000970390919803AF010E9408022096E2E013
:1003C0000C945414A0E0B0E0E8EEF1E00C94381482
:1003D000FE01359661917191A0919703B0919803B8
:1003E00013968C911397886013968C938091970342
:1003F00090919803AF010E940802E0919703F09159
:1004000098032381277F23832096E2E00C945414E1
:10041000ABE0B0E0EEE0F2E00C9428143C012B01DC
:100420005A01FC0117821682838181FD03C06FEFA0
:100430007FEFC6C19AE0892E1E010894211C311C51
:10044000F3012381F20123FD859123FF81912F0187
:10045000882309F4B2C1853239F423FD859123FF45
:1004600081912F01853229F490E0B3010E941E048E
:10047000E7CF982FFF24EE249924FFE1FF15D0F059
:100480009B3269F09C3228F4903259F0933291F407
:100490000EC09D3249F0903369F441E024C052E02F
:1004A000F52A84E0F82A28C098E0F92A25C0E0E17E
:1004B000FE2A22C0F7FC29C0892F80538A3070F4AD
:1004C000F6FE05C0989C902C1124980E15C0E89C4F
:1004D000E02C1124E80EF0E2FF2A0EC09E3229F42F
:1004E000F6FC6BC140E4F42A07C09C3619F450E8CE
:1004F000F52A02C0983649F4F20123FD959123FFB5
:1005000091912F01992309F0B8CF892F8554833019
:1005100018F08052833038F444E050E0A40EB51E49
:100520005FE359830FC0933631F0933779F09335F9
:1005300009F056C020C0F5018081898342E050E077
:10054000A40EB51E610101E010E012C0F501C080EB
:10055000D180F6FC03C06FEF7FEF02C0692D70E021
:1005600042E050E0A40EB51EC6010E9413048C01A7
:100570005FE7F52214C0F501C080D180F6FC03C00E
:100580006FEF7FEF02C0692D70E042E050E0A40EF3
:10059000B51EC6010E9401048C0150E8F52AF3FE45
:1005A00007C01AC080E290E0B3010E941E04EA94E2
:1005B0008E2D90E008171907A8F30EC0F601F7FC7E
:1005C0008591F7FE81916F0190E0B3010E941E04B6
:1005D000E110EA94015010400115110579F7EAC0C5
:1005E000943611F0993669F5F7FE08C0F5012081BF
:1005F00031814281538184E090E00AC0F50180811D
:1006000091819C01442737FD4095542F82E090E072
:10061000A80EB91E9FE6F92257FF09C050954095D4
:10062000309521953F4F4F4F5F4FE0E8FE2ACA01BA
:10063000B901A1012AE030E00E944A04D82ED21864
:1006400040C0953729F41F2D1F7E2AE030E01DC0E1
:100650001F2D197F9F3661F0903720F4983509F0EF
:10066000ACC00FC0903739F0983709F0A6C004C06D
:1006700028E030E00AC0106114FD146020E130E091
:1006800004C014FD166020E132E017FF08C0F50138
:10069000608171818281938144E050E008C0F5015E
:1006A00080819181BC0180E090E042E050E0A40EA6
:1006B000B51EA1010E944A04D82ED2188FE7F82E49
:1006C000F122F6FE0BC05EEFF522D91438F4F4FEE9
:1006D00007C0F2FC05C08FEEF82202C01D2D01C03C
:1006E000192DF4FE0DC0FE01ED0DF11D808180334A
:1006F00019F499EEF92208C01F5FF2FE05C003C08D
:100700008F2D867809F01F5F0F2DF3FC14C0F0FECB
:100710000FC01E1510F09D2C0BC09D2C9E0C911A25
:100720001E2D06C080E290E0B3010E941E041F5FF0
:100730001E15C0F304C01E1510F4E11A01C0EE240A
:1007400004FF0FC080E390E0B3010E941E0402FF8B
:100750001DC001FD03C088E790E00EC088E590E071
:100760000BC0802F867891F001FF02C08BE201C0A0
:1007700080E2F7FC8DE290E0B3010E941E0406C007
:1007800080E390E0B3010E941E049A94D914C0F350
:10079000DA94F101ED0DF11D808190E0B3010E942A
:1007A0001E04DD20A9F706C080E290E0B3010E949C
:1007B0001E04EA94EE20C1F743CEF30166817781EF
:1007C000CB012B96E2E10C9444140F931F93CF932B
:1007D000DF93689F8001699F100D789F100D112491
:1007E000C8010E94CB12EC01009729F060E070E094
:1007F000A8010E940C04CE01DF91CF911F910F91AF
:100800000895FC010590615070400110D8F7809563
:1008100090958E0F9F1F0895DC0101C06D9341508C
:100820005040E0F70895FC016150704001900110C4
:10083000D8F7809590958E0F9F1F08950F931F9363
:10084000CF93DF938C01EB018B8181FF1BC082FF73
:100850000DC02E813F818C819D812817390764F45A
:10086000E881F9810193F983E88306C0E885F98579
:10087000802F0995892B31F48E819F8101969F836A
:100880008E8302C00FEF1FEFC801DF91CF911F9140
:100890000F910895FA01AA27283051F1203181F1F2
:1008A000E8946F936E7F6E5F7F4F8F4F9F4FAF4F78
:1008B000B1E03ED0B4E03CD0670F781F891F9A1F8B
:1008C000A11D680F791F8A1F911DA11D6A0F711D3F
:1008D000811D911DA11D20D009F468943F912AE04B
:1008E000269F11243019305D3193DEF6CF01089533
:1008F000462F4770405D4193B3E00FD0C9F7F6CF64
:10090000462F4F70405D4A3318F0495D31FD40522B
:10091000419302D0A9F7EACFB4E0A69597958795C1
:1009200077956795BA95C9F70097610571050895A0
:100930009B01AC010A2E069457954795379527954C
:10094000BA95C9F7620F731F841F951FA01D0895E4
:100950008091C8029091C9020E94F00468E270E0A0
:1009600080E090E00E944D0F08958AED94E060E0F1
:1009700070E00E94810108950F931F938FE693E02A
:1009800040E051EE60E070E00E9408110E94B50462
:1009900081E090E00E949E12182F092F60E070E025
:1009A00041E00E945D071093C8020093C9021F91A5
:1009B0000F9108950F931F93082F112707FD10958E
:1009C0008FE693E0602F0E94F911C8011F910F91EB
:1009D00008958BEC92E069E04AE00E9426080895B1
:1009E0002F923F924F925F926F927F928F929F923F
:1009F000AF92BF92CF92DF92EF92FF920F931F932D
:100A0000DF93CF93CDB7DEB72B970FB6F894DEBF49
:100A10000FBECDBF72E0472E512C4C0E5D1E8824B8
:100A200083946BEA962E5BEBB52EAA2444E0642EE9
:100A3000712C6C0E7D1E3BEB232E31E0332E0EC24B
:100A40008091CA0200D000D000D0EDB7FEB7319639
:100A50002AE931E0ADB7BEB712963C932E931197B9
:100A6000998192831382848315820E94CD018DB770
:100A70009EB706960FB6F8949EBF0FBE8DBF8981B4
:100A8000823009F473C0833009F4F1C0813009F079
:100A9000E1C18091DB02882309F4DCC18BEC92E098
:100AA000B20142E00E94B3098BEC92E00E94FA0B83
:100AB0008A819B819C0140E050E060E070E080E032
:100AC00090E0022F095F11E0021708F010E0E32F19
:100AD000E353F1E0E31708F0F0E01E0FA1E01E176A
:100AE00008F0A0E0FA2BE1E0941608F0E0E02BEA31
:100AF000E22EEF0EF1E0ABEAEA1608F0F0E0EF2BA1
:100B0000F1E0B51608F0F0E09BEBF92EFE0EE1E007
:100B1000BBEBFB1608F0E0E0FE2BA1E0B61608F0F8
:100B2000A0E0BF2FB554E1E0BB3B08F0E0E0AE2B06
:100B3000F1E0A71608F0F0E0E1E0A81608F0E0E028
:100B40008BEC92E097014B2F5A2F6F2F7E2F0E9434
:100B5000180A8091CA02882309F077C08BEC92E0D2
:100B600067EA72E043E00E94E1097CC08091DB0209
:100B7000882309F46FC18BEC92E0B20142E00E943D
:100B8000B3098BEC92E00E94FA0B8A819B819C0155
:100B900040E050E060E070E080E090E0022F095F0C
:100BA00011E0021708F010E0E32FE353F1E0E31740
:100BB00008F0F0E01E0FA1E01E1708F0A0E0FA2BED
:100BC000E1E0941608F0E0E0BBEAEB2EEF0EF1E076
:100BD000ABEAEA1608F0F0E0EF2BF1E0B51608F00A
:100BE000F0E0ABEBFA2EFE0EE1E0BBEBFB1608F0FB
:100BF000E0E0FE2BA1E0B61608F0A0E0BF2FB55450
:100C0000E1E0BB3B08F0E0E0AE2BF1E0A71608F016
:100C1000F0E0E1E0A81608F0E0E08BEC92E097014C
:100C20004B2F5A2F6F2F7E2F0E94180A8091CA02D5
:100C3000882309F41EC12A813B818091DC029091B6
:100C4000DD022817390709F414C18BEC92E06FEA32
:100C500072E088CF8A819B819093DD028093DC02D1
:100C60008092CA028BEC92E00E94320CF3C08BECB3
:100C700092E0B30148E00E94B3098C818C3409F002
:100C8000E9C08D818F3409F0E5C0EDB7FEB73E971E
:100C90000FB6F894FEBF0FBEEDBFADB7BEB711964D
:100CA0003282218213967C926E9212972AEA32E067
:100CB00015963C932E9314978091DC029091DD025F
:100CC0009C0140E050E060E070E080E090E0E7E010
:100CD000CE2EC20E11E0C21608F010E0E32FE3534F
:100CE000F1E0E31708F0F0E0D12EDE0E11E0DE16A1
:100CF00008F010E0F12BE1E0941608F0E0E04BEA98
:100D0000E42EEF0EF1E01BEAE11608F0F0E0EF2B25
:100D1000F1E0B51608F0F0E03BEBF32EFE0EE1E05B
:100D20001BEBF11608F0E0E0FE2B11E0B61608F020
:100D300010E00F2F0554E1E00B3B08F0E0E01E2B24
:100D4000F1E0A71608F0F0E0E1E0A81608F0E0E016
:100D50001696CC9216971796DC9217971896EC92E7
:100D600018971996FC9219971A960C931A971B9636
:100D70001C931B971C96FC931C971D96EC930E944A
:100D8000CD011092CA022DB73EB7225F3F4F0FB67A
:100D9000F8943EBF0FBE2DBF8BEC92E00E94FA0B81
:100DA0008091DC029091DD029C0140E050E060E027
:100DB00070E080E090E0022F095F11E0021708F078
:100DC00010E0E32FE353F1E0E31708F0F0E01E0F2B
:100DD000A1E01E1708F0A0E0FA2BE1E0941608F05D
:100DE000E0E02BEAE22EEF0EF1E0ABEAEA1608F0C3
:100DF000F0E0EF2BF1E0B51608F0F0E09BEBF92EF8
:100E0000FE0EE1E0BBEBFB1608F0E0E0FE2BA1E0FC
:100E1000B61608F0A0E0BF2FB554E1E0BB3B08F0E8
:100E2000E0E0AE2BF1E0A71608F0F0E0E1E0A81654
:100E300008F0E0E08BEC92E097014B2F5A2F6F2FD8
:100E40007E2F0E94180A8BEC92E06AEA72E045E07D
:100E50000E94E1098BEC92E00E94320C8BEC92E054
:100E6000BE016F5F7F4F0E949C0B882309F0E8CD85
:100E70000BC08BEC92E067EA72E043E00E94E1096C
:100E8000882309F0E7CEEECE2B960FB6F894DEBF9E
:100E90000FBECDBFCF91DF911F910F91FF90EF90CB
:100EA000DF90CF90BF90AF909F908F907F906F908A
:100EB0005F904F903F902F900895EF92FF920F9385
:100EC0001F937093DD026093DC024093DB028BEC96
:100ED00092E00E94CC0C8BEC92E061E00E94A909A8
:100EE0008BEC92E068E00E9430088BEC92E06FE0BF
:100EF0004FE00E949F098BEC92E061E041E020E02E
:100F00000E94BB0B8BEC92E06CE30E94E5098BEC3A
:100F100092E061E00E94E90A8BEC92E062E070E00E
:100F20000E94A00A8091DB02882321F18BEC92E0E1
:100F300061E0EE24E3944DECF42E0BEA1BEB2BEB7B
:100F400030E040E050E00E94200B8BEC92E062E049
:100F500033E0E32E2BEB30E040E050E00E94200B2A
:100F60008BEC92E063E025E0E22E2BEB30E040E0FA
:100F700050E059C08BEC92E001E01DEC2BEA3BEB1A
:100F80004BEB50E060E070E00E94180A8091DC02B8
:100F90009091DD029C0140E050E060E070E080E074
:100FA00090E017E0E12EE20EF1E0E21608F0F0E04A
:100FB000E32FE35301E0E31708F000E0FF2EFE0EFD
:100FC000F1E0FE1608F0F0E00F2B11E04C3A08F4C7
:100FD00010E00555E1E00B3A08F0E0E01E2BE1E0FF
:100FE0005C3B08F4E0E01554F1E01B3B08F0F0E056
:100FF000EF2BF1E06C3B08F4F0E0BE2FB554E1E0DC
:10100000BB3B08F0E0E0FE2BA1E0772309F4A0E071
:10101000E1E0882309F4E0E08BEC92E061E02B2F23
:101020003F2F4A2F5E2F0E94200B8091DB028823E6
:1010300021F08BEC92E00E94320C8BEC92E00E944B
:101040001A0E1F910F91FF90EF900895FC0160839D
:101050004183128280E28383148285E0828708952F
:10106000FC01613208F060E26383089570E08DB79F
:101070009EB70E970FB6F8949EBF0FBE8DBFEDB70B
:10108000FEB7319689E891E0ADB7BEB712969C9352
:101090008E93119773836283CB0156E09695879563
:1010A0005A95E1F78170907095838483CB0145E078
:1010B000969587954A95E1F781709070978386831E
:1010C000CB0134E0969587953A95E1F78170907061
:1010D00091878087CB0195958795877090709387CE
:1010E000828761707070758764870E94E2018DB796
:1010F0009EB70E960FB6F8949EBF0FBE8DBF089593
:10110000FC0190818181981719F0892F0E942A1083
:101110000895FF920F931F938C01F62E81E00E9499
:10112000CF0E80E00E94D80E84E00E94DD0EF80110
:1011300081816F2D0E942A1085E090E00E94A60F09
:101140001F910F91FF900895CF93DF93EC0160E022
:101150000E94890880E58EBD0DB407FEFDCF8EB5D7
:1011600083E78EBD0DB407FEFDCF8EB5CE0161E0E5
:101170000E948908DF91CF9108951F93CF93DF9349
:10118000EC01162F60E00E9489081EBD0DB407FE19
:10119000FDCF1EB5CE0161E00E948908812FDF914D
:1011A000CF911F9108956FEF0E94BD08089561EEE1
:1011B0000E94BD08089562EE0E94BD080895EF9256
:1011C000FF920F931F93CF93DF93EC01F62EE72E40
:1011D0009B81142F941708F4192F8C81882311F008
:1011E00000E002C0092F011BCE0160E00E948908C7
:1011F00081E68EBD0DB407FEFDCF8F2D9E2D9C0187
:10120000F901FEB49FEF07C09EBD0DB407FEFDCFF0
:101210008EB5819311501123B9F707C08EBD0DB45F
:1012200007FEFDCF9EB5015001C08FEF0023B1F73F
:10123000CE0161E00E9489088F2DDF91CF911F912F
:101240000F91FF90EF900895DF92EF92FF920F932E
:101250001F93CF93DF93EC01E62ED72EF22E9B81C6
:10126000142F941708F4192F8C81882311F000E0B3
:1012700002C0092F011BCE0160E00E948908FEBC5C
:101280000DB407FEFDCF8E2D9D2D9C01F901FEB4FE
:1012900008C080818EBD0DB407FEFDCF31968EB59E
:1012A00011501123B1F706C01EBC0DB407FEFDCFCF
:1012B0008EB501500023C1F7CE0161E00E9489087C
:1012C0008F2DDF91CF911F910F91FF90EF90DF90C5
:1012D00008950F93CF93DF93EC01222311F420EABA
:1012E00001C020EBCE010E942409002321F0CE0191
:1012F00061E00E948008DF91CF910F9108950F93D4
:101300001F93CF93DF93EC01162F042F60E00E9410
:1013100089081F7110621EBD0DB407FEFDCF1EB5FA
:101320000EBD0DB407FEFDCF8EB5CE0161E00E946B
:101330008908812FDF91CF911F910F910895262F5A
:101340004F702295207F242B64E0422F0E947F095A
:101350000895662319F061E04FE302C061E040E0C8
:101360000E947F0908950F931F938C010E94DF084C
:10137000C80167E040E70E947F091F910F9108951F
:101380000F93CF93DF93EC0101E00E946909CE0136
:101390000E94D3088073D9F3CE0160E00E948008D8
:1013A000CE0167E040E70E947F0984FD02C081E032
:1013B00004C0CE010E94D70880E0DF91CF910F9149
:1013C000089520E00E94C0090895462F603808F073
:1013D0004FE765E00E947F090895EF92FF920F9317
:1013E0001F93CF93DF937C01162FEA01022F60E059
:1013F0000E9489081F7110621EBD0DB407FEFDCF4B
:101400001EB508C088818EBD0DB407FEFDCF2196A4
:101410008EB501500023B1F7C70161E00E94890831
:10142000812FDF91CF911F910F91FF90EF90089541
:10143000EF92FF920F931F93DF93CF93CDB7DEB759
:1014400028970FB6F894DEBF0FBECDBF7C0109838D
:101450001A832B833C834D835E836F8378878E0151
:101460000F5F1F4F6AE0A801F70122850E94ED0976
:10147000C70160E1A801F70122850E94ED09C701BB
:1014800061E1F70143810E947F0928960FB6F89425
:10149000DEBF0FBECDBFCF91DF911F910F91FF90A7
:1014A000EF9008951F93CF93DF93EC01162F60E028
:1014B0000E9489081F711EBD0DB407FEFDCF8EB5B9
:1014C0008FEF8EBD0DB407FEFDCF1EB5CE0161E0DE
:1014D0000E948908812FDF91CF911F910895EF928B
:1014E000FF921F937C0160E00E94520A182FC701EF
:1014F00061E00E94520A1C7013FD05C0882319F494
:1015000020E030E007C012FD03C021E030E002C05F
:1015100022E030E0C9011F91FF90EF90089566E04E
:101520000E94520A8872803219F422E030E006C02C
:1015300020E030E0883011F421E030E0C901089566
:10154000FF920F931F93CF93DF93EC018B0166E023
:101550000E94520AF7EDFF2EF82285E590E0A0E008
:10156000B0E08B879C87AD87BE870230110539F4C8
:1015700080E2F82A8BE990E0A0E0B0E009C00130F9
:10158000110551F488E0F82A81E490E0A0E0B0E091
:101590008B879C87AD87BE87CE0166E04F2D0E946A
:1015A0007F09CE0166E00E94520A90E08F1509F48F
:1015B00091E0892FDF91CF911F910F91FF900895B6
:1015C00066E00E94520A90E086709070959587952B
:1015D00008951F93CF93DF93EC01162F66E00E94CE
:1015E000520A143010F047E003C0412F440F4F5F00
:1015F000887F482BCE0166E00E947F09DF91CF9162
:101600001F910895FF920F931F938C01F62E62E0B5
:101610000E94520AE8E6F0E0EF0DF11DE49141E08E
:1016200050E002C0440F551FEA95E2F74095482369
:10163000C80162E00E947F091F910F91FF900895F9
:10164000BF92CF92DF92EF92FF920F931F93DF939F
:10165000CF93CDB7DEB728970FB6F894DEBF0FBE95
:10166000CDBF6C01B62EE982FA820B831C832D83D9
:101670003E834F835887662369F49C012B5F3F4F5D
:10168000FC014285C901BE016F5F7F4F50E00E949F
:10169000780107C0F6E0F61708F43EC081E068174D
:1016A00069F4EB2DF0E0E259FF4FE491C6016E2F93
:1016B000AE014F5F5F4FF60122850BC0E62FF0E0D1
:1016C000E259FF4FE491C6016E2FAE014F5F5F4FAD
:1016D00021E00E94ED090B2D10E0F801EC58FF4FBE
:1016E000E491C6016E2FF60143810E947F09C60175
:1016F00062E00E94520A08591F4FF801649121E0EC
:1017000030E002C0220F331F6A95E2F7482F422BC8
:10171000C60162E00E947F0928960FB6F894DEBFEA
:101720000FBECDBFCF91DF911F910F91FF90EF9032
:10173000DF90CF90BF9008950F931F93CF93DF93C7
:10174000EC018B0167E10E94520A80FF02C080E039
:101750000DC00115110549F0CE010E94D30890E09B
:10176000959587958770F801808381E0DF91CF910F
:101770001F910F910895CF92DF92FF920F931F93C5
:101780006C01062FF42E122F60E00E94520AF29490
:1017900090EFF9220295000F007E0F291295110F8C
:1017A000110F107C102B182BC60160E0412F0E94F6
:1017B0007F091F910F91FF90DF90CF900895CF93F5
:1017C000DF93EC0160E00E94520A81FD10C0CE015F
:1017D00060E00E94520A482F4260CE0160E00E9401
:1017E0007F0965E070E080E090E00E944D0FDF919E
:1017F000CF910895CF93DF93EC0160E00E948008C1
:101800008B859C850E94A60FCE016DE10E94520A35
:1018100081FF07C08B859C850E94A60FCE010E9488
:10182000D708CE0160E00E94520A482F4E7FCE01B9
:1018300060E00E947F09CE0162E00E94520AE8E661
:10184000F0E0E49121E030E002C0220F331FEA957E
:10185000E2F7482F422BCE0162E00E947F09DF9120
:10186000CF910895CF93DF93EC010E94DF0BCE015F
:1018700060E00E94520A482F4160CE0160E00E9461
:101880007F09CE0167E040E70E947F09CE0161E059
:101890000E9480088D81882349F0AE014B5F5F4F25
:1018A000CE016AE02A850E94ED0904C0CE0160E005
:1018B0000E94020BCE016DE10E94520A81FF03C01B
:1018C000CE010E94D708DF91CF910895CF92DF9289
:1018D000FF920F931F93CF93DF936C01EB01042FC3
:1018E000F22ECB010E946F01089710F027E001C093
:1018F00029E000D000D000D0EDB7FEB7319687E5E3
:1019000091E0ADB7BEB712969C938E931197D38397
:10191000C283822F992787FD9095958384830E94A7
:10192000E201EDB7FEB736960FB6F894FEBF0FBED4
:10193000EDBFCFE4D1E01BC0102F1F5FC601602FA9
:101940000E94520A00D000D0EDB7FEB73196ADB775
:10195000BEB71296DC93CE931197828313820E94B6
:10196000E201FA94012F0F900F900F900F90FF203B
:1019700019F700D08CE491E0EDB7FEB79283818334
:101980000E94E2010F900F90DF91CF911F910F9174
:10199000FF90DF90CF900895CF93DF93EC01988173
:1019A0008981981721F0892F61E00E94EB0F9981BE
:1019B0008881891721F0892F61E00E94EB0F0E9436
:1019C000EE0ECE0160E00E948008CE0161E00E9430
:1019D000890865E070E080E090E00E944D0FCE0144
:1019E00060E04CE00E947F09CE0165E04FE00E947C
:1019F0009F09CE0162E070E00E94A00A882311F0E6
:101A000081E08A83CE0160E070E00E94A00ACE01EE
:101A10000E94A408CE016DE140E00E947F09CE0142
:101A20006CE140E00E947F09CE0167E040E70E9440
:101A30007F09CE016CE40E94E509CE010E94DB081B
:101A4000CE010E94D708CE010E94DF0BCE0160E0DC
:101A50000E94520A482F4E7FCE0160E00E947F090B
:101A6000DF91CF910895EF92FF920F931F93CF9341
:101A7000DF937C01162FEA01022F60E00E948908A3
:101A80001F711EBD0DB407FEFDCF1EB59FEF07C031
:101A90009EBD0DB407FEFDCF8EB589930150002386
:101AA000B9F7C70161E00E948908812FDF91CF91CA
:101AB0001F910F91FF90EF9008952F923F924F92B8
:101AC0005F926F927F928F929F92AF92BF92CF92CE
:101AD000DF92EF92FF920F931F93DF93CF93CDB7D7
:101AE000DEB75C018B01C42ED22E6DB67EB6CB0163
:101AF0000E946F01089710F027E001C029E000D094
:101B000000D000D0EDB7FEB7319684E491E0ADB7D8
:101B1000BEB712969C938E93119713830283822FE4
:101B2000992787FD9095958384830E94E201EDB704
:101B3000FEB736960FB6F894FEBF0FBEEDBF40E479
:101B4000242E41E0342E3BE3432E31E0532E4CC093
:101B50009DB68EB6D5011A960C9110E0EDB7FEB782
:101B6000E01BF10B0FB6F894FEBF0FBEEDBFEDB654
:101B7000FEB60894E11CF11C202FC5016C2DA701B5
:101B80000E94330D00D0ADB7BEB712963C922E9294
:101B900011970E94E2010E0D1F1D0F900F9015C0AE
:101BA00000D000D0EDB7FEB73196ADB7BEB71296F4
:101BB0005C924E921197D8018C91828313820E947D
:101BC000E2010F900F900F900F90015010400E15F2
:101BD0001F0530F7C394892D982D9C010FB6F894FA
:101BE0003EBF0FBE2DBFDA94DD2009F0B1CF00D08B
:101BF00088E391E0EDB7FEB7928381830E94E20112
:101C00000F900F900FB6F8947EBE0FBE6DBECF91B1
:101C1000DF911F910F91FF90EF90DF90CF90BF90D9
:101C2000AF909F908F907F906F905F904F903F907C
:101C30002F9008950F931F938C010E94D308682F53
:101C4000C8010E943608C8016BE271E04AE022E058
:101C50000E945D0DC8016EE171E04CE024E00E943D
:101C6000660CC80166E171E040E121E00E945D0D73
:101C7000C8016BE071E041E126E00E94660CC801FA
:101C800065E071E041E021E00E94660CC8016BEF65
:101C900070E042E021E00E94660CC80165EF70E050
:101CA00045E021E00E94660CC8016CEE70E046E061
:101CB00021E00E94660CC80165EE70E040E021E082
:101CC0000E94660CC80167ED70E04CE122E00E94C2
:101CD000660CC8010E948F0AFC01EE0FFF1FE65838
:101CE000FF4F2591349100D000D085EC90E0EDB706
:101CF000FEB792838183348323830E94E201F8013B
:101D00008281E82FF0E0EE0FFF1FE058FF4F259192
:101D1000349186EB90E0EDB7FEB7928381833483F4
:101D200023830E94E2010F900F900F900F90C80143
:101D30000E946F0AFC01EE0FFF1FEC57FF4F259129
:101D4000349100D000D083EA90E0EDB7FEB79283E3
:101D50008183348323830E94E2010F900F900F90C0
:101D60000F90C8010E94E00AE82FF0E0EE0FFF1F7D
:101D7000E657FF4F2591349100D000D082E990E0E2
:101D8000EDB7FEB792838183348323830E94E201FF
:101D90000F900F900F900F901F910F91089588232F
:101DA00019F48CB5806202C08CB58F7D8CBD08950E
:101DB0009CB5937F982B9CBD08952CB5382F33701C
:101DC0002C7F322B3CBD2DB590E095958795959550
:101DD000879581702E7F822B8DBD08958AE061E00A
:101DE0000E942A108AE061E00E94EB0F8CB58061AE
:101DF0008CBD8CB580648CBD8DE061E00E94EB0FE2
:101E00008BE061E00E94EB0F08951F920F920FB6D6
:101E10000F9211242F933F938F939F93AF93BF9370
:101E20008091E2029091E302A091E402B091E50278
:101E30003091E6020196A11DB11D232F2D5F2D3794
:101E400020F02D570196A11DB11D2093E60280932D
:101E5000E2029093E302A093E402B093E502809142
:101E6000DE029091DF02A091E002B091E1020196C2
:101E7000A11DB11D8093DE029093DF02A093E002CA
:101E8000B093E102BF91AF919F918F913F912F91BC
:101E90000F900FBE0F901F9018959B01AC017FB75C
:101EA000F8948091DE029091DF02A091E002B0915F
:101EB000E10266B5A89B05C06F3F19F00196A11D10
:101EC000B11D7FBFBA2FA92F982F8827860F911D8C
:101ED000A11DB11D62E0880F991FAA1FBB1F6A9543
:101EE000D1F7BC012DC0FFB7F8948091DE0290912C
:101EF000DF02A091E002B091E102E6B5A89B05C027
:101F0000EF3F19F00196A11DB11DFFBFBA2FA92FF8
:101F1000982F88278E0F911DA11DB11DE2E0880F1B
:101F2000991FAA1FBB1FEA95D1F7861B970B885EE6
:101F30009340C8F2215030404040504068517C4F9F
:101F4000211531054105510571F60895019739F0C4
:101F5000880F991F880F991F02970197F1F708952D
:101F6000789484B5826084BD84B5816084BD85B574
:101F7000826085BD85B5816085BDEEE6F0E080813B
:101F800081608083E1E8F0E010828081826080835C
:101F9000808181608083E0E8F0E0808181608083DF
:101FA000E1EBF0E0808184608083E0EBF0E0808111
:101FB00081608083EAE7F0E08081846080838081B3
:101FC000826080838081816080838081806880835B
:101FD0001092C1000895CF93DF93482F50E0CA01BB
:101FE000835A9D4FFC013491475B5D4FFA01849108
:101FF000882369F190E0880F991FFC01E55DFD4F92
:10200000A591B491FC01EB5CFD4FC591D491662381
:1020100051F42FB7F8948C91932F909589238C933A
:10202000888189230BC0623061F42FB7F8948C91BA
:10203000932F909589238C938881832B88832FBF3E
:1020400006C09FB7F8948C91832B8C939FBFDF9130
:10205000CF910895482F50E0CA018F589D4FFC0141
:102060002491CA01835A9D4FFC019491475B5D4FB7
:10207000FA013491332309F440C0222351F1233073
:1020800071F0243028F42130A1F0223011F514C071
:102090002630B1F02730C1F02430D9F404C080914B
:1020A00080008F7703C0809180008F7D80938000B7
:1020B00010C084B58F7702C084B58F7D84BD09C000
:1020C0008091B0008F7703C08091B0008F7D8093A6
:1020D000B000E32FF0E0EE0FFF1FEB5CFD4FA5918A
:1020E000B4912FB7F894662321F48C9190958923AD
:1020F00002C08C91892B8C932FBF089508951F9255
:102100000F920FB60F9211242F933F934F938F93FB
:102110009F93EF93FF938091C00082FD1DC040917B
:10212000C60020912703309128032F5F3F4F2F7364
:1021300030708091290390912A032817390771F094
:10214000E0912703F0912803E951FD4F408330933C
:1021500028032093270302C08091C600FF91EF91CE
:102160009F918F914F913F912F910F900FBE0F90A4
:102170001F901895E0917B03F0917C03E05CFF4F8A
:102180008191919120813181821B930B8F7390708B
:10219000892B11F00E947E1008951F920F920FB6A6
:1021A0000F9211242F933F938F939F93EF93FF935D
:1021B00020916B0330916C0380916D0390916E03BD
:1021C0002817390731F48091C1008F7D8093C100B9
:1021D00014C0E0916D03F0916E03E55DFC4F20812A
:1021E00080916D0390916E0301968F739070909320
:1021F0006E0380936D032093C600FF91EF919F9132
:102200008F913F912F910F900FBE0F901F901895B7
:10221000AF92BF92DF92EF92FF920F931F93CF93F3
:10222000DF93EC017A018B01DD24403081EE580709
:1022300080E0680780E0780711F0DD24D39491E016
:10224000A92EB12CEC89FD89DD2069F0C50108A01B
:1022500002C0880F991F0A94E2F7808360E079E05A
:102260008DE390E005C0108260E874E88EE190E0B4
:10227000A80197010E940014215030404040504076
:10228000569547953795279580E12030380720F0FF
:10229000DD2011F0DD24D6CFE889F9893083EA8981
:1022A000FB89208319A2EE89FF89408121E030E07B
:1022B000C9010C8C02C0880F991F0A94E2F7482BC1
:1022C0004083EE89FF894081C9010D8C02C0880FCF
:1022D000991F0A94E2F7482B4083EE89FF894081D9
:1022E000C9010E8C02C0880F991F0A94E2F7482B8F
:1022F0004083EE89FF8980810F8C02C0220F331F3B
:102300000A94E2F7209528232083DF91CF911F9133
:102310000F91FF90EF90DF90BF90AF900895DC0198
:102320001C96ED91FC911D97E05CFF4F219131913E
:1023300080819181281B390B2F733070C90108955A
:10234000DC011C96ED91FC911D97E05CFF4F208114
:102350003181E054F040DF01AE5BBF4F8D919C9125
:1023600011972817390719F42FEF3FEF07C08D9108
:102370009C91E80FF91F8081282F30E0C901089552
:10238000DC011C96ED91FC911D97E05CFF4F2081D4
:102390003181E054F040DF01AE5BBF4F8D919C91E5
:1023A00011972817390719F42FEF3FEF10C08D91BF
:1023B0009C911197E80FF91F20818D919C911197A5
:1023C00001968F73907011969C938E9330E0C901A3
:1023D0000895DC0191968C919197882339F0549659
:1023E000ED91FC915597808186FFF9CF91961C92D3
:1023F0000895CF93DF93EC01EE85FF85E05CFF4FFE
:1024000020813181E054F0402F5F3F4F2F733070B7
:10241000DF01AE5BBF4F8D919C9111972817390753
:10242000D1F3E05CFF4F80819181E054F040E80FF0
:10243000F91F6083EE85FF85E05CFF4F31832083C9
:10244000EE89FF89208181E090E00F8C02C0880F27
:10245000991F0A94E2F7282B208381E089A3EC8955
:10246000FD8980818064808381E090E0DF91CF915D
:102470000895109272031092710388EE93E0A0E029
:10248000B0E08093730390937403A0937503B093AB
:1024900076038CEB92E09093700380936F0387EE4A
:1024A00092E090937C0380937B038BE293E0909384
:1024B0007E0380937D0385EC90E09093800380936E
:1024C0007F0384EC90E0909382038093810380ECFF
:1024D00090E0909384038093830381EC90E0909349
:1024E00086038093850382EC90E090938803809329
:1024F000870386EC90E090938A038093890384E0BD
:1025000080938B0383E080938C0387E080938D031B
:1025100085E080938E0381E080938F030895CF93AD
:10252000DF930E94B00F0E94BC04CAEBD0E10E946E
:10253000A8042097E1F30E94BA10F9CF0E94CB12B1
:102540000895CF92DF92EF92FF920F931F93CF9354
:10255000DF937C016B018A01C0E0D0E00FC0D6019F
:102560006D916D01D701ED91FC910190F081E02D0D
:10257000C7010995C80FD91F015010400115110559
:1025800071F7CE01DF91CF911F910F91FF90EF90E6
:10259000DF90CF9008950F931F93CF93DF93BC01EB
:1025A0008230910510F462E070E0E0919303F091C5
:1025B0009403A0E0B0E040E050E024C0808191812D
:1025C00086179707D0F08617970771F48281938159
:1025D000109729F013969C938E9312972CC090938A
:1025E00094038093930327C04115510519F0841774
:1025F000950718F4EF018D01AC01DF018281938111
:102600009C01F9013097D1F641155105F9F0CA0145
:10261000861B970B8430910580F48A819B8101157C
:10262000110521F0F8019383828304C090939403F1
:1026300080939303FE01329645C0FE01E80FF91F17
:10264000619371930297998388833CC08091910331
:1026500090919203892B41F48091B4029091B5023C
:1026600090939203809391034091B6025091B702E8
:102670004115510541F44DB75EB78091B20290917A
:10268000B302481B590B20919103309192032417F8
:102690003507B0F4CA01821B930B8617970780F0A9
:1026A000AB014E5F5F4F8417950750F0420F531FE9
:1026B0005093920340939103F9016193719302C087
:1026C000E0E0F0E0CF01DF91CF911F910F910895ED
:1026D000CF93DF939C01009709F48FC0EC01229700
:1026E0001B821A82609193037091940361157105A6
:1026F00081F488819981820F931F209191033091F9
:1027000092032817390739F5D0939203C0939103A8
:1027100074C0DB0140E050E0AC17BD0708F1BB839B
:10272000AA83FE0121913191E20FF31FAE17BF077B
:1027300079F48D919C911197280F391F2E5F3F4F8F
:102740003983288312968D919C9113979B838A835A
:102750004115510571F4D0939403C09393034DC078
:1027600012968D919C911397AD01009711F0DC01A9
:10277000D3CFDA011396DC93CE931297FA0121910D
:102780003191E20FF31FCE17DF0769F48881998139
:10279000280F391F2E5F3F4FFA01318320838A8132
:1027A0009B8193838283E0E0F0E0DB0112968D91C0
:1027B0009C911397009719F0BC01FD01F6CFAB0176
:1027C0004E5F5F4FDB018D919C91840F951F20918F
:1027D0009103309192032817390779F4309729F43F
:1027E000109294031092930302C0138212824250FB
:1027F00050405093920340939103DF91CF910895FD
:10280000A1E21A2EAA1BBB1BFD010DC0AA1FBB1FF4
:10281000EE1FFF1FA217B307E407F50720F0A21B66
:10282000B30BE40BF50B661F771F881F991F1A94D3
:1028300069F760957095809590959B01AC01BD01FD
:10284000CF010895EE0FFF1F0590F491E02D09943C
:102850002F923F924F925F926F927F928F929F92B0
:10286000AF92BF92CF92DF92EF92FF920F931F939E
:10287000CF93DF93CDB7DEB7CA1BDB0B0FB6F8944F
:10288000DEBF0FBECDBF09942A88398848885F848F
:102890006E847D848C849B84AA84B984C884DF8000
:1028A000EE80FD800C811B81AA81B981CE0FD11DE4
:1028B0000FB6F894DEBF0FBECDBFED010895F894BA
:0228C000FFCF48
:1028C2005061636B65742072656365697665642027
:1028D200636F756E7465723A005061636B65742044
:1028E2006D697373656420726563656976656420DA
:1028F2007175657269657320636F756E7465723A7E
:1029020000736F6D657468696E67002D2D2D2D2D16
:102912002D2D2D2D2D2D2D2D2D2D2D2D2D2D2D2DE5
:102922002D2D2D2D2D0A0D0053657373696F6E20A9
:10293200436F756E7465723A202564202C2069728B
:1029420071312025642C20697271322025642C207B
:10295200697271333A25640A0D0064617461206FF3
:102962006E20706970652025752C20696E20736554
:102972007373696F6E3A25640A0D00526563656967
:102982007665642025732C202041434B20464F520C
:10299200204C4F2C2053454E44204241434B20258E
:1029A20073204F4E205049504520256C752E0A0D3C
:1029B20000636C6F73696E672073657373696F6E02
:1029C2002E2E2E0054494D454F555420534F204230
:1029D200414421210A0D0052454345495645443A96
:1029E2002025730A0D004C6F67206F757420737574
:1029F200636365737321210A0D000A0D0052616E33
:102A020067652074657374696E672E2E2E005449B3
:102A12004D454F55540A0D0057656C6C2072656325
:102A2200656976656420696E2072616E67652074DF
:102A32006573743A25730A0D0048616E64736861A8
:102A42006B696E672E2E2E00476F7420726573704D
:102A52006F6E736520696E2048414E445348414B66
:102A6200452025730A0D004F4B004F4B4C4F004B36
:102A72004F0080009B03000000000000F911A1122A
:082A82008F11C011A011E91130
:00000001FF
