:100000000C9446010C94E5110C9412120C946E01A0
:100010000C946E010C946E010C946E010C946E01A4
:100020000C946E010C946E010C946E010C946E0194
:100030000C946E010C946E010C946E010C946E0184
:100040000C943F120C946E010C94C7130C9415146D
:100050000C946E010C946E010C946E010C946E0164
:100060000C946E010C946E010A0B0C0D0E0F111204
:1000700013141516000102030405CF01D501DB019D
:10008000E301EC01F601FF0106020E0215021C025B
:100090002302504120506F77657209203D2025537F
:1000A0000D0A00435243204C656E67746809203D79
:1000B0002025530D0A004D6F64656C0909203D2011
:1000C00025530D0A00446174612052617465092052
:1000D0003D2025530D0A0044594E50442F464541BA
:1000E0005455524500434F4E4649470052465F53D0
:1000F000455455500052465F434800454E5F5258A4
:100100004144445200454E5F41410052585F5057B0
:100110005F50302D360054585F41444452005258CD
:100120005F414444525F50322D350052585F414484
:1001300044525F50302D31000D0A002530327800D6
:10014000203078002553092563203D000D0A00204A
:10015000307825303278002553092563203D004F43
:100160004253455256455F54583D253032783A2027
:10017000504F4C535F434E543D2578204152435FCE
:10018000434E543D25780D0A0053544154555309AC
:1001900009203D203078253032782052585F445273
:1001A0003D25782054585F44533D2578204D4158D3
:1001B0005F52543D25782052585F505F4E4F3D2589
:1001C000782054585F46554C4C3D25780D0A003137
:1001D0004D42505300324D425053003235304B4265
:1001E0005053006E524632344C3031006E5246321B
:1001F000344C30312B0044697361626C65640038A3
:100200002062697473003136206269747300504152
:100210005F4D494E0050415F4C4F57004C415F4D80
:1002200045440050415F4849474800000000002411
:100230000027002A0000000000250028002B0000F5
:100240000000002300260029000404040404040420
:100250000402020202020203030303030301020475
:100260000810204080010204081020010204081038
:100270002000000007000201000003040600000047
:10028000000000000000A8068115A10611241FBE71
:10029000CFEFD8E0DEBFCDBF12E0A0E0B1E0E2EEEC
:1002A000F7E302C005900D92A437B107D9F713E028
:1002B000A4E7B2E001C01D92AF3DB107E1F712E043
:1002C000CAE8D2E004C02297FE010E94951BC638FE
:1002D000D107C9F70E94D7150C94E41B0C940000B9
:1002E00081E090E0F8940C94E41BFC010590002060
:1002F000E9F7809590958E0F9F1F0895FB01DC0113
:1003000002C001900D9241505040D8F70895FB0172
:10031000DC0101900D920020E1F70895FB019F019F
:10032000E8944230C4F04532B4F44A3029F497FBE3
:100330001EF4909581959F4F642F77270E94991BFB
:10034000805D8A330CF0895D8193CB010097A1F722
:1003500016F45DE251931082C9010C949704FB01DD
:100360009F01423074F0453264F4642F77270E9475
:10037000991B805D8A330CF0895D8193CB010097D6
:10038000A1F71082C9010C9497040F931F93CF9388
:10039000DF938C01EB01009731F46115710519F4BD
:1003A00020E030E038C081E090E06EE070E00E9434
:1003B0005E04FC019C01009771F180E88383209723
:1003C00071F0D387C28781E883838091D9039091AC
:1003D000DA03892B21F4F093DA03E093D9030115B2
:1003E0001105C9F011870087838182608383809122
:1003F000DB039091DC03892B71F4F093DC03E09331
:10040000DB038091DD039091DE03892B21F4F093CF
:10041000DE03E093DD03C901DF91CF911F910F91BE
:100420000895A0E0B0E0E7E1F2E00C94BD1BFE010E
:100430003596619171918091DB039091DC03AF015E
:100440000E9481022096E2E00C94D91BA0E0B0E06B
:10045000ECE2F2E00C94BD1BFE01359661917191C6
:10046000A091DB03B091DC0313968C911397886005
:1004700013968C938091DB039091DC03AF010E9473
:100480008102E091DB03F091DC032381277F23834A
:100490002096E2E00C94D91B0F931F93CF93DF9328
:1004A0008C01E091DB03F091DC03838181FF21C0AB
:1004B000C0E0D0E00DC0E091DB03F091DC032085CB
:1004C0003185BF01F9010995892B11F0CFEFDFEFDD
:1004D000F80181918F01882371F7E091DB03F0919E
:1004E000DC03208531858AE0BF01F9010995892B5C
:1004F00011F0CFEFDFEFCE01DF91CF911F910F9180
:100500000895ABE0B0E0E7E8F2E00C94AD1B3C01ED
:100510002B015A01FC0117821682838181FD03C0E1
:100520006FEF7FEFC6C19AE0892E1E010894211C4F
:10053000311CF3012381F20123FD859123FF819179
:100540002F01882309F4B2C1853239F423FD859146
:1005500023FF81912F01853229F490E0B3010E949D
:10056000A704E7CF982FFF24EE249924FFE1FF157D
:10057000D0F09B3269F09C3228F4903259F09332DB
:1005800091F40EC09D3249F0903369F441E024C0EB
:1005900052E0F52A84E0F82A28C098E0F92A25C01C
:1005A000E0E1FE2A22C0F7FC29C0892F80538A305F
:1005B00070F4F6FE05C0989C902C1124980E15C07E
:1005C000E89CE02C1124E80EF0E2FF2A0EC09E32D7
:1005D00029F4F6FC6BC140E4F42A07C09C3619F4F8
:1005E00050E8F52A02C0983649F4F20123FD9591AE
:1005F00023FF91912F01992309F0B8CF892F8554BA
:10060000833018F08052833038F444E050E0A40E78
:10061000B51E5FE359830FC0933631F0933779F0FD
:10062000933509F056C020C0F5018081898342E0EE
:1006300050E0A40EB51E610101E010E012C0F5010A
:10064000C080D180F6FC03C06FEF7FEF02C0692D40
:1006500070E042E050E0A40EB51EC6010E948C047A
:100660008C015FE7F52214C0F501C080D180F6FC53
:1006700003C06FEF7FEF02C0692D70E042E050E0F1
:10068000A40EB51EC6010E947A048C0150E8F52A1A
:10069000F3FE07C01AC080E290E0B3010E94A704F5
:1006A000EA948E2D90E008171907A8F30EC0F60102
:1006B000F7FC8591F7FE81916F0190E0B3010E94F4
:1006C000A704E110EA94015010400115110579F7D3
:1006D000EAC0943611F0993669F5F7FE08C0F501C5
:1006E000208131814281538184E090E00AC0F5018C
:1006F000808191819C01442737FD4095542F82E0F1
:1007000090E0A80EB91E9FE6F92257FF09C0509548
:100710004095309521953F4F4F4F5F4FE0E8FE2ABF
:10072000CA01B901A1012AE030E00E94D304D82E09
:10073000D21840C0953729F41F2D1F7E2AE030E0E3
:100740001DC01F2D197F9F3661F0903720F498351A
:1007500009F0ACC00FC0903739F0983709F0A6C047
:1007600004C028E030E00AC0106114FD146020E1EC
:1007700030E004C014FD166020E132E017FF08C02D
:10078000F501608171818281938144E050E008C06D
:10079000F50180819181BC0180E090E042E050E071
:1007A000A40EB51EA1010E94D304D82ED2188FE743
:1007B000F82EF122F6FE0BC05EEFF522D91438F4C4
:1007C000F4FE07C0F2FC05C08FEEF82202C01D2D1A
:1007D00001C0192DF4FE0DC0FE01ED0DF11D80814B
:1007E000803319F499EEF92208C01F5FF2FE05C0AC
:1007F00003C08F2D867809F01F5F0F2DF3FC14C006
:10080000F0FE0FC01E1510F09D2C0BC09D2C9E0CF1
:10081000911A1E2D06C080E290E0B3010E94A70449
:100820001F5F1E15C0F304C01E1510F4E11A01C0AD
:10083000EE2404FF0FC080E390E0B3010E94A70400
:1008400002FF1DC001FD03C088E790E00EC088E5EF
:1008500090E00BC0802F867891F001FF02C08BE200
:1008600001C080E2F7FC8DE290E0B3010E94A70492
:1008700006C080E390E0B3010E94A7049A94D914C3
:10088000C0F3DA94F101ED0DF11D808190E0B30128
:100890000E94A704DD20A9F706C080E290E0B30122
:1008A0000E94A704EA94EE20C1F743CEF3016681CB
:1008B0007781CB012B96E2E10C94C91B0F931F9318
:1008C000CF93DF93689F8001699F100D789F100D73
:1008D0001124C8010E943C19EC01009729F060E046
:1008E00070E0A8010E948504CE01DF91CF911F9195
:1008F0000F910895FC010590615070400110D8F7E8
:10090000809590958E0F9F1F0895DC0101C06D9317
:1009100041505040E0F70895FC0161507040019053
:100920000110D8F7809590958E0F9F1F0895DC01D8
:10093000FC01672F71917723E1F7329704C07C9116
:100940006D9370836291AE17BF07C8F308950F933C
:100950001F93CF93DF938C01EB018B8181FF1BC031
:1009600082FF0DC02E813F818C819D812817390720
:1009700064F4E881F9810193F983E88306C0E8858E
:10098000F985802F0995892B31F48E819F810196FD
:100990009F838E8302C00FEF1FEFC801DF91CF91BD
:1009A0001F910F910895FA01AA27283051F12031A3
:1009B00081F1E8946F936E7F6E5F7F4F8F4F9F4FF3
:1009C000AF4FB1E03ED0B4E03CD0670F781F891F35
:1009D0009A1FA11D680F791F8A1F911DA11D6A0F03
:1009E000711D811D911DA11D20D009F468943F91B6
:1009F0002AE0269F11243019305D3193DEF6CF01B5
:100A00000895462F4770405D4193B3E00FD0C9F77A
:100A1000F6CF462F4F70405D4A3318F0495D31FDE7
:100A20004052419302D0A9F7EACFB4E0A69597953A
:100A3000879577956795BA95C9F700976105710510
:100A400008959B01AC010A2E06945795479537955A
:100A50002795BA95C9F7620F731F841F951FA01DB4
:100A600008958F929F92AF92BF92CF92DF92EF92B2
:100A7000FF920F931F93DF93CF93CDB7DEB72797E6
:100A80000FB6F894DEBF0FBECDBFB82EA92E162F1D
:100A9000072F4A0160E071E00E94A018212F302F3B
:100AA000C9017C0100E010E06E010894C11CD11C5A
:100AB00026C0F7018081803130F48B2D9A2D61E0C2
:100AC00071E00E945518C601F701608140E10E9463
:100AD00004198B2D9A2DB6010E946518C6010E943B
:100AE00036190430110534F48B2D9A2D63E071E032
:100AF0000E9455180F5F1F4F0894E11CF11C081548
:100B00001905BCF28B2D9A2D27960FB6F894DEBFEF
:100B10000FBECDBFCF91DF911F910F91FF90EF904E
:100B2000DF90CF90BF90AF909F908F9008950F93DC
:100B30001F93DF93CF93CDB7DEB727970FB6F89407
:100B4000DEBF0FBECDBF80917402909175020E94EE
:100B5000FA078BE591E002C083E691E00E944C0227
:100B600080917402909175020E943F088823A1F33E
:100B70008091590261E00E947213809174029091F9
:100B800075020E945F06ADB7BEB71A970FB6F8940C
:100B9000BEBF0FBEADBFEDB7FEB7319603E711E0A4
:100BA00012961C930E9311972283338344835583AB
:100BB00066837783808791870E941102EDB7FEB725
:100BC0003A960FB6F894FEBF0FBEEDBF8091740247
:100BD0009091750266E772E00E949009882351F0B7
:100BE000CE01019666E772E046E050E00E943105D2
:100BF0000E94700189E091E00E944C0210927C02F8
:100C000080917402909175020E94CF0827960FB6CA
:100C1000F894DEBF0FBECDBFCF91DF911F910F9132
:100C2000089580E596E060E070E00E94C5010895B7
:100C3000DF92EF92FF920F931F9383EB93E040E0DC
:100C400051EE60E070E00E9450140E941106809105
:100C5000590261E00E94331381E090E00E94E615A2
:100C6000F82ED92E00915102109152022091530278
:100C700030915402409155025091560260915702B2
:100C800070915802EE24E3940E94F009F0927402ED
:100C9000D09275021F910F91FF90EF90DF90089511
:100CA0000F931F93082F112707FD109583EB93E0F7
:100CB000602F0E944115C8011F910F910895209146
:100CC000F1023091F2024091F3025091F4026091EE
:100CD000F5027091F6028091F7029091F802089562
:100CE00081309105E1F46F5F7F4F51F581ED92E026
:100CF00069E04AE00E949E0A89E093E063E871E0BF
:100D00000E94A01880E193E068E971E00E94A018B9
:100D100087E193E06BEA71E00E94A0180895892BA7
:100D200079F46F5F7F4F61F487E193E00E94361999
:100D300080E193E00E94361989E093E00E94361921
:100D4000089580E090E06FEF7FEF0E9470060895B5
:100D500081E090E06FEF7FEF0E9470060895AF9200
:100D6000BF92CF92DF92EF92FF920F931F93DF9388
:100D7000CF93CDB7DEB766970FB6F894DEBF0FBE40
:100D8000CDBF81ED92E00E94B50C882309F4ABC081
:100D90008091F902853611F581ED92E0BE01615F27
:100DA0007F4F40915B020E94730E8F85988929893D
:100DB0003A894B895C896D897E898093F102909391
:100DC000F2022093F3023093F4024093F502509321
:100DD000F6026093F7027093F80285C0833709F03A
:100DE00082C081ED92E061EE72E040915B020E9470
:100DF000730E8091E102E82EFF248FEFE816F104D4
:100E000009F44AC0809105039091060301969093DE
:100E100006038093050332EEC32E32E0D32E870102
:100E200023E0000F111F2A95E1F70E191F0909553C
:100E30001D4F5E010894A11CB11CF60161916F0168
:100E4000F80161938F01C5014AE00E94041980E115
:100E500093E0B5010E946518C5010E943619F9EEAC
:100E6000CF16F2E0DF0649F78E01085F1F4FC80179
:100E7000B7014AE00E94D31889E093E0B8010E94CC
:100E80006518C8010E9436198FEF92E0E80EF91E2E
:100E900081E0F701808327C08091070390910803C8
:100EA000019690930803809307031091E20281ED6D
:100EB00092E00E947E0B1093E10287E0189FD00120
:100EC0001124A358BD4FE2EEF2E08D91819382E0B0
:100ED000E93EF807D1F7389781ED92E0BF014091E4
:100EE0005B020E94DA0F81ED92E00E94BE0E6696D0
:100EF0000FB6F894DEBF0FBECDBFCF91DF911F912B
:100F00000F91FF90EF90DF90CF90BF90AF9008953A
:100F10006093F90281ED92E00E94BA0C64E670E001
:100F200080E090E00E9495120895CF93DF9383EBC9
:100F300093E06AEB71E00E948417C0E0D0E0FE010C
:100F4000E150FD4F608183EB93E070E04AE050E0B8
:100F50000E94521783EB93E060E20E9413162196E1
:100F6000C630D10561F783EB93E060E20E943B1647
:100F7000DF91CF910895CF93DF9383EB93E064ECFF
:100F800071E00E948417CDE7D2E083EB93E0699192
:100F90004AE050E00E94E21683EB93E060E20E9498
:100FA000131682E0C73AD80781F783EB93E060E23B
:100FB0000E943B1683EB93E06FEC71E00E94841774
:100FC000C7EAD2E083EB93E069914AE050E00E94E7
:100FD000E21683EB93E060E20E94131682E0C13DCB
:100FE000D80781F783EB93E060E20E943B16DF9124
:100FF000CF910895EF92FF920F931F937C0181EDA3
:1010000092E00E94D81003EB13E0C8016AED71E092
:101010000E9484176091050370910603C8014AE09D
:1010200050E00E946517C80163EF71E00E948417C9
:101030006091070370910803C8014AE050E00E94E4
:101040006517C7010E94BB070E949507C80169E0A8
:1010500073E00E94CD17C80160E173E00E94CD17D4
:10106000C80167E173E00E94CD17C8016BE172E02F
:101070000E9487171F910F91FF90EF900895EF92B4
:10108000FF920F931F93CF93DF93EC018091F902AE
:10109000833709F45BC08091F1029091F2022091B4
:1010A000F3023091F4024091F5025091F602609102
:1010B000F7027091F802892B822B832B842B852BCE
:1010C000862B872B09F444C0E090F102F090F202E5
:1010D0000091F3021091F4022091F5023091F60292
:1010E0004091F7025091F80281ED92E061E00E9498
:1010F000F40D8091FA02882301F581ED92E00E94BF
:101100007E0B81ED92E069EE72E040915B020E94FD
:10111000DA0F0091E9021091EA022091EB0230917E
:10112000EC024091ED025091EE026091EF0270915D
:10113000F00281ED92E00E94EF0CCE0163E770E0D7
:101140000E94880781ED92E00E94BE0E81E020C0DF
:10115000CE0165E670E00E9488078091FA0288233C
:1011600061F081ED92E00E947E0B81ED92E069EEEC
:1011700072E040915B020E94DA0F81ED92E00E94E2
:10118000BE0E62E370E080E090E00E94951280E085
:10119000DF91CF911F910F91FF90EF900895EF9203
:1011A000FF920F931F9320E030E0F901E358FD4FC9
:1011B0001082F901E955FD4F10822F5F3F4F2A320F
:1011C000310599F71092FF0210920003109201036B
:1011D00010920203109203031092040365E670E07C
:1011E0000E94880781ED92E00E94BE0E8091FA0273
:1011F000882399F00091E9021091EA022091EB0214
:101200003091EC024091ED025091EE026091EF02BC
:101210007091F00281ED92E00AC081ED92E000E071
:1012200010E020E030E040E050E060E070E00E943C
:10123000EF0C81ED92E061E0EE24FF2400E010E08D
:1012400020E030E040E050E00E94F40D1092F10206
:101250001092F2021092F3021092F4021092F50230
:101260001092F6021092F7021092F8021092FC020D
:101270001092FB021092FE021092FD0210920603E1
:1012800010920503109208031092070389E093E07F
:1012900063E871E00E94BA1880E193E068E971E0C8
:1012A0000E94BA1887E193E06BEA71E00E94BA18D5
:1012B0001F910F91FF90EF900895FF920F931F934E
:1012C000F62E03EB13E0C80166E372E00E94841778
:1012D000C8016F2D4AE050E00E94F41601ED12E0C3
:1012E000C8010E947E0B8FEF8093E102F092E20230
:1012F0001092E3021092E4021092E5021092E602CC
:101300001092E702C80161EE72E040915B020E9418
:10131000DA0FC8010E94BE0E1F910F91FF90089531
:10132000CF92DF92EF92FF920F931F93CF93DF93B1
:101330007C016B010E9487128B01EB01A091FD02E1
:10134000B091FE02FD01E150FD4F80818823A1F4A0
:10135000C01BD10BC05DD7407CF40E948712EB010B
:10136000C7016091FD020E945D0964E670E080E0C3
:1013700090E00E949512E2CFA150BD4F8C9188233E
:1013800031F120E030E0D601A20FB31F8091FD02C1
:101390009091FE02FC0153E0EE0FFF1F5A95E1F71A
:1013A000E81BF90BE20FF31FE955FD4F80818C9389
:1013B0002F5F3F4F2730310531F78091FD0290912B
:1013C000FE0201969093FE028093FD0281E0DF9180
:1013D000CF911F910F91FF90EF90DF90CF900895E4
:1013E0009F92AF92BF92CF92DF92EF92FF920F93B4
:1013F0001F93CF93DF93EC01F22ED32EC42EB52E84
:10140000A62E972E81ED92E00E945E0F80E090E084
:10141000FC01E358FD4F1082FC01E955FD4F10829D
:1014200001968A329105A1F71092FF0210920003F3
:10143000109201031092020310920303109204030E
:101440000093E9021093EA02F092EB02D092EC02D0
:10145000C092ED02B092EE02A092EF029092F002E2
:1014600081ED92E063E070E00E94CE0D81ED92E0AC
:1014700061E070E00E945B0D81ED92E060E00E940F
:10148000470C81ED92E06FE04FE00E943D0C81ED52
:1014900092E068E00E94B10A81ED92E062E070E0C3
:1014A0000E94870DCE0165E670E00E94880781EDFD
:1014B00092E00E94BE0E80E06FEA76E042E050E0EB
:1014C0000E94C211E092FA02EE2099F00091E90226
:1014D0001091EA022091EB023091EC024091ED0272
:1014E0005091EE026091EF027091F00281ED92E076
:1014F0000AC081ED92E000E010E020E030E040E042
:1015000050E060E070E00E94EF0C81ED92E061E05D
:10151000EE24FF2400E010E020E030E040E050E066
:101520000E94F40DDF91CF911F910F91FF90EF90EA
:10153000DF90CF90BF90AF909F900895FC016083A3
:10154000418381E08283138280E284831582168244
:1015500010861186128613861486158616861786BF
:101560000895FC01613208F060E26483089570E040
:101570008DB79EB70E970FB6F8949EBF0FBE8DBF66
:10158000EDB7FEB7319689E891E0ADB7BEB71296D8
:101590009C938E93119773836283CB0156E096954B
:1015A00087955A95E1F78170907095838483CB017C
:1015B00045E0969587954A95E1F7817090709783FD
:1015C0008683CB0134E0969587953A95E1F7817053
:1015D000907091878087CB019595879587709070E3
:1015E0009387828761707070758764870E94260276
:1015F0008DB79EB70E960FB6F8949EBF0FBE8DBFE7
:101600000895FF920F931F938C01F62E81E00E94A4
:101610008C1180E00E94951180E00E949A11F801DF
:1016200081816F2D0E9472131F910F91FF90089579
:101630001F93CF93DF93EC0160E070E00E94010BF9
:1016400080E68EBD0DB407FEFDCF8EB58FEF8EBD4B
:101650000DB407FEFDCF1EB5CE0161E070E00E9423
:10166000010B812FDF91CF911F9108951F93CF938D
:10167000DF93EC0160E070E00E94010B8FEF8EBD04
:101680000DB407FEFDCF1EB5CE0161E070E00E94F3
:10169000010B812FDF91CF911F9108951F93CF935D
:1016A000DF93EC0160E070E00E94010B81EE8EBDE3
:1016B0000DB407FEFDCF1EB5CE0161E070E00E94C3
:1016C000010B812FDF91CF911F9108951F93CF932D
:1016D000DF93EC0160E070E00E94010B82EE8EBDB2
:1016E0000DB407FEFDCF1EB5CE0161E070E00E9493
:1016F000010B812FDF91CF911F9108950F931F93BD
:101700008C01FC01808160E00E947213C8010E947C
:101710004E0BC8010E94660B1F910F910895EF9226
:10172000FF920F931F93CF93DF93EC01F62EE72EDA
:101730009C81142F941708F4192F8E81882311F09F
:1017400000E002C0092F011BCE0160E070E00E94A2
:10175000010B81E68EBD0DB407FEFDCF8F2D9E2DB2
:101760009C01F901FEB49FEF07C09EBD0DB407FEBA
:10177000FDCF8EB5819311501123B9F707C08EBDEF
:101780000DB407FEFDCF9EB5015001C08FEF0023C1
:10179000B1F7CE0161E070E00E94010B8F2DDF9167
:1017A000CF911F910F91FF90EF900895EF92FF92CC
:1017B0000F931F93CF93DF93EC01F62EE72E9C81BE
:1017C000142F941708F4192F8E81882311F000E04C
:1017D00002C0092F011BCE0160E070E00E94010BE6
:1017E00080EA8EBD0DB407FEFDCF8F2D9E2D9C018E
:1017F000F901FEB408C080818EBD0DB407FEFDCF97
:1018000031968EB511501123B1F706C01EBC0DB430
:1018100007FEFDCF8EB501500023C1F7CE0161E078
:1018200070E00E94010B8F2DDF91CF911F910F91DE
:10183000FF90EF9008950F931F93CF93DF93EC01E8
:10184000162F042F60E070E00E94010B1F711062E0
:101850001EBD0DB407FEFDCF1EB50EBD0DB407FEB7
:10186000FDCF8EB5CE0161E070E00E94010B812FAB
:10187000DF91CF911F910F910895262F4F702295E0
:10188000207F242B64E0422F0E941B0C08956623C6
:1018900019F061E04FE302C061E040E00E941B0CE0
:1018A0000895CF92DF92EF92FF920F931F938B01D7
:1018B0007A01690167E040E70E941B0C90E09C01FF
:1018C000E5E036952795EA95E1F72170F801208348
:1018D00074E0969587957A95E1F7282F2170F701A6
:1018E000208396958795969587958170F6018083DC
:1018F0001F910F91FF90EF90DF90CF900895DF92AE
:10190000EF92FF920F931F93CF93DF938C017B0194
:101910000E94360BC82FD0E0CE01A6E096958795A1
:10192000AA95E1F7DD24D394D82280FF15C0E114F5
:10193000F10431F0CE01959587958770F70180838A
:10194000C80167E040E40E941B0CC5FF05C0C80148
:1019500067E040E20E941B0C8D2DDF91CF911F911B
:101960000F91FF90EF90DF90089560E070E00E948B
:101970007F0C0895462F603808F04FE765E00E941D
:101980001B0C0895EF92FF920F931F93CF93DF9359
:101990007C01162FEA01022F60E070E00E94010B2B
:1019A0001F7110621EBD0DB407FEFDCF1EB508C02D
:1019B00088818EBD0DB407FEFDCF21968EB50150F6
:1019C0000023B1F7C70161E070E00E94010B812F95
:1019D000DF91CF911F910F91FF90EF900895EF92BB
:1019E000FF920F931F93DF93CF93CDB7DEB7289766
:1019F0000FB6F894DEBF0FBECDBF7C0109831A83FA
:101A00002B833C834D835E836F8378878E010F5FCA
:101A10001F4F6AE0A80125E00E94C20CC70160E1E7
:101A2000A80125E00E94C20CF7014481413208F070
:101A300040E2C70161E10E941B0C28960FB6F894A2
:101A4000DEBF0FBECDBFCF91DF911F910F91FF90F1
:101A5000EF9008951F93CF93DF93EC01162F60E072
:101A600070E00E94010B1F711EBD0DB407FEFDCF7B
:101A70008EB58FEF8EBD0DB407FEFDCF1EB5CE0126
:101A800061E070E00E94010B812FDF91CF911F91E7
:101A9000089560E00E942A0D8C7083FD03C020E051
:101AA00030E007C082FD03C021E030E002C022E048
:101AB00030E0C90108950F931F93CF93DF938C01FA
:101AC000EB0160E00E942A0D482F437F209729F008
:101AD000219711F4486001C04C60C80160E00E9489
:101AE0001B0CDF91CF911F910F91089566E00E942A
:101AF0002A0D8872803219F422E030E006C020E01E
:101B000030E0883011F421E030E0C9010895FF92FF
:101B10000F931F93CF93DF93EC018B0166E00E943C
:101B20002A0D1A82B7EDFB2EF8220230110511F4AE
:101B300080E206C00130110529F481E08A8388E043
:101B4000F82A01C01A82CE0166E04F2D0E941B0CBC
:101B5000CE0166E00E942A0D8F1511F481E002C0CB
:101B60001A8280E0DF91CF911F910F91FF9008952D
:101B700066E00E942A0D8670863019F423E030E07A
:101B80000BC0843019F422E030E006C020E030E0E1
:101B9000823011F421E030E0C90108950F931F93C2
:101BA000CF93DF938C01EB0166E00E942A0D482F52
:101BB000497FC330D10571F0C230D10511F44460C2
:101BC0000AC0C130D10511F4426005C0209719F058
:101BD000249709F44660C80166E00E941B0CDF915F
:101BE000CF911F910F910895BF92CF92DF92EF9204
:101BF000FF920F931F93DF93CF93CDB7DEB7289754
:101C00000FB6F894DEBF0FBECDBF6C01B62EE982D1
:101C1000FA820B831C832D833E834F835887662370
:101C200089F4F601E0868A8181878B8182878C81A5
:101C300083878D8184878E8185878F81868788853C
:101C4000878707C0F6E0F61708F43DC081E0681703
:101C500061F4EB2DF0E0E859FF4FE491C6016E2FDF
:101C6000AE014F5F5F4F25E00BC0E62FF0E0E85973
:101C7000FF4FE491C6016E2FAE014F5F5F4F21E031
:101C80000E94C20C0B2D10E0F801E259FF4FE491C5
:101C9000C6016E2FF60144810E941B0CC60162E052
:101CA0000E942A0D0C581F4FF801649121E030E08A
:101CB00002C0220F331F6A95E2F7482F422BC6015C
:101CC00062E00E941B0C28960FB6F894DEBF0FBE90
:101CD000CDBFCF91DF911F910F91FF90EF90DF90DB
:101CE000CF90BF9008950F931F938C010E948F0B8C
:101CF000C80167E10E942A0D81701F910F9108951C
:101D0000DF92EF92FF920F931F938C017B01D42EF1
:101D100060E00E942A0D482F4C7F4260C80160E0BD
:101D20000E941B0C86E990E00E94EE12C801B701E8
:101D30004D2D0E94D60BF801808161E00E94721344
:101D40008FE090E00E94EE12F801808160E00E9436
:101D500072131F910F91FF90EF90DF9008950F93F2
:101D60001F938C0160E00E942A0D482F4D7FC8010F
:101D700060E00E941B0C1F910F910895CF93DF9399
:101D8000EC0160E00E942A0D482F4360CE0160E024
:101D90000E941B0CCE0167E040E70E941B0C888567
:101DA0009985892B9A85892B9B85892B9C85892BE5
:101DB0009D85892B9E85892B9F85892B41F0AE01BE
:101DC000485F5F4FCE016AE025E00E94C20CCE0161
:101DD0000E94660BCE010E944E0B888161E00E943A
:101DE000721382E890E00E94EE12DF91CF91089585
:101DF000CF92DF92FF920F931F93CF93DF936C01EB
:101E0000EB01042FF22ECB010E947501089710F010
:101E100020E001C029E000D000D000D0EDB7FEB72F
:101E2000319687E591E0ADB7BEB712969C938E933D
:101E30001197D383C283822F992787FD909595832D
:101E400084830E942602EDB7FEB736960FB6F8944B
:101E5000FEBF0FBEEDBFCFE4D1E01BC0102F1F5F50
:101E6000C601602F0E942A0D00D000D0EDB7FEB74A
:101E70003196ADB7BEB71296DC93CE93119782839D
:101E800013820E942602FA94012F0F900F900F9058
:101E90000F90FF2019F700D08CE491E0EDB7FEB76A
:101EA000928381830E9426020F900F90DF91CF9141
:101EB0001F910F91FF90DF90CF900895CF93DF9304
:101EC000EC01888161E00E943313898161E00E9406
:101ED00033130E94AB11888160E00E947213CE011F
:101EE00061E070E00E94010B65E070E080E090E04E
:101EF0000E949512CE0164E04FE40E941B0CCE01BB
:101F000063E070E00E94CE0DCE0162E070E00E94BE
:101F1000870D882311F081E08B83CE0160E070E0B3
:101F20000E94870DCE0162E070E00E945B0DCE0141
:101F30006CE140E00E941B0CCE0167E040E70E948C
:101F40001B0CCE016CE40E94BA0CCE010E94660B01
:101F5000CE010E944E0BDF91CF910895EF92FF9238
:101F60000F931F93CF93DF937C01162FEA01022F6B
:101F700060E070E00E94010B1F711EBD0DB407FEF2
:101F8000FDCF1EB59FEF07C09EBD0DB407FEFDCF70
:101F90008EB5899301500023B9F7C70161E070E065
:101FA0000E94010B812FDF91CF911F910F91FF9024
:101FB000EF900895AF92BF92CF92DF92EF92FF928F
:101FC0000F931F93DF93CF9300D00F92CDB7DEB75F
:101FD0008C010E94800E0E9487126B017C015E01C1
:101FE0000894A11CB11CC80168E0A50121E00E9471
:101FF000AE0F807331F50E9487126C197D098E092E
:102000009F09645F714080409040D8F4ECCFC801D4
:102010000E94180BF8018783C8010E94AF0EC80107
:102020000E944E0B8F2D0F900F900F90CF91DF914C
:102030001F910F91FF90EF90DF90CF90BF90AF90E6
:10204000089598012B5F3F4FC801BE016E5F7F4F1F
:10205000AE014D5F5F4F0E94510CFA80F8018581FF
:102060008823D1F2D4CF4F925F926F927F928F925A
:102070009F92AF92BF92CF92DF92EF92FF920F9317
:102080001F93DF93CF9300D000D00F92CDB7DEB770
:102090006C018B01E42EF22ECB010E947501089792
:1020A00010F020E001C029E000D000D000D0EDB752
:1020B000FEB7319684E491E0ADB7BEB712969C931B
:1020C0008E93119713830283822F992787FD909512
:1020D000958384830E942602EDB7FEB736960FB62D
:1020E000F894FEBF0FBEEDBF2E010894411C511C99
:1020F00080E4682E81E0782E06E0802E912C8C0EF4
:102100009D1E1BE3A12E11E0B12E2FC0C6016E2D26
:10211000A20125E00E94AE0F00D0ADB7BEB7129667
:102120007C926E9211970E94260284010F900F906C
:1021300015C000D000D0EDB7FEB73196ADB7BEB731
:102140001296BC92AE921197D8018C918283138221
:102150000E9426020F900F900F900F900150104098
:102160000C171D0731F7E394FA94FF2079F600D09D
:1021700088E391E0EDB7FEB7928381830E94260247
:102180000F900F900F900F900F900F900F90CF9196
:10219000DF911F910F91FF90EF90DF90CF90BF9054
:1021A000AF909F908F907F906F905F904F90089529
:1021B0000F931F938C010E94360B682FC8010E9459
:1021C000B70AC8016BE271E04AE022E00E943310D6
:1021D000C8016EE171E04CE024E00E94F80EC801F5
:1021E00066E171E040E121E00E943310C8016BE03C
:1021F00071E041E126E00E94F80EC80165E071E05F
:1022000041E021E00E94F80EC8016BEF70E042E06F
:1022100021E00E94F80EC80165EF70E045E021E082
:102220000E94F80EC8016CEE70E046E021E00E94CA
:10223000F80EC80165EE70E040E021E00E94F80E63
:10224000C80167ED70E04CE122E00E94F80EC80181
:102250000E94760DFC01EE0FFF1FE658FF4F2591FF
:10226000349100D000D085EC90E0EDB7FEB79283BA
:102270008183348323830E942602F8018381E82F1F
:10228000F0E0EE0FFF1FE058FF4F2591349186EBF1
:1022900090E0EDB7FEB792838183348323830E945D
:1022A00026020F900F900F900F90C8010E94490DC9
:1022B000FC01EE0FFF1FEC57FF4F2591349100D02A
:1022C00000D083EA90E0EDB7FEB792838183348338
:1022D00023830E9426020F900F900F900F90C80149
:1022E0000E94B80DFC01EE0FFF1FE657FF4F25912E
:1022F000349100D000D082E990E0EDB7FEB7928330
:102300008183348323830E9426020F900F900F90C5
:102310000F901F910F910895882319F48CB5806256
:1023200002C08CB58F7D8CBD08959CB5937F982B92
:102330009CBD08952CB5382F33702C7F322B3CBDBB
:102340002DB590E0959587959595879581702E7F11
:10235000822B8DBD08958AE061E00E9472138AE0AD
:1023600061E00E9433138CB580618CBD8CB58064B4
:102370008CBD8DE061E00E9433138BE061E00E9430
:1023800033130895823000F5E82FF0E0EE0FFF1FC1
:10239000E25EFC4F71836083882319F08130A1F4E1
:1023A00008C0809169008C7F842B80936900E89A33
:1023B000089580916900440F551F440F551F837F76
:1023C000842B80936900E99A08951F920F920FB6AB
:1023D0000F9211242F933F934F935F936F937F93AB
:1023E0008F939F93AF93BF93EF93FF9380911E03BF
:1023F00090911F03892B29F0E0911E03F0911F0398
:102400000995FF91EF91BF91AF919F918F917F912E
:102410006F915F914F913F912F910F900FBE0F9051
:102420001F9018951F920F920FB60F9211242F93A1
:102430003F934F935F936F937F938F939F93AF934C
:10244000BF93EF93FF938091200390912103892BF9
:1024500029F0E0912003F09121030995FF91EF917C
:10246000BF91AF919F918F917F916F915F914F91AC
:102470003F912F910F900FBE0F901F9018951F92B4
:102480000F920FB60F9211242F933F938F939F9328
:10249000AF93BF938091260390912703A0912803C7
:1024A000B091290330912A030196A11DB11D232F5C
:1024B0002D5F2D3720F02D570196A11DB11D2093C2
:1024C0002A038093260390932703A0932803B093B5
:1024D00029038091220390912303A0912403B091BA
:1024E00025030196A11DB11D809322039093230320
:1024F000A0932403B0932503BF91AF919F918F9137
:102500003F912F910F900FBE0F901F9018958FB78E
:10251000F89420912603309127034091280350918D
:1025200029038FBFB901CA0108959B01AC017FB790
:10253000F8948091220390912303A0912403B091F9
:10254000250366B5A89B05C06F3F19F00196A11D34
:10255000B11D7FBFBA2FA92F982F8827860F911DF5
:10256000A11DB11D62E0880F991FAA1FBB1F6A95AC
:10257000D1F7BC012DC0FFB7F89480912203909150
:102580002303A0912403B0912503E6B5A89B05C0C1
:10259000EF3F19F00196A11DB11DFFBFBA2FA92F62
:1025A000982F88278E0F911DA11DB11DE2E0880F85
:1025B000991FAA1FBB1FEA95D1F7861B970B885E50
:1025C0009340C8F2215030404040504068517C4F09
:1025D000211531054105510571F60895019739F02E
:1025E000880F991F880F991F02970197F1F7089597
:1025F000789484B5826084BD84B5816084BD85B5DE
:10260000826085BD85B5816085BDEEE6F0E08081A4
:1026100081608083E1E8F0E01082808182608083C5
:10262000808181608083E0E8F0E080818160808348
:10263000E1EBF0E0808184608083E0EBF0E080817A
:1026400081608083EAE7F0E080818460808380811C
:1026500082608083808181608083808180688083C4
:102660001092C1000895CF93DF93482F50E0CA0124
:10267000835A9D4FFC013491475B5D4FFA01849171
:10268000882369F190E0880F991FFC01E55DFD4FFB
:10269000A591B491FC01EB5CFD4FC591D4916623EB
:1026A00051F42FB7F8948C91932F909589238C93A4
:1026B000888189230BC0623061F42FB7F8948C9124
:1026C000932F909589238C938881832B88832FBFA8
:1026D00006C09FB7F8948C91832B8C939FBFDF919A
:1026E000CF910895482F50E0CA018F589D4FFC01AB
:1026F0002491CA01835A9D4FFC019491475B5D4F21
:10270000FA013491332309F440C0222351F12330DC
:1027100071F0243028F42130A1F0223011F514C0DA
:102720002630B1F02730C1F02430D9F404C08091B4
:1027300080008F7703C0809180008F7D8093800020
:1027400010C084B58F7702C084B58F7D84BD09C069
:102750008091B0008F7703C08091B0008F7D80930F
:10276000B000E32FF0E0EE0FFF1FEB5CFD4FA591F3
:10277000B4912FB7F894662321F48C919095892316
:1027800002C08C91892B8C932FBF089508951F92BE
:102790000F920FB60F9211242F933F934F938F9365
:1027A0009F93EF93FF938091C00082FD1DC04091E5
:1027B000C60020916B0330916C032F5F3F4F2F7346
:1027C000307080916D0390916E032817390771F076
:1027D000E0916B03F0916C03E55DFC4F4083309317
:1027E0006C0320936B0302C08091C600FF91EF91B0
:1027F0009F918F914F913F912F910F900FBE0F900E
:102800001F901895E091BF03F091C003E05CFF4F6B
:102810008191919120813181821B930B8F739070F4
:10282000892B11F00E94C61308951F920F920FB6C4
:102830000F9211242F933F938F939F93EF93FF93C6
:102840002091AF033091B0038091B1039091B20316
:102850002817390731F48091C1008F7D8093C10022
:1028600014C0E091B103F091B203E159FC4F208113
:102870008091B1039091B20301968F739070909301
:10288000B2038093B1032093C600FF91EF919F9113
:102890008F913F912F910F900FBE0F901F90189521
:1028A000AF92BF92DF92EF92FF920F931F93CF935D
:1028B000DF93EC017A018B01DD24403081EE580773
:1028C00080E0680780E0780711F0DD24D39491E080
:1028D000A92EB12CEC89FD89DD2069F0C50108A085
:1028E00002C0880F991F0A94E2F7808360E079E0C4
:1028F0008DE390E005C0108260E874E88EE190E01E
:10290000A80197010E94711B215030404040504067
:10291000569547953795279580E12030380720F068
:10292000DD2011F0DD24D6CFE889F9893083EA89EA
:10293000FB89208319A2EE89FF89408121E030E0E4
:10294000C9010C8C02C0880F991F0A94E2F7482B2A
:102950004083EE89FF894081C9010D8C02C0880F38
:10296000991F0A94E2F7482B4083EE89FF89408142
:10297000C9010E8C02C0880F991F0A94E2F7482BF8
:102980004083EE89FF8980810F8C02C0220F331FA4
:102990000A94E2F7209528232083DF91CF911F919D
:1029A0000F91FF90EF90DF90BF90AF900895DC0102
:1029B0001C96ED91FC911D97E05CFF4F21913191A8
:1029C00080819181281B390B2F733070C9010895C4
:1029D000DC011C96ED91FC911D97E05CFF4F20817E
:1029E0003181E054F040DF01AE5BBF4F8D919C918F
:1029F00011972817390719F42FEF3FEF07C08D9172
:102A00009C91E80FF91F8081282F30E0C9010895BB
:102A1000DC011C96ED91FC911D97E05CFF4F20813D
:102A20003181E054F040DF01AE5BBF4F8D919C914E
:102A300011972817390719F42FEF3FEF10C08D9128
:102A40009C911197E80FF91F20818D919C9111970E
:102A500001968F73907011969C938E9330E0C9010C
:102A60000895DC0191968C919197882339F05496C2
:102A7000ED91FC915597808186FFF9CF91961C923C
:102A80000895CF93DF93EC01EE85FF85E05CFF4F67
:102A900020813181E054F0402F5F3F4F2F73307021
:102AA000DF01AE5BBF4F8D919C91119728173907BD
:102AB000D1F3E05CFF4F80819181E054F040E80F5A
:102AC000F91F6083EE85FF85E05CFF4F3183208333
:102AD000EE89FF89208181E090E00F8C02C0880F91
:102AE000991F0A94E2F7282B208381E089A3EC89BF
:102AF000FD8980818064808381E090E0DF91CF91C7
:102B000008951092B6031092B50388EE93E0A0E00A
:102B1000B0E08093B7039093B803A093B903B09348
:102B2000BA0387E692E09093B4038093B3038BE2F9
:102B300093E09093C0038093BF038FE693E090935C
:102B4000C2038093C10385EC90E09093C40380930B
:102B5000C30384EC90E09093C6038093C50380EC9C
:102B600090E09093C8038093C70381EC90E090932A
:102B7000CA038093C90382EC90E09093CC038093C6
:102B8000CB0386EC90E09093CE038093CD0384E05A
:102B90008093CF0383E08093D00387E08093D103B9
:102BA00085E08093D20381E08093D3030895CF938F
:102BB000DF930E94F8120E941806C2E0D4E10E943E
:102BC00097052097E1F30E940214F9CF0E943C1967
:102BD0000895CF92DF92EF92FF920F931F93CF93BE
:102BE000DF937C016B018A01C0E0D0E00FC0D60109
:102BF0006D916D01D701ED91FC910190F081E02D77
:102C0000C7010995C80FD91F0150104001151105C2
:102C100071F7CE01DF91CF911F910F91FF90EF904F
:102C2000DF90CF900895DC01ED91FC910190F0814F
:102C3000E02D09950895EF92FF920F931F938C0159
:102C4000DC01ED91FC910190F081E02D6DE00995A2
:102C50007C01D801ED91FC910190F081E02DC8013B
:102C60006AE009959C012E0D3F1DC9011F910F912E
:102C7000FF90EF900895EF92FF920F931F937C01C6
:102C8000DC01ED91FC910190F081E02D09958C0122
:102C9000C7010E941B16080F191FC8011F910F9131
:102CA000FF90EF900895CF93DF93EC0161157105CC
:102CB00019F420E030E00FC0DB010D900020E9F7AF
:102CC0001197A61BB70BE881F9810280F381E02DF3
:102CD000AD0109959C01C901DF91CF9108954F92F3
:102CE0005F927F928F929F92AF92BF92CF92DF922C
:102CF000EF92FF920F931F93DF93CF93CDB7DEB781
:102D0000A1970FB6F894DEBF0FBECDBF2C01742E75
:102D1000CB01223008F42AE019A231E2C32ED12CD3
:102D2000CC0EDD1E822E9924AA24BB24672D752F7C
:102D3000A50194010E94711B79018A01C801B701A4
:102D4000A50194010E94521B472D461B0894C108FF
:102D5000D1084A3014F4405D01C0495CF60140835B
:102D6000E114F1040105110521F07E2C5F2DC8014D
:102D7000DDCFC201B6010E945316A1960FB6F8949A
:102D8000DEBF0FBECDBFCF91DF911F910F91FF909E
:102D9000EF90DF90CF90BF90AF909F908F907F90FB
:102DA0005F904F900895DC012115310541F4ED91BC
:102DB000FC910190F081E02D642F099508950E9407
:102DC0006F160895EF92FF920F931F939A01E62ECC
:102DD000FF2400E010E0B801A7010E94D3161F9164
:102DE0000F91FF90EF900895CF92DF92EF92FF92B4
:102DF0000F931F936C01E62E9A01FF2400E010E070
:102E0000B801A7010E94D3168C01C6010E941B16AF
:102E1000080F191FC8011F910F91FF90EF90DF90CD
:102E2000CF900895CF92DF92EF92FF920F931F936E
:102E3000CF93DF93EC016A017B012115310541F449
:102E4000E881F9810190F081E02D642F09951FC080
:102E50002A303105D1F477FF17C0E881F98101905C
:102E6000F081E02D6DE209958C0144275527BA01C8
:102E70004C195D096E097F09CE012AE00E946F1688
:102E80009801280F391F04C02AE00E946F169C0188
:102E9000C901DF91CF911F910F91FF90EF90DF90CB
:102EA000CF900895EF92FF920F931F937B019A01A9
:102EB0000027F7FC0095102FB801A7010E941217F8
:102EC0001F910F91FF90EF900895CF92DF92EF92B4
:102ED000FF920F931F936C017B019A010027F7FC6F
:102EE0000095102FB801A7010E9412178C01C6018E
:102EF0000E941B16080F191FC8011F910F91FF9008
:102F0000EF90DF90CF9008950E9453160895EF92AE
:102F1000FF920F931F937C010E9453168C01C701EF
:102F20000E941B16080F191FC8011F910F91FF90D7
:102F3000EF900895AF92BF92CF92DF92EF92FF92FF
:102F40000F931F93CF93DF935C016B01EE24FF245B
:102F5000C0E0D0E010C0D501ED91FC91008111815D
:102F6000C601BE010E94E117682FC501F80109954D
:102F7000E80EF91E2196F60184819581C817D907BC
:102F800050F3C701DF91CF911F910F91FF90EF9008
:102F9000DF90CF90BF90AF900895EF92FF920F9384
:102FA0001F937C010E949A178C01C7010E941B1677
:102FB0009C01200F311FC9011F910F91FF90EF90CD
:102FC0000895FC01848195816817790748F4019080
:102FD000F081E02D309721F0E60FF71F80810895F2
:102FE00080E008950F931F93CF93DF93EC018B0143
:102FF0006F5F7F4F888199810E94711A009711F449
:1030000080E005C0998388831B830A8381E0DF9178
:10301000CF911F910F910895CF93DF93EC01888199
:103020009981892B29F08A819B818617970760F403
:10303000CE010E94F217882341F08C819D81892B5B
:1030400019F4E881F981108281E0DF91CF91089530
:10305000EF92FF920F931F93CF93DF93EC017B01CD
:103060006C817D81E114F104C1F04115510599F0A5
:103070008A01060F171FB8010E940C18882369F0F7
:10308000888199812C813D81820F931FB7010E9415
:1030900087011D830C8381E001C080E0DF91CF9127
:1030A0001F910F91FF90EF9008956115710511F434
:1030B00080E00895DB010D900020E9F71197A61B31
:1030C000B70BAD010E9428180895FB016081718142
:1030D000448155810E9428180895CF93DF93EC0115
:1030E00088819981009711F00E94D919198218825C
:1030F0001D821C821B821A82DF91CF910895EF926C
:10310000FF920F931F93CF93DF93EC017B018A0112
:10311000BA010E940C18882321F4CE010E946D1878
:1031200007C01D830C8388819981B7010E948701A4
:10313000CE01DF91CF911F910F91FF90EF900895F5
:10314000CF93DF93EC01198218821B821A821D82B1
:103150001C821E826115710551F0DB010D9000206B
:10316000E9F71197A61BB70BAD010E947F18DF91FD
:10317000CF9108950F931F93182F092F6115710593
:1031800059F0DB010D900020E9F71197A61BB70B52
:10319000AD010E947F1802C00E946D18812F902FF0
:1031A0001F910F910895EF92FF920F931F93DF935A
:1031B000CF93CDB7DEB762970FB6F894DEBF0FBEE0
:1031C000CDBF8C01CB01F8011182108213821282D3
:1031D0001582148216827E010894E11CF11CB7014D
:1031E00050E00E948E01C801B7010E94BA18629691
:1031F0000FB6F894DEBF0FBECDBFCF91DF911F9108
:103200000F91FF90EF900895EF92FF920F931F930D
:10321000DF93CF93CDB7DEB729970FB6F894DEBF13
:103220000FBECDBF8C01862FF80111821082138250
:10323000128215821482168290E07E010894E11CAD
:10324000F11CB70150E00E94AF01C801B7010E9414
:10325000BA1829960FB6F894DEBF0FBECDBFCF9136
:10326000DF911F910F91FF90EF900895FC018081F5
:1032700091810E94D91908950F931F93CF93DF93E3
:10328000BC018230910510F462E070E0E091D70358
:10329000F091D803A0E0B0E040E050E024C080818D
:1032A000918186179707D0F08617970771F482816E
:1032B0009381109729F013969C938E9312972CC0AC
:1032C0009093D8038093D70327C04115510519F077
:1032D0008417950718F4EF018D01AC01DF0182819D
:1032E00093819C01F9013097D1F641155105F9F010
:1032F000CA01861B970B8430910580F48A819B81DB
:103300000115110521F0F8019383828304C0909385
:10331000D8038093D703FE01329645C0FE01E80F23
:10332000F91F619371930297998388833CC08091C0
:10333000D5039091D603892B41F480915F0290913F
:1033400060029093D6038093D5034091610250911F
:1033500062024115510541F44DB75EB780915D029F
:1033600090915E02481B590B2091D5033091D603F2
:1033700024173507B0F4CA01821B930B86179707F1
:1033800080F0AB014E5F5F4F8417950750F0420FFE
:10339000531F5093D6034093D503F9016193719362
:1033A00002C0E0E0F0E0CF01DF91CF911F910F91DB
:1033B0000895CF93DF939C01009709F48FC0EC012F
:1033C00022971B821A826091D7037091D8036115EE
:1033D000710581F488819981820F931F2091D50313
:1033E0003091D6032817390739F5D093D603C09307
:1033F000D50374C0DB0140E050E0AC17BD0708F115
:10340000BB83AA83FE0121913191E20FF31FAE1716
:10341000BF0779F48D919C911197280F391F2E5F6A
:103420003F4F3983288312968D919C9113979B83EC
:103430008A834115510571F4D093D803C093D70303
:103440004DC012968D919C911397AD01009711F08C
:10345000DC01D3CFDA011396DC93CE931297FA01F5
:1034600021913191E20FF31FCE17DF0769F48881B4
:103470009981280F391F2E5F3F4FFA013183208336
:103480008A819B8193838283E0E0F0E0DB011296E6
:103490008D919C911397009719F0BC01FD01F6CF17
:1034A000AB014E5F5F4FDB018D919C91840F951FA7
:1034B0002091D5033091D6032817390779F4309736
:1034C00029F41092D8031092D70302C013821282FB
:1034D000425050405093D6034093D503DF91CF9193
:1034E00008956F927F928F929F92AF92BF92CF92E8
:1034F000DF92EF92FF920F931F93CF93DF938C0194
:10350000009729F4CB010E943C198C01BBC08EEFBF
:10351000E82E8FEFF82EE00EF11E4801860E971E62
:103520008E149F0408F4ACC0D7014D915C911197A3
:1035300046175707B8F04530510508F4A3C0CA0133
:1035400004978617970708F49DC042505040461BC9
:10355000570BF401419351936D937C93CF010E94DB
:10356000D91990C05B01A41AB50A3801640E751E02
:10357000A091D703B091D803CC24DD24E0E0F0E0A3
:1035800047C0A615B705A9F5CD91DC911197CE01DD
:1035900002968A159B0568F1CE018A199B0902964D
:1035A00012962C91129713963C91059758F0F401BE
:1035B00022833383CA19DB09D183C083D7016D937A
:1035C0007C9309C04E5F5F4F4C0F5D1FF701518325
:1035D0004083C901FC01C114D10431F0D601139616
:1035E000FC93EE9312974EC0F093D803E093D70369
:1035F00049C08D919C911197E817F90708F4FC01D7
:103600006D0112968C91129713969C919C01D90191
:10361000109709F0B6CF8091D5039091D603861507
:103620009705E9F4E617F707D0F42091610230918D
:1036300062022115310541F42DB73EB780915D023C
:1036400090915E02281B390B82169306C8F4909263
:10365000D6038092D503F7017183608313C0CB0139
:103660000E943C19EC01009759F0D7014D915C91F3
:10367000B8010E947E01C8010E94D9198E0102C0C2
:1036800000E010E0C801DF91CF911F910F91FF90F2
:10369000EF90DF90CF90BF90AF909F908F907F90F2
:1036A0006F900895629FD001739FF001829FE00D9B
:1036B000F11D649FE00DF11D929FF00D839FF00DB1
:1036C000749FF00D659FF00D9927729FB00DE11D5D
:1036D000F91F639FB00DE11DF91FBD01CF0111243A
:1036E0000895A1E21A2EAA1BBB1BFD010DC0AA1F43
:1036F000BB1FEE1FFF1FA217B307E407F50720F05B
:10370000A21BB30BE40BF50B661F771F881F991FD5
:103710001A9469F760957095809590959B01AC011E
:10372000BD01CF010895EE0FFF1F0590F491E02D2C
:103730000994AA1BBB1B51E107C0AA1FBB1FA617F8
:10374000B70710F0A61BB70B881F991F5A95A9F74A
:1037500080959095BC01CD0108952F923F924F9294
:103760005F926F927F928F929F92AF92BF92CF9211
:10377000DF92EF92FF920F931F93CF93DF93CDB71A
:10378000DEB7CA1BDB0B0FB6F894DEBF0FBECDBF92
:1037900009942A88398848885F846E847D848C8463
:1037A0009B84AA84B984C884DF80EE80FD800C816C
:1037B0001B81AA81B981CE0FD11D0FB6F894DEBF4F
:1037C0000FBECDBFED01089512E0CAE8D2E004C0FB
:1037D000FE010E94951B2296CC38D107C9F7F894B8
:0237E000FFCF19
:1037E20000300020005B005D00446174612073744E
:1037F200617475733A6E6F7420726563656976657C
:10380200642E00636F646520726563656976656422
:103812003A00636F646520696E2044423A00636F28
:1038220064652061636365707465642E00636F6410
:103832006520726566757365642E006168616861F2
:1038420068610042524F414443415354494E472E0E
:103852002E2E0049442072656365697665643A25B7
:103862006C75005245434549564544205041434BEF
:103872004554205345513A00524543454956454423
:103882002044415441205345513A0044415441207F
:1038920053454E44204C4F473A00424F4F4C204133
:1038A200434B3A005458204255464645523A00523C
:1038B20058204255464645523A005061636B657442
:1038C20020726563656976656420636F756E7465E1
:1038D200723A005061636B6574206D69737365643D
:1038E20020726563656976656420717565726965C4
:1038F2007320636F756E7465723A002D2D2D2D2D18
:103902002D2D2D2D2D2D2D2D2D2D2D2D2D2D2D2DE5
:103912002D2D2D2D2D0041534B494E4720666F72A0
:103922002072657472616E736D697373696F6E3A3A
:10393200002A000000000000000D0008008000DFE7
:10394200030000000000004115E915D7140815E82E
:043952001431150017
:00000001FF
