:100000000C9445010C946D010C946D010C946D01E0
:100010000C946D010C946D010C946D010C946D01A8
:100020000C946D010C946D010C946D010C946D0198
:100030000C946D010C946D010C946D010C946D0188
:100040000C94960D0C946D010C94100F0C945E0F93
:100050000C946D010C946D010C946D010C946D0168
:100060000C946D010C946D010001020304050A0B50
:100070000C0D0E0F111213141516CF01D501DB0153
:10008000E301EC01F601FF0106020E0215021C025B
:100090002402504120506F77657209203D2025537E
:1000A0000D0A00435243204C656E67746809203D79
:1000B0002025530D0A004D6F64656C0909203D2011
:1000C00025530D0A00446174612052617465092052
:1000D0003D2025530D0A0044594E50442F464541BA
:1000E0005455524500434F4E4649470052465F53D0
:1000F000455455500052465F434800454E5F5258A4
:100100004144445200454E5F41410052585F5057B0
:100110005F50302D360054585F41444452005258CD
:100120005F414444525F50322D350052585F414484
:1001300044525F50302D31000D0A002530327800D6
:10014000203078002553092563203D000D0A00204A
:10015000307825303278002553092563203D004F43
:100160004253455256455F54583D253032783A2027
:10017000504F4C535F434E543D2578204152435FCE
:10018000434E543D25780D0A0053544154555309AC
:1001900009203D203078253032782052585F445273
:1001A0003D25782054585F44533D2578204D4158D3
:1001B0005F52543D25782052585F505F4E4F3D2589
:1001C000782054585F46554C4C3D25780D0A003137
:1001D0004D42505300324D425053003235304B4265
:1001E0005053006E524632344C3031006E5246321B
:1001F000344C30312B0044697361626C65640038A3
:100200002062697473003136206269747300504152
:100210005F4D494E0050415F4C4F570050415F4881
:100220004947480050415F4D4158000000000024FC
:100230000027002A0000000000250028002B0000F5
:100240000000002300260029000404040404040420
:100250000402020202020203030303030301020475
:100260000810204080010204081020010204081038
:100270002000000007000201000003040600000047
:10028000000000000000FE04CA1011241FBECFEFC2
:10029000D8E0DEBFCDBF12E0A0E0B1E0E4EEF5E2D1
:1002A00002C005900D92A431B107D9F712E0A4E184
:1002B000B2E001C01D92A63FB107E1F712E0CAE823
:1002C000D2E004C02297FE010E94B512C638D107C1
:1002D000C9F70E9420110C94F0120C940000FC014C
:1002E00005900020E9F7809590958E0F9F1F089547
:1002F000FB01DC0102C001900D9241505040D8F743
:1003000008950F931F93CF93DF938C01EB01009718
:1003100031F46115710519F420E030E038C081E056
:1003200090E06EE070E00E94E503FC019C01009704
:1003300071F180E88383209771F0D387C28781E8C9
:1003400083838091F0029091F102892B21F4F09344
:10035000F102E093F00201151105C9F01187008741
:100360008381826083838091F2029091F302892BD2
:1003700071F4F093F302E093F2028091F402909111
:10038000F502892B21F4F093F502E093F402C90100
:10039000DF91CF911F910F910895A0E0B0E0E3EDC0
:1003A000F1E00C94C912FE01359661917191809132
:1003B000F2029091F302AF010E9408022096E2E05F
:1003C0000C94E512A0E0B0E0E8EEF1E00C94C91264
:1003D000FE01359661917191A091F202B091F30204
:1003E00013968C911397886013968C938091F202E8
:1003F0009091F302AF010E940802E091F202F091A5
:10040000F3022381277F23832096E2E00C94E512F8
:10041000ABE0B0E0EEE0F2E00C94B9123C012B014D
:100420005A01FC0117821682838181FD03C06FEFA0
:100430007FEFC6C19AE0892E1E010894211C311C51
:10044000F3012381F20123FD859123FF81912F0187
:10045000882309F4B2C1853239F423FD859123FF45
:1004600081912F01853229F490E0B3010E941E048E
:10047000E7CF982FFF24EE249924FFE1FF15D0F059
:100480009B3269F09C3228F4903259F0933291F407
:100490000EC09D3249F0903369F441E024C052E02F
:1004A000F52A84E0F82A28C098E0F92A25C0E0E17E
:1004B000FE2A22C0F7FC29C0892F80538A3070F4AD
:1004C000F6FE05C0989C902C1124980E15C0E89C4F
:1004D000E02C1124E80EF0E2FF2A0EC09E3229F42F
:1004E000F6FC6BC140E4F42A07C09C3619F450E8CE
:1004F000F52A02C0983649F4F20123FD959123FFB5
:1005000091912F01992309F0B8CF892F8554833019
:1005100018F08052833038F444E050E0A40EB51E49
:100520005FE359830FC0933631F0933779F09335F9
:1005300009F056C020C0F5018081898342E050E077
:10054000A40EB51E610101E010E012C0F501C080EB
:10055000D180F6FC03C06FEF7FEF02C0692D70E021
:1005600042E050E0A40EB51EC6010E9413048C01A7
:100570005FE7F52214C0F501C080D180F6FC03C00E
:100580006FEF7FEF02C0692D70E042E050E0A40EF3
:10059000B51EC6010E9401048C0150E8F52AF3FE45
:1005A00007C01AC080E290E0B3010E941E04EA94E2
:1005B0008E2D90E008171907A8F30EC0F601F7FC7E
:1005C0008591F7FE81916F0190E0B3010E941E04B6
:1005D000E110EA94015010400115110579F7EAC0C5
:1005E000943611F0993669F5F7FE08C0F5012081BF
:1005F00031814281538184E090E00AC0F50180811D
:1006000091819C01442737FD4095542F82E090E072
:10061000A80EB91E9FE6F92257FF09C050954095D4
:10062000309521953F4F4F4F5F4FE0E8FE2ACA01BA
:10063000B901A1012AE030E00E944A04D82ED21864
:1006400040C0953729F41F2D1F7E2AE030E01DC0E1
:100650001F2D197F9F3661F0903720F4983509F0EF
:10066000ACC00FC0903739F0983709F0A6C004C06D
:1006700028E030E00AC0106114FD146020E130E091
:1006800004C014FD166020E132E017FF08C0F50138
:10069000608171818281938144E050E008C0F5015E
:1006A00080819181BC0180E090E042E050E0A40EA6
:1006B000B51EA1010E944A04D82ED2188FE7F82E49
:1006C000F122F6FE0BC05EEFF522D91438F4F4FEE9
:1006D00007C0F2FC05C08FEEF82202C01D2D01C03C
:1006E000192DF4FE0DC0FE01ED0DF11D808180334A
:1006F00019F499EEF92208C01F5FF2FE05C003C08D
:100700008F2D867809F01F5F0F2DF3FC14C0F0FECB
:100710000FC01E1510F09D2C0BC09D2C9E0C911A25
:100720001E2D06C080E290E0B3010E941E041F5FF0
:100730001E15C0F304C01E1510F4E11A01C0EE240A
:1007400004FF0FC080E390E0B3010E941E0402FF8B
:100750001DC001FD03C088E790E00EC088E590E071
:100760000BC0802F867891F001FF02C08BE201C0A0
:1007700080E2F7FC8DE290E0B3010E941E0406C007
:1007800080E390E0B3010E941E049A94D914C0F350
:10079000DA94F101ED0DF11D808190E0B3010E942A
:1007A0001E04DD20A9F706C080E290E0B3010E949C
:1007B0001E04EA94EE20C1F743CEF30166817781EF
:1007C000CB012B96E2E10C94D5120F931F93CF939C
:1007D000DF93689F8001699F100D789F100D112491
:1007E000C8010E945C11EC01009729F060E070E004
:1007F000A8010E940C04CE01DF91CF911F910F91AF
:100800000895FC010590615070400110D8F7809563
:1008100090958E0F9F1F0895DC0101C06D9341508C
:100820005040E0F70895FC016150704001900110C4
:10083000D8F7809590958E0F9F1F08950F931F9363
:10084000CF93DF938C01EB018B8181FF1BC082FF73
:100850000DC02E813F818C819D812817390764F45A
:10086000E881F9810193F983E88306C0E885F98579
:10087000802F0995892B31F48E819F8101969F836A
:100880008E8302C00FEF1FEFC801DF91CF911F9140
:100890000F910895FA01AA27283051F1203181F1F2
:1008A000E8946F936E7F6E5F7F4F8F4F9F4FAF4F78
:1008B000B1E03ED0B4E03CD0670F781F891F9A1F8B
:1008C000A11D680F791F8A1F911DA11D6A0F711D3F
:1008D000811D911DA11D20D009F468943F912AE04B
:1008E000269F11243019305D3193DEF6CF01089533
:1008F000462F4770405D4193B3E00FD0C9F7F6CF64
:10090000462F4F70405D4A3318F0495D31FD40522B
:10091000419302D0A9F7EACFB4E0A69597958795C1
:1009200077956795BA95C9F70097610571050895A0
:100930009B01AC010A2E069457954795379527954C
:10094000BA95C9F7620F731F841F951FA01D0895E4
:1009500080911402909115020E94050500D000D0EC
:10096000EDB7FEB7319620E031E0ADB7BEB71296D5
:100970003C932E931197828313820E94CD010F9096
:100980000F900F900F9068EC70E080E090E00E9474
:10099000DE0D08958FEE94E060E070E00E9481012A
:1009A00008950F931F938AEC92E040E051EE60E0CF
:1009B00070E00E94990F0E94CA0481E090E00E94BA
:1009C0002F11182F092F62E070E041E00E94F2051C
:1009D00010931402009315021F910F9108950F9325
:1009E0001F93082F112707FD10958AEC92E0602FC6
:1009F0000E948A10C8011F910F91089586E192E02C
:100A000069E04AE00E94A0060895CF92DF92EF923B
:100A1000FF920F931F93DF93CF93CDB7DEB72C9741
:100A20000FB6F894DEBF0FBECDBF8091360288238B
:100A300009F063C086E192E00E948B0A00D000D0EA
:100A40008AE791E0ADB7BEB712969C938E9311974B
:100A5000809137029091380214969C938E9313974D
:100A60000E94CD010F900F900F900F9064E170E005
:100A700080E090E00E94DE0D86E192E067E372E0A4
:100A800042E00E948E08882359F400D086E991E064
:100A9000EDB7FEB7928381830E94CD010F900F9036
:100AA00086E192E00E946B0A8823F9F400D087EA7D
:100AB00091E02DC08E010E5F1F4F86E192E0B801DC
:100AC00043E00E94600800D000D08AEB91E0EDB7CF
:100AD000FEB792838183148303830E94CD0181E05A
:100AE0000F900F900F900F906EC086E192E00E94E1
:100AF0006B0A882309F467C0DDCF86E192E00E948B
:100B00006B0A882309F04BC000D08CEC91E0ADB7A4
:100B1000BEB712969C938E9311970E94CD0180E0F0
:100B20000F900F9050C086E192E0B70142E00E9422
:100B30006008EDB7FEB73C970FB6F894FEBF0FBE46
:100B4000EDBF3196ADB7BEB712961C930E931197B9
:100B50008D8182838E8183838F8184838885858341
:100B6000898586838A8587838B8580878C85818725
:100B70008981828713860E94CD01EDB7FEB73C962E
:100B80000FB6F894FEBF0FBEEDBF86E192E0609114
:100B900026024BEF51E023E00E941E070BC06E01BE
:100BA0000894C11CD11C85E0E82EF12CEC0EFD1E32
:100BB0000FED11E086E192E0B6010E944C0A882315
:100BC00009F0B1CF81E02C960FB6F894DEBF0FBECE
:100BD000CDBFCF91DF911F910F91FF90EF90DF90EC
:100BE000CF900895EF92FF920F931F9381E080932F
:100BF00026023DEC309327022BEA209328029BEB40
:100C00009093290290932A0210922B0210922C02A8
:100C100010922D02EEE2F2E082E080932E02318308
:100C200022839383948315821682178270933802ED
:100C3000609337024093360286E192E00E945D0B9A
:100C400086E192E061E00E94560886E192E00E940F
:100C5000960986E192E068E00E94AA0686E192E0A9
:100C60006FE04FE00E944C0880913602882329F5FE
:100C7000009126021091270220912802309129022A
:100C800040912A0250912B0260912C0270912D020A
:100C900086E192E00E94C508E0902E02F0902F02BB
:100CA00000913002109131022091320230913302D2
:100CB000409134025091350224C000912E021091CF
:100CC0002F02209130023091310240913202509136
:100CD0003302609134027091350286E192E00E9405
:100CE000C508E0902602F09027020091280210919A
:100CF000290220912A0230912B0240912C0250911E
:100D00002D0286E192E061E00E94D00980913602D6
:100D1000882369F086E192E0609126024BEF51E072
:100D200023E00E941E0786E192E00E94C30A86E14A
:100D300092E00E94AB0C1F910F91FF90EF900895ED
:100D4000FC0160834183128280E28383148285E008
:100D500082870895FC01613208F060E263830895A0
:100D600070E08DB79EB70E970FB6F8949EBF0FBE7A
:100D70008DBFEDB7FEB7319689E891E0ADB7BEB74C
:100D800012969C938E93119773836283CB0156E0E6
:100D9000969587955A95E1F7817090709583848335
:100DA000CB0145E0969587954A95E1F78170907063
:100DB00097838683CB0134E0969587953A95E1F742
:100DC0008170907091878087CB019595879587700A
:100DD00090709387828761707070758764870E94B6
:100DE000E2018DB79EB70E960FB6F8949EBF0FBE68
:100DF0008DBF0895FC0190818181981719F0892F8A
:100E00000E94BB0E0895FF920F931F938C01F62E44
:100E100081E00E94600D80E00E94690D84E00E94E4
:100E20006E0DF80181816F2D0E94BB0E85E090E070
:100E30000E94370E1F910F91FF900895EF92FF923D
:100E40000F931F93CF93DF93EC01162F042FF52EF2
:100E5000E22E60E00E9403071770186A1EBD0DB4F1
:100E600007FEFDCF802F9F2D9C01F9012E2D2132F1
:100E700008F020E28EB508C080818EBD0DB407FE5B
:100E8000FDCF31968EB521502223B1F7CE0161E01E
:100E90000E940307DF91CF911F910F91FF90EF9078
:100EA0000895CF93DF93EC0160E00E94030780E593
:100EB0008EBD0DB407FEFDCF8EB583E78EBD0DB49C
:100EC00007FEFDCF8EB5CE0161E00E940307DF91E2
:100ED000CF9108951F93CF93DF93EC01162F60E01D
:100EE0000E9403071EBD0DB407FEFDCF1EB5CE0147
:100EF00061E00E940307812FDF91CF911F91089538
:100F00006FEF0E946A07089561EE0E946A070895D4
:100F100062EE0E946A070895EF92FF920F931F936B
:100F2000CF93DF93EC01F62EE72E9B81142F9417BD
:100F300008F4192F8C81882311F000E002C0092FDA
:100F4000011BCE0160E00E94030781E68EBD0DB457
:100F500007FEFDCF8F2D9E2D9C01F901FEB49FEF62
:100F600007C09EBD0DB407FEFDCF8EB58193115015
:100F70001123B9F707C08EBD0DB407FEFDCF9EB596
:100F8000015001C08FEF0023B1F7CE0161E00E9454
:100F900003078F2DDF91CF911F910F91FF90EF905D
:100FA0000895DF92EF92FF920F931F93CF93DF93F9
:100FB000EC01E62ED72EF22E9B81142F941708F405
:100FC000192F8C81882311F000E002C0092F011B2A
:100FD000CE0160E00E940307FEBC0DB407FEFDCF0A
:100FE0008E2D9D2D9C01F901FEB408C080818EBD1F
:100FF0000DB407FEFDCF31968EB511501123B1F718
:1010000006C01EBC0DB407FEFDCF8EB501500023F7
:10101000C1F7CE0161E00E9403078F2DDF91CF91D0
:101020001F910F91FF90EF90DF9008950F93CF9352
:10103000DF93EC01222311F420EA01C020EBCE0162
:101040000E94D107002321F0CE0161E00E94FA0640
:10105000DF91CF910F9108950F931F93CF93DF935B
:10106000EC01162F042F60E00E9403071F7110622D
:101070001EBD0DB407FEFDCF1EB50EBD0DB407FE9F
:10108000FDCF8EB5CE0161E00E940307812FDF9175
:10109000CF911F910F910895262F4F702295207F99
:1010A000242B64E0422F0E942C080895662319F037
:1010B00061E04FE302C061E040E00E942C08089527
:1010C0000F931F938C010E948C07C80167E040E7D3
:1010D0000E942C081F910F9108950F93CF93DF93D7
:1010E000EC0101E00E941608CE010E948007807387
:1010F000D9F3CE0160E00E94FA06CE0167E040E736
:101100000E942C0884FD02C081E004C0CE010E9430
:10111000840780E0DF91CF910F91089520E00E9435
:101120006D080895462F603808F04FE765E00E948B
:101130002C080895EF92FF920F931F93CF93DF93A4
:101140007C01162FEA01022F60E00E9403071F7145
:1011500010621EBD0DB407FEFDCF1EB508C088810C
:101160008EBD0DB407FEFDCF21968EB50150002334
:10117000B1F7C70161E00E940307812FDF91CF9192
:101180001F910F91FF90EF900895EF92FF920F93B0
:101190001F93DF93CF93CDB7DEB728970FB6F894A0
:1011A000DEBF0FBECDBF7C0109831A832B833C8336
:1011B0004D835E836F8378878E010F5F1F4F6AE0D8
:1011C000A801F70122850E949A08C70160E1A801E1
:1011D000F70122850E949A08C70161E1F701438166
:1011E0000E942C0828960FB6F894DEBF0FBECDBF24
:1011F000CF91DF911F910F91FF90EF9008951F9372
:10120000CF93DF93EC01162F60E00E9403071F715C
:101210001EBD0DB407FEFDCF8EB58FEF8EBD0DB494
:1012200007FEFDCF1EB5CE0161E00E940307812FAE
:10123000DF91CF911F910895EF92FF921F937C0150
:1012400060E00E94FF08182FC70161E00E94FF08BC
:101250001C7013FD05C0882319F420E030E007C09E
:1012600012FD03C021E030E002C022E030E0C901FD
:101270001F91FF90EF90089566E00E94FF0888722A
:10128000803219F422E030E006C020E030E08830FF
:1012900011F421E030E0C9010895FF920F931F93EC
:1012A000CF93DF93EC018B0166E00E94FF08F7ED1E
:1012B000FF2EF82285E590E0A0E0B0E08B879C87C8
:1012C000AD87BE870230110539F480E2F82A8BE938
:1012D00090E0A0E0B0E009C00130110551F488E0D1
:1012E000F82A81E490E0A0E0B0E08B879C87AD878E
:1012F000BE87CE0166E04F2D0E942C08CE0166E02D
:101300000E94FF0890E08F1509F491E0892FDF918A
:10131000CF911F910F91FF90089566E00E94FF0802
:1013200090E0867090709595879508950F931F9320
:101330008C016DE10E94FF08482F4660C8016DE1F5
:101340000E942C08C8016CE10E94FF08482F4360EE
:10135000C8016CE10E942C0881E0F80184831F9190
:101360000F910895FF920F931F938C01F62E62E068
:101370000E94FF08E8E6F0E0EF0DF11DE49141E086
:1013800050E002C0440F551FEA95E2F7409548230C
:10139000C80162E00E942C081F910F91FF900895F0
:1013A000BF92CF92DF92EF92FF920F931F93DF9342
:1013B000CF93CDB7DEB728970FB6F894DEBF0FBE38
:1013C000CDBF6C01B62EE982FA820B831C832D837C
:1013D0003E834F835887662369F49C012B5F3F4F00
:1013E000FC014285C901BE016F5F7F4F50E00E9442
:1013F000780107C0F6E0F61708F43EC081E06817F0
:1014000069F4EB2DF0E0E259FF4FE491C6016E2F35
:10141000AE014F5F5F4FF60122850BC0E62FF0E073
:10142000E259FF4FE491C6016E2FAE014F5F5F4F4F
:1014300021E00E949A080B2D10E0F801EC58FF4FB4
:10144000E491C6016E2FF60143810E942C08C6016B
:1014500062E00E94FF0808591F4FF801649121E0E3
:1014600030E002C0220F331F6A95E2F7482F422B6B
:10147000C60162E00E942C0828960FB6F894DEBFE1
:101480000FBECDBFCF91DF911F910F91FF90EF90D5
:10149000DF90CF90BF9008950F931F93CF93DF936A
:1014A000EC018B0167E10E94FF0880FF02C080E031
:1014B0000DC00115110549F0CE010E94800790E092
:1014C000959587958770F801808381E0DF91CF91B2
:1014D0001F910F91089560E070E00E944C0A0895FA
:1014E000CF93DF93EC0160E00E94FF0881FD10C004
:1014F000CE0160E00E94FF08482F4260CE0160E00C
:101500000E942C0865E070E080E090E00E94DE0D13
:10151000DF91CF910895CF93DF93EC0160E00E94BB
:10152000FA068B859C850E94370ECE016DE10E94E4
:10153000FF0881FF07C08B859C850E94370ECE0176
:101540000E948407CE0160E00E94FF08482F4E7F72
:10155000CE0160E00E942C08CE0162E00E94FF08EC
:10156000E8E6F0E0E49121E030E002C0220F331F12
:10157000EA95E2F7482F422BCE0162E00E942C0848
:10158000DF91CF910895CF93DF93EC010E94700A11
:10159000CE0160E00E94FF08482F4160CE0160E06C
:1015A0000E942C08CE0167E040E70E942C08CE0183
:1015B00061E00E94FA068D81882349F0AE014B5FFD
:1015C0005F4FCE016AE02A850E949A0804C0CE01CE
:1015D00060E00E94B209CE016DE10E94FF0881FF28
:1015E00003C0CE010E948407DF91CF910895CF926E
:1015F000DF92FF920F931F93CF93DF936C01EB0168
:10160000042FF22ECB010E946F01089710F027E003
:1016100001C029E000D000D000D0EDB7FEB7319670
:1016200087E591E0ADB7BEB712969C938E93119764
:10163000D383C283822F992787FD909595838483D6
:101640000E94E201EDB7FEB736960FB6F894FEBFE2
:101650000FBEEDBFCFE4D1E01BC0102F1F5FC6014E
:10166000602F0E94FF0800D000D0EDB7FEB7319682
:10167000ADB7BEB71296DC93CE93119782831382D7
:101680000E94E201FA94012F0F900F900F900F909B
:10169000FF2019F700D08CE491E0EDB7FEB79283FC
:1016A00081830E94E2010F900F90DF91CF911F91F3
:1016B0000F91FF90DF90CF900895CF93DF93EC01CF
:1016C00098818981981721F0892F61E00E947C0E12
:1016D00099818881891721F0892F61E00E947C0E11
:1016E0000E947F0DCE0160E00E94FA06CE0161E00B
:1016F0000E94030765E070E080E090E00E94DE0D4C
:10170000CE0160E04CE00E942C08CE0165E04FE085
:101710000E944C08CE0162E070E00E944D098823CF
:1017200011F081E08A83CE0160E070E00E944D09F3
:10173000CE010E945107CE016DE140E00E942C08CD
:10174000CE016CE140E00E942C08CE0167E040E74A
:101750000E942C08CE016CE40E949208CE010E94E7
:101760008807CE010E948407CE010E94700ACE0134
:1017700060E00E94FF08482F4E7FCE0160E00E948B
:101780002C08DF91CF910895EF92FF920F931F9352
:10179000CF93DF937C01162FEA01022F60E00E94B5
:1017A00003071F711EBD0DB407FEFDCF1EB59FEFD1
:1017B00007C09EBD0DB407FEFDCF8EB589930150C5
:1017C0000023B9F7C70161E00E940307812FDF9171
:1017D000CF911F910F91FF90EF9008952F923F921C
:1017E0004F925F926F927F928F929F92AF92BF9231
:1017F000CF92DF92EF92FF920F931F93DF93CF93DD
:10180000CDB7DEB75C018B01C42ED22E6DB67EB68D
:10181000CB010E946F01089710F027E001C029E07A
:1018200000D000D000D0EDB7FEB7319684E491E04F
:10183000ADB7BEB712969C938E9311971383028314
:10184000822F992787FD9095958384830E94E201DA
:10185000EDB7FEB736960FB6F894FEBF0FBEEDBFDC
:1018600040E4242E41E0342E3BE3432E31E0532E5E
:101870004CC09DB68EB6D5011A960C9110E0EDB70E
:10188000FEB7E01BF10B0FB6F894FEBF0FBEEDBF25
:10189000EDB6FEB60894E11CF11C202FC5016C2D9D
:1018A000A7010E94C40B00D0ADB7BEB712963C9200
:1018B0002E9211970E94E2010E0D1F1D0F900F90A6
:1018C00015C000D000D0EDB7FEB73196ADB7BEB7AA
:1018D00012965C924E921197D8018C91828313825A
:1018E0000E94E2010F900F900F900F900150104056
:1018F0000E151F0530F7C394892D982D9C010FB646
:10190000F8943EBF0FBE2DBFDA94DD2009F0B1CFB1
:1019100000D088E391E0EDB7FEB7928381830E9407
:10192000E2010F900F900FB6F8947EBE0FBE6DBE11
:10193000CF91DF911F910F91FF90EF90DF90CF90AB
:10194000BF90AF909F908F907F906F905F904F90DF
:101950003F902F9008950F931F938C010E94800752
:10196000682FC8010E94B006C8016BE271E04AE02E
:1019700022E00E94EE0BC8016EE171E04CE024E031
:101980000E94F70AC80166E171E040E121E00E948F
:10199000EE0BC8016BE071E041E126E00E94F70A1E
:1019A000C80165E071E041E021E00E94F70AC8014A
:1019B0006BEF70E042E021E00E94F70AC80165EF9A
:1019C00070E045E021E00E94F70AC8016CEE70E08B
:1019D00046E021E00E94F70AC80165EE70E040E0B1
:1019E00021E00E94F70AC80167ED70E04CE122E0B7
:1019F0000E94F70AC8010E943C09FC01EE0FFF1F7C
:101A0000E658FF4F2591349100D000D085EC90E04E
:101A1000EDB7FEB792838183348323830E94E20172
:101A2000F8018281E82FF0E0EE0FFF1FE058FF4F32
:101A30002591349186EB90E0EDB7FEB792838183D8
:101A4000348323830E94E2010F900F900F900F9038
:101A5000C8010E941C09FC01EE0FFF1FEC57FF4F4D
:101A60002591349100D000D083EA90E0EDB7FEB725
:101A700092838183348323830E94E2010F900F902D
:101A80000F900F90C8010E948D09E82FF0E0EE0F33
:101A9000FF1FE657FF4F2591349100D000D082E917
:101AA00090E0EDB7FEB792838183348323830E9455
:101AB000E2010F900F900F900F901F910F910895DA
:101AC000882319F48CB5806202C08CB58F7D8CBDE3
:101AD00008959CB5937F982B9CBD08952CB5382F05
:101AE00033702C7F322B3CBD2DB590E095958795BA
:101AF0009595879581702E7F822B8DBD08958AE004
:101B000061E00E94BB0E8AE061E00E947C0E8CB511
:101B100080618CBD8CB580648CBD8DE061E00E94DD
:101B20007C0E8BE061E00E947C0E08951F920F9264
:101B30000FB60F9211242F933F938F939F93AF93E0
:101B4000BF9380913D0290913E02A0913F02B091DF
:101B50004002309141020196A11DB11D232F2D5F3E
:101B60002D3720F02D570196A11DB11D2093410264
:101B700080933D0290933E02A0933F02B0934002B7
:101B80008091390290913A02A0913B02B0913C02BF
:101B90000196A11DB11D8093390290933A02A09342
:101BA0003B02B0933C02BF91AF919F918F913F91C7
:101BB0002F910F900FBE0F901F9018959B01AC01B5
:101BC0007FB7F8948091390290913A02A0913B023C
:101BD000B0913C0266B5A89B05C06F3F19F0019615
:101BE000A11DB11D7FBFBA2FA92F982F8827860F5F
:101BF000911DA11DB11D62E0880F991FAA1FBB1F77
:101C00006A95D1F7BC012DC0FFB7F89480913902D5
:101C100090913A02A0913B02B0913C02E6B5A89B9C
:101C200005C0EF3F19F00196A11DB11DFFBFBA2FEE
:101C3000A92F982F88278E0F911DA11DB11DE2E0BD
:101C4000880F991FAA1FBB1FEA95D1F7861B970B18
:101C5000885E9340C8F22150304040405040685167
:101C60007C4F211531054105510571F60895019705
:101C700039F0880F991F880F991F02970197F1F784
:101C80000895789484B5826084BD84B5816084BDF4
:101C900085B5826085BD85B5816085BDEEE6F0E0E5
:101CA000808181608083E1E8F0E010828081826041
:101CB0008083808181608083E0E8F0E080818160C2
:101CC0008083E1EBF0E0808184608083E0EBF0E0F2
:101CD000808181608083EAE7F0E080818460808396
:101CE0008081826080838081816080838081806840
:101CF00080831092C1000895CF93DF93482F50E066
:101D0000CA01835A9D4FFC013491475B5D4FFA0134
:101D10008491882369F190E0880F991FFC01E55DAB
:101D2000FD4FA591B491FC01EB5CFD4FC591D491A1
:101D3000662351F42FB7F8948C91932F90958923B3
:101D40008C93888189230BC0623061F42FB7F8949B
:101D50008C91932F909589238C938881832B8883F2
:101D60002FBF06C09FB7F8948C91832B8C939FBF95
:101D7000DF91CF910895482F50E0CA018F589D4FB1
:101D8000FC012491CA01835A9D4FFC019491475B49
:101D90005D4FFA013491332309F440C0222351F1FD
:101DA000233071F0243028F42130A1F0223011F5D5
:101DB00014C02630B1F02730C1F02430D9F404C06B
:101DC000809180008F7703C0809180008F7D809309
:101DD000800010C084B58F7702C084B58F7D84BD2C
:101DE00009C08091B0008F7703C08091B0008F7DD3
:101DF0008093B000E32FF0E0EE0FFF1FEB5CFD4F90
:101E0000A591B4912FB7F894662321F48C91909505
:101E1000892302C08C91892B8C932FBF089508953C
:101E20001F920F920FB60F9211242F933F934F934F
:101E30008F939F93EF93FF938091C00082FD1DC00D
:101E40004091C60020918202309183022F5F3F4F64
:101E50002F73307080918402909185022817390782
:101E600071F0E0918202F0918302EE5BFD4F4083BE
:101E7000309383022093820202C08091C600FF91BA
:101E8000EF919F918F914F913F912F910F900FBEA6
:101E90000F901F901895E091D602F091D702E05C68
:101EA000FF4F8191919120813181821B930B8F7320
:101EB0009070892B11F00E940F0F08951F920F92BE
:101EC0000FB60F9211242F933F938F939F93EF930D
:101ED000FF932091C6023091C7028091C802909171
:101EE000C9022817390731F48091C1008F7D809392
:101EF000C10014C0E091C802F091C902EA57FD4F39
:101F000020818091C8029091C90201968F739070D0
:101F10009093C9028093C8022093C600FF91EF916D
:101F20009F918F913F912F910F900FBE0F901F9017
:101F30001895AF92BF92DF92EF92FF920F931F938B
:101F4000CF93DF93EC017A018B01DD24403081EEE9
:101F5000580780E0680780E0780711F0DD24D3940B
:101F600091E0A92EB12CEC89FD89DD2069F0C50135
:101F700008A002C0880F991F0A94E2F7808360E0EE
:101F800079E08DE390E005C0108260E874E88EE1AE
:101F900090E0A80197010E949112215030404040EA
:101FA0005040569547953795279580E12030380762
:101FB00020F0DD2011F0DD24D6CFE889F9893083C7
:101FC000EA89FB89208319A2EE89FF89408121E0FB
:101FD00030E0C9010C8C02C0880F991F0A94E2F707
:101FE000482B4083EE89FF894081C9010D8C02C0D6
:101FF000880F991F0A94E2F7482B4083EE89FF89E6
:102000004081C9010E8C02C0880F991F0A94E2F723
:10201000482B4083EE89FF8980810F8C02C0220FFC
:10202000331F0A94E2F7209528232083DF91CF9174
:102030001F910F91FF90EF90DF90BF90AF900895A8
:10204000DC011C96ED91FC911D97E05CFF4F219106
:10205000319180819181281B390B2F733070C90118
:102060000895DC011C96ED91FC911D97E05CFF4FFB
:1020700020813181E054F040DF01AE5BBF4F8D9194
:102080009C9111972817390719F42FEF3FEF07C0DC
:102090008D919C91E80FF91F8081282F30E0C901B4
:1020A0000895DC011C96ED91FC911D97E05CFF4FBB
:1020B00020813181E054F040DF01AE5BBF4F8D9154
:1020C0009C9111972817390719F42FEF3FEF10C093
:1020D0008D919C911197E80FF91F20818D919C9112
:1020E000119701968F73907011969C938E9330E0A8
:1020F000C9010895DC0191968C919197882339F05C
:102100005496ED91FC915597808186FFF9CF919679
:102110001C920895CF93DF93EC01EE85FF85E05C80
:10212000FF4F20813181E054F0402F5F3F4F2F73EC
:102130003070DF01AE5BBF4F8D919C9111972817D6
:102140003907D1F3E05CFF4F80819181E054F0408A
:10215000E80FF91F6083EE85FF85E05CFF4F318358
:102160002083EE89FF89208181E090E00F8C02C0FE
:10217000880F991F0A94E2F7282B208381E089A316
:10218000EC89FD8980818064808381E090E0DF912B
:10219000CF9108951092CD021092CC0288EE93E078
:1021A000A0E0B0E08093CE029093CF02A093D00243
:1021B000B093D10288E092E09093CB028093CA0260
:1021C00082E492E09093D7028093D60286E892E070
:1021D0009093D9028093D80285EC90E09093DB0233
:1021E0008093DA0284EC90E09093DD028093DC022D
:1021F00080EC90E09093DF028093DE0281EC90E02F
:102200009093E1028093E00282EC90E09093E302ED
:102210008093E20286EC90E09093E5028093E402E2
:1022200084E08093E60283E08093E70287E0809376
:10223000E80285E08093E90281E08093EA02089554
:10224000CF93DF930E94410E0E94D104CBE4DFE0E4
:102250000E94A8042097E1F30E944B0FF9CF0E943F
:102260005C110895CF92DF92EF92FF920F931F932C
:10227000CF93DF937C016B018A01C0E0D0E00FC0F7
:10228000D6016D916D01D701ED91FC910190F08126
:10229000E02DC7010995C80FD91F01501040011545
:1022A000110571F7CE01DF91CF911F910F91FF9032
:1022B000EF90DF90CF9008950F931F93CF93DF930C
:1022C000BC018230910510F462E070E0E091EE0212
:1022D000F091EF02A0E0B0E040E050E024C0808147
:1022E000918186179707D0F08617970771F482813E
:1022F0009381109729F013969C938E9312972CC07C
:102300009093EF028093EE0227C04115510519F01A
:102310008417950718F4EF018D01AC01DF0182816C
:1023200093819C01F9013097D1F641155105F9F0DF
:10233000CA01861B970B8430910580F48A819B81AA
:102340000115110521F0F8019383828304C0909355
:10235000EF028093EE02FE01329645C0FE01E80FC7
:10236000F91F619371930297998388833CC0809190
:10237000EC029091ED02892B41F480910002909142
:1023800001029093ED028093EC0240910202509181
:1023900003024115510541F44DB75EB78091FE012E
:1023A0009091FF01481B590B2091EC023091ED02F6
:1023B00024173507B0F4CA01821B930B86179707C1
:1023C00080F0AB014E5F5F4F8417950750F0420FCE
:1023D000531F5093ED024093EC02F9016193719306
:1023E00002C0E0E0F0E0CF01DF91CF911F910F91AB
:1023F0000895CF93DF939C01009709F48FC0EC01FF
:1024000022971B821A826091EE027091EF02611591
:10241000710581F488819981820F931F2091EC02CC
:102420003091ED022817390739F5D093ED02C093AA
:10243000EC0274C0DB0140E050E0AC17BD0708F1CE
:10244000BB83AA83FE0121913191E20FF31FAE17E6
:10245000BF0779F48D919C911197280F391F2E5F3A
:102460003F4F3983288312968D919C9113979B83BC
:102470008A834115510571F4D093EF02C093EE02A7
:102480004DC012968D919C911397AD01009711F05C
:10249000DC01D3CFDA011396DC93CE931297FA01C5
:1024A00021913191E20FF31FCE17DF0769F4888184
:1024B0009981280F391F2E5F3F4FFA013183208306
:1024C0008A819B8193838283E0E0F0E0DB011296B6
:1024D0008D919C911397009719F0BC01FD01F6CFE7
:1024E000AB014E5F5F4FDB018D919C91840F951F77
:1024F0002091EC023091ED022817390779F43097DA
:1025000029F41092EF021092EE0202C0138212829E
:10251000425050405093ED024093EC02DF91CF9136
:102520000895A1E21A2EAA1BBB1BFD010DC0AA1F14
:10253000BB1FEE1FFF1FA217B307E407F50720F02C
:10254000A21BB30BE40BF50B661F771F881F991FA7
:102550001A9469F760957095809590959B01AC01F0
:10256000BD01CF010895EE0FFF1F0590F491E02DFE
:1025700009942F923F924F925F926F927F928F9227
:102580009F92AF92BF92CF92DF92EF92FF920F9302
:102590001F93CF93DF93CDB7DEB7CA1BDB0B0FB60C
:1025A000F894DEBF0FBECDBF09942A8839884888C9
:1025B0005F846E847D848C849B84AA84B984C8845F
:1025C000DF80EE80FD800C811B81AA81B981CE0F56
:1025D000D11D0FB6F894DEBF0FBECDBFED0108953B
:0425E000F894FFCF9D
:1025E40052414E474520544553543A202564200A0D
:1025F4000D005061636B657420726563656976656F
:102604006420636F756E7465723A005061636B6524
:1026140074206D697373656420726563656976659A
:1026240064207175657269657320636F756E746576
:10263400723A00736F6D657468696E67002D2D2D95
:102644002D2D2D2D2D2D2D2D2D2D2D2D2D2D2D2DB6
:102654002D2D2D2D2D2D2D0A0D004E6F77207365F8
:102664006E64696E67202564206173207061796CE3
:102674006F61642E200077726974652074696D65DA
:102684006F75742E0A0D004E6F7468696E67207240
:10269400656365697665640A0D00476F7420726529
:1026A40073706F6E73652025730A0D004E6F20647E
:1026B4006174612072656365697665640A0D00471B
:1026C4006F7420646174612025642066726F6D20CC
:1026D40070697065202564200A0D004F4B0080004E
:1026E400F6020000000000008A1032112010511080
:0426F40031107A1017
:00000001FF
