:100000000C9465000C9485090C94B2090C948D0035
:100010000C948D000C948D000C948D000C948D002C
:100020000C948D000C948D000C948D000C948D001C
:100030000C948D000C948D000C948D000C948D000C
:100040000C94DF090C948D000C94670B0C94B50B89
:100050000C948D000C948D000C948D000C948D00EC
:100060000C948D000C948D000000000024002700EB
:100070002A0000000000250028002B0000000000DE
:1000800023002600290004040404040404040202DA
:100090000202020203030303030301020408102007
:1000A0004080010204081020010204081020000012
:1000B0000007000201000003040600000000000029
:1000C0000000E6001205210D0B0511241FBECFEF25
:1000D000D8E0DEBFCDBF12E0A0E0B1E0E8EDF7E28E
:1000E00002C005900D92AE36B107D9F713E0AEE627
:1000F000B2E001C01D92A83CB107E1F710E0C8ECE6
:10010000D0E004C02297FE010E94C713C23CD10771
:10011000C9F70E94770D0C94DF130C940000FB01CB
:10012000DC0102C001900D9241505040D8F7089573
:10013000FB01DC0101900D920020E1F70895FB0125
:100140009F01E8944230C4F04532B4F44A3029F4B7
:1001500097FB1EF4909581959F4F642F77270E94FF
:10016000CB13805D8A330CF0895D8193CB010097BE
:10017000A1F716F45DE251931082C9010C94D600E8
:10018000FB019F01423074F0453264F4642F7727FD
:100190000E94CB13805D8A330CF0895D8193CB0183
:1001A0000097A1F71082C9010C94D600DC01FC0174
:1001B000672F71917723E1F7329704C07C916D939B
:1001C00070836291AE17BF07C8F30895CF92EF9284
:1001D0000F9386E792E06CE04BE02AE009E058E0FC
:1001E000E52E37E0C32E0E94B1040F91EF90CF901F
:1001F0000895CF92DF92EF92FF920F931F938C019D
:100200006B0166E7E62E62E0F62EC7010E94F3035B
:10021000C7010E94EB03C701B8010E94570FC70135
:1002200060E041E00E94BC03C701B6010E94570F85
:100230001F910F91FF90EF90DF90CF9008950F9353
:100240001F9382EA93E040E855E260E070E00E948C
:10025000F00B8091440261E00E94D30A86E792E0AD
:1002600060E142E020E00E94FB0381E090E00E9418
:10027000860D182F092F6091430270E041E00E9423
:10028000DC0710936E0200936F021F910F91089587
:100290008F929F92AF92BF92CF92DF92EF92FF9296
:1002A0000F931F93DF93CF93CDB7DEB727970FB68A
:1002B000F894DEBF0FBECDBFB82EA92E162F072F84
:1002C0004A0160E071E00E949F10212F302FC90188
:1002D0007C0100E010E06E010894C11CD11C26C016
:1002E000F7018081803130F48B2D9A2D61E071E02F
:1002F0000E944310C601F701608140E10E94031192
:100300008B2D9A2DB6010E945310C6010E946211D6
:100310000430110534F48B2D9A2D63E071E00E94B6
:1003200043100F5F1F4F0894E11CF11C08151905BD
:10033000BCF28B2D9A2D27960FB6F894DEBF0FBE18
:10034000CDBFCF91DF911F910F91FF90EF90DF9084
:10035000CF90BF90AF909F908F900895CF92DF92F3
:10036000EF92FF920F931F93DF93CF93CDB7DEB73A
:10037000C455D0400FB6F894DEBF0FBECDBF8091FC
:100380006E0290916F020E94A3060AC086E792E077
:100390000E94EB0386E792E065E071E00E94410F66
:1003A00080916E0290916F020E941A07882371F368
:1003B0008091440261E00E94120B80916E02909144
:1003C0006F020E94A3066E010894C11CD11CC601D5
:1003D00065E171E00E949F108E01085F1F4FC80108
:1003E000B6010E94571180916E0290916F020E9497
:1003F000EA04BC01C8010E946D10BC01C6010E9444
:100400003511C8010E946811AFE0EA2EF12CEC0E04
:10041000FD1EC70162E271E00E949F108E010A5E1C
:100420001F4FC801B6010E944C11C701B8010E94BC
:10043000F900C8010E946211C7010E94621168EEB2
:1004400073E080E090E00E94350A80916E02909106
:100450006F0260E772E00E947D07182F80916E02A4
:1004600090916F020E94A306112391F18E01035E09
:100470001F4FC80160E772E046E050E00E9448016B
:10048000C601B8010E943511C8010E946211F4E250
:10049000EF2EF12CEC0EFD1EC7016EE271E00E9402
:1004A0009F108E01055D1F4FC801B6010E944C11BF
:1004B000C701B8010E94F900C8010E946211C7017A
:1004C0000E94621182EA93E0B6010E948A0F1CC06A
:1004D000E2E3EE2EF12CEC0EFD1EC7016EE371E09F
:1004E0000E949F108E01075C1F4FC8016BE471E0F2
:1004F0000E949F10C701B8010E94F900C8010E9424
:100500006211C7010E94621180916E0290916F0288
:100510000E94A30680916E0290916F0260E772E0E4
:100520000E947D0780916E0290916F020E94A30647
:100530008E01005C1F4FC80160E772E046E050E0AA
:100540000E9448016E010894C11CD11CC601B8016B
:100550000E943511C8010E94621177E4E72EF12C48
:10056000EC0EFD1EC70169E571E00E949F108E012F
:10057000025B1F4FC801B6010E944C11C701B801B0
:100580000E94F900C8010E946211C7010E94621115
:1005900081E08093700210927102809373028093C5
:1005A000740280916E0290916F0260E772E00E9487
:1005B000EE0560E47DE083E090E00E94350AC6012C
:1005C0000E946211CC5ADF4F0FB6F894DEBF0FBE07
:1005D000CDBFCF91DF911F910F91FF90EF90DF90F2
:1005E000CF9008950F931F938C01FC01868160E0EA
:1005F0000E94120B81E090E00E948E0AF801868131
:1006000061E00E94120B81E090E00E948E0AF801E6
:10061000868160E00E94120B84E690E00E948E0AC0
:100620001F910F910895CF92DF92EF92FF920F9357
:100630001F93CF93DF93D82EC92E282F392FC901AE
:100640008C01C0E0D0E0E62EFF24F801878161E054
:100650000E94D30AB7010C2E02C0759567950A94C3
:10066000E2F76170F80187810E94120B21960F5FFB
:100670001F4FC830D10549F78D2D9C2D0E94F202E5
:10068000DF91CF911F910F91FF90EF90DF90CF906E
:100690000895CF92DF92EF92FF920F931F93CF9323
:1006A000DF93D82EC92E282F392FC9018C01C0E025
:1006B000D0E0E62EFF24F801878161E00E94D30A92
:1006C000B7010C2E02C0759567950A94E2F7617028
:1006D000F80187810E94120B21960F5F1F4FC430D3
:1006E000D10549F78D2D9C2D0E94F202DF91CF910B
:1006F0001F910F91FF90EF90DF90CF9008951F937F
:10070000CF93DF93EC01162F8C81642F0E94120B84
:100710008D818F3F19F060E00E94120B8F8584FF5E
:1007200005C0CE01612F0E9413030EC0612F70E03F
:1007300084E0759567958A95E1F7CE010E9449039B
:10074000CE01612F0E944903DF91CF911F9108953F
:1007500041E00E947F0381E090E0089540E00E9424
:100760007F030895FC016089862F8460808B6C6014
:10077000CF010E94AE030895DF93CF93CDB7DEB7CC
:1007800028970FB6F894DEBF0FBECDBF9C01FE01C7
:100790003196A5E5B2E088E00D9001928150E1F735
:1007A000F9018389481710F0482F4150E42FF0E0F9
:1007B000EE0FFF1FEC0FFD1F8181680F6068C901FC
:1007C0000E94AE0328960FB6F894DEBF0FBECDBFD1
:1007D000CF91DF91089562E00E94AE0380ED97E033
:1007E0000E948E0A089561E00E94AE0380ED97E0BA
:1007F0000E948E0A0895CF93DF93EC01423018F0E7
:100800008F8588608F874B8B1C8A222329F041308B
:1008100019F48F8584608F8780E593EC0E948E0A9F
:100820008C8160E00E94120B8E8160E00E94120BAE
:100830008D818F3F19F060E00E94120B6F8564FD7F
:100840001DC0CE0163E00E94490384E991E10E944A
:100850008E0ACE0163E00E94490384E991E10E947F
:100860008E0ACE0163E00E94490386E990E00E946F
:100870008E0ACE0162E00E94490316C06062CE017A
:100880000E94AE0384E991E10E948E0A6F85606246
:10089000CE010E94AE0386E990E00E948E0A6F8529
:1008A0006062CE010E94AE036F856062CE010E943D
:1008B000AE0384E0888BCE010E94B203CE010E9479
:1008C000F30382E0898BCE0166E00E94AE03DF91E4
:1008D000CF9108956F927F928F92AF92CF92EF92C5
:1008E0000F931F93DF93CF93CDB7DEB73C01162F45
:1008F000842FF301448325830683E782C086A18683
:1009000082869D8593879E8594879F859587988904
:10091000968761E00E94D30AF30185818F3F19F029
:1009200061E00E94D30AF301868161E00E94D30A4C
:10093000112319F0F301178603C080E1F3018787C3
:10094000C30160E141E020E00E94FB03CF91DF9111
:100950001F910F91EF90CF90AF908F907F906F90FD
:1009600008958F92AF92CF92EF920F931F93CF93F0
:10097000DF93DC01362F542F722F102FAE2C8C2CCE
:1009800013961C921E92129781E592E011969C9309
:100990008E9300D000D0EDB7FEB73196CDB7DEB75D
:1009A0001982118212821382CD0161E0432F2FEF51
:1009B000052FE72EC12E0E946A040F900F900F9012
:1009C0000F90DF91CF911F910F91EF90CF90AF904B
:1009D0008F9008952091F4023091F502C901089595
:1009E0008130910571F46F5F7F4FA1F483ED92E048
:1009F0000E941F0886E093E068E671E00E949F1065
:100A00000895892B39F46F5F7F4F21F486E093E0DE
:100A10000E946211089580E090E06FEF7FEF0E94E6
:100A2000F004089581E090E06FEF7FEF0E94F00402
:100A30000895FF920F931F93F62E03ED12E0C80165
:100A400062E00E94E9088FEF8093D302F092D40213
:100A5000C80160E070E00E941709C80167E00E94C9
:100A6000FE081F910F91FF900895EF92FF920F9350
:100A70001F93DF93CF93CDB7DEB727970FB6F894C8
:100A8000DEBF0FBECDBF83ED92E00E947D088823BC
:100A900009F483C083ED92E060E070E00E943A08C0
:100AA0009091DF028091F602981741F48091D30271
:100AB00090E09093F5028093F4026FC09091DF0272
:100AC00080914602981709F068C08091D302E82E01
:100AD000FF248FEFE816F104B1F1809102039091A9
:100AE000030301969093030380930203D701AA0F97
:100AF000BB1FAE0DBF1DAA0FBB1FA155BD4F20E0F0
:100B000030E02F5F3F4FF901ED52FD4F80818D9313
:100B100026303105B1F78E010F5F1F4FC801B701B5
:100B20004AE00E94D21086E093E0B8010E94531080
:100B3000ECEFF2E0EE0EFF1E81E0F7018083C801CA
:100B40000E9462112AC080910403909105030196CE
:100B500090930503809304031091D40283ED92E0F7
:100B600067E00E94E9081093D30286E0189FD00145
:100B70001124A557BD4F20E030E02F5F3F4F8D91EE
:100B8000F901ED52FD4F808326303105B1F783ED39
:100B900092E060E070E00E94170983ED92E067E068
:100BA0000E94FE0827960FB6F894DEBF0FBECDBF99
:100BB000CF91DF911F910F91FF90EF900895809159
:100BC000DF0290E08617970741F06093DF026AEF3B
:100BD00070E080E090E00E94350A08950F931F9323
:100BE000CF93DF93162F072F83ED92E067E00E94EB
:100BF000E9084091F8025091F9024093D302212F65
:100C0000302FC901EC01DA01AA0FBB1FA40FB51FD9
:100C1000AA0FBB1FA557BD4F20E030E088818D9300
:100C20002F5F3F4F8991F901ED52FD4F80832630B0
:100C30003105A1F74F5F5F4F5093F9024093F802DF
:100C400082EA93E062E771E00E94410F6091D30273
:100C500082EA93E04AE050E00E94B10E83ED92E018
:100C600060E070E00E94170983ED92E067E00E9467
:100C7000FE08DF91CF911F910F910895CF93DF93DD
:100C800082EA93E063E871E00E94410FC0E0D0E0A7
:100C9000FE01E450FD4F608182EA93E070E04AE09B
:100CA00050E00E940F0F82EA93E060E20E94B30DD1
:100CB0002196C630D10561F782EA93E060E20E9496
:100CC000DB0DDF91CF910895CF93DF9382EA93E01C
:100CD0006DE871E00E94410FCBE8D2E082EA93E038
:100CE00069914AE050E00E949F0E82EA93E060E240
:100CF0000E94B30D82E0CF3AD80781F782EA93E0F1
:100D000060E20E94DB0D82EA93E068E971E00E94F4
:100D1000410FCFEAD2E082EA93E069914AE050E0E5
:100D20000E949F0E82EA93E060E20E94B30D82E08F
:100D3000C33DD80781F782EA93E060E20E94DB0DB1
:100D4000DF91CF910895CF92DF92EF92FF920F93B0
:100D50001F936C0102EA13E0C80163EA71E00E948C
:100D6000440FC8016EEB71E00E94410F6091DF02F9
:100D7000C8014AE050E00E94B10EC8016DEC71E07C
:100D80000E94410F6091E102C8014AE050E00E94D8
:100D9000B10EC80169ED71E00E94410FECEDEE2E3D
:100DA000E2E0FE2EF70160817181C8014AE050E067
:100DB0000E94820EC80168EE71E00E94410FF701A7
:100DC000329760817181C8014AE050E00E94820E32
:100DD000C80168EF71E00E94410F609102037091B9
:100DE0000303C8014AE050E00E94220FC80161E1FC
:100DF00072E00E94410F6091040370910503C801E5
:100E00004AE050E00E94220FC6010E9464060E9440
:100E10003E06C80166E073E00E948A0FC80168E2DE
:100E200072E00E94440F1F910F91FF90EF90DF90AE
:100E3000CF900895CF93DF93EC019091DF028091E2
:100E400046029817A1F18091F4029091F502892B46
:100E500081F18091F4029091F5029093DB028093EE
:100E6000DA028091F7028823B9F483ED92E061E021
:100E70000E94E9088091F2028093D30283ED92E010
:100E800060E070E00E9417098091F2029091F302F5
:100E90009093DD028093DC0260914602CE0170E007
:100EA0000E94DF0583ED92E067E00E94FE0881E08A
:100EB00021C06091F602CE0170E00E94DF058091B2
:100EC000F702882359F083ED92E061E00E94E9087F
:100ED00083ED92E06091F2020E945B0983ED92E063
:100EE00061E00E94FE0862E370E080E090E00E9412
:100EF000350A80E0DF91CF910895CF92DF92EF9293
:100F0000FF920F931F93CF93DF937C016B010E949D
:100F1000270A8B01EB01A091FA02B091FB02FD01BF
:100F2000E450FD4F80818823A1F4C01BD10BCC5D20
:100F3000D5407CF40E94270AEB01C7016091FA02B8
:100F40000E94190562E370E080E090E00E94350A9B
:100F5000E2CFA450BD4F8C91882329F120E030E0EE
:100F6000D601A20FB31F8091FA029091FB02FC01FF
:100F7000EE0FFF1FE80FF91FEE0FFF1FE20FF31F29
:100F8000E155FD4F80818C932F5F3F4F2630310517
:100F900039F78091FA029091FB0201969093FB023F
:100FA0008093FA0281E0DF91CF911F910F91FF9022
:100FB000EF90DF90CF9008951F93142FEBE8F2E0AD
:100FC000119222E0EF3AF207D9F71092FC02109248
:100FD000FD021092FE021092FF0210920003109286
:100FE00001037093F3026093F2021092DE026091AB
:100FF000F60270E00E94DF0583ED92E061E00E945E
:10100000FE0880E065E375E043E050E00E9462097D
:101010001093F702112349F08091F2029091F302AC
:101020009093DD028093DC0204C01092DD021092E6
:10103000DC021092DB021092DA021F910895FC018B
:101040005298539A549A559A569A10861782128635
:101050001186178681E083878FE6848783E0858702
:1010600016868AEE878B8FED808F84ED818F5B985B
:101070005C9808951F93CF93DF93DC016115710590
:1010800009F4BC015B9880E49FE10197F1F7FB0153
:1010900060E070E0C1E0D0E015E020C0108247E0E1
:1010A00050E04E9B0AC09E01042E02C0220F331F47
:1010B0000A94E2F78081822B8083812F8A95F1F751
:1010C0005D9A812F8A95F1F75D98415050408FEFDE
:1010D0004F3F580731F76F5F7F4F31961F968C91C6
:1010E0001F9790E068177907CCF25B9A85E08A95A4
:1010F000F1F7DF91CF911F91089589B190E0969516
:101100008795969587958170089527E030E070E087
:1011100045E0CB01022E02C0959587950A94E2F72F
:1011200080FD02C05E9801C05E9A842F8A95F1F717
:101130005D9A842F8A95F1F75D98215030408FEFAA
:101140002F3F380731F708950F931F93CF93DF9305
:101150008C015B985C9A8AE18A95F1F7662331F0FD
:10116000F801668DC8010E9485080DC0C0E0D0E07E
:10117000F801EC0FFD1F6089C8010E9485082196C7
:10118000CF30D105A9F75C98DF91CF911F910F91D6
:101190000895FC018785880F880F880F818B8185D2
:1011A0009285928F81859285838F83EA848F95853E
:1011B00083859C648295880F807E892B858F968598
:1011C0008485880F892B868FCF0160E00E94A40858
:1011D0000895FC01569A1686662321F067870E94BF
:1011E000C90807C0868D8E7F868FCF0161E00E947F
:1011F000A40888EE93E00197F1F70895FC01569A50
:1012000081E08687662329F06787CF010E94C9089D
:1012100007C0868D8160868FCF0161E00E94A4089F
:1012200056985B9A88EE93E00197F1F70895EF9254
:10123000FF920F931F93CF93DF93EC017B01611516
:10124000710509F47C015B9A8AE18A95F1F76F894F
:10125000CE010E948508688DCE010E948508698DA7
:10126000CE010E9485082F813885CE01632F0E9410
:1012700085086F817885CE010E94850800E010E026
:1012800009C0F701E00FF11FCE0160810E948508BF
:101290000F5F1F4F8F8590E00817190794F35B9835
:1012A00088EE93E00197F1F7DF91CF911F910F91B5
:1012B000FF90EF900895FC01608360E070E00E9471
:1012C00017090895823000F5E82FF0E0EE0FFF1FB8
:1012D000E35FFC4F71836083882319F08130A1F4B0
:1012E00008C0809169008C7F842B80936900E89A04
:1012F000089580916900440F551F440F551F837F47
:10130000842B80936900E99A08951F920F920FB67B
:101310000F9211242F933F934F935F936F937F937B
:101320008F939F93AF93BF93EF93FF9380910D03A0
:1013300090910E03892B29F0E0910D03F0910E039B
:101340000995FF91EF91BF91AF919F918F917F91FF
:101350006F915F914F913F912F910F900FBE0F9022
:101360001F9018951F920F920FB60F9211242F9372
:101370003F934F935F936F937F938F939F93AF931D
:10138000BF93EF93FF9380910F0390911003892BEC
:1013900029F0E0910F03F09110030995FF91EF916F
:1013A000BF91AF919F918F917F916F915F914F917D
:1013B0003F912F910F900FBE0F901F9018951F9285
:1013C0000F920FB60F9211242F933F938F939F93F9
:1013D000AF93BF938091150390911603A0911703CB
:1013E000B0911803309119030196A11DB11D232F4F
:1013F0002D5F2D3720F02D570196A11DB11D209393
:1014000019038093150390931603A0931703B093C9
:1014100018038091110390911203A0911303B091CE
:1014200014030196A11DB11D809311039093120323
:10143000A0931303B0931403BF91AF919F918F9129
:101440003F912F910F900FBE0F901F9018958FB75F
:10145000F894209115033091160340911703509191
:1014600018038FBFB901CA0108959B01AC017FB772
:10147000F8948091110390911203A0911303B091FD
:10148000140366B5A89B05C06F3F19F00196A11D16
:10149000B11D7FBFBA2FA92F982F8827860F911DC6
:1014A000A11DB11D62E0880F991FAA1FBB1F6A957D
:1014B000D1F7BC012DC0FFB7F89480911103909132
:1014C0001203A0911303B0911403E6B5A89B05C0C5
:1014D000EF3F19F00196A11DB11DFFBFBA2FA92F33
:1014E000982F88278E0F911DA11DB11DE2E0880F56
:1014F000991FAA1FBB1FEA95D1F7861B970B885E21
:101500009340C8F2215030404040504068517C4FD9
:10151000211531054105510571F60895019739F0FE
:10152000880F991F880F991F02970197F1F7089567
:10153000789484B5826084BD84B5816084BD85B5AE
:10154000826085BD85B5816085BDEEE6F0E0808175
:1015500081608083E1E8F0E0108280818260808396
:10156000808181608083E0E8F0E080818160808319
:10157000E1EBF0E0808184608083E0EBF0E080814B
:1015800081608083EAE7F0E08081846080838081ED
:101590008260808380818160808380818068808395
:1015A0001092C1000895CF93DF93482F50E0CA01F5
:1015B00086569F4FFC0134914A575F4FFA01849140
:1015C000882369F190E0880F991FFC01E859FF4FCB
:1015D000A591B491FC01EE58FF4FC591D4916623BB
:1015E00051F42FB7F8948C91932F909589238C9375
:1015F000888189230BC0623061F42FB7F8948C91F5
:10160000932F909589238C938881832B88832FBF78
:1016100006C09FB7F8948C91832B8C939FBFDF916A
:10162000CF910895482F50E0CA0182559F4FFC0189
:101630002491CA0186569F4FFC0194914A575F4FEF
:10164000FA013491332309F440C0222351F12330AD
:1016500071F0243028F42130A1F0223011F514C0AB
:101660002630B1F02730C1F02430D9F404C0809185
:1016700080008F7703C0809180008F7D80938000F1
:1016800010C084B58F7702C084B58F7D84BD09C03A
:101690008091B0008F7703C08091B0008F7D8093E0
:1016A000B000E32FF0E0EE0FFF1FEE58FF4FA591C3
:1016B000B4912FB7F894662321F48C9190958923E7
:1016C00002C08C91892B8C932FBF089508951F928F
:1016D0000F920FB60F9211242F933F934F938F9336
:1016E0009F93EF93FF938091C00082FD1DC04091B6
:1016F000C60020915A0330915B032F5F3F4F2F7339
:10170000307080915C0390915D032817390771F068
:10171000E0915A03F0915B03E65EFC4F4083309307
:101720005B0320935A0302C08091C600FF91EF91A2
:101730009F918F914F913F912F910F900FBE0F90DE
:101740001F901895E091AE03F091AF03E05CFF4F5E
:101750008191919120813181821B930B8F739070C5
:10176000892B11F00E94660B08951F920F920FB6FD
:101770000F9211242F933F938F939F93EF93FF9397
:1017800020919E0330919F038091A0039091A1032B
:101790002817390731F48091C1008F7D8093C100F3
:1017A00014C0E091A003F091A103E25AFC4F208104
:1017B0008091A0039091A10301968F7390709093F4
:1017C000A1038093A0032093C600FF91EF919F9106
:1017D0008F913F912F910F900FBE0F901F901895F2
:1017E000AF92BF92DF92EF92FF920F931F93CF932E
:1017F000DF93EC017A018B01DD24403081EE580744
:1018000080E0680780E0780711F0DD24D39491E050
:10181000A92EB12CEC89FD89DD2069F0C50108A055
:1018200002C0880F991F0A94E2F7808360E079E094
:101830008DE390E005C0108260E874E88EE190E0EE
:10184000A80197010E94A31321503040404050400E
:10185000569547953795279580E12030380720F039
:10186000DD2011F0DD24D6CFE889F9893083EA89BB
:10187000FB89208319A2EE89FF89408121E030E0B5
:10188000C9010C8C02C0880F991F0A94E2F7482BFB
:101890004083EE89FF894081C9010D8C02C0880F09
:1018A000991F0A94E2F7482B4083EE89FF89408113
:1018B000C9010E8C02C0880F991F0A94E2F7482BC9
:1018C0004083EE89FF8980810F8C02C0220F331F75
:1018D0000A94E2F7209528232083DF91CF911F916E
:1018E0000F91FF90EF90DF90BF90AF900895DC01D3
:1018F0001C96ED91FC911D97E05CFF4F2191319179
:1019000080819181281B390B2F733070C901089594
:10191000DC011C96ED91FC911D97E05CFF4F20814E
:101920003181E054F040DF01AE5BBF4F8D919C915F
:1019300011972817390719F42FEF3FEF07C08D9142
:101940009C91E80FF91F8081282F30E0C90108958C
:10195000DC011C96ED91FC911D97E05CFF4F20810E
:101960003181E054F040DF01AE5BBF4F8D919C911F
:1019700011972817390719F42FEF3FEF10C08D91F9
:101980009C911197E80FF91F20818D919C911197DF
:1019900001968F73907011969C938E9330E0C901DD
:1019A0000895DC0191968C919197882339F0549693
:1019B000ED91FC915597808186FFF9CF91961C920D
:1019C0000895CF93DF93EC01EE85FF85E05CFF4F38
:1019D00020813181E054F0402F5F3F4F2F733070F2
:1019E000DF01AE5BBF4F8D919C911197281739078E
:1019F000D1F3E05CFF4F80819181E054F040E80F2B
:101A0000F91F6083EE85FF85E05CFF4F3183208303
:101A1000EE89FF89208181E090E00F8C02C0880F61
:101A2000991F0A94E2F7282B208381E089A3EC898F
:101A3000FD8980818064808381E090E0DF91CF9197
:101A400008951092A5031092A40388EE93E0A0E0FD
:101A5000B0E08093A6039093A703A093A803B0934C
:101A6000A90381E692E09093A3038093A2038AE105
:101A700093E09093AF038093AE038EE593E0909351
:101A8000B1038093B00385EC90E09093B30380930F
:101A9000B20384EC90E09093B5038093B40380ECA0
:101AA00090E09093B7038093B60381EC90E090931D
:101AB000B9038093B80382EC90E09093BB038093CA
:101AC000BA0386EC90E09093BD038093BC0384E05E
:101AD0008093BE0383E08093BF0387E08093C003BD
:101AE00085E08093C10381E08093C2030895CF9382
:101AF000DF930E94980A0E941F01C2EADBE00E9465
:101B0000AE012097E1F30E94A20BF9CF0E946E1163
:101B10000895CF92DF92EF92FF920F931F93CF938E
:101B2000DF937C016B018A01C0E0D0E00FC0D601D9
:101B30006D916D01D701ED91FC910190F081E02D47
:101B4000C7010995C80FD91F015010400115110593
:101B500071F7CE01DF91CF911F910F91FF90EF9020
:101B6000DF90CF900895DC01ED91FC910190F08120
:101B7000E02D09950895EF92FF920F931F938C012A
:101B8000DC01ED91FC910190F081E02D6DE0099573
:101B90007C01D801ED91FC910190F081E02DC8010C
:101BA0006AE009959C012E0D3F1DC9011F910F91FF
:101BB000FF90EF900895EF92FF920F931F937C0197
:101BC000DC01ED91FC910190F081E02D09958C01F3
:101BD000C7010E94BB0D080F191FC8011F910F916B
:101BE000FF90EF900895CF93DF93EC01611571059D
:101BF00019F420E030E00FC0DB010D900020E9F780
:101C00001197A61BB70BE881F9810280F381E02DC3
:101C1000AD0109959C01C901DF91CF9108954F92C3
:101C20005F927F928F929F92AF92BF92CF92DF92FC
:101C3000EF92FF920F931F93DF93CF93CDB7DEB751
:101C4000A1970FB6F894DEBF0FBECDBF2C01742E46
:101C5000CB01223008F42AE019A231E2C32ED12CA4
:101C6000CC0EDD1E822E9924AA24BB24672D752F4D
:101C7000A50194010E94A31379018A01C801B7014B
:101C8000A50194010E948413472D461B0894C108A6
:101C9000D1084A3014F4405D01C0495CF60140832C
:101CA000E114F1040105110521F07E2C5F2DC8011E
:101CB000DDCFC201B6010E94F30DA1960FB6F894D4
:101CC000DEBF0FBECDBFCF91DF911F910F91FF906F
:101CD000EF90DF90CF90BF90AF909F908F907F90CC
:101CE0005F904F900895DC012115310541F4ED918D
:101CF000FC910190F081E02D642F099508950E94D8
:101D00000F0E0895CF92DF92EF92FF920F931F93E1
:101D10006C017B019A0100E010E0B801A7010E946C
:101D2000730E8C01C6010E94BB0D080F191FC8015C
:101D30001F910F91FF90EF90DF90CF900895EF9259
:101D4000FF920F931F939A01E62EFF2400E010E00C
:101D5000B801A7010E94730E1F910F91FF90EF90A1
:101D60000895CF92DF92EF92FF920F931F936C0131
:101D7000E62E9A01FF2400E010E0B801A7010E94BE
:101D8000730E8C01C6010E94BB0D080F191FC801FC
:101D90001F910F91FF90EF90DF90CF900895CF9219
:101DA000DF92EF92FF920F931F93CF93DF93EC019B
:101DB0006A017B012115310541F4E881F981019027
:101DC000F081E02D642F09951FC02A303105D1F430
:101DD00077FF17C0E881F9810190F081E02D6DE275
:101DE00009958C0144275527BA014C195D096E09E4
:101DF0007F09CE012AE00E940F0E9801280F391F9B
:101E000004C02AE00E940F0E9C01C901DF91CF910E
:101E10001F910F91FF90EF90DF90CF900895EF9278
:101E2000FF920F931F937B019A010027F7FC009507
:101E3000102FB801A7010E94CF0E1F910F91FF90A4
:101E4000EF900895CF92DF92EF92FF920F931F933E
:101E50006C017B019A010027F7FC0095102FB80157
:101E6000A7010E94CF0E8C01C6010E94BB0D080F76
:101E7000191FC8011F910F91FF90EF90DF90CF9035
:101E800008950E94F30D0895EF92FF920F931F9310
:101E90007C010E94F30D8C01C7010E94BB0D080F4D
:101EA000191FC8011F910F91FF90EF900895AF92F5
:101EB000BF92CF92DF92EF92FF920F931F93CF9337
:101EC000DF935C016B01EE24FF24C0E0D0E010C082
:101ED000D501ED91FC9100811181C601BE010E94E6
:101EE0009E0F682FC501F8010995E80EF91E21968D
:101EF000F60184819581C817D90750F3C701DF9196
:101F0000CF911F910F91FF90EF90DF90CF90BF90F6
:101F1000AF900895EF92FF920F931F937C010E9460
:101F2000570F8C01C7010E94BB0D9C01200F311F70
:101F3000C9011F910F91FF90EF900895FC018481DA
:101F400095816817790748F40190F081E02D30976A
:101F500021F0E60FF71F8081089580E008950F9328
:101F60001F93CF93DF93EC018B016F5F7F4F8881CD
:101F700099810E94A312009711F480E005C0998313
:101F800088831B830A8381E0DF91CF911F910F919A
:101F90000895CF93DF93EC0188819981892B29F0F3
:101FA0008A819B818617970760F4CE010E94AF0F4C
:101FB000882341F08C819D81892B19F4E881F98176
:101FC000108281E0DF91CF910895EF92FF920F93FD
:101FD0001F93CF93DF93EC017B016C817D81E11432
:101FE000F104C1F04115510599F08A01060F171F40
:101FF000B8010E94C90F882369F0888199812C81DA
:102000003D81820F931FB7010E9498001D830C83AE
:1020100081E001C080E0DF91CF911F910F91FF908F
:10202000EF900895EF92FF920F931F93DF93CF935A
:10203000CDB7DEB727970FB6F894DEBF0FBECDBF82
:102040007C01CB018E010F5F1F4FB8014AE050E0C9
:102050000E949F00F80101900020E9F73197E01BF2
:10206000F10BC701B801AF010E94E50F27960FB62B
:10207000F894DEBF0FBECDBFCF91DF911F910F91BE
:10208000FF90EF9008956115710511F480E00895B7
:10209000DB010D900020E9F71197A61BB70BAD01EE
:1020A0000E94E50F0895FB01608171814481558193
:1020B0000E94E50F0895CF93DF93EC018881998109
:1020C000009711F00E940B12198218821D821C8247
:1020D0001B821A82DF91CF9108950F931F93182FBF
:1020E000092F0E941210882321F4812F902F0E9423
:1020F0005B10812F902F1F910F910895EF92FF9207
:102100000F931F93CF93DF93EC017B018A01BA01F8
:102110000E94C90F882321F4CE010E945B1007C0E2
:102120001D830C8388819981B7010E949800CE019C
:10213000DF91CF911F910F91FF90EF900895CF9372
:10214000DF93EC01198218821B821A821D821C8285
:102150001E826115710551F0DB010D900020E9F739
:102160001197A61BB70BAD010E947E10DF91CF9196
:1021700008950F931F93182F092F6115710559F0BA
:10218000DB010D900020E9F71197A61BB70BAD01FD
:102190000E947E1002C00E945B10812F902F1F9121
:1021A0000F910895EF92FF920F931F93DF93CF93B8
:1021B000CDB7DEB762970FB6F894DEBF0FBECDBFC6
:1021C0008C01CB01F80111821082138212821582D8
:1021D000148216827E010894E11CF11CB70150E0C4
:1021E0000E949F00C801B7010E94B91062960FB605
:1021F000F894DEBF0FBECDBFCF91DF911F910F913D
:10220000FF90EF900895EF92FF920F931F93DF934B
:10221000CF93CDB7DEB729970FB6F894DEBF0FBEC8
:10222000CDBF8C01862FF801118210821382128299
:1022300015821482168290E07E010894E11CF11C44
:10224000B70150E00E94C000C801B7010E94B91058
:1022500029960FB6F894DEBF0FBECDBFCF91DF91A8
:102260001F910F91FF90EF900895CF93DF93EC01B2
:10227000FB018617970761F0608171816115710517
:1022800029F0448155810E947E1002C00E945B109B
:10229000CE01DF91CF910895FC011182108213824B
:1022A00012821582148216820E9435110895FC0153
:1022B00011821082138212821582148216820E9469
:1022C00035110895FC01808191810E940B120895BF
:1022D000FC01808191810E940B1208950F931F933E
:1022E000CF93DF93BC018230910510F462E070E07F
:1022F000E091C603F091C703A0E0B0E040E050E0F9
:1023000024C08081918186179707D0F086179707A0
:1023100071F482819381109729F013969C938E9388
:1023200012972CC09093C7038093C60327C0411512
:10233000510519F08417950718F4EF018D01AC01D0
:10234000DF01828193819C01F9013097D1F641151B
:102350005105F9F0CA01861B970B8430910580F472
:102360008A819B810115110521F0F80193838283F5
:1023700004C09093C7038093C603FE01329645C004
:10238000FE01E80FF91F6193719302979983888387
:102390003CC08091C4039091C503892B41F4809186
:1023A000490290914A029093C5038093C4034091DF
:1023B0004B0250914C024115510541F44DB75EB7A7
:1023C0008091470290914802481B590B2091C40309
:1023D0003091C50324173507B0F4CA01821B930B53
:1023E0008617970780F0AB014E5F5F4F8417950704
:1023F00050F0420F531F5093C5034093C403F9019B
:102400006193719302C0E0E0F0E0CF01DF91CF91E2
:102410001F910F910895CF93DF939C01009709F4CA
:102420008FC0EC0122971B821A826091C6037091C3
:10243000C7036115710581F488819981820F931F0B
:102440002091C4033091C5032817390739F5D0937B
:10245000C503C093C40374C0DB0140E050E0AC1777
:10246000BD0708F1BB83AA83FE0121913191E20FE0
:10247000F31FAE17BF0779F48D919C911197280F28
:10248000391F2E5F3F4F3983288312968D919C917F
:1024900013979B838A834115510571F4D093C70329
:1024A000C093C6034DC012968D919C911397AD01B8
:1024B000009711F0DC01D3CFDA011396DC93CE93B1
:1024C0001297FA0121913191E20FF31FCE17DF0726
:1024D00069F488819981280F391F2E5F3F4FFA01D7
:1024E000318320838A819B8193838283E0E0F0E0C3
:1024F000DB0112968D919C911397009719F0BC0106
:10250000FD01F6CFAB014E5F5F4FDB018D919C91DA
:10251000840F951F2091C4033091C50328173907F4
:1025200079F4309729F41092C7031092C60302C0C1
:1025300013821282425050405093C5034093C4030B
:10254000DF91CF9108956F927F928F929F92AF9279
:10255000BF92CF92DF92EF92FF920F931F93CF9390
:10256000DF938C01009729F4CB010E946E118C013E
:10257000BBC08EEFE82E8FEFF82EE00EF11E480163
:10258000860E971E8E149F0408F4ACC0D7014D919F
:102590005C91119746175707B8F04530510508F47C
:1025A000A3C0CA0104978617970708F49DC042503C
:1025B0005040461B570BF401419351936D937C930C
:1025C000CF010E940B1290C05B01A41AB50A38011A
:1025D000640E751EA091C603B091C703CC24DD2400
:1025E000E0E0F0E047C0A615B705A9F5CD91DC9174
:1025F0001197CE0102968A159B0568F1CE018A19C2
:102600009B09029612962C91129713963C9105976E
:1026100058F0F40122833383CA19DB09D183C083C4
:10262000D7016D937C9309C04E5F5F4F4C0F5D1FC8
:10263000F70151834083C901FC01C114D10431F079
:10264000D6011396FC93EE9312974EC0F093C703F6
:10265000E093C60349C08D919C911197E817F90743
:1026600008F4FC016D0112968C91129713969C91BF
:102670009C01D901109709F0B6CF8091C4039091C5
:10268000C50386159705E9F4E617F707D0F42091FE
:102690004B0230914C022115310541F42DB73EB764
:1026A0008091470290914802281B390B82169306AD
:1026B000C8F49092C5038092C403F70171836083CC
:1026C00013C0CB010E946E11EC01009759F0D701A5
:1026D0004D915C91B8010E948F00C8010E940B12BD
:1026E0008E0102C000E010E0C801DF91CF911F9180
:1026F0000F91FF90EF90DF90CF90BF90AF909F90A1
:102700008F907F906F900895629FD001739FF0012A
:10271000829FE00DF11D649FE00DF11D929FF00D71
:10272000839FF00D749FF00D659FF00D9927729FA8
:10273000B00DE11DF91F639FB00DE11DF91FBD0133
:10274000CF0111240895A1E21A2EAA1BBB1BFD0183
:102750000DC0AA1FBB1FEE1FFF1FA217B307E40780
:10276000F50720F0A21BB30BE40BF50B661F771FD8
:10277000881F991F1A9469F76095709580959095B8
:102780009B01AC01BD01CF010895EE0FFF1F059025
:10279000F491E02D0994AA1BBB1B51E107C0AA1FAD
:1027A000BB1FA617B70710F0A61BB70B881F991FF2
:1027B0005A95A9F780959095BC01CD01089510E038
:1027C000C8ECD0E004C0FE010E94C7132296CA3CA8
:0827D000D107C9F7F894FFCF0F
:1027D800003000200042524F414443415354494E77
:1027E800472E2E2E0049442072656365697665641C
:1027F8003A0042494B4520464F554E4421004F7000
:1028080065726174696F6E20436F64653A00446154
:102818007461207374617475733A006E6F742072FA
:10282800656365697665642E0052464944205265A1
:102838006365697665643A00737569746570636B7E
:102848003A0070636B2073656E64206E756D626507
:10285800723A00424F4F4C2041434B3A00545820A3
:102868004255464645523A0052582042554646453A
:10287800523A002D2D2D2D2D2D2D52462044454206
:1028880055472D2D2D2D2D2D2D2D2D2D2D00526102
:1028980064696F206368616E6E656C3A00526164AA
:1028A800696F206D6F64653A004C6F63616C2061DD
:1028B8006464726573733A0052656D6F7465206164
:1028C8006464726573733A005061636B6574207257
:1028D8006563656976656420636F756E7465723AC1
:1028E800005061636B6574206D6973736564206360
:1028F8006F756E7465723A002D2D2D2D2D2D2D2D91
:102908002D2D2D2D2D2D2D2D2D2D2D2D2D2D2D2DEF
:102918002D2D002A0D001E8000C8030000000000B5
:1029280000A803890D0000400014005400000000B6
:0E29380000E10C890D770CA80C880CD10C0066
:00000001FF
