:100000000C9463000C94AB010C94D8010C948B00FD
:100010000C948B000C948B000C948B000C948B0034
:100020000C948B000C948B000C948B000C948B0024
:100030000C948B000C948B000C948B000C948B0014
:100040000C9405020C948B000C9421030C946F0308
:100050000C948B000C948B000C948B000C948B00F4
:100060000C948B000C948B000000000024002700EF
:100070002A0000000000250028002B0000000000DE
:1000800023002600290004040404040404040202DA
:100090000202020203030303030301020408102007
:1000A0004080010204081020010204081020000012
:1000B0000007000201000003040600000000000029
:1000C00000008D00DB0411241FBECFEFD8E0DEBF9F
:1000D000CDBF11E0A0E0B1E0E6EDFFE002C0059089
:1000E0000D92A634B107D9F712E0A6E4B1E001C041
:1000F0001D92A733B107E1F710E0C6ECD0E004C0D1
:100100002297FE010E94E507C23CD107C9F70E9471
:1001100031050C94E9070C94000086E491E00E94FC
:100120005F0608959C018091640190E08217930717
:1001300041F0209364016AEF70E080E090E00E945B
:100140004D02089586E491E00E94BD06882309F4DB
:1001500045C086E491E060E070E00E947A069091EC
:10016000640180917F01981761F48091460180932A
:1001700078018091780190E09093600180935F0115
:1001800028C09091640180913501981711F585E19F
:1001900092E060E071E00E944C06809146018093FD
:1001A0007701809146018093790180914701809386
:1001B0007A018091480180937B018091490180936D
:1001C0007C0180914A0180937D0180914B01809355
:1001D0007E0186E491E060E00E9429070895CF93B4
:1001E000DF9380917F0190E00E94920080917801DE
:1001F0008823E9F485E192E06DE071E00E944C060D
:1002000086E491E061E00E94290786E491E0609134
:1002100034010E949B0786E491E061E00E943E0762
:1002200064EF71E080E090E00E944D024CC080914C
:10023000350190E00E94920085E192E06DE171E06D
:100240000E9449066091780185E192E04AE050E021
:100250000E942B0686E491E066E00E943E078091B2
:1002600077018A32E1F7C9E7D1E085E192E069914F
:100270004AE050E00E94190685E192E06CE271E0EC
:100280000E94490681E0CF37D80779F786E491E0EC
:1002900062E00E9429078DE28093460181E080930D
:1002A000470186E491E060E070E00E94570785E135
:1002B00092E06EE271E00E9449061092780110927D
:1002C000600110925F01DF91CF91089585E192E086
:1002D00040E855E260E070E00E94AA038DE061E032
:1002E0000E94E10280E062EA70E043E050E00E9498
:1002F0008801109263018091340190E0E1E6F1E021
:1003000091838083CF014B9761E00E942907089574
:10031000823000F5E82FF0E0EE0FFF1FE058FE4FAF
:1003200071836083882319F08130A1F408C0809123
:1003300069008C7F842B80936900E89A08958091EE
:100340006900440F551F440F551F837F842B8093F2
:100350006900E99A08951F920F920FB60F92112427
:100360002F933F934F935F936F937F938F939F93BD
:10037000AF93BF93EF93FF938091800190918101A0
:10038000892B29F0E0918001F09181010995FF917D
:10039000EF91BF91AF919F918F917F916F915F91FD
:1003A0004F913F912F910F900FBE0F901F90189576
:1003B0001F920F920FB60F9211242F933F934F93DA
:1003C0005F936F937F938F939F93AF93BF93EF93BD
:1003D000FF938091820190918301892B29F0E09114
:1003E0008201F09183010995FF91EF91BF91AF9147
:1003F0009F918F917F916F915F914F913F912F913D
:100400000F900FBE0F901F9018951F920F920FB66E
:100410000F9211242F933F938F939F93AF93BF938A
:100420008091880190918901A0918A01B0918B01FE
:1004300030918C010196A11DB11D232F2D5F2D3709
:1004400020F02D570196A11DB11D20938C018093A2
:10045000880190938901A0938A01B0938B018091C8
:10046000840190918501A0918601B0918701019648
:10047000A11DB11D8093840190938501A0938601F5
:10048000B0938701BF91AF919F918F913F912F9131
:100490000F900FBE0F901F9018959B01AC017FB776
:1004A000F8948091840190918501A0918601B0918A
:1004B000870166B5A89B05C06F3F19F00196A11D85
:1004C000B11D7FBFBA2FA92F982F8827860F911DA6
:1004D000A11DB11D62E0880F991FAA1FBB1F6A955D
:1004E000D1F7BC012DC0FFB7F894809184019091A1
:1004F0008501A0918601B0918701E6B5A89B05C052
:10050000EF3F19F00196A11DB11DFFBFBA2FA92F12
:10051000982F88278E0F911DA11DB11DE2E0880F35
:10052000991FAA1FBB1FEA95D1F7861B970B885E00
:100530009340C8F2215030404040504068517C4FB9
:10054000211531054105510571F60895789484B55A
:10055000826084BD84B5816084BD85B5826085BDBF
:1005600085B5816085BDEEE6F0E0808181608083A5
:10057000E1E8F0E010828081826080838081816088
:100580008083E0E8F0E0808181608083E1EBF0E04F
:10059000808184608083E0EBF0E0808181608083F3
:1005A000EAE7F0E0808184608083808182608083DC
:1005B0008081816080838081806880831092C10007
:1005C0000895CF93DF93482F50E0CA0186569F4F7E
:1005D000FC0134914A575F4FFA018491882369F1F5
:1005E00090E0880F991FFC01E859FF4FA591B49145
:1005F000FC01EE58FF4FC591D491662351F42FB7FB
:10060000F8948C91932F909589238C9388818923DA
:100610000BC0623061F42FB7F8948C91932F9095B2
:1006200089238C938881832B88832FBF06C09FB733
:10063000F8948C91832B8C939FBFDF91CF91089579
:1006400008951F920F920FB60F9211242F933F938C
:100650004F938F939F93EF93FF938091C00082FD00
:100660001DC04091C6002091CD013091CE012F5F79
:100670003F4F2F7330708091CF019091D001281798
:10068000390771F0E091CD01F091CE01E357FE4FB3
:1006900040833093CE012093CD0102C08091C600EB
:1006A000FF91EF919F918F914F913F912F910F90DB
:1006B0000FBE0F901F901895E0912102F091220239
:1006C000E05CFF4F8191919120813181821B930BDE
:1006D0008F739070892B11F00E94200308951F9250
:1006E0000F920FB60F9211242F933F938F939F93E6
:1006F000EF93FF9320911102309112028091130227
:10070000909114022817390731F48091C1008F7D30
:100710008093C10014C0E0911302F0911402EF52D3
:10072000FE4F2081809113029091140201968F73E5
:10073000907090931402809313022093C600FF914F
:10074000EF919F918F913F912F910F900FBE0F903E
:100750001F901895AF92BF92DF92EF92FF920F9386
:100760001F93CF93DF93EC017A018B01DD2440309E
:1007700081EE580780E0680780E0780711F0DD24FB
:10078000D39491E0A92EB12CEC89FD89DD2069F08C
:10079000C50108A002C0880F991F0A94E2F7808360
:1007A00060E079E08DE390E005C0108260E874E8D5
:1007B0008EE190E0A80197010E94C10721503040CE
:1007C00040405040569547953795279580E1203019
:1007D000380720F0DD2011F0DD24D6CFE889F98933
:1007E0003083EA89FB89208319A2EE89FF89408141
:1007F00021E030E0C9010C8C02C0880F991F0A94D7
:10080000E2F7482B4083EE89FF894081C9010D8CB6
:1008100002C0880F991F0A94E2F7482B4083EE89A3
:10082000FF894081C9010E8C02C0880F991F0A946C
:10083000E2F7482B4083EE89FF8980810F8C02C04C
:10084000220F331F0A94E2F7209528232083DF919B
:10085000CF911F910F91FF90EF90DF90BF90AF90DD
:100860000895DC011C96ED91FC911D97E05CFF4F13
:100870002191319180819181281B390B2F73307028
:10088000C9010895DC011C96ED91FC911D97E05C77
:10089000FF4F20813181E054F040DF01AE5BBF4F5C
:1008A0008D919C9111972817390719F42FEF3FEF7D
:1008B00007C08D919C91E80FF91F8081282F30E0AF
:1008C000C9010895DC011C96ED91FC911D97E05C37
:1008D000FF4F20813181E054F040DF01AE5BBF4F1C
:1008E0008D919C9111972817390719F42FEF3FEF3D
:1008F00010C08D919C911197E80FF91F20818D9167
:100900009C91119701968F73907011969C938E9382
:1009100030E0C9010895DC0191968C91919788236C
:1009200039F05496ED91FC915597808186FFF9CF6F
:1009300091961C920895CF93DF93EC01EE85FF858D
:10094000E05CFF4F20813181E054F0402F5F3F4F4A
:100950002F733070DF01AE5BBF4F8D919C9111976B
:1009600028173907D1F3E05CFF4F80819181E05473
:10097000F040E80FF91F6083EE85FF85E05CFF4FD4
:1009800031832083EE89FF89208181E090E00F8C04
:1009900002C0880F991F0A94E2F7282B208381E078
:1009A00089A3EC89FD8980818064808381E090E067
:1009B000DF91CF910895109218021092170288EEDD
:1009C00093E0A0E0B0E08093190290931A02A09304
:1009D0001B02B0931C028AE391E09093160280936D
:1009E00015028DE891E0909322028093210281ED1F
:1009F00091E0909324028093230285EC90E0909301
:100A000026028093250284EC90E090932802809344
:100A1000270280EC90E090932A028093290281ECD7
:100A200090E090932C0280932B0282EC90E09093C4
:100A30002E0280932D0286EC90E0909330028093FA
:100A40002F0284E08093310283E08093320287E0BA
:100A50008093330285E08093340281E080933502F5
:100A60000895CF93DF930E94A6020E946601CCE511
:100A7000D3E00E94EF002097E1F30E945C03F9CFDE
:100A8000CF92DF92EF92FF920F931F93CF93DF935A
:100A90007C016B018A01C0E0D0E00FC0D6016D91EE
:100AA0006D01D701ED91FC910190F081E02DC7011E
:100AB0000995C80FD91F015010400115110571F794
:100AC000CE01DF91CF911F910F91FF90EF90DF90BA
:100AD000CF900895EF92FF920F931F938C01DC014A
:100AE000ED91FC910190F081E02D6DE009957C0184
:100AF000D801ED91FC910190F081E02DC8016AE0F0
:100B000009959C012E0D3F1DC9011F910F91FF906A
:100B1000EF900895CF93DF93EC016115710519F4FF
:100B200020E030E00FC0DB010D900020E9F71197C5
:100B3000A61BB70BE881F9810280F381E02DAD019E
:100B400009959C01C901DF91CF9108954F925F9261
:100B50007F928F929F92AF92BF92CF92DF92EF924D
:100B6000FF920F931F93DF93CF93CDB7DEB7A1977B
:100B70000FB6F894DEBF0FBECDBF2C01742ECB0193
:100B8000223008F42AE019A231E2C32ED12CCC0E77
:100B9000DD1E822E9924AA24BB24672D752FA50162
:100BA00094010E94C10779018A01C801B701A5011A
:100BB00094010E94A207472D461B0894C108D10842
:100BC0004A3014F4405D01C0495CF6014083E114F1
:100BD000F1040105110521F07E2C5F2DC801DDCF48
:100BE000C201B6010E948A05A1960FB6F894DEBF35
:100BF0000FBECDBFCF91DF911F910F91FF90EF906E
:100C0000DF90CF90BF90AF909F908F907F905F903C
:100C10004F900895DC012115310541F4ED91FC91CF
:100C20000190F081E02D642F099508950E94A6059A
:100C30000895EF92FF920F931F939A01E62EFF24DF
:100C400000E010E0B801A7010E940A061F910F9171
:100C5000FF90EF900895CF92DF92EF92FF920F9363
:100C60001F936C01E62E9A01FF2400E010E0B8010A
:100C7000A7010E940A068C01C6010E946A05080F9E
:100C8000191FC8011F910F91FF90EF90DF90CF9037
:100C900008950E948A050895EF92FF920F931F9383
:100CA0007C010E948A058C01C7010E946A05080F19
:100CB000191FC8011F910F91FF90EF900895FC013B
:100CC0005298539A549A559A569A128E118E148E9F
:100CD000138E11A281E0858F8FE6868F83E0878F48
:100CE00010A28AEE81A78FED82A784ED83A75B987F
:100CF0005C9808951F93CF93DF93DC016115710514
:100D000009F4BC015B9880E49FE10197F1F7FB01D6
:100D100060E070E0C1E0D0E015E020C0108247E064
:100D200050E04E9B0AC09E01042E02C0220F331FCA
:100D30000A94E2F78081822B8083812F8A95F1F7D4
:100D40005D9A812F8A95F1F75D98415050408FEF61
:100D50004F3F580731F76F5F7F4F319691968C91D7
:100D6000919790E068177907CCF25B9A85E08A95B5
:100D7000F1F7DF91CF911F91089589B190E0969599
:100D80008795969587958170089527E030E070E00B
:100D900045E0CB01022E02C0959587950A94E2F7B3
:100DA00080FD02C05E9801C05E9A842F8A95F1F79B
:100DB0005D9A842F8A95F1F75D98215030408FEF2E
:100DC0002F3F380731F708950F931F93CF93DF9389
:100DD0008C015B985C9A8AE18A95F1F7662331F081
:100DE000F80160A9C8010E94C5060DC0C0E0D0E0AE
:100DF000F801EC0FFD1F62A1C8010E94C5062196F3
:100E0000CF30D105A9F75C98DF91CF911F910F9159
:100E10000895FC0181A1880F880F880F83A3838D1B
:100E2000948D94A7838D948D85A783EA86A7978D4B
:100E3000858D9C648295880F807E892B87A790A1E1
:100E4000868D880F892B80ABCF0160E00E94E4067D
:100E50000895FC01569A10A2662321F061A30E9416
:100E6000090707C080A98E7F80ABCF0161E00E9497
:100E7000E40688EE93E00197F1F70895FC01569A95
:100E800081E080A3662329F061A3CF010E940907B6
:100E900007C080A9816080ABCF0161E00E94E406B9
:100EA00056985B9A88EE93E00197F1F70895EF92D8
:100EB000FF920F931F93CF93DF93EC017B0161159A
:100EC000710509F47C015B9A8AE18A95F1F769A5BD
:100ED000CE010E94C5066AA5CE010E94C5066BA57B
:100EE000CE010E94C506298D3A8DCE01632F0E9446
:100EF000C506698D7A8DCE010E94C50600E010E01E
:100F000009C0F701E00FF11FCE0160810E94C50604
:100F10000F5F1F4F89A190E00817190794F35B98A2
:100F200088EE93E00197F1F7DF91CF911F910F9138
:100F3000FF90EF900895FC01608360E070E00E94F4
:100F400057070895629FD001739FF001829FE00DC3
:100F5000F11D649FE00DF11D929FF00D839FF00D38
:100F6000749FF00D659FF00D9927729FB00DE11DE4
:100F7000F91F639FB00DE11DF91FBD01CF011124C1
:100F80000895A1E21A2EAA1BBB1BFD010DC0AA1FCA
:100F9000BB1FEE1FFF1FA217B307E407F50720F0E2
:100FA000A21BB30BE40BF50B661F771F881F991F5D
:100FB0001A9469F760957095809590959B01AC01A6
:100FC000BD01CF010895EE0FFF1F0590F491E02DB4
:060FD0000994F894FFCF24
:100FD6007765277265206865726521210042524F48
:100FE600414443415354494E472E2E2E0062696BAD
:100FF6006520666F756E642049443A002000454EB0
:10100600442121002A64000000009B0440053104AD
:06101600620442048B0499
:00000001FF
