:100000000C9465000C94DE090C940B0A0C948D0082
:100010000C948D000C948D000C948D000C948D002C
:100020000C948D000C948D000C948D000C948D001C
:100030000C948D000C948D000C948D000C948D000C
:100040000C94380A0C948D000C94C00B0C940E0C7C
:100050000C948D000C948D000C948D000C948D00EC
:100060000C948D000C948D000000000024002700EB
:100070002A0000000000250028002B0000000000DE
:1000800023002600290004040404040404040202DA
:100090000202020203030303030301020408102007
:1000A0004080010204081020010204081020000012
:1000B0000007000201000003040600000000000029
:1000C0000000E60005057A0DFE0411241FBECFEFE7
:1000D000D8E0DEBFCDBF12E0A0E0B1E0EAE8F8E290
:1000E00002C005900D92AC3BB107D9F714E0ACEB20
:1000F000B2E001C01D92A432B107E1F710E0C8ECF4
:10010000D0E004C02297FE010E942014C23CD10717
:10011000C9F70E94D00D0C9438140C940000FB0118
:10012000DC0102C001900D9241505040D8F7089573
:10013000FB01DC0101900D920020E1F70895FB0125
:100140009F01E8944230C4F04532B4F44A3029F4B7
:1001500097FB1EF4909581959F4F642F77270E94FF
:100160002414805D8A330CF0895D8193CB01009764
:10017000A1F716F45DE251931082C9010C94D600E8
:10018000FB019F01423074F0453264F4642F7727FD
:100190000E942414805D8A330CF0895D8193CB0129
:1001A0000097A1F71082C9010C94D600DC01FC0174
:1001B000672F71917723E1F7329704C07C916D939B
:1001C00070836291AE17BF07C8F30895CF92EF9284
:1001D0000F9384EC92E06CE04BE02AE009E058E0F9
:1001E000E52E37E0C32E0E9490040F91EF90CF9040
:1001F00008958F929F92AF92BF92CF92DF92EF922B
:10020000FF920F931F93DF93CF93CDB7DEB727975E
:100210000FB6F894DEBF0FBECDBFB82EA92E162F95
:10022000072F4A0160E071E00E94F810212F302F63
:10023000C9017C0100E010E06E010894C11CD11CD2
:1002400026C0F7018081803130F48B2D9A2D61E03A
:1002500071E00E949C10C601F701608140E10E949C
:100260005C118B2D9A2DB6010E94AC10C6010E9424
:10027000BB110430110534F48B2D9A2D63E071E02D
:100280000E949C100F5F1F4F0894E11CF11C081581
:100290001905BCF28B2D9A2D27960FB6F894DEBF68
:1002A0000FBECDBFCF91DF911F910F91FF90EF90C7
:1002B000DF90CF90BF90AF909F908F900895CF9296
:1002C000DF92EF92FF920F931F938C016B0164EC0E
:1002D000E62E62E0F62EC7010E94D203C7010E94FB
:1002E000CA03C701B8010E94B00FC70160E041E036
:1002F0000E949B03C701B6010E94B00F1F910F918E
:10030000FF90EF90DF90CF900895CF92DF92EF9221
:10031000FF920F931F93DF93CF93CDB7DEB7C256F3
:10032000D0400FB6F894DEBF0FBECDBF0AC084EC3C
:1003300092E00E94CA0384EC92E065E071E00E94C2
:100340009A0F8091BC029091BD020E94730788238E
:1003500071F380918C0261E00E946B0B6E01089436
:10036000C11CD11CC60165E171E00E94F8108E012C
:10037000085F1F4FC801B6010E94B0118091BC02F6
:100380009091BD020E94C904BC01C8010E94C61020
:10039000BC01C6010E948E11C8010E94C111BFE0BC
:1003A000EB2EF12CEC0EFD1EC70162E271E00E9403
:1003B000F8108E010A5E1F4FC801B6010E94A511F8
:1003C000C701B8010E945F01C8010E94BB11C701AB
:1003D0000E94BB118091BC029091BD026EEB72E055
:1003E0000E94D607882319F18E01035E1F4FC801B2
:1003F0006EEB72E046E050E00E94F900C601B801E1
:100400000E948E11C8010E94BB11A4E2EA2EF12CB9
:10041000EC0EFD1EC7016EE271E00E94F8108E0125
:10042000055D1F4FC801B6010E94A51112C0F2E37D
:10043000EF2EF12CEC0EFD1EC7016EE371E00E9461
:10044000F8108E01075C1F4FC8016BE471E00E9439
:10045000F810C701B8010E945F01C8010E94BB11DA
:10046000C7010E94BB118091BC029091BD026EEB4E
:1004700072E00E94D607882339F18E01005C1F4F7D
:10048000C8016EEB72E046E050E00E94F9006E0198
:100490000894C11CD11CC601B8010E948E11C8016C
:1004A0000E94BB11E7E4EE2EF12CEC0EFD1EC701FD
:1004B00069E571E00E94F8108E01025B1F4FC801D0
:1004C000B6010E94A51112C075E5E72EF12CEC0EC5
:1004D000FD1EC7016EE371E00E94F8108E01045A00
:1004E0001F4FC8016BE471E00E94F810C701B8010A
:1004F0000E945F01C8010E94BB11C7010E94BB118D
:100500008091BC029091BD026EE872E00E94E3050A
:100510008091BC029091BD020E94F20660E47DE0F1
:1005200083E090E00E948E0ACE0101960E94BB11EA
:10053000CE59DF4F0FB6F894DEBF0FBECDBFCF91BF
:10054000DF911F910F91FF90EF90DF90CF90089572
:100550000F931F938EEF93E040E855E260E070E068
:100560000E94490C80918C0261E00E942C0B84EC6B
:1005700092E060E142E020E00E94DA0381E090E056
:100580000E94DF0D182F092F60918B0270E041E06F
:100590000E9435081093BC020093BD021F910F9179
:1005A00008950F931F938C01FC01868160E00E94E7
:1005B0006B0B81E090E00E94E70AF801868161E020
:1005C0000E946B0B81E090E00E94E70AF8018681AF
:1005D00060E00E946B0B84E690E00E94E70A1F91A6
:1005E0000F910895CF92DF92EF92FF920F931F9396
:1005F000CF93DF93D82EC92E282F392FC9018C0114
:10060000C0E0D0E0E62EFF24F801878161E00E947F
:100610002C0BB7010C2E02C0759567950A94E2F772
:100620006170F80187810E946B0B21960F5F1F4F4D
:10063000C830D10549F78D2D9C2D0E94D102DF9144
:10064000CF911F910F91FF90EF90DF90CF90089581
:10065000CF92DF92EF92FF920F931F93CF93DF938E
:10066000D82EC92E282F392FC9018C01C0E0D0E027
:10067000E62EFF24F801878161E00E942C0BB70170
:100680000C2E02C0759567950A94E2F76170F80127
:1006900087810E946B0B21960F5F1F4FC430D105DD
:1006A00049F78D2D9C2D0E94D102DF91CF911F9192
:1006B0000F91FF90EF90DF90CF9008951F93CF930D
:1006C000DF93EC01162F8C81642F0E946B0B8D81C0
:1006D0008F3F19F060E00E946B0B8F8584FF05C08F
:1006E000CE01612F0E94F2020EC0612F70E084E003
:1006F000759567958A95E1F7CE010E942803CE0192
:10070000612F0E942803DF91CF911F91089541E04E
:100710000E945E0381E090E0089540E00E945E0345
:100720000895FC016089862F8460808B6C60CF0106
:100730000E948D030895DF93CF93CDB7DEB728973E
:100740000FB6F894DEBF0FBECDBF9C01FE013196FF
:10075000A3EAB2E088E00D9001928150E1F7F9013F
:100760008389481710F0482F4150E42FF0E0EE0F36
:10077000FF1FEC0FFD1F8181680F6068C9010E9497
:100780008D0328960FB6F894DEBF0FBECDBFCF9174
:10079000DF91089562E00E948D0380ED97E00E9452
:1007A000E70A089561E00E948D0380ED97E00E94C2
:1007B000E70A0895CF93DF93EC01423018F08F855C
:1007C00088608F874B8B1C8A222329F0413019F4D3
:1007D0008F8584608F8780E593EC0E94E70A8C8187
:1007E00060E00E946B0B8E8160E00E946B0B8D813C
:1007F0008F3F19F060E00E946B0B6F8564FD1DC098
:10080000CE0163E00E94280384E991E10E94E70A97
:10081000CE0163E00E94280384E991E10E94E70A87
:10082000CE0163E00E94280386E990E00E94E70A77
:10083000CE0162E00E94280316C06062CE010E94D1
:100840008D0384E991E10E94E70A6F856062CE0121
:100850000E948D0386E990E00E94E70A6F8560623E
:10086000CE010E948D036F856062CE010E948D03D0
:1008700084E0888BCE010E949103CE010E94D203B6
:1008800082E0898BCE0166E00E948D03DF91CF91DB
:1008900008956F927F928F92AF92CF92EF920F93C3
:1008A0001F93DF93CF93CDB7DEB73C01162F842F74
:1008B000F301448325830683E782C086A18682866E
:1008C0009D8593879E8594879F8595879889968730
:1008D00061E00E942C0BF30185818F3F19F061E0EC
:1008E0000E942C0BF301868161E00E942C0B1123E6
:1008F00019F0F301178603C080E1F3018787C30174
:1009000060E141E020E00E94DA03CF91DF911F9186
:100910000F91EF90CF90AF908F907F906F90089550
:100920008F92AF92CF92EF920F931F93CF93DF935B
:10093000DC01362F542F722F102FAE2C8C2C1396D7
:100940001C921E9212978FE992E011969C938E93BF
:1009500000D000D0EDB7FEB73196CDB7DEB7198223
:10096000118212821382CD0161E0432F2FEF052FF8
:10097000E72EC12E0E9449040F900F900F900F9008
:10098000DF91CF911F910F91EF90CF90AF908F900B
:1009900008952091420330914303C90108958130A5
:1009A0009105D1F46F5F7F4F41F581E293E00E94A2
:1009B000780884E593E068E671E00E94F8108BE522
:1009C00093E06DE771E00E94F81082E693E060E941
:1009D00071E00E94F8100895892B79F46F5F7F4FC2
:1009E00061F482E693E00E94BB118BE593E00E94E4
:1009F000BB1184E593E00E94BB11089580E090E074
:100A00006FEF7FEF0E94CF04089581E090E06FEFD9
:100A10007FEF0E94CF040895AF92BF92CF92DF92F2
:100A2000EF92FF920F931F93DF93CF93CDB7DEB773
:100A30002E970FB6F894DEBF0FBECDBF81E293E0D4
:100A40000E94D608882309F499C081E293E060E00F
:100A500070E00E94930890912D03809144039817B1
:100A600041F48091210390E09093430380934203EB
:100A700085C090912D0380919402981709F07EC053
:100A800080912103E82EFF248FEFE816F10409F48A
:100A90004BC0809150039091510301969093510364
:100AA000809350038701000F111F0E0D1F1D000FB3
:100AB000111F03501D4FCC24DD245E010894A11C9E
:100AC000B11C0894C11CD11CF601EF5DFC4F808164
:100AD000D8018D938D016081C5014AE00E945C11AF
:100AE0008BE593E0B5010E94AC10C5010E94BB11DB
:100AF000B6E0CB16D10429F78E01085F1F4FC8015D
:100B0000B7014AE00E942B1184E593E0B8010E94EE
:100B1000AC10C8010E94BB11EAE4F3E0EE0EFF1E28
:100B200081E0D7018C932AC08091520390915303A6
:100B3000019690935303809352031091220381E214
:100B400093E067E00E9442091093210386E0189F1A
:100B5000D0011124A752BD4F20E030E02F5F3F4F5E
:100B60008D91F901EF5DFC4F808326303105B1F79F
:100B700081E293E060E070E00E94700981E293E01E
:100B800067E00E9457092E960FB6F894DEBF0FBE9D
:100B9000CDBFCF91DF911F910F91FF90EF90DF902C
:100BA000CF90BF90AF90089580912D0390E086176D
:100BB000970741F060932D036AEF70E080E090E0CA
:100BC0000E948E0A0895CF92DF92EF92FF920F93C8
:100BD0001F93DF93CF93CDB7DEB727970FB6F89467
:100BE000DEBF0FBECDBF162F072F81E293E067E077
:100BF0000E9442098091460380932103212F302FC8
:100C0000C9017C0100E010E06E010894C11CD11CF8
:100C10008091460390914703FC01EE0FFF1FE80F00
:100C2000F91FEE0FFF1FE00FF11FE752FD4FD70135
:100C30008C9180830F5F1F4FF70181917F01F80135
:100C4000EF5DFC4F80836081C6014AE00E945C1129
:100C500082E693E0B6010E94AC10C6010E94BB116F
:100C600006301105A9F6809146039091470301963D
:100C7000909347038093460381E293E060E070E045
:100C80000E94700981E293E067E00E94570964E6E0
:100C900070E080E090E00E948E0A27960FB6F894EC
:100CA000DEBF0FBECDBFCF91DF911F910F91FF909F
:100CB000EF90DF90CF900895FF920F931F93F62E41
:100CC0000EEF13E0C8016FE971E00E949A0FC801AE
:100CD0006F2D4AE050E00E940A0F01E213E0C801C4
:100CE00067E00E9442098FEF80932103F092220374
:100CF00010922303109224031092250310922603CE
:100D0000C80160E070E00E947009C80167E00E94BD
:100D100057091F910F91FF900895CF93DF938EEFA6
:100D200093E06AEB71E00E949A0FC0E0D0E0FE0110
:100D3000E65BFC4F60818EEF93E070E04AE050E0AC
:100D40000E94680F8EEF93E060E20E940C0E2196E5
:100D5000C630D10561F78EEF93E060E20E94340E59
:100D6000DF91CF910895CF93DF938EEF93E064EC02
:100D700071E00E949A0FC9EDD2E08EEF93E0699185
:100D80004AE050E00E94F80E8EEF93E060E20E948D
:100D90000C0E82E0CD3FD80781F78EEF93E060E242
:100DA0000E94340E8EEF93E06FEC71E00E949A0F78
:100DB000CDEFD2E08EEF93E069914AE050E00E94DF
:100DC000F80E8EEF93E060E20E940C0E83E0C132D9
:100DD000D80781F78EEF93E060E20E94340EDF9136
:100DE000CF910895CF92DF92EF92FF920F931F93CE
:100DF0006C010EEF13E0C8016AED71E00E949D0FD7
:100E0000C80165EF71E00E949A0F60912D03C8013F
:100E10004AE050E00E940A0FC80164E072E00E94BC
:100E20009A0F60912F03C8014AE050E00E940A0F18
:100E3000C80160E172E00E949A0FEAE2EE2EE3E060
:100E4000FE2EF70160817181C8014AE050E00E94E6
:100E5000DB0EC8016FE172E00E949A0FF701329732
:100E600060817181C8014AE050E00E94DB0EC80138
:100E70006FE272E00E949A0F6091500370915103EB
:100E8000C8014AE050E00E947B0FC80168E472E0AC
:100E90000E949A0F6091520370915303C8014AE077
:100EA00050E00E947B0FC6010E94B3060E948D068F
:100EB000C80164E573E00E94E30FC8016BE573E0CD
:100EC0000E94E30FC80162E673E00E94E30FC801CD
:100ED00060E772E00E949D0F1F910F91FF90EF90CD
:100EE000DF90CF900895CF93DF93EC0190912D0385
:100EF000809194029817A1F180914203909143034D
:100F0000892B81F1809142039091430390932903AF
:100F100080932803809145038823B9F481E293E00C
:100F200061E00E944209809140038093210381E2A5
:100F300093E060E070E00E9470098091400390911E
:100F4000410390932B0380932A0360919402CE0176
:100F500070E00E94D40581E293E067E00E945709A7
:100F600081E021C060914403CE0170E00E94D4056D
:100F700080914503882359F081E293E061E00E946B
:100F8000420981E293E0609140030E94B40981E24A
:100F900093E061E00E94570962E370E080E090E036
:100FA0000E948E0A80E0DF91CF910895CF92DF9268
:100FB000EF92FF920F931F93CF93DF937C016B010E
:100FC0000E94800A8B01EB01A0914803B091490374
:100FD000FD01E65BFC4F80818823A1F4C01BD10B8F
:100FE000C05DD7407CF40E94800AEB01C70160918C
:100FF00048030E945C0664E670E080E090E00E9496
:101000008E0AE2CFA65BBC4F8C91882329F120E0A9
:1010100030E0D601A20FB31F80914803909149039D
:10102000FC01EE0FFF1FE80FF91FEE0FFF1FE20F8D
:10103000F31FE350FD4F80818C932F5F3F4F26308D
:10104000310539F7809148039091490301969093B7
:1010500049038093480381E0DF91CF911F910F9165
:10106000FF90EF90DF90CF9008951F93142FE9ED3C
:10107000F2E0119222E0ED3FF207D9F710924A0315
:1010800010924B0310924C0310924D0310924E039A
:1010900010924F03709341036093400310922C030E
:1010A0006091440370E00E94D40581E293E061E026
:1010B0000E94570980E06CE075E043E050E00E9438
:1010C000BB0910934503112349F08091400390918F
:1010D000410390932B0380932A0304C010922B03A7
:1010E00010922A0310922903109228031F91089549
:1010F000FC015298539A549A559A569A1086178220
:1011000012861186178681E083878FE6848783E0C5
:10111000858716868AEE878B8FED808F84ED818F91
:101120005B985C9808951F93CF93DF93DC01611562
:10113000710509F4BC015B9880E49FE10197F1F728
:10114000FB0160E070E0C1E0D0E015E020C010825B
:1011500047E050E04E9B0AC09E01042E02C0220FC1
:10116000331F0A94E2F78081822B8083812F8A9536
:10117000F1F75D9A812F8A95F1F75D9841505040C3
:101180008FEF4F3F580731F76F5F7F4F31961F96B4
:101190008C911F9790E068177907CCF25B9A85E0F5
:1011A0008A95F1F7DF91CF911F91089589B190E071
:1011B00096958795969587958170089527E030E0FC
:1011C00070E045E0CB01022E02C0959587950A9408
:1011D000E2F780FD02C05E9801C05E9A842F8A9576
:1011E000F1F75D9A842F8A95F1F75D982150304090
:1011F0008FEF2F3F380731F708950F931F93CF9349
:10120000DF938C015B985C9A8AE18A95F1F76623FB
:1012100031F0F801668DC8010E94DE080DC0C0E003
:10122000D0E0F801EC0FFD1F6089C8010E94DE08C4
:101230002196CF30D105A9F75C98DF91CF911F910E
:101240000F910895FC018785880F880F880F818B87
:1012500081859285928F81859285838F83EA848FA1
:10126000958583859C648295880F807E892B858FE8
:1012700096858485880F892B868FCF0160E00E9438
:10128000FD080895FC01569A1686662321F06787AB
:101290000E94220907C0868D8E7F868FCF0161E074
:1012A0000E94FD0888EE93E00197F1F70895FC0194
:1012B000569A81E08687662329F06787CF010E94CE
:1012C000220907C0868D8160868FCF0161E00E9470
:1012D000FD0856985B9A88EE93E00197F1F7089520
:1012E000EF92FF920F931F93CF93DF93EC017B015B
:1012F0006115710509F47C015B9A8AE18A95F1F721
:101300006F89CE010E94DE08688DCE010E94DE0842
:10131000698DCE010E94DE082F813885CE01632FB2
:101320000E94DE086F817885CE010E94DE0800E011
:1013300010E009C0F701E00FF11FCE0160810E94AB
:10134000DE080F5F1F4F8F8590E00817190794F391
:101350005B9888EE93E00197F1F7DF91CF911F91B1
:101360000F91FF90EF900895FC01608360E070E0C2
:101370000E9470090895823000F5E82FF0E0EE0F2A
:10138000FF1FE759FC4F71836083882319F0813078
:10139000A1F408C0809169008C7F842B8093690040
:1013A000E89A089580916900440F551F440F551F16
:1013B000837F842B80936900E99A08951F920F928E
:1013C0000FB60F9211242F933F934F935F936F9318
:1013D0007F938F939F93AF93BF93EF93FF938091EE
:1013E000690390916A03892B29F0E0916903F091D8
:1013F0006A030995FF91EF91BF91AF919F918F91F2
:101400007F916F915F914F913F912F910F900FBE00
:101410000F901F9018951F920F920FB60F921124E4
:101420002F933F934F935F936F937F938F939F93EC
:10143000AF93BF93EF93FF9380916B0390916C03F5
:10144000892B29F0E0916B03F0916C030995FF91D2
:10145000EF91BF91AF919F918F917F916F915F912C
:101460004F913F912F910F900FBE0F901F901895A5
:101470001F920F920FB60F9211242F933F938F93C9
:101480009F93AF93BF938091710390917203A0914A
:101490007303B0917403309175030196A11DB11DC2
:1014A000232F2D5F2D3720F02D570196A11DB11D43
:1014B000209375038093710390937203A093730339
:1014C000B093740380916D0390916E03A0916F03AC
:1014D000B09170030196A11DB11D80936D0390938F
:1014E0006E03A0936F03B0937003BF91AF919F9170
:1014F0008F913F912F910F900FBE0F901F901895D5
:101500008FB7F89420917103309172034091730367
:10151000509174038FBFB901CA0108959B01AC01BA
:101520007FB7F89480916D0390916E03A0916F0343
:10153000B091700366B5A89B05C06F3F19F0019686
:10154000A11DB11D7FBFBA2FA92F982F8827860F05
:10155000911DA11DB11D62E0880F991FAA1FBB1F1D
:101560006A95D1F7BC012DC0FFB7F89480916D0347
:1015700090916E03A0916F03B0917003E6B5A89BA4
:1015800005C0EF3F19F00196A11DB11DFFBFBA2F95
:10159000A92F982F88278E0F911DA11DB11DE2E064
:1015A000880F991FAA1FBB1FEA95D1F7861B970BBF
:1015B000885E9340C8F2215030404040504068510E
:1015C0007C4F211531054105510571F608950197AC
:1015D00039F0880F991F880F991F02970197F1F72B
:1015E0000895789484B5826084BD84B5816084BD9B
:1015F00085B5826085BD85B5816085BDEEE6F0E08C
:10160000808181608083E1E8F0E0108280818260E7
:101610008083808181608083E0E8F0E08081816068
:101620008083E1EBF0E0808184608083E0EBF0E098
:10163000808181608083EAE7F0E08081846080833C
:1016400080818260808380818160808380818068E6
:1016500080831092C1000895CF93DF93482F50E00C
:10166000CA0186569F4FFC0134914A575F4FFA01D9
:101670008491882369F190E0880F991FFC01E85953
:10168000FF4FA591B491FC01EE58FF4FC591D49145
:10169000662351F42FB7F8948C91932F909589235A
:1016A0008C93888189230BC0623061F42FB7F89442
:1016B0008C91932F909589238C938881832B888399
:1016C0002FBF06C09FB7F8948C91832B8C939FBF3C
:1016D000DF91CF910895482F50E0CA0182559F4F66
:1016E000FC012491CA0186569F4FFC0194914A57F0
:1016F0005F4FFA013491332309F440C0222351F1A2
:10170000233071F0243028F42130A1F0223011F57B
:1017100014C02630B1F02730C1F02430D9F404C011
:10172000809180008F7703C0809180008F7D8093AF
:10173000800010C084B58F7702C084B58F7D84BDD2
:1017400009C08091B0008F7703C08091B0008F7D79
:101750008093B000E32FF0E0EE0FFF1FEE58FF4F35
:10176000A591B4912FB7F894662321F48C919095AC
:10177000892302C08C91892B8C932FBF08950895E3
:101780001F920F920FB60F9211242F933F934F93F6
:101790008F939F93EF93FF938091C00082FD1DC0B4
:1017A0004091C6002091B6033091B7032F5F3F4FA1
:1017B0002F7330708091B8039091B90328173907BF
:1017C00071F0E091B603F091B703EA58FC4F408303
:1017D0003093B7032093B60302C08091C600FF91F7
:1017E000EF919F918F914F913F912F910F900FBE4D
:1017F0000F901F901895E0910A04F0910B04E05CA3
:10180000FF4F8191919120813181821B930B8F73C6
:101810009070892B11F00E94BF0B08951F920F92B8
:101820000FB60F9211242F933F938F939F93EF93B3
:10183000FF932091FA033091FB038091FC03909178
:10184000FD032817390731F48091C1008F7D809303
:10185000C10014C0E091FC03F091FD03E654FC4F7D
:1018600020818091FC039091FD0301968F7390700D
:101870009093FD038093FC032093C600FF91EF91AA
:101880009F918F913F912F910F900FBE0F901F90BE
:101890001895AF92BF92DF92EF92FF920F931F9332
:1018A000CF93DF93EC017A018B01DD24403081EE90
:1018B000580780E0680780E0780711F0DD24D394B2
:1018C00091E0A92EB12CEC89FD89DD2069F0C501DC
:1018D00008A002C0880F991F0A94E2F7808360E095
:1018E00079E08DE390E005C0108260E874E88EE155
:1018F00090E0A80197010E94FC1321503040404025
:101900005040569547953795279580E12030380708
:1019100020F0DD2011F0DD24D6CFE889F98930836D
:10192000EA89FB89208319A2EE89FF89408121E0A1
:1019300030E0C9010C8C02C0880F991F0A94E2F7AD
:10194000482B4083EE89FF894081C9010D8C02C07C
:10195000880F991F0A94E2F7482B4083EE89FF898C
:101960004081C9010E8C02C0880F991F0A94E2F7CA
:10197000482B4083EE89FF8980810F8C02C0220FA3
:10198000331F0A94E2F7209528232083DF91CF911B
:101990001F910F91FF90EF90DF90BF90AF9008954F
:1019A000DC011C96ED91FC911D97E05CFF4F2191AD
:1019B000319180819181281B390B2F733070C901BF
:1019C0000895DC011C96ED91FC911D97E05CFF4FA2
:1019D00020813181E054F040DF01AE5BBF4F8D913B
:1019E0009C9111972817390719F42FEF3FEF07C083
:1019F0008D919C91E80FF91F8081282F30E0C9015B
:101A00000895DC011C96ED91FC911D97E05CFF4F61
:101A100020813181E054F040DF01AE5BBF4F8D91FA
:101A20009C9111972817390719F42FEF3FEF10C039
:101A30008D919C911197E80FF91F20818D919C91B8
:101A4000119701968F73907011969C938E9330E04E
:101A5000C9010895DC0191968C919197882339F002
:101A60005496ED91FC915597808186FFF9CF919620
:101A70001C920895CF93DF93EC01EE85FF85E05C27
:101A8000FF4F20813181E054F0402F5F3F4F2F7393
:101A90003070DF01AE5BBF4F8D919C91119728177D
:101AA0003907D1F3E05CFF4F80819181E054F04031
:101AB000E80FF91F6083EE85FF85E05CFF4F3183FF
:101AC0002083EE89FF89208181E090E00F8C02C0A5
:101AD000880F991F0A94E2F7282B208381E089A3BD
:101AE000EC89FD8980818064808381E090E0DF91D2
:101AF000CF910895109201041092000488EE93E0B3
:101B0000A0E0B0E08093020490930304A093040447
:101B1000B09305048FEA92E09093FF038093FE0355
:101B200086E793E090930B0480930A048AEB93E09A
:101B300090930D0480930C0485EC90E090930F0437
:101B400080930E0484EC90E0909311048093100431
:101B500080EC90E0909313048093120481EC90E069
:101B6000909315048093140482EC90E090931704F2
:101B70008093160486EC90E09093190480931804E7
:101B800084E080931A0483E080931B0487E08093B1
:101B90001C0485E080931D0481E080931E04089559
:101BA000CF93DF930E94F10A0E94A802CBEFDBE003
:101BB0000E9485012097E1F30E94FB0BF9CF0E9460
:101BC000C7110895CF92DF92EF92FF920F931F9368
:101BD000CF93DF937C016B018A01C0E0D0E00FC09E
:101BE000D6016D916D01D701ED91FC910190F081CD
:101BF000E02DC7010995C80FD91F015010400115EC
:101C0000110571F7CE01DF91CF911F910F91FF90D8
:101C1000EF90DF90CF900895DC01ED91FC91019061
:101C2000F081E02D09950895EF92FF920F931F9395
:101C30008C01DC01ED91FC910190F081E02D6DE0D3
:101C400009957C01D801ED91FC910190F081E02D86
:101C5000C8016AE009959C012E0D3F1DC9011F9125
:101C60000F91FF90EF900895EF92FF920F931F93C3
:101C70007C01DC01ED91FC910190F081E02D099552
:101C80008C01C7010E94140E080F191FC8011F9173
:101C90000F91FF90EF900895CF93DF93EC016115C2
:101CA000710519F420E030E00FC0DB010D90002039
:101CB000E9F71197A61BB70BE881F9810280F38140
:101CC000E02DAD0109959C01C901DF91CF910895E7
:101CD0004F925F927F928F929F92AF92BF92CF92DC
:101CE000DF92EF92FF920F931F93DF93CF93CDB7C5
:101CF000DEB7A1970FB6F894DEBF0FBECDBF2C01A3
:101D0000742ECB01223008F42AE019A231E2C32E4E
:101D1000D12CCC0EDD1E822E9924AA24BB24672D43
:101D2000752FA50194010E94FC1379018A01C80155
:101D3000B701A50194010E94DD13472D461B0894AD
:101D4000C108D1084A3014F4405D01C0495CF60175
:101D50004083E114F1040105110521F07E2C5F2D73
:101D6000C801DDCFC201B6010E944C0EA1960FB68C
:101D7000F894DEBF0FBECDBFCF91DF911F910F91C1
:101D8000FF90EF90DF90CF90BF90AF909F908F909B
:101D90007F905F904F900895DC012115310541F44B
:101DA000ED91FC910190F081E02D642F099508954B
:101DB0000E94680E0895CF92DF92EF92FF920F93E8
:101DC0001F936C017B019A0100E010E0B801A701AC
:101DD0000E94CC0E8C01C6010E94140E080F191F20
:101DE000C8011F910F91FF90EF90DF90CF90089561
:101DF000EF92FF920F931F939A01E62EFF2400E0CB
:101E000010E0B801A7010E94CC0E1F910F91FF9026
:101E1000EF900895CF92DF92EF92FF920F931F936E
:101E20006C01E62E9A01FF2400E010E0B801A70142
:101E30000E94CC0E8C01C6010E94140E080F191FBF
:101E4000C8011F910F91FF90EF90DF90CF90089500
:101E5000CF92DF92EF92FF920F931F93CF93DF9376
:101E6000EC016A017B012115310541F4E881F9811A
:101E70000190F081E02D642F09951FC02A303105B3
:101E8000D1F477FF17C0E881F9810190F081E02D4E
:101E90006DE209958C0144275527BA014C195D095B
:101EA0006E097F09CE012AE00E94680E9801280F72
:101EB000391F04C02AE00E94680E9C01C901DF910D
:101EC000CF911F910F91FF90EF90DF90CF900895E9
:101ED000EF92FF920F931F937B019A010027F7FC6B
:101EE0000095102FB801A7010E94280F1F910F9194
:101EF000FF90EF900895CF92DF92EF92FF920F93B1
:101F00001F936C017B019A010027F7FC0095102FAD
:101F1000B801A7010E94280F8C01C6010E94140E6F
:101F2000080F191FC8011F910F91FF90EF90DF90CC
:101F3000CF9008950E944C0E0895EF92FF920F9358
:101F40001F937C010E944C0E8C01C7010E94140E4D
:101F5000080F191FC8011F910F91FF90EF9008956E
:101F6000AF92BF92CF92DF92EF92FF920F931F93A7
:101F7000CF93DF935C016B01EE24FF24C0E0D0E03F
:101F800010C0D501ED91FC9100811181C601BE0107
:101F90000E94F70F682FC501F8010995E80EF91E98
:101FA0002196F60184819581C817D90750F3C7019E
:101FB000DF91CF911F910F91FF90EF90DF90CF9025
:101FC000BF90AF900895EF92FF920F931F937C0103
:101FD0000E94B00F8C01C7010E94140E9C01200FBB
:101FE000311FC9011F910F91FF90EF900895FC01DF
:101FF000848195816817790748F40190F081E02D7C
:10200000309721F0E60FF71F8081089580E0089552
:102010000F931F93CF93DF93EC018B016F5F7F4F83
:10202000888199810E94FC12009711F480E005C01C
:10203000998388831B830A8381E0DF91CF911F916D
:102040000F910895CF93DF93EC0188819981892BBB
:1020500029F08A819B818617970760F4CE010E9440
:102060000810882341F08C819D81892B19F4E88127
:10207000F981108281E0DF91CF910895EF92FF9274
:102080000F931F93CF93DF93EC017B016C817D81D4
:10209000E114F104C1F04115510599F08A01060FD0
:1020A000171FB8010E942210882369F08881998146
:1020B0002C813D81820F931FB7010E9498001D83E0
:1020C0000C8381E001C080E0DF91CF911F910F91DF
:1020D000FF90EF900895EF92FF920F931F93DF937D
:1020E000CF93CDB7DEB727970FB6F894DEBF0FBEFC
:1020F000CDBF7C01CB018E010F5F1F4FB8014AE0BD
:1021000050E00E949F00F80101900020E9F731970C
:10211000E01BF10BC701B801AF010E943E102796EA
:102120000FB6F894DEBF0FBECDBFCF91DF911F91E8
:102130000F91FF90EF9008956115710511F480E003
:102140000895DB010D900020E9F71197A61BB70B4E
:10215000AD010E943E100895FB01608171814481B0
:1021600055810E943E100895CF93DF93EC01888142
:102170009981009711F00E946412198218821D82C1
:102180001C821B821A82DF91CF9108950F931F93B7
:10219000182F092F0E946B10882321F4812F902F74
:1021A0000E94B410812F902F1F910F910895EF92EC
:1021B000FF920F931F93CF93DF93EC017B018A0172
:1021C000BA010E942210882321F4CE010E94B4108B
:1021D00007C01D830C8388819981B7010E949800F4
:1021E000CE01DF91CF911F910F91FF90EF90089555
:1021F000CF93DF93EC01198218821B821A821D8211
:102200001C821E826115710551F0DB010D900020CA
:10221000E9F71197A61BB70BAD010E94D710DF910C
:10222000CF9108950F931F93182F092F61157105F2
:1022300059F0DB010D900020E9F71197A61BB70BB1
:10224000AD010E94D71002C00E94B410812F902FC0
:102250001F910F910895EF92FF920F931F93DF93B9
:10226000CF93CDB7DEB762970FB6F894DEBF0FBE3F
:10227000CDBF8C01CB01F801118210821382128232
:102280001582148216827E010894E11CF11CB701AC
:1022900050E00E949F00C801B7010E94121162968F
:1022A0000FB6F894DEBF0FBECDBFCF91DF911F9167
:1022B0000F91FF90EF900895EF92FF920F931F936D
:1022C000DF93CF93CDB7DEB729970FB6F894DEBF73
:1022D0000FBECDBF8C01862FF801118210821382B0
:1022E000128215821482168290E07E010894E11C0D
:1022F000F11CB70150E00E94C000C801B7010E9464
:10230000121129960FB6F894DEBF0FBECDBFCF9144
:10231000DF911F910F91FF90EF900895CF93DF937E
:10232000EC01FB018617970761F0608171816115EF
:10233000710529F0448155810E94D71002C00E9486
:10234000B410CE01DF91CF910895FC01118210826B
:10235000138212821582148216820E948E110895B1
:10236000FC0111821082138212821582148216825D
:102370000E948E110895FC01808191810E94641257
:102380000895FC01808191810E94641208950F9349
:102390001F93CF93DF93BC018230910510F462E06C
:1023A00070E0E0912204F0912304A0E0B0E040E06E
:1023B00050E024C08081918186179707D0F086175E
:1023C000970771F482819381109729F013969C935B
:1023D0008E9312972CC0909323048093220427C0DD
:1023E0004115510519F08417950718F4EF018D0177
:1023F000AC01DF01828193819C01F9013097D1F614
:1024000041155105F9F0CA01861B970B84309105DF
:1024100080F48A819B810115110521F0F8019383D5
:10242000828304C09093230480932204FE01329699
:1024300045C0FE01E80FF91F6193719302979983DC
:1024400088833CC08091200490912104892B41F421
:102450008091970290919802909321048093200498
:102460004091990250919A024115510541F44DB79E
:102470005EB78091950290919602481B590B20916E
:1024800020043091210424173507B0F4CA01821BBF
:10249000930B8617970780F0AB014E5F5F4F841751
:1024A000950750F0420F531F50932104409320048E
:1024B000F9016193719302C0E0E0F0E0CF01DF9198
:1024C000CF911F910F910895CF93DF939C010097B7
:1024D00009F48FC0EC0122971B821A8260912204BA
:1024E000709123046115710581F488819981820FAF
:1024F000931F20912004309121042817390739F5C2
:10250000D0932104C093200474C0DB0140E050E06C
:10251000AC17BD0708F1BB83AA83FE01219131915D
:10252000E20FF31FAE17BF0779F48D919C911197BD
:10253000280F391F2E5F3F4F3983288312968D91C4
:102540009C9113979B838A834115510571F4D09315
:102550002304C09322044DC012968D919C91139731
:10256000AD01009711F0DC01D3CFDA011396DC93B3
:10257000CE931297FA0121913191E20FF31FCE17FA
:10258000DF0769F488819981280F391F2E5F3F4F3B
:10259000FA01318320838A819B8193838283E0E0E7
:1025A000F0E0DB0112968D919C911397009719F042
:1025B000BC01FD01F6CFAB014E5F5F4FDB018D919A
:1025C0009C91840F951F209120043091210428179D
:1025D000390779F4309729F41092230410922204D9
:1025E00002C0138212824250504050932104409303
:1025F0002004DF91CF9108956F927F928F929F92E6
:10260000AF92BF92CF92DF92EF92FF920F931F9300
:10261000CF93DF938C01009729F4CB010E94C7115F
:102620008C01BBC08EEFE82E8FEFF82EE00EF11E6E
:102630004801860E971E8E149F0408F4ACC0D70183
:102640004D915C91119746175707B8F045305105E9
:1026500008F4A3C0CA0104978617970708F49DC021
:1026600042505040461B570BF401419351936D93D8
:102670007C93CF010E94641290C05B01A41AB50A3A
:102680003801640E751EA0912204B0912304CC245D
:10269000DD24E0E0F0E047C0A615B705A9F5CD912F
:1026A000DC911197CE0102968A159B0568F1CE0147
:1026B0008A199B09029612962C91129713963C91B7
:1026C000059758F0F40122833383CA19DB09D183BB
:1026D000C083D7016D937C9309C04E5F5F4F4C0F51
:1026E0005D1FF70151834083C901FC01C114D1046E
:1026F00031F0D6011396FC93EE9312974EC0F093EF
:102700002304E093220449C08D919C911197E8170E
:10271000F90708F4FC016D0112968C91129713963B
:102720009C919C01D901109709F0B6CF80912004AB
:102730009091210486159705E9F4E617F707D0F480
:102740002091990230919A022115310541F42DB75B
:102750003EB78091950290919602281B390B821604
:102760009306C8F49092210480922004F7017183AB
:10277000608313C0CB010E94C711EC01009759F090
:10278000D7014D915C91B8010E948F00C8010E9451
:1027900064128E0102C000E010E0C801DF91CF9109
:1027A0001F910F91FF90EF90DF90CF90BF90AF906F
:1027B0009F908F907F906F900895629FD001739F3C
:1027C000F001829FE00DF11D649FE00DF11D929FCD
:1027D000F00D839FF00D749FF00D659FF00D99270C
:1027E000729FB00DE11DF91F639FB00DE11DF91F30
:1027F000BD01CF0111240895A1E21A2EAA1BBB1B13
:10280000FD010DC0AA1FBB1FEE1FFF1FA217B307BC
:10281000E407F50720F0A21BB30BE40BF50B661FD2
:10282000771F881F991F1A9469F760957095809596
:1028300090959B01AC01BD01CF010895EE0FFF1FE4
:102840000590F491E02D0994AA1BBB1B51E107C030
:10285000AA1FBB1FA617B70710F0A61BB70B881F30
:10286000991F5A95A9F780959095BC01CD010895BF
:1028700010E0C8ECD0E004C0FE010E9420142296B3
:0A288000CA3CD107C9F7F894FFCF56
:10288A00003000200042524F414443415354494EC4
:10289A00472E2E2E00494420726563656976656469
:1028AA003A0042494B4520464F554E4421004F704D
:1028BA0065726174696F6E20436F64653A004461A2
:1028CA007461207374617475733A006E6F74207248
:1028DA00656365697665642E0052464944205265EF
:1028EA006365697665643A005245434549564544ED
:1028FA00205041434B4554205345513A00524543D9
:10290A0045495645442044415441205345513A00D3
:10291A00444154412053454E44204C4F473A0041CC
:10292A00534B494E4720666F722072657472616E0E
:10293A00736D697373696F6E3A00424F4F4C204151
:10294A00434B3A005458204255464645523A0052A3
:10295A0058204255464645523A002D2D2D2D2D2DF3
:10296A002D52462044454255472D2D2D2D2D2D2DD6
:10297A002D2D2D2D00526164696F206368616E6E82
:10298A00656C3A00526164696F206D6F64653A0044
:10299A004C6F63616C20616464726573733A0052B0
:1029AA00656D6F746520616464726573733A005073
:1029BA0061636B657420726563656976656420631B
:1029CA006F756E7465723A005061636B6574206D41
:1029DA0069737365642072656365697665642071DD
:1029EA0075657269657320636F756E7465723A00F6
:1029FA002D2D2D2D2D2D2D2D2D2D2D2D2D2D2D2DFD
:102A0A002D2D2D2D2D2D2D2D2D2D002A0D000100C2
:102A1A00000101001E80002404000000000000875D
:102A2A0003E20D0000400014005400000000003AC8
:0C2A3A000DE20DD00C010DE10C2A0D0086
:00000001FF
