:100000000C9445010C94640F0C94910F0C946D01A9
:100010000C946D010C946D010C946D010C946D01A8
:100020000C946D010C946D010C946D010C946D0198
:100030000C946D010C946D010C946D010C946D0188
:100040000C94BE0F0C946D010C9438110C94861115
:100050000C946D010C946D010C946D010C946D0168
:100060000C946D010C946D010001020304050A0B50
:100070000C0D0E0F111213141516CF01D501DB0153
:10008000E301EC01F601FF0106020E0215021C025B
:100090002402504120506F77657209203D2025537E
:1000A0000D0A00435243204C656E67746809203D79
:1000B0002025530D0A004D6F64656C0909203D2011
:1000C00025530D0A00446174612052617465092052
:1000D0003D2025530D0A0044594E50442F464541BA
:1000E0005455524500434F4E4649470052465F53D0
:1000F000455455500052465F434800454E5F5258A4
:100100004144445200454E5F41410052585F5057B0
:100110005F50302D360054585F41444452005258CD
:100120005F414444525F50322D350052585F414484
:1001300044525F50302D31000D0A002530327800D6
:10014000203078002553092563203D000D0A00204A
:10015000307825303278002553092563203D004F43
:100160004253455256455F54583D253032783A2027
:10017000504F4C535F434E543D2578204152435FCE
:10018000434E543D25780D0A0053544154555309AC
:1001900009203D203078253032782052585F445273
:1001A0003D25782054585F44533D2578204D4158D3
:1001B0005F52543D25782052585F505F4E4F3D2589
:1001C000782054585F46554C4C3D25780D0A003137
:1001D0004D42505300324D425053003235304B4265
:1001E0005053006E524632344C3031006E5246321B
:1001F000344C30312B0044697361626C65640038A3
:100200002062697473003136206269747300504152
:100210005F4D494E0050415F4C4F570050415F4881
:100220004947480050415F4D4158000000000024FC
:100230000027002A0000000000250028002B0000F5
:100240000000002300260029000404040404040420
:100250000402020202020203030303030301020475
:100260000810204080010204081020010204081038
:100270002000000007000201000003040600000047
:10028000000000000000E304F21211241FBECFEFB3
:10029000D8E0DEBFCDBF12E0A0E0B1E0E4E3FAE2D7
:1002A00002C005900D92A036B107D9F713E0A0E681
:1002B000B2E001C01D92AF35B107E1F712E0CAE824
:1002C000D2E004C02297FE010E94DD14C638D10797
:1002D000C9F70E9448130C9418150C940000FC01F7
:1002E00005900020E9F7809590958E0F9F1F089547
:1002F000FB01DC0102C001900D9241505040D8F743
:1003000008950F931F93CF93DF938C01EB01009718
:1003100031F46115710519F420E030E038C081E056
:1003200090E06EE070E00E94E503FC019C01009704
:1003300071F180E88383209771F0D387C28781E8C9
:1003400083838091590390915A03892B21F4F09370
:100350005A03E093590301151105C9F0118700876D
:1003600083818260838380915B0390915C03892BFE
:1003700071F4F0935C03E0935B0380915D039091D3
:100380005E03892B21F4F0935E03E0935D03C901C2
:10039000DF91CF911F910F910895A0E0B0E0E3EDC0
:1003A000F1E00C94F114FE01359661917191809108
:1003B0005B0390915C03AF010E9408022096E2E08B
:1003C0000C940D15A0E0B0E0E8EEF1E00C94F1140F
:1003D000FE01359661917191A0915B03B0915C0330
:1003E00013968C911397886013968C9380915B037E
:1003F00090915C03AF010E940802E0915B03F091D1
:100400005C032381277F23832096E2E00C940D1563
:10041000ABE0B0E0EEE0F2E00C94E1143C012B0123
:100420005A01FC0117821682838181FD03C06FEFA0
:100430007FEFC6C19AE0892E1E010894211C311C51
:10044000F3012381F20123FD859123FF81912F0187
:10045000882309F4B2C1853239F423FD859123FF45
:1004600081912F01853229F490E0B3010E941E048E
:10047000E7CF982FFF24EE249924FFE1FF15D0F059
:100480009B3269F09C3228F4903259F0933291F407
:100490000EC09D3249F0903369F441E024C052E02F
:1004A000F52A84E0F82A28C098E0F92A25C0E0E17E
:1004B000FE2A22C0F7FC29C0892F80538A3070F4AD
:1004C000F6FE05C0989C902C1124980E15C0E89C4F
:1004D000E02C1124E80EF0E2FF2A0EC09E3229F42F
:1004E000F6FC6BC140E4F42A07C09C3619F450E8CE
:1004F000F52A02C0983649F4F20123FD959123FFB5
:1005000091912F01992309F0B8CF892F8554833019
:1005100018F08052833038F444E050E0A40EB51E49
:100520005FE359830FC0933631F0933779F09335F9
:1005300009F056C020C0F5018081898342E050E077
:10054000A40EB51E610101E010E012C0F501C080EB
:10055000D180F6FC03C06FEF7FEF02C0692D70E021
:1005600042E050E0A40EB51EC6010E9413048C01A7
:100570005FE7F52214C0F501C080D180F6FC03C00E
:100580006FEF7FEF02C0692D70E042E050E0A40EF3
:10059000B51EC6010E9401048C0150E8F52AF3FE45
:1005A00007C01AC080E290E0B3010E941E04EA94E2
:1005B0008E2D90E008171907A8F30EC0F601F7FC7E
:1005C0008591F7FE81916F0190E0B3010E941E04B6
:1005D000E110EA94015010400115110579F7EAC0C5
:1005E000943611F0993669F5F7FE08C0F5012081BF
:1005F00031814281538184E090E00AC0F50180811D
:1006000091819C01442737FD4095542F82E090E072
:10061000A80EB91E9FE6F92257FF09C050954095D4
:10062000309521953F4F4F4F5F4FE0E8FE2ACA01BA
:10063000B901A1012AE030E00E944A04D82ED21864
:1006400040C0953729F41F2D1F7E2AE030E01DC0E1
:100650001F2D197F9F3661F0903720F4983509F0EF
:10066000ACC00FC0903739F0983709F0A6C004C06D
:1006700028E030E00AC0106114FD146020E130E091
:1006800004C014FD166020E132E017FF08C0F50138
:10069000608171818281938144E050E008C0F5015E
:1006A00080819181BC0180E090E042E050E0A40EA6
:1006B000B51EA1010E944A04D82ED2188FE7F82E49
:1006C000F122F6FE0BC05EEFF522D91438F4F4FEE9
:1006D00007C0F2FC05C08FEEF82202C01D2D01C03C
:1006E000192DF4FE0DC0FE01ED0DF11D808180334A
:1006F00019F499EEF92208C01F5FF2FE05C003C08D
:100700008F2D867809F01F5F0F2DF3FC14C0F0FECB
:100710000FC01E1510F09D2C0BC09D2C9E0C911A25
:100720001E2D06C080E290E0B3010E941E041F5FF0
:100730001E15C0F304C01E1510F4E11A01C0EE240A
:1007400004FF0FC080E390E0B3010E941E0402FF8B
:100750001DC001FD03C088E790E00EC088E590E071
:100760000BC0802F867891F001FF02C08BE201C0A0
:1007700080E2F7FC8DE290E0B3010E941E0406C007
:1007800080E390E0B3010E941E049A94D914C0F350
:10079000DA94F101ED0DF11D808190E0B3010E942A
:1007A0001E04DD20A9F706C080E290E0B3010E949C
:1007B0001E04EA94EE20C1F743CEF30166817781EF
:1007C000CB012B96E2E10C94FD140F931F93CF9372
:1007D000DF93689F8001699F100D789F100D112491
:1007E000C8010E948413EC01009729F060E070E0DA
:1007F000A8010E940C04CE01DF91CF911F910F91AF
:100800000895FC010590615070400110D8F7809563
:1008100090958E0F9F1F0895DC0101C06D9341508C
:100820005040E0F70895FC016150704001900110C4
:10083000D8F7809590958E0F9F1F08950F931F9363
:10084000CF93DF938C01EB018B8181FF1BC082FF73
:100850000DC02E813F818C819D812817390764F45A
:10086000E881F9810193F983E88306C0E885F98579
:10087000802F0995892B31F48E819F8101969F836A
:100880008E8302C00FEF1FEFC801DF91CF911F9140
:100890000F910895FA01AA27283051F1203181F1F2
:1008A000E8946F936E7F6E5F7F4F8F4F9F4FAF4F78
:1008B000B1E03ED0B4E03CD0670F781F891F9A1F8B
:1008C000A11D680F791F8A1F911DA11D6A0F711D3F
:1008D000811D911DA11D20D009F468943F912AE04B
:1008E000269F11243019305D3193DEF6CF01089533
:1008F000462F4770405D4193B3E00FD0C9F7F6CF64
:10090000462F4F70405D4A3318F0495D31FD40522B
:10091000419302D0A9F7EACFB4E0A69597958795C1
:1009200077956795BA95C9F70097610571050895A0
:100930009B01AC010A2E069457954795379527954C
:10094000BA95C9F7620F731F841F951FA01D0895E4
:1009500080916002909161020E94EA04089584ED02
:1009600094E060E070E00E94810108950F931F936E
:1009700083E393E040E051EE60E070E00E94C1113B
:100980000E94AF0481E090E00E945713182F092FB6
:1009900060E070E041E00E9408071093600200935D
:1009A00061021F910F9108950F931F93082F112734
:1009B00007FD109583E393E0602F0E94B212C801F7
:1009C0001F910F9108958BE692E069E04AE00E9442
:1009D00034080895CF93DF932091690230916A0221
:1009E00040916302509164026091650270916602C9
:1009F000A0916702B09168028DB79EB70A970FB6B3
:100A0000F8949EBF0FBE8DBFEDB7FEB7319688E656
:100A100091E0CDB7DEB79A838983338322835583F0
:100A2000448377836683B187A0870E94CD018DB709
:100A30009EB70A960FB6F8949EBF0FBE8DBFDF918A
:100A4000CF9108959F92AF92BF92CF92DF92EF9293
:100A5000FF920F931F93DF93CF93CDB7DEB72E97FF
:100A60000FB6F894DEBF0FBECDBF8BE692E0BE019D
:100A70006F5F7F4FAE014E5F5F4F9E012D5F3F4F17
:100A80000E94C1098B81882309F097C1AFC18C8175
:100A9000823009F484C0833009F408C1813009F040
:100AA00087C18091630290916402019690936402E1
:100AB0008093630280919B02882309F479C18BE6BD
:100AC00092E0B70142E00E94EF098BE692E00E94BB
:100AD000360C8D819E819C01330F220B322F482FC3
:100AE000892F922F522F622F722FE22FF22F042F75
:100AF0000B5F11E0041708F010E0482F435321E08A
:100B0000481708F020E0140F81E0141708F080E087
:100B1000282B892F855531E0891708F030E0280F00
:100B200091E0281708F090E0392B852F855441E09B
:100B3000851708F040E0380F91E0381708F090E092
:100B4000492B862F855491E0861708F090E0480FD6
:100B500051E0481708F050E0592B570F61E0571744
:100B600008F060E06E0F71E06E1708F070E07F0F24
:100B70008BE692E00E94540A80916202882351F031
:100B80008BE692E066E472E043E00E941D0A109258
:100B9000620287C08BE692E063E472E073C08091EA
:100BA00065029091660201969093660280936502B9
:100BB00080919B02882309F4FBC08BE692E0B70189
:100BC00042E00E94EF098BE692E00E94360C8D8194
:100BD0009E819C01330F220B322F482F892F922F99
:100BE000522F622F722FE22FF22F042F0B5F11E092
:100BF000041708F010E0482F435321E0481708F08D
:100C000020E0140F81E0141708F080E0282B892FD2
:100C1000855531E0891708F030E0280F91E028175A
:100C200008F090E0392B852F855441E0851708F0B6
:100C300040E0380F91E0381708F090E0492B862FFC
:100C4000855491E0861708F090E0480F51E048176E
:100C500008F050E0592B570F61E0571708F060E09B
:100C60006E0F71E06E1708F070E07F0F8BE692E078
:100C70000E94540A80916202882341F08BE692E040
:100C800066E472E043E00E941D0A0BC08BE692E02E
:100C900063E472E043E00E941D0A882311F0909201
:100CA00062028BE692E00E946E0C82C08091670225
:100CB00090916802019690936802809367028BE698
:100CC00092E0B60148E00E94EF098F818C3409F070
:100CD0006FC088858F3409F06BC0109262028091DA
:100CE000690290916A02019690936A028093690268
:100CF0008BE692E00E94360C80919C0290919D02BE
:100D00009C01330F220B322F482F892F922F522F05
:100D1000622F722FE22FF22F042F0B5F11E00417C6
:100D200008F010E0482F435321E0481708F020E076
:100D3000140F81E0141708F080E0282B892F8555C7
:100D400031E0891708F030E0280F91E0281708F00B
:100D500090E0392B852F855441E0851708F040E05D
:100D6000380F91E0381708F090E0492B862F855412
:100D700091E0861708F090E0480F51E0481708F01E
:100D800050E0592B570F61E0571708F060E06E0FE5
:100D900071E06E1708F070E07F0F8BE692E00E9422
:100DA000540A8BE692E063E472E043E00E941D0A7D
:100DB0008BE692E00E946E0C11C024E0A22EB12CB2
:100DC000AC0EBD1E95E0E92EF12CEC0EFD1E992413
:100DD000939487E0C82ED12CCC0EDD1E8BE692E0DA
:100DE000B5010E94D80B882309F051CE2E960FB67C
:100DF000F894DEBF0FBECDBFCF91DF911F910F9151
:100E0000FF90EF90DF90CF90BF90AF909F900895AC
:100E1000EF92FF920F931F9381E080937B023DEC52
:100E200030937C022BEA20937D029BEB90937E0211
:100E300090937F021092800210928102109282029F
:100E4000E3E8F2E082E0809383023183228393839C
:100E5000948315821682178283E080938B023093ED
:100E60008C0220938D0290938E0290938F021092A9
:100E700090021092910210929202E3E9F2E084E073
:100E80008093930231832283938394831582168205
:100E9000178270939D0260939C0240939B028BE6A5
:100EA00092E00E94080D8BE692E061E00E94B70993
:100EB0008BE692E068E00E943E088BE692E06FE0ED
:100EC0004FE00E94AD098BE692E061E041E020E056
:100ED0000E94F70B8BE692E06CE30E94210A8BE6FE
:100EE00092E061E00E94250B8BE692E062E070E008
:100EF0000E94DC0A80919B02E0907B02F0907C02D1
:100F000020917D0230917E0240917F0250918002BB
:100F1000E091810270918202882361F18BE692E078
:100F200061E089019A014E2F572F0E945C0BE090DF
:100F30008B02F0908C0200918D0210918E02209114
:100F40008F023091900240919102509192028BE673
:100F500092E062E00E945C0B8BE692E063E017E0B7
:100F6000E12EBDECFB2E0BEA1BEB2BEB30E040E05F
:100F700050E05CC08BE692E087016E2F0E94540A1D
:100F800080919C0290919D029C01330F220B322F85
:100F9000482F892F922F322F622F722FE22FA22FEC
:100FA000F42FFB5F51E0F41708F050E0482F435353
:100FB00001E0481708F000E0F52EF40E81E0F41689
:100FC00008F080E0082B892F855511E0891708F07B
:100FD00010E0080F91E0081708F090E0192B832F1C
:100FE000855421E0831708F020E0180F91E01817CE
:100FF00008F090E0292B862F855491E0861708F0A1
:1010000090E0280F31E0281708F030E0392B370F37
:1010100041E0371708F040E04E0F51E04E1708F05E
:1010200050E05A0F8BE692E061E0EF2E0E945C0BDD
:1010300080919B02882321F08BE692E00E946E0C47
:101040008BE692E00E94560E80919B02882339F035
:1010500080E062E275E040E050E00E94410F1F91A5
:101060000F91FF90EF900895FC01608341831282FD
:1010700080E28383148285E082870895FC016132D7
:1010800008F060E26383089570E08DB79EB70E9715
:101090000FB6F8949EBF0FBE8DBFEDB7FEB7319669
:1010A00089E891E0ADB7BEB712969C938E931197E5
:1010B00073836283CB0156E0969587955A95E1F745
:1010C0008170907095838483CB0145E096958795D8
:1010D0004A95E1F78170907097838683CB0134E065
:1010E000969587953A95E1F7817090709187808702
:1010F000CB019595879587709070938782876170F3
:101100007070758764870E94E2018DB79EB70E9656
:101110000FB6F8949EBF0FBE8DBF0895FC0190815D
:101120008181981719F0892F0E94E3100895FF928A
:101130000F931F938C01F62E81E00E940B0F80E02D
:101140000E94140F84E00E94190FF80181816F2D15
:101150000E94E31085E090E00E945F101F910F91C4
:10116000FF900895CF93DF93EC0160E00E94970811
:1011700080E58EBD0DB407FEFDCF8EB583E78EBD35
:101180000DB407FEFDCF8EB5CE0161E00E94970839
:10119000DF91CF9108951F93CF93DF93EC01162F2A
:1011A00060E00E9497081EBD0DB407FEFDCF1EB57E
:1011B000CE0161E00E949708812FDF91CF911F91AE
:1011C00008956FEF0E94CB08089561EE0E94CB084E
:1011D000089562EE0E94CB080895EF92FF920F935C
:1011E0001F93CF93DF93EC01F62EE72E9B81142FF4
:1011F000941708F4192F8C81882311F000E002C0A5
:10120000092F011BCE0160E00E94970881E68EBD88
:101210000DB407FEFDCF8F2D9E2D9C01F901FEB46C
:101220009FEF07C09EBD0DB407FEFDCF8EB5819325
:1012300011501123B9F707C08EBD0DB407FEFDCFC5
:101240009EB5015001C08FEF0023B1F7CE0161E0E0
:101250000E9497088F2DDF91CF911F910F91FF90E2
:10126000EF900895DF92EF92FF920F931F93CF9329
:10127000DF93EC01E62ED72EF22E9B81142F9417CC
:1012800008F4192F8C81882311F000E002C0092F87
:10129000011BCE0160E00E949708FEBC0DB407FE62
:1012A000FDCF8E2D9D2D9C01F901FEB408C08081DB
:1012B0008EBD0DB407FEFDCF31968EB511501123B2
:1012C000B1F706C01EBC0DB407FEFDCF8EB50150B0
:1012D0000023C1F7CE0161E00E9497088F2DDF91B6
:1012E000CF911F910F91FF90EF90DF9008950F9392
:1012F000CF93DF93EC01222311F420EA01C020EB0D
:10130000CE010E943209002321F0CE0161E00E944B
:101310008E08DF91CF910F9108950F931F93CF9374
:10132000DF93EC01162F042F60E00E9497081F71D5
:1013300010621EBD0DB407FEFDCF1EB50EBD0DB46F
:1013400007FEFDCF8EB5CE0161E00E949708812F88
:10135000DF91CF911F910F910895262F4F70229505
:10136000207F242B64E0422F0E948D09089566237C
:1013700019F061E04FE302C061E040E00E948D0996
:101380000895CF92DF92EF92FF920F931F938B01FC
:101390007A01690167E040E70E948D0990E09C01B5
:1013A000E5E036952795EA95E1F72170F80120836D
:1013B00074E0969587957A95E1F7282F2170F701CB
:1013C000208396958795969587958170F601808301
:1013D0001F910F91FF90EF90DF90CF9008950F93A2
:1013E0001F938C010E94ED08C80167E040E70E944E
:1013F0008D091F910F9108950F93CF93DF93EC0107
:1014000001E00E947709CE010E94E1088073D9F3C0
:10141000CE0160E00E948E08CE0167E040E70E94A6
:101420008D0984FD02C081E004C0CE010E94E50860
:1014300080E0DF91CF910F91089520E00E94FC0998
:101440000895462F603808F04FE765E00E948D0947
:101450000895EF92FF920F931F93CF93DF937C0138
:10146000162FEA01022F60E00E9497081F71106298
:101470001EBD0DB407FEFDCF1EB508C088818EBD10
:101480000DB407FEFDCF21968EB501500023B1F7B4
:10149000C70161E00E949708812FDF91CF911F91D2
:1014A0000F91FF90EF900895EF92FF920F931F938B
:1014B000DF93CF93CDB7DEB728970FB6F894DEBF92
:1014C0000FBECDBF7C0109831A832B833C834D83E0
:1014D0005E836F8378878E010F5F1F4F6AE0A801DC
:1014E000F70122850E94290AC70160E1A801F701DE
:1014F00022850E94290AC70161E1F70143810E9408
:101500008D0928960FB6F894DEBF0FBECDBFCF91E0
:10151000DF911F910F91FF90EF9008951F93CF934C
:10152000DF93EC01162F60E00E9497081F711EBD2B
:101530000DB407FEFDCF8EB58FEF8EBD0DB407FE47
:10154000FDCF1EB5CE0161E00E949708812FDF918B
:10155000CF911F910895EF92FF921F937C0160E05D
:101560000E948E0A182FC70161E00E948E0A1C702B
:1015700013FD05C0882319F420E030E007C012FDF8
:1015800003C021E030E002C022E030E0C9011F9139
:10159000FF90EF90089566E00E948E0A8872803274
:1015A00019F422E030E006C020E030E0883011F489
:1015B00021E030E0C9010895FF920F931F93CF936C
:1015C000DF93EC018B0166E00E948E0AF7EDFF2E9F
:1015D000F82285E590E0A0E0B0E08B879C87AD879E
:1015E000BE870230110539F480E2F82A8BE990E0D9
:1015F000A0E0B0E009C00130110551F488E0F82AFC
:1016000081E490E0A0E0B0E08B879C87AD87BE8747
:10161000CE0166E04F2D0E948D09CE0166E00E944A
:101620008E0A90E08F1509F491E0892FDF91CF9118
:101630001F910F91FF90089566E00E948E0A90E03E
:10164000867090709595879508951F93CF93DF933B
:10165000EC01162F66E00E948E0A143010F047E06D
:1016600003C0412F440F4F5F887F482BCE0166E0B7
:101670000E948D09DF91CF911F910895FF920F93E2
:101680001F938C01F62E62E00E948E0AE8E6F0E0DD
:10169000EF0DF11DE49141E050E002C0440F551FF1
:1016A000EA95E2F740954823C80162E00E948D095F
:1016B0001F910F91FF900895BF92CF92DF92EF920A
:1016C000FF920F931F93DF93CF93CDB7DEB7289789
:1016D0000FB6F894DEBF0FBECDBF6C01B62EE98207
:1016E000FA820B831C832D833E834F8358876623A6
:1016F00069F49C012B5F3F4FFC014285C901BE018B
:101700006F5F7F4F50E00E94780107C0F6E0F61748
:1017100008F43EC081E0681769F4EB2DF0E0E2596F
:10172000FF4FE491C6016E2FAE014F5F5F4FF60190
:1017300022850BC0E62FF0E0E259FF4FE491C6018D
:101740006E2FAE014F5F5F4F21E00E94290A0B2DE3
:1017500010E0F801EC58FF4FE491C6016E2FF6013E
:1017600043810E948D09C60162E00E948E0A0859D9
:101770001F4FF801649121E030E002C0220F331FB7
:101780006A95E2F7482F422BC60162E00E948D095C
:1017900028960FB6F894DEBF0FBECDBFCF91DF9174
:1017A0001F910F91FF90EF90DF90CF90BF90089521
:1017B0000F931F93CF93DF93EC018B0167E10E949E
:1017C0008E0A80FF02C080E00DC00115110549F0AE
:1017D000CE010E94E10890E0959587958770F80109
:1017E000808381E0DF91CF911F910F910895CF9277
:1017F000DF92FF920F931F936C01062FF42E122F8E
:1018000060E00E948E0AF29490EFF9220295000F98
:10181000007E0F291295110F110F107C102B182B21
:10182000C60160E0412F0E948D091F910F91FF902A
:10183000DF90CF900895CF93DF93EC0160E00E949A
:101840008E0A81FD10C0CE0160E00E948E0A482FF2
:101850004260CE0160E00E948D0965E070E080E0AA
:1018600090E00E940610DF91CF910895CF93DF930F
:10187000EC0160E00E948E088B859C850E945F10C1
:10188000CE016DE10E948E0A81FF07C08B859C8589
:101890000E945F10CE010E94E508CE0160E00E9428
:1018A0008E0A482F4E7FCE0160E00E948D09CE0146
:1018B00062E00E948E0AE8E6F0E0E49121E030E088
:1018C00002C0220F331FEA95E2F7482F422BCE01C8
:1018D00062E00E948D09DF91CF910895CF93DF934D
:1018E000EC010E941B0CCE0160E00E948E0A482F82
:1018F0004160CE0160E00E948D09CE0167E040E7C3
:101900000E948D09CE0161E00E948E088D8188239E
:1019100049F0AE014B5F5F4FCE016AE02A850E941D
:10192000290A04C0CE0160E00E943E0BCE016DE1A9
:101930000E948E0A81FF03C0CE010E94E508DF915C
:10194000CF910895CF92DF92FF920F931F93CF9381
:10195000DF936C01EB01042FF22ECB010E946F018B
:10196000089710F027E001C029E000D000D000D097
:10197000EDB7FEB7319687E591E0ADB7BEB71296E9
:101980009C938E931197D383C283822F992787FDCF
:101990009095958384830E94E201EDB7FEB7369659
:1019A0000FB6F894FEBF0FBEEDBFCFE4D1E01BC071
:1019B000102F1F5FC601602F0E948E0A00D000D03A
:1019C000EDB7FEB73196ADB7BEB71296DC93CE93A6
:1019D0001197828313820E94E201FA94012F0F90E3
:1019E0000F900F900F90FF2019F700D08CE491E03A
:1019F000EDB7FEB7928381830E94E2010F900F90B2
:101A0000DF91CF911F910F91FF90DF90CF900895BC
:101A1000CF93DF93EC0198818981981721F0892F6A
:101A200061E00E94A41099818881891721F0892F93
:101A300061E00E94A4100E942A0FCE0160E00E9483
:101A40008E08CE0161E00E94970865E070E080E0BA
:101A500090E00E940610CE0160E04CE00E948D09EB
:101A6000CE0165E04FE00E94AD09CE0162E070E07A
:101A70000E94DC0A882311F081E08A83CE0160E0B5
:101A800070E00E94DC0ACE010E94B208CE016DE136
:101A900040E00E948D09CE016CE140E00E948D097A
:101AA000CE0167E040E70E948D09CE016CE40E9400
:101AB000210ACE010E94E908CE010E94E508CE016C
:101AC0000E941B0CCE0160E00E948E0A482F4E7FC0
:101AD000CE0160E00E948D09DF91CF910895EF92D1
:101AE000FF920F931F93CF93DF937C01162FEA0190
:101AF000022F60E00E9497081F711EBD0DB407FE03
:101B0000FDCF1EB59FEF07C09EBD0DB407FEFDCFF4
:101B10008EB5899301500023B9F7C70161E00E9497
:101B20009708812FDF91CF911F910F91FF90EF9038
:101B300008952F923F924F925F926F927F928F9271
:101B40009F92AF92BF92CF92DF92EF92FF920F934C
:101B50001F93DF93CF93CDB7DEB75C018B01C42E0B
:101B6000D22E6DB67EB6CB010E946F01089710F0A1
:101B700027E001C029E000D000D000D0EDB7FEB7CB
:101B8000319684E491E0ADB7BEB712969C938E93E4
:101B9000119713830283822F992787FD9095958350
:101BA00084830E94E201EDB7FEB736960FB6F89433
:101BB000FEBF0FBEEDBF40E4242E41E0342E3BE3D8
:101BC000432E31E0532E4CC09DB68EB6D5011A96E9
:101BD0000C9110E0EDB7FEB7E01BF10B0FB6F894D7
:101BE000FEBF0FBEEDBFEDB6FEB60894E11CF11CC2
:101BF000202FC5016C2DA7010E946F0D00D0ADB73D
:101C0000BEB712963C922E9211970E94E2010E0DE1
:101C10001F1D0F900F9015C000D000D0EDB7FEB77C
:101C20003196ADB7BEB712965C924E921197D8011D
:101C30008C91828313820E94E2010F900F900F908B
:101C40000F90015010400E151F0530F7C394892DD9
:101C5000982D9C010FB6F8943EBF0FBE2DBFDA94AD
:101C6000DD2009F0B1CF00D088E391E0EDB7FEB7F9
:101C7000928381830E94E2010F900F900FB6F89437
:101C80007EBE0FBE6DBECF91DF911F910F91FF9071
:101C9000EF90DF90CF90BF90AF909F908F907F900C
:101CA0006F905F904F903F902F9008950F931F93E8
:101CB0008C010E94E108682FC8010E944408C801F5
:101CC0006BE271E04AE022E00E94990DC8016EE1EA
:101CD00071E04CE024E00E94A20CC80166E171E0D2
:101CE00040E121E00E94990DC8016BE071E041E103
:101CF00026E00E94A20CC80165E071E041E021E00D
:101D00000E94A20CC8016BEF70E042E021E00E944B
:101D1000A20CC80165EF70E045E021E00E94A20C32
:101D2000C8016CEE70E046E021E00E94A20CC80100
:101D300065EE70E040E021E00E94A20CC80167ED72
:101D400070E04CE122E00E94A20CC8010E94CB0A84
:101D5000FC01EE0FFF1FE658FF4F2591349100D094
:101D600000D085EC90E0EDB7FEB792838183348399
:101D700023830E94E201F8018281E82FF0E0EE0F58
:101D8000FF1FE058FF4F2591349186EB90E0EDB7AF
:101D9000FEB792838183348323830E94E2010F90F4
:101DA0000F900F900F90C8010E94AB0AFC01EE0F3C
:101DB000FF1FEC57FF4F2591349100D000D083EAEC
:101DC00090E0EDB7FEB792838183348323830E9432
:101DD000E2010F900F900F900F90C8010E941C0B12
:101DE000E82FF0E0EE0FFF1FE657FF4F25913491EB
:101DF00000D000D082E990E0EDB7FEB792838183F6
:101E0000348323830E94E2010F900F900F900F9074
:101E10001F910F910895882319F48CB5806202C038
:101E20008CB58F7D8CBD08959CB5937F982B9CBD00
:101E300008952CB5382F33702C7F322B3CBD2DB537
:101E400090E0959587959595879581702E7F822B4B
:101E50008DBD08958AE061E00E94E3108AE061E0B0
:101E60000E94A4108CB580618CBD8CB580648CBD43
:101E70008DE061E00E94A4108BE061E00E94A4105C
:101E80000895823000F5E82FF0E0EE0FFF1FE256D4
:101E9000FD4F71836083882319F08130A1F408C05D
:101EA000809169008C7F842B80936900E89A089563
:101EB00080916900440F551F440F551F837F842B69
:101EC00080936900E99A08951F920F920FB60F92BE
:101ED00011242F933F934F935F936F937F938F932F
:101EE0009F93AF93BF93EF93FF9380919E02909146
:101EF0009F02892B29F0E0919E02F0919F020995A3
:101F0000FF91EF91BF91AF919F918F917F916F91D1
:101F10005F914F913F912F910F900FBE0F901F90A7
:101F200018951F920F920FB60F9211242F933F9383
:101F30004F935F936F937F938F939F93AF93BF93D1
:101F4000EF93FF938091A0029091A102892B29F039
:101F5000E091A002F091A1020995FF91EF91BF914C
:101F6000AF919F918F917F916F915F914F913F9131
:101F70002F910F900FBE0F901F9018951F920F92E8
:101F80000FB60F9211242F933F938F939F93AF938C
:101F9000BF938091A6029091A702A091A802B09150
:101FA000A9023091AA020196A11DB11D232F2D5F18
:101FB0002D3720F02D570196A11DB11D2093AA02A7
:101FC0008093A6029093A702A093A802B093A902BF
:101FD0008091A2029091A302A091A402B091A502C7
:101FE0000196A11DB11D8093A2029093A302A0931C
:101FF000A402B093A502BF91AF919F918F913F91A1
:102000002F910F900FBE0F901F9018959B01AC0160
:102010007FB7F8948091A2029091A302A091A402AC
:10202000B091A50266B5A89B05C06F3F19F0019657
:10203000A11DB11D7FBFBA2FA92F982F8827860F0A
:10204000911DA11DB11D62E0880F991FAA1FBB1F22
:102050006A95D1F7BC012DC0FFB7F8948091A20218
:102060009091A302A091A402B091A502E6B5A89B0D
:1020700005C0EF3F19F00196A11DB11DFFBFBA2F9A
:10208000A92F982F88278E0F911DA11DB11DE2E069
:10209000880F991FAA1FBB1FEA95D1F7861B970BC4
:1020A000885E9340C8F22150304040405040685113
:1020B0007C4F211531054105510571F608950197B1
:1020C00039F0880F991F880F991F02970197F1F730
:1020D0000895789484B5826084BD84B5816084BDA0
:1020E00085B5826085BD85B5816085BDEEE6F0E091
:1020F000808181608083E1E8F0E0108280818260ED
:102100008083808181608083E0E8F0E0808181606D
:102110008083E1EBF0E0808184608083E0EBF0E09D
:10212000808181608083EAE7F0E080818460808341
:1021300080818260808380818160808380818068EB
:1021400080831092C1000895CF93DF93482F50E011
:10215000CA01835A9D4FFC013491475B5D4FFA01E0
:102160008491882369F190E0880F991FFC01E55D57
:10217000FD4FA591B491FC01EB5CFD4FC591D4914D
:10218000662351F42FB7F8948C91932F909589235F
:102190008C93888189230BC0623061F42FB7F89447
:1021A0008C91932F909589238C938881832B88839E
:1021B0002FBF06C09FB7F8948C91832B8C939FBF41
:1021C000DF91CF910895482F50E0CA018F589D4F5D
:1021D000FC012491CA01835A9D4FFC019491475BF5
:1021E0005D4FFA013491332309F440C0222351F1A9
:1021F000233071F0243028F42130A1F0223011F581
:1022000014C02630B1F02730C1F02430D9F404C016
:10221000809180008F7703C0809180008F7D8093B4
:10222000800010C084B58F7702C084B58F7D84BDD7
:1022300009C08091B0008F7703C08091B0008F7D7E
:102240008093B000E32FF0E0EE0FFF1FEB5CFD4F3B
:10225000A591B4912FB7F894662321F48C919095B1
:10226000892302C08C91892B8C932FBF08950895E8
:102270001F920F920FB60F9211242F933F934F93FB
:102280008F939F93EF93FF938091C00082FD1DC0B9
:102290004091C6002091EB023091EC022F5F3F4F3E
:1022A0002F7330708091ED029091EE02281739075C
:1022B00071F0E091EB02F091EC02E555FD4F4083A7
:1022C0003093EC022093EB0202C08091C600FF9194
:1022D000EF919F918F914F913F912F910F900FBE52
:1022E0000F901F901895E0913F03F0914003E05C40
:1022F000FF4F8191919120813181821B930B8F73CC
:102300009070892B11F00E94371108951F920F923F
:102310000FB60F9211242F933F938F939F93EF93B8
:10232000FF9320912F0330913003809131039091DE
:1023300032032817390731F48091C1008F7D8093D3
:10234000C10014C0E0913103F0913203E151FD4F1F
:102350002081809131039091320301968F739070A8
:1023600090933203809331032093C600FF91EF9145
:102370009F918F913F912F910F900FBE0F901F90C3
:102380001895AF92BF92DF92EF92FF920F931F9337
:10239000CF93DF93EC017A018B01DD24403081EE95
:1023A000580780E0680780E0780711F0DD24D394B7
:1023B00091E0A92EB12CEC89FD89DD2069F0C501E1
:1023C00008A002C0880F991F0A94E2F7808360E09A
:1023D00079E08DE390E005C0108260E874E88EE15A
:1023E00090E0A80197010E94B9142150304040406C
:1023F0005040569547953795279580E1203038070E
:1024000020F0DD2011F0DD24D6CFE889F989308372
:10241000EA89FB89208319A2EE89FF89408121E0A6
:1024200030E0C9010C8C02C0880F991F0A94E2F7B2
:10243000482B4083EE89FF894081C9010D8C02C081
:10244000880F991F0A94E2F7482B4083EE89FF8991
:102450004081C9010E8C02C0880F991F0A94E2F7CF
:10246000482B4083EE89FF8980810F8C02C0220FA8
:10247000331F0A94E2F7209528232083DF91CF9120
:102480001F910F91FF90EF90DF90BF90AF90089554
:10249000DC011C96ED91FC911D97E05CFF4F2191B2
:1024A000319180819181281B390B2F733070C901C4
:1024B0000895DC011C96ED91FC911D97E05CFF4FA7
:1024C00020813181E054F040DF01AE5BBF4F8D9140
:1024D0009C9111972817390719F42FEF3FEF07C088
:1024E0008D919C91E80FF91F8081282F30E0C90160
:1024F0000895DC011C96ED91FC911D97E05CFF4F67
:1025000020813181E054F040DF01AE5BBF4F8D91FF
:102510009C9111972817390719F42FEF3FEF10C03E
:102520008D919C911197E80FF91F20818D919C91BD
:10253000119701968F73907011969C938E9330E053
:10254000C9010895DC0191968C919197882339F007
:102550005496ED91FC915597808186FFF9CF919625
:102560001C920895CF93DF93EC01EE85FF85E05C2C
:10257000FF4F20813181E054F0402F5F3F4F2F7398
:102580003070DF01AE5BBF4F8D919C911197281782
:102590003907D1F3E05CFF4F80819181E054F04036
:1025A000E80FF91F6083EE85FF85E05CFF4F318304
:1025B0002083EE89FF89208181E090E00F8C02C0AA
:1025C000880F991F0A94E2F7282B208381E089A3C2
:1025D000EC89FD8980818064808381E090E0DF91D7
:1025E000CF910895109236031092350388EE93E050
:1025F000A0E0B0E08093370390933803A0933903B1
:10260000B0933A0383E592E09093340380933303CD
:102610008BEA92E09093400380933F038FEE92E029
:10262000909342038093410385EC90E090934403A0
:102630008093430384EC90E090934603809345039A
:1026400080EC90E0909348038093470381EC90E006
:1026500090934A038093490382EC90E090934C035B
:1026600080934B0386EC90E090934E0380934D0350
:1026700084E080934F0383E08093500387E080934E
:10268000510385E08093520381E0809353030895C2
:10269000CF93DF930E9469100E94B604C3E7D1E193
:1026A0000E94A8042097E1F30E947311F9CF0E94C1
:1026B00084130895CF92DF92EF92FF920F931F93AE
:1026C000CF93DF937C016B018A01C0E0D0E00FC0A3
:1026D000D6016D916D01D701ED91FC910190F081D2
:1026E000E02DC7010995C80FD91F015010400115F1
:1026F000110571F7CE01DF91CF911F910F91FF90DE
:10270000EF90DF90CF9008950F931F93CF93DF93B7
:10271000BC018230910510F462E070E0E091570353
:10272000F0915803A0E0B0E040E050E024C0808188
:10273000918186179707D0F08617970771F48281E9
:102740009381109729F013969C938E9312972CC027
:10275000909358038093570327C04115510519F0F2
:102760008417950718F4EF018D01AC01DF01828118
:1027700093819C01F9013097D1F641155105F9F08B
:10278000CA01861B970B8430910580F48A819B8156
:102790000115110521F0F8019383828304C0909301
:1027A000580380935703FE01329645C0FE01E80F9F
:1027B000F91F619371930297998388833CC080913C
:1027C000550390915603892B41F480914B029091CF
:1027D0004C02909356038093550340914D025091C3
:1027E0004E024115510541F44DB75EB78091490243
:1027F00090914A02481B590B209155033091560382
:1028000024173507B0F4CA01821B930B861797076C
:1028100080F0AB014E5F5F4F8417950750F0420F79
:10282000531F5093560340935503F90161937193DD
:1028300002C0E0E0F0E0CF01DF91CF911F910F9156
:102840000895CF93DF939C01009709F48FC0EC01AA
:1028500022971B821A826091570370915803611569
:10286000710581F488819981820F931F209155030E
:10287000309156032817390739F5D0935603C09382
:10288000550374C0DB0140E050E0AC17BD0708F110
:10289000BB83AA83FE0121913191E20FF31FAE1792
:1028A000BF0779F48D919C911197280F391F2E5FE6
:1028B0003F4F3983288312968D919C9113979B8368
:1028C0008A834115510571F4D0935803C09357037F
:1028D0004DC012968D919C911397AD01009711F008
:1028E000DC01D3CFDA011396DC93CE931297FA0171
:1028F00021913191E20FF31FCE17DF0769F4888130
:102900009981280F391F2E5F3F4FFA0131832083B1
:102910008A819B8193838283E0E0F0E0DB01129661
:102920008D919C911397009719F0BC01FD01F6CF92
:10293000AB014E5F5F4FDB018D919C91840F951F22
:1029400020915503309156032817390779F43097B1
:1029500029F4109258031092570302C01382128276
:10296000425050405093560340935503DF91CF910E
:102970000895A1E21A2EAA1BBB1BFD010DC0AA1FC0
:10298000BB1FEE1FFF1FA217B307E407F50720F0D8
:10299000A21BB30BE40BF50B661F771F881F991F53
:1029A0001A9469F760957095809590959B01AC019C
:1029B000BD01CF010895EE0FFF1F0590F491E02DAA
:1029C00009942F923F924F925F926F927F928F92D3
:1029D0009F92AF92BF92CF92DF92EF92FF920F93AE
:1029E0001F93CF93DF93CDB7DEB7CA1BDB0B0FB6B8
:1029F000F894DEBF0FBECDBF09942A883988488875
:102A00005F846E847D848C849B84AA84B984C8840A
:102A1000DF80EE80FD800C811B81AA81B981CE0F01
:102A2000D11D0FB6F894DEBF0FBECDBFED010895E6
:042A3000F894FFCF48
:102A34005061636B657420726563656976656420B3
:102A4400636F756E7465723A005061636B657420D0
:102A54006D69737365642072656365697665642066
:102A64007175657269657320636F756E7465723A0A
:102A740000736F6D657468696E67002D2D2D2D2DA3
:102A84002D2D2D2D2D2D2D2D2D2D2D2D2D2D2D2D72
:102A94002D2D2D2D2D0A0D0053657373696F6E2036
:102AA400436F756E7465723A202564202C20697218
:102AB40071312025642C20697271322025642C2008
:102AC400697271333A25640A0D00636C6F73696E21
:102AD400672073657373696F6E2E2E2E0054494DF3
:102AE400454F555420534F20424144212125640A27
:102AF4000D004C6F67206F75742073756363657385
:102B04007321210A0D000A0D0052616E676520745D
:102B1400657374696E672E2E2E0054494D454F55CA
:102B2400540A0D0057656C6C20726563656976659F
:102B34006420696E2072616E676520746573743AEF
:102B440025730A0D0048616E647368616B696E6772
:102B54002E2E2E00476F7420726573706F6E73652E
:102B640020696E2048414E445348414B452025730B
:102B74000A0D004F4B004B4F0080005F0300000024
:102B8400000000B2125A13481279125912A212000C
:00000001FF
