:100000000C9445010C946D010C946D010C946D01E0
:100010000C946D010C946D010C946D010C946D01A8
:100020000C946D010C946D010C946D010C946D0198
:100030000C946D010C946D010C946D010C946D0188
:100040000C949D0E0C946D010C9417100C9465107B
:100050000C946D010C946D010C946D010C946D0168
:100060000C946D010C946D010001020304050A0B50
:100070000C0D0E0F111213141516CF01D501DB0153
:10008000E301EC01F601FF0106020E0215021C025B
:100090002402504120506F77657209203D2025537E
:1000A0000D0A00435243204C656E67746809203D79
:1000B0002025530D0A004D6F64656C0909203D2011
:1000C00025530D0A00446174612052617465092052
:1000D0003D2025530D0A0044594E50442F464541BA
:1000E0005455524500434F4E4649470052465F53D0
:1000F000455455500052465F434800454E5F5258A4
:100100004144445200454E5F41410052585F5057B0
:100110005F50302D360054585F41444452005258CD
:100120005F414444525F50322D350052585F414484
:1001300044525F50302D31000D0A002530327800D6
:10014000203078002553092563203D000D0A00204A
:10015000307825303278002553092563203D004F43
:100160004253455256455F54583D253032783A2027
:10017000504F4C535F434E543D2578204152435FCE
:10018000434E543D25780D0A0053544154555309AC
:1001900009203D203078253032782052585F445273
:1001A0003D25782054585F44533D2578204D4158D3
:1001B0005F52543D25782052585F505F4E4F3D2589
:1001C000782054585F46554C4C3D25780D0A003137
:1001D0004D42505300324D425053003235304B4265
:1001E0005053006E524632344C3031006E5246321B
:1001F000344C30312B0044697361626C65640038A3
:100200002062697473003136206269747300504152
:100210005F4D494E0050415F4C4F570050415F4881
:100220004947480050415F4D4158000000000024FC
:100230000027002A0000000000250028002B0000F5
:100240000000002300260029000404040404040420
:100250000402020202020203030303030301020475
:100260000810204080010204081020010204081038
:100270002000000007000201000003040600000047
:10028000000000000000E904D11111241FBECFEFCF
:10029000D8E0DEBFCDBF12E0A0E0B1E0E2EFF7E2D0
:1002A00002C005900D92A03BB107D9F713E0A0EB77
:1002B000B2E001C01D92A338B107E1F712E0CAE82D
:1002C000D2E004C02297FE010E94BC13C638D107B9
:1002D000C9F70E9427120C94F7130C940000FC013C
:1002E00005900020E9F7809590958E0F9F1F089547
:1002F000FB01DC0102C001900D9241505040D8F743
:1003000008950F931F93CF93DF938C01EB01009718
:1003100031F46115710519F420E030E038C081E056
:1003200090E06EE070E00E94E503FC019C01009704
:1003300071F180E88383209771F0D387C28781E8C9
:10034000838380917D0390917E03892B21F4F09328
:100350007E03E0937D0301151105C9F01187008725
:1003600083818260838380917F0390918003892BB6
:1003700071F4F0938003E0937F0380918103909167
:100380008203892B21F4F0938203E0938103C90156
:10039000DF91CF911F910F910895A0E0B0E0E3EDC0
:1003A000F1E00C94D013FE0135966191719180912A
:1003B0007F0390918003AF010E9408022096E2E043
:1003C0000C94EC13A0E0B0E0E8EEF1E00C94D01354
:1003D000FE01359661917191A0917F03B0918003E8
:1003E00013968C911397886013968C9380917F035A
:1003F00090918003AF010E940802E0917F03F09189
:1004000080032381277F23832096E2E00C94EC1362
:10041000ABE0B0E0EEE0F2E00C94C0133C012B0145
:100420005A01FC0117821682838181FD03C06FEFA0
:100430007FEFC6C19AE0892E1E010894211C311C51
:10044000F3012381F20123FD859123FF81912F0187
:10045000882309F4B2C1853239F423FD859123FF45
:1004600081912F01853229F490E0B3010E941E048E
:10047000E7CF982FFF24EE249924FFE1FF15D0F059
:100480009B3269F09C3228F4903259F0933291F407
:100490000EC09D3249F0903369F441E024C052E02F
:1004A000F52A84E0F82A28C098E0F92A25C0E0E17E
:1004B000FE2A22C0F7FC29C0892F80538A3070F4AD
:1004C000F6FE05C0989C902C1124980E15C0E89C4F
:1004D000E02C1124E80EF0E2FF2A0EC09E3229F42F
:1004E000F6FC6BC140E4F42A07C09C3619F450E8CE
:1004F000F52A02C0983649F4F20123FD959123FFB5
:1005000091912F01992309F0B8CF892F8554833019
:1005100018F08052833038F444E050E0A40EB51E49
:100520005FE359830FC0933631F0933779F09335F9
:1005300009F056C020C0F5018081898342E050E077
:10054000A40EB51E610101E010E012C0F501C080EB
:10055000D180F6FC03C06FEF7FEF02C0692D70E021
:1005600042E050E0A40EB51EC6010E9413048C01A7
:100570005FE7F52214C0F501C080D180F6FC03C00E
:100580006FEF7FEF02C0692D70E042E050E0A40EF3
:10059000B51EC6010E9401048C0150E8F52AF3FE45
:1005A00007C01AC080E290E0B3010E941E04EA94E2
:1005B0008E2D90E008171907A8F30EC0F601F7FC7E
:1005C0008591F7FE81916F0190E0B3010E941E04B6
:1005D000E110EA94015010400115110579F7EAC0C5
:1005E000943611F0993669F5F7FE08C0F5012081BF
:1005F00031814281538184E090E00AC0F50180811D
:1006000091819C01442737FD4095542F82E090E072
:10061000A80EB91E9FE6F92257FF09C050954095D4
:10062000309521953F4F4F4F5F4FE0E8FE2ACA01BA
:10063000B901A1012AE030E00E944A04D82ED21864
:1006400040C0953729F41F2D1F7E2AE030E01DC0E1
:100650001F2D197F9F3661F0903720F4983509F0EF
:10066000ACC00FC0903739F0983709F0A6C004C06D
:1006700028E030E00AC0106114FD146020E130E091
:1006800004C014FD166020E132E017FF08C0F50138
:10069000608171818281938144E050E008C0F5015E
:1006A00080819181BC0180E090E042E050E0A40EA6
:1006B000B51EA1010E944A04D82ED2188FE7F82E49
:1006C000F122F6FE0BC05EEFF522D91438F4F4FEE9
:1006D00007C0F2FC05C08FEEF82202C01D2D01C03C
:1006E000192DF4FE0DC0FE01ED0DF11D808180334A
:1006F00019F499EEF92208C01F5FF2FE05C003C08D
:100700008F2D867809F01F5F0F2DF3FC14C0F0FECB
:100710000FC01E1510F09D2C0BC09D2C9E0C911A25
:100720001E2D06C080E290E0B3010E941E041F5FF0
:100730001E15C0F304C01E1510F4E11A01C0EE240A
:1007400004FF0FC080E390E0B3010E941E0402FF8B
:100750001DC001FD03C088E790E00EC088E590E071
:100760000BC0802F867891F001FF02C08BE201C0A0
:1007700080E2F7FC8DE290E0B3010E941E0406C007
:1007800080E390E0B3010E941E049A94D914C0F350
:10079000DA94F101ED0DF11D808190E0B3010E942A
:1007A0001E04DD20A9F706C080E290E0B3010E949C
:1007B0001E04EA94EE20C1F743CEF30166817781EF
:1007C000CB012B96E2E10C94DC130F931F93CF9394
:1007D000DF93689F8001699F100D789F100D112491
:1007E000C8010E946312EC01009729F060E070E0FC
:1007F000A8010E940C04CE01DF91CF911F910F91AF
:100800000895FC010590615070400110D8F7809563
:1008100090958E0F9F1F0895DC0101C06D9341508C
:100820005040E0F70895FC016150704001900110C4
:10083000D8F7809590958E0F9F1F08950F931F9363
:10084000CF93DF938C01EB018B8181FF1BC082FF73
:100850000DC02E813F818C819D812817390764F45A
:10086000E881F9810193F983E88306C0E885F98579
:10087000802F0995892B31F48E819F8101969F836A
:100880008E8302C00FEF1FEFC801DF91CF911F9140
:100890000F910895FA01AA27283051F1203181F1F2
:1008A000E8946F936E7F6E5F7F4F8F4F9F4FAF4F78
:1008B000B1E03ED0B4E03CD0670F781F891F9A1F8B
:1008C000A11D680F791F8A1F911DA11D6A0F711D3F
:1008D000811D911DA11D20D009F468943F912AE04B
:1008E000269F11243019305D3193DEF6CF01089533
:1008F000462F4770405D4193B3E00FD0C9F7F6CF64
:10090000462F4F70405D4A3318F0495D31FD40522B
:10091000419302D0A9F7EACFB4E0A69597958795C1
:1009200077956795BA95C9F70097610571050895A0
:100930009B01AC010A2E069457954795379527954C
:10094000BA95C9F7620F731F841F951FA01D0895E4
:100950008091B0029091B1020E94F00468E270E0D0
:1009600080E090E00E94E50E08958AED94E060E05A
:1009700070E00E94810108950F931F9387E593E033
:1009800040E051EE60E070E00E94A0100E94B504CB
:1009900081E090E00E943612182F092F60E070E08D
:1009A00041E00E94F5061093B0020093B1021F913E
:1009B0000F9108950F931F93082F112707FD10958E
:1009C00087E593E0602F0E949111C8011F910F915C
:1009D000089583EB92E069E04AE00E94BE07089523
:1009E0002F923F924F925F926F927F928F929F923F
:1009F000AF92BF92CF92DF92EF92FF920F931F932D
:100A0000DF93CF93CDB7DEB72B970FB6F894DEBF49
:100A10000FBECDBF22E0422E512C4C0E5D1EAA24EB
:100A2000A3949BEAB92E8BEBC82EDD2404E0602E44
:100A3000712C6C0E7D1E1CEA212E11E0312EB2E9C4
:100A40008B2EB2E09B2EAEC100D000D0EDB7FEB72A
:100A500031968AE991E0ADB7BEB712969C938E931A
:100A600011978981828313820E94CD010F900F908C
:100A70000F900F908981823009F473C0833009F49C
:100A8000F1C0813009F08AC18091C302882309F442
:100A900085C183EB92E0B20142E00E944B0983EBF7
:100AA00092E00E94920B8A819B819C0140E050E081
:100AB00060E070E080E090E0022F095F11E0021733
:100AC00008F010E0E32FE353F1E0E31708F0F0E063
:100AD0001E0FA1E01E1708F0A0E0FA2BE1E0B4160B
:100AE00008F0E0E0ABEAEA2EEF0EF1E0ABEAEA163E
:100AF00008F0F0E0EF2BF1E0C51608F0F0E05BEB5A
:100B0000F52EFE0EE1E0BBEBFB1608F0E0E0FE2B5D
:100B1000A1E0C61608F0A0E0BF2FB554E1E0BB3B52
:100B200008F0E0E0AE2BF1E0D71608F0F0E0E1E0ED
:100B3000D81608F0E0E083EB92E097014B2F5A2F94
:100B40006F2F7E2F0E94B0098091B202882309F096
:100B500074C083EB92E06FE872E043E00E94790991
:100B60007CC08091C302882309F418C183EB92E012
:100B7000B20142E00E944B098A819B819093C50299
:100B80008093C40283EB92E00E94920B8091C40296
:100B90009091C5029C0140E050E060E070E080E090
:100BA00090E0022F095F11E0021708F010E0E32F38
:100BB000E353F1E0E31708F0F0E01E0FA1E01E1789
:100BC00008F0A0E0FA2BE1E0B41608F0E0E04BEA10
:100BD000E42EEF0EF1E0ABEAEA1608F0F0E0EF2BBE
:100BE000F1E0C51608F0F0E03BEBF32EFE0EE1E07D
:100BF000BBEBFB1608F0E0E0FE2BA1E0C61608F008
:100C0000A0E0BF2FB554E1E0BB3B08F0E0E0AE2B25
:100C1000F1E0D71608F0F0E0E1E0D81608F0E0E0E7
:100C200083EB92E097014B2F5A2F6F2F7E2F0E945C
:100C3000B0098091B202882329F083EB92E067E942
:100C400072E08BCF83EB92E06FE872E043E00E94AA
:100C50007909882311F0A092B20283EB92E00E94FE
:100C6000CA0B9CC083EB92E0B30148E00E944B09A1
:100C70008C818C3409F092C08D818F3409F08EC044
:100C800000D000D000D0EDB7FEB73196ADB7BEB7FB
:100C900012963C922E921197738262829582848280
:100CA0000E94CD011092B202EDB7FEB736960FB694
:100CB000F894FEBF0FBEEDBF83EB92E00E94920B53
:100CC00000D000D0E8ECF1E0ADB7BEB71296FC93CF
:100CD000EE93119714969C928E9213970E94CD01D9
:100CE0000F900F900F900F908091C4029091C502C9
:100CF0009C0140E050E060E070E080E090E0022F76
:100D0000095F11E0021708F010E0E32FE353F1E070
:100D1000E31708F0F0E01E0FA1E01E1708F0A0E0B6
:100D2000FA2BE1E0B41608F0E0E02BEAE22EEF0E39
:100D3000F1E0ABEAEA1608F0F0E0EF2BF1E0C516BF
:100D400008F0F0E09BEBF92EFE0EE1E0BBEBFB16AA
:100D500008F0E0E0FE2BA1E0C61608F0A0E0BF2FEF
:100D6000B554E1E0BB3B08F0E0E0AE2BF1E0D71674
:100D700008F0F0E0E1E0D81608F0E0E083EB92E064
:100D800097014B2F5A2F6F2F7E2F0E94B00983EBB4
:100D900092E062E972E045E00E94790983EB92E01B
:100DA0000E94CA0B83EB92E0BE016F5F7F4F0E94EF
:100DB000340B882309F048CE2B960FB6F894DEBF8B
:100DC0000FBECDBFCF91DF911F910F91FF90EF909C
:100DD000DF90CF90BF90AF909F908F907F906F905B
:100DE0005F904F903F902F900895EF92FF920F9356
:100DF0001F937093C5026093C4024093C30283EBB8
:100E000092E00E94640C83EB92E061E00E94410951
:100E100083EB92E068E00E94C80783EB92E06FE00A
:100E20004FE00E94370983EB92E061E041E020E06F
:100E30000E94530B83EB92E06CE30E947D0983EBED
:100E400092E061E00E94810A83EB92E062E070E050
:100E50000E94380A8091C302882321F183EB92E03B
:100E600061E0EE24E394BDECFB2E0BEA1BEB2BEBD5
:100E700030E040E050E00E94B80A83EB92E062E08C
:100E8000A3E0EA2E2BEB30E040E050E00E94B80AED
:100E900083EB92E063E0F5E0EF2E2BEB30E040E0F7
:100EA00050E059C083EB92E001E01DEC2BEA3BEBF4
:100EB0004BEB50E060E070E00E94B0098091C4020A
:100EC0009091C5029C0140E050E060E070E080E05D
:100ED00090E0E7E0EE2EE20EF1E0E21608F0F0E03E
:100EE000E32FE35301E0E31708F000E0FF2EFE0ECE
:100EF000F1E0FE1608F0F0E00F2B11E04C3A08F498
:100F000010E00555E1E00B3A08F0E0E01E2BE1E0CF
:100F10005C3B08F4E0E01554F1E01B3B08F0F0E026
:100F2000EF2BF1E06C3B08F4F0E0BE2FB554E1E0AC
:100F3000BB3B08F0E0E0FE2BA1E0772309F4A0E042
:100F4000E1E0882309F4E0E083EB92E061E02B2FFD
:100F50003F2F4A2F5E2F0E94B80A8091C302882338
:100F600021F083EB92E00E94CA0B83EB92E00E9497
:100F7000B20D1F910F91FF90EF900895FC016083D7
:100F80004183128280E28383148285E08287089500
:100F9000FC01613208F060E26383089570E08DB770
:100FA0009EB70E970FB6F8949EBF0FBE8DBFEDB7DC
:100FB000FEB7319689E891E0ADB7BEB712969C9323
:100FC0008E93119773836283CB0156E09695879534
:100FD0005A95E1F78170907095838483CB0145E049
:100FE000969587954A95E1F78170907097838683EF
:100FF000CB0134E0969587953A95E1F78170907032
:1010000091878087CB01959587958770907093879E
:10101000828761707070758764870E94E2018DB766
:101020009EB70E960FB6F8949EBF0FBE8DBF089563
:10103000FC0190818181981719F0892F0E94C20FBD
:101040000895FF920F931F938C01F62E81E00E946A
:10105000670E80E00E94700E84E00E94750EF80119
:1010600081816F2D0E94C20F85E090E00E943E0FAB
:101070001F910F91FF900895CF93DF93EC0160E0F3
:101080000E94210880E58EBD0DB407FEFDCF8EB510
:1010900083E78EBD0DB407FEFDCF8EB5CE0161E0B6
:1010A0000E942108DF91CF9108951F93CF93DF9382
:1010B000EC01162F60E00E9421081EBD0DB407FE52
:1010C000FDCF1EB5CE0161E00E942108812FDF9186
:1010D000CF911F9108956FEF0E945508089561EE1A
:1010E0000E945508089562EE0E9455080895EF92F7
:1010F000FF920F931F93CF93DF93EC01F62EE72E11
:101100009B81142F941708F4192F8C81882311F0D8
:1011100000E002C0092F011BCE0160E00E942108FF
:1011200081E68EBD0DB407FEFDCF8F2D9E2D9C0157
:10113000F901FEB49FEF07C09EBD0DB407FEFDCFC1
:101140008EB5819311501123B9F707C08EBD0DB430
:1011500007FEFDCF9EB5015001C08FEF0023B1F710
:10116000CE0161E00E9421088F2DDF91CF911F9168
:101170000F91FF90EF900895DF92EF92FF920F93FF
:101180001F93CF93DF93EC01E62ED72EF22E9B8197
:10119000142F941708F4192F8C81882311F000E084
:1011A00002C0092F011BCE0160E00E942108FEBC95
:1011B0000DB407FEFDCF8E2D9D2D9C01F901FEB4CF
:1011C00008C080818EBD0DB407FEFDCF31968EB56F
:1011D00011501123B1F706C01EBC0DB407FEFDCFA0
:1011E0008EB501500023C1F7CE0161E00E942108B5
:1011F0008F2DDF91CF911F910F91FF90EF90DF9096
:1012000008950F93CF93DF93EC01222311F420EA8A
:1012100001C020EBCE010E94BC08002321F0CE01CA
:1012200061E00E941808DF91CF910F9108950F930C
:101230001F93CF93DF93EC01162F042F60E00E94E1
:1012400021081F7110621EBD0DB407FEFDCF1EB533
:101250000EBD0DB407FEFDCF8EB5CE0161E00E943C
:101260002108812FDF91CF911F910F910895262F93
:101270004F702295207F242B64E0422F0E94170993
:101280000895662319F061E04FE302C061E040E099
:101290000E94170908950F931F938C010E947708ED
:1012A000C80167E040E70E9417091F910F91089558
:1012B0000F93CF93DF93EC0101E00E940109CE016F
:1012C0000E946B088073D9F3CE0160E00E94180879
:1012D000CE0167E040E70E94170984FD02C081E06B
:1012E00004C0CE010E946F0880E0DF91CF910F9182
:1012F000089520E00E9458090895462F603808F0AC
:101300004FE765E00E9417090895EF92FF920F934F
:101310001F93CF93DF937C01162FEA01022F60E029
:101320000E9421081F7110621EBD0DB407FEFDCF83
:101330001EB508C088818EBD0DB407FEFDCF219675
:101340008EB501500023B1F7C70161E00E9421086A
:10135000812FDF91CF911F910F91FF90EF90089512
:10136000EF92FF920F931F93DF93CF93CDB7DEB72A
:1013700028970FB6F894DEBF0FBECDBF7C0109835E
:101380001A832B833C834D835E836F8378878E0122
:101390000F5F1F4F6AE0A801F70122850E948509AF
:1013A000C70160E1A801F70122850E948509C701F4
:1013B00061E1F70143810E94170928960FB6F8945E
:1013C000DEBF0FBECDBFCF91DF911F910F91FF9078
:1013D000EF9008951F93CF93DF93EC01162F60E0F9
:1013E0000E9421081F711EBD0DB407FEFDCF8EB5F2
:1013F0008FEF8EBD0DB407FEFDCF1EB5CE0161E0AF
:101400000E942108812FDF91CF911F910895EF92C3
:10141000FF921F937C0160E00E94EA09182FC70128
:1014200061E00E94EA091C7013FD05C0882319F4CD
:1014300020E030E007C012FD03C021E030E002C030
:1014400022E030E0C9011F91FF90EF90089566E01F
:101450000E94EA098872803219F422E030E006C066
:1014600020E030E0883011F421E030E0C901089537
:10147000FF920F931F93CF93DF93EC018B0166E0F4
:101480000E94EA09F7EDFF2EF82285E590E0A0E042
:10149000B0E08B879C87AD87BE870230110539F499
:1014A00080E2F82A8BE990E0A0E0B0E009C00130CA
:1014B000110551F488E0F82A81E490E0A0E0B0E062
:1014C0008B879C87AD87BE87CE0166E04F2D0E943B
:1014D0001709CE0166E00E94EA0990E08F1509F431
:1014E00091E0892FDF91CF911F910F91FF90089587
:1014F00066E00E94EA0990E0867090709595879565
:1015000008951F93CF93DF93EC01162F66E00E949E
:10151000EA09143010F047E003C0412F440F4F5F39
:10152000887F482BCE0166E00E941709DF91CF919A
:101530001F910895FF920F931F938C01F62E62E086
:101540000E94EA09E8E6F0E0EF0DF11DE49141E0C8
:1015500050E002C0440F551FEA95E2F7409548233A
:10156000C80162E00E9417091F910F91FF90089532
:10157000BF92CF92DF92EF92FF920F931F93DF9370
:10158000CF93CDB7DEB728970FB6F894DEBF0FBE66
:10159000CDBF6C01B62EE982FA820B831C832D83AA
:1015A0003E834F835887662369F49C012B5F3F4F2E
:1015B000FC014285C901BE016F5F7F4F50E00E9470
:1015C000780107C0F6E0F61708F43EC081E068171E
:1015D00069F4EB2DF0E0E259FF4FE491C6016E2F64
:1015E000AE014F5F5F4FF60122850BC0E62FF0E0A2
:1015F000E259FF4FE491C6016E2FAE014F5F5F4F7E
:1016000021E00E9485090B2D10E0F801EC58FF4FF6
:10161000E491C6016E2FF60143810E941709C601AD
:1016200062E00E94EA0908591F4FF801649121E025
:1016300030E002C0220F331F6A95E2F7482F422B99
:10164000C60162E00E94170928960FB6F894DEBF23
:101650000FBECDBFCF91DF911F910F91FF90EF9003
:10166000DF90CF90BF9008950F931F93CF93DF9398
:10167000EC018B0167E10E94EA0980FF02C080E073
:101680000DC00115110549F0CE010E946B0890E0D4
:10169000959587958770F801808381E0DF91CF91E0
:1016A0001F910F910895CF92DF92FF920F931F9396
:1016B0006C01062FF42E122F60E00E94EA09F294CA
:1016C00090EFF9220295000F007E0F291295110F5D
:1016D000110F107C102B182BC60160E0412F0E94C7
:1016E00017091F910F91FF90DF90CF900895CF932E
:1016F000DF93EC0160E00E94EA0981FD10C0CE0199
:1017000060E00E94EA09482F4260CE0160E00E943A
:10171000170965E070E080E090E00E94E50EDF913F
:10172000CF910895CF93DF93EC0160E00E941808F9
:101730008B859C850E943E0FCE016DE10E94EA09D7
:1017400081FF07C08B859C850E943E0FCE010E94C1
:101750006F08CE0160E00E94EA09482F4E7FCE015B
:1017600060E00E941709CE0162E00E94EA09E8E603
:10177000F0E0E49121E030E002C0220F331FEA954F
:10178000E2F7482F422BCE0162E00E941709DF9159
:10179000CF910895CF93DF93EC010E94770BCE0198
:1017A00060E00E94EA09482F4160CE0160E00E949B
:1017B0001709CE0167E040E70E941709CE0161E0FA
:1017C0000E9418088D81882349F0AE014B5F5F4F5E
:1017D000CE016AE02A850E94850904C0CE0160E03E
:1017E0000E949A0ACE016DE10E94EA0981FF03C0BE
:1017F000CE010E946F08DF91CF910895CF92DF92C2
:10180000FF920F931F93CF93DF936C01EB01042F93
:10181000F22ECB010E946F01089710F027E001C063
:1018200029E000D000D000D0EDB7FEB7319687E5B3
:1018300091E0ADB7BEB712969C938E931197D38368
:10184000C283822F992787FD9095958384830E9478
:10185000E201EDB7FEB736960FB6F894FEBF0FBEA5
:10186000EDBFCFE4D1E01BC0102F1F5FC601602F7A
:101870000E94EA0900D000D0EDB7FEB73196ADB7AF
:10188000BEB71296DC93CE931197828313820E9487
:10189000E201FA94012F0F900F900F900F90FF200C
:1018A00019F700D08CE491E0EDB7FEB79283818305
:1018B0000E94E2010F900F90DF91CF911F910F9145
:1018C000FF90DF90CF900895CF93DF93EC01988144
:1018D0008981981721F0892F61E00E94830F9981F7
:1018E0008881891721F0892F61E00E94830F0E946F
:1018F000860ECE0160E00E941808CE0161E00E94D1
:10190000210865E070E080E090E00E94E50ECE01E5
:1019100060E04CE00E941709CE0165E04FE00E94B4
:101920003709CE0162E070E00E94380A882311F086
:1019300081E08A83CE0160E070E00E94380ACE0127
:101940000E943C08CE016DE140E00E941709CE01E3
:101950006CE140E00E941709CE0167E040E70E9479
:101960001709CE016CE40E947D09CE010E94730824
:10197000CE010E946F08CE010E94770BCE0160E07D
:101980000E94EA09482F4E7FCE0160E00E941709AD
:10199000DF91CF910895EF92FF920F931F93CF9312
:1019A000DF937C01162FEA01022F60E00E942108DC
:1019B0001F711EBD0DB407FEFDCF1EB59FEF07C002
:1019C0009EBD0DB407FEFDCF8EB589930150002357
:1019D000B9F7C70161E00E942108812FDF91CF9103
:1019E0001F910F91FF90EF9008952F923F924F9289
:1019F0005F926F927F928F929F92AF92BF92CF929F
:101A0000DF92EF92FF920F931F93DF93CF93CDB7A7
:101A1000DEB75C018B01C42ED22E6DB67EB6CB0133
:101A20000E946F01089710F027E001C029E000D064
:101A300000D000D0EDB7FEB7319684E491E0ADB7A9
:101A4000BEB712969C938E93119713830283822FB5
:101A5000992787FD9095958384830E94E201EDB7D5
:101A6000FEB736960FB6F894FEBF0FBEEDBF40E44A
:101A7000242E41E0342E3BE3432E31E0532E4CC064
:101A80009DB68EB6D5011A960C9110E0EDB7FEB753
:101A9000E01BF10B0FB6F894FEBF0FBEEDBFEDB625
:101AA000FEB60894E11CF11C202FC5016C2DA70186
:101AB0000E94CB0C00D0ADB7BEB712963C922E92CE
:101AC00011970E94E2010E0D1F1D0F900F9015C07F
:101AD00000D000D0EDB7FEB73196ADB7BEB71296C5
:101AE0005C924E921197D8018C91828313820E944E
:101AF000E2010F900F900F900F90015010400E15C3
:101B00001F0530F7C394892D982D9C010FB6F894CA
:101B10003EBF0FBE2DBFDA94DD2009F0B1CF00D05B
:101B200088E391E0EDB7FEB7928381830E94E201E2
:101B30000F900F900FB6F8947EBE0FBE6DBECF9182
:101B4000DF911F910F91FF90EF90DF90CF90BF90AA
:101B5000AF909F908F907F906F905F904F903F904D
:101B60002F9008950F931F938C010E946B08682F8C
:101B7000C8010E94CE07C8016BE271E04AE022E092
:101B80000E94F50CC8016EE171E04CE024E00E9477
:101B9000FE0BC80166E171E040E121E00E94F50C16
:101BA000C8016BE071E041E126E00E94FE0BC80134
:101BB00065E071E041E021E00E94FE0BC8016BEF9F
:101BC00070E042E021E00E94FE0BC80165EF70E08A
:101BD00045E021E00E94FE0BC8016CEE70E046E09B
:101BE00021E00E94FE0BC80165EE70E040E021E0BC
:101BF0000E94FE0BC80167ED70E04CE122E00E94FC
:101C0000FE0BC8010E94270AFC01EE0FFF1FE658D9
:101C1000FF4F2591349100D000D085EC90E0EDB7D6
:101C2000FEB792838183348323830E94E201F8010B
:101C30008281E82FF0E0EE0FFF1FE058FF4F259163
:101C4000349186EB90E0EDB7FEB7928381833483C5
:101C500023830E94E2010F900F900F900F90C80114
:101C60000E94070AFC01EE0FFF1FEC57FF4F259162
:101C7000349100D000D083EA90E0EDB7FEB79283B4
:101C80008183348323830E94E2010F900F900F9091
:101C90000F90C8010E94780AE82FF0E0EE0FFF1FB6
:101CA000E657FF4F2591349100D000D082E990E0B3
:101CB000EDB7FEB792838183348323830E94E201D0
:101CC0000F900F900F900F901F910F910895882300
:101CD00019F48CB5806202C08CB58F7D8CBD0895DF
:101CE0009CB5937F982B9CBD08952CB5382F3370ED
:101CF0002C7F322B3CBD2DB590E095958795959521
:101D0000879581702E7F822B8DBD08958AE061E0DA
:101D10000E94C20F8AE061E00E94830F8CB580614F
:101D20008CBD8CB580648CBD8DE061E00E94830F1A
:101D30008BE061E00E94830F08951F920F920FB60F
:101D40000F9211242F933F938F939F93AF93BF9341
:101D50008091CA029091CB02A091CC02B091CD02A9
:101D60003091CE020196A11DB11D232F2D5F2D377D
:101D700020F02D570196A11DB11D2093CE02809316
:101D8000CA029093CB02A093CC02B093CD02809173
:101D9000C6029091C702A091C802B091C9020196F3
:101DA000A11DB11D8093C6029093C702A093C802E3
:101DB000B093C902BF91AF919F918F913F912F91A5
:101DC0000F900FBE0F901F9018959B01AC017FB72D
:101DD000F8948091C6029091C702A091C802B09178
:101DE000C90266B5A89B05C06F3F19F00196A11DF9
:101DF000B11D7FBFBA2FA92F982F8827860F911D5D
:101E0000A11DB11D62E0880F991FAA1FBB1F6A9513
:101E1000D1F7BC012DC0FFB7F8948091C602909114
:101E2000C702A091C802B091C902E6B5A89B05C03F
:101E3000EF3F19F00196A11DB11DFFBFBA2FA92FC9
:101E4000982F88278E0F911DA11DB11DE2E0880FEC
:101E5000991FAA1FBB1FEA95D1F7861B970B885EB7
:101E60009340C8F2215030404040504068517C4F70
:101E7000211531054105510571F60895019739F095
:101E8000880F991F880F991F02970197F1F70895FE
:101E9000789484B5826084BD84B5816084BD85B545
:101EA000826085BD85B5816085BDEEE6F0E080810C
:101EB00081608083E1E8F0E010828081826080832D
:101EC000808181608083E0E8F0E0808181608083B0
:101ED000E1EBF0E0808184608083E0EBF0E08081E2
:101EE00081608083EAE7F0E0808184608083808184
:101EF000826080838081816080838081806880832C
:101F00001092C1000895CF93DF93482F50E0CA018B
:101F1000835A9D4FFC013491475B5D4FFA018491D8
:101F2000882369F190E0880F991FFC01E55DFD4F62
:101F3000A591B491FC01EB5CFD4FC591D491662352
:101F400051F42FB7F8948C91932F909589238C930B
:101F5000888189230BC0623061F42FB7F8948C918B
:101F6000932F909589238C938881832B88832FBF0F
:101F700006C09FB7F8948C91832B8C939FBFDF9101
:101F8000CF910895482F50E0CA018F589D4FFC0112
:101F90002491CA01835A9D4FFC019491475B5D4F88
:101FA000FA013491332309F440C0222351F1233044
:101FB00071F0243028F42130A1F0223011F514C042
:101FC0002630B1F02730C1F02430D9F404C080911C
:101FD00080008F7703C0809180008F7D8093800088
:101FE00010C084B58F7702C084B58F7D84BD09C0D1
:101FF0008091B0008F7703C08091B0008F7D809377
:10200000B000E32FF0E0EE0FFF1FEB5CFD4FA5915A
:10201000B4912FB7F894662321F48C91909589237D
:1020200002C08C91892B8C932FBF089508951F9225
:102030000F920FB60F9211242F933F934F938F93CC
:102040009F93EF93FF938091C00082FD1DC040914C
:10205000C60020910F03309110032F5F3F4F2F7365
:10206000307080911103909112032817390771F095
:10207000E0910F03F0911003E153FD4F4083309343
:10208000100320930F0302C08091C600FF91EF91CF
:102090009F918F914F913F912F910F900FBE0F9075
:1020A0001F901895E0916303F0916403E05CFF4F8B
:1020B0008191919120813181821B930B8F7390705C
:1020C000892B11F00E94161008951F920F920FB6DF
:1020D0000F9211242F933F938F939F93EF93FF932E
:1020E00020915303309154038091550390915603EE
:1020F0002817390731F48091C1008F7D8093C1008A
:1021000014C0E0915503F0915603ED5EFC4F208121
:10211000809155039091560301968F739070909320
:102120005603809355032093C600FF91EF919F9132
:102130008F913F912F910F900FBE0F901F90189588
:10214000AF92BF92DF92EF92FF920F931F93CF93C4
:10215000DF93EC017A018B01DD24403081EE5807DA
:1021600080E0680780E0780711F0DD24D39491E0E7
:10217000A92EB12CEC89FD89DD2069F0C50108A0EC
:1021800002C0880F991F0A94E2F7808360E079E02B
:102190008DE390E005C0108260E874E88EE190E085
:1021A000A80197010E9498132150304040405040B0
:1021B000569547953795279580E12030380720F0D0
:1021C000DD2011F0DD24D6CFE889F9893083EA8952
:1021D000FB89208319A2EE89FF89408121E030E04C
:1021E000C9010C8C02C0880F991F0A94E2F7482B92
:1021F0004083EE89FF894081C9010D8C02C0880FA0
:10220000991F0A94E2F7482B4083EE89FF894081A9
:10221000C9010E8C02C0880F991F0A94E2F7482B5F
:102220004083EE89FF8980810F8C02C0220F331F0B
:102230000A94E2F7209528232083DF91CF911F9104
:102240000F91FF90EF90DF90BF90AF900895DC0169
:102250001C96ED91FC911D97E05CFF4F219131910F
:1022600080819181281B390B2F733070C90108952B
:10227000DC011C96ED91FC911D97E05CFF4F2081E5
:102280003181E054F040DF01AE5BBF4F8D919C91F6
:1022900011972817390719F42FEF3FEF07C08D91D9
:1022A0009C91E80FF91F8081282F30E0C901089523
:1022B000DC011C96ED91FC911D97E05CFF4F2081A5
:1022C0003181E054F040DF01AE5BBF4F8D919C91B6
:1022D00011972817390719F42FEF3FEF10C08D9190
:1022E0009C911197E80FF91F20818D919C91119776
:1022F00001968F73907011969C938E9330E0C90174
:102300000895DC0191968C919197882339F0549629
:10231000ED91FC915597808186FFF9CF91961C92A3
:102320000895CF93DF93EC01EE85FF85E05CFF4FCE
:1023300020813181E054F0402F5F3F4F2F73307088
:10234000DF01AE5BBF4F8D919C9111972817390724
:10235000D1F3E05CFF4F80819181E054F040E80FC1
:10236000F91F6083EE85FF85E05CFF4F318320839A
:10237000EE89FF89208181E090E00F8C02C0880FF8
:10238000991F0A94E2F7282B208381E089A3EC8926
:10239000FD8980818064808381E090E0DF91CF912E
:1023A000089510925A031092590388EE93E0A0E02A
:1023B000B0E080935B0390935C03A0935D03B093C4
:1023C0005E0384EA92E090935803809357038FEC66
:1023D00092E0909364038093630383E193E090938E
:1023E00066038093650385EC90E090936803809387
:1023F000670384EC90E090936A038093690380EC18
:1024000090E090936C0380936B0381EC90E0909349
:102410006E0380936D0382EC90E090937003809341
:102420006F0386EC90E0909372038093710384E0D5
:102430008093730383E08093740387E08093750334
:1024400085E08093760381E0809377030895CF93AE
:10245000DF930E94480F0E94BC04C2E5D0E10E94B5
:10246000A8042097E1F30E945210F9CF0E94631252
:102470000895CF92DF92EF92FF920F931F93CF9325
:10248000DF937C016B018A01C0E0D0E00FC0D60170
:102490006D916D01D701ED91FC910190F081E02DDE
:1024A000C7010995C80FD91F01501040011511052A
:1024B00071F7CE01DF91CF911F910F91FF90EF90B7
:1024C000DF90CF9008950F931F93CF93DF93BC01BC
:1024D0008230910510F462E070E0E0917B03F091AE
:1024E0007C03A0E0B0E040E050E024C08081918116
:1024F00086179707D0F08617970771F4828193812A
:10250000109729F013969C938E9312972CC090935A
:102510007C0380937B0327C04115510519F0841774
:10252000950718F4EF018D01AC01DF0182819381E1
:102530009C01F9013097D1F641155105F9F0CA0116
:10254000861B970B8430910580F48A819B8101154D
:10255000110521F0F8019383828304C090937C03DA
:1025600080937B03FE01329645C0FE01E80FF91F00
:10257000619371930297998388833CC0809179031A
:1025800090917A03892B41F480919C0290919D0255
:1025900090937A038093790340919E0250919F0219
:1025A0004115510541F44DB75EB780919A02909163
:1025B0009B02481B590B2091790330917A03241711
:1025C0003507B0F4CA01821B930B8617970780F07A
:1025D000AB014E5F5F4F8417950750F0420F531FBA
:1025E00050937A0340937903F9016193719302C088
:1025F000E0E0F0E0CF01DF91CF911F910F910895BE
:10260000CF93DF939C01009709F48FC0EC012297D0
:102610001B821A8260917B0370917C0361157105A6
:1026200081F488819981820F931F209179033091E1
:102630007A032817390739F5D0937A03C0937903C1
:1026400074C0DB0140E050E0AC17BD0708F1BB836C
:10265000AA83FE0121913191E20FF31FAE17BF074C
:1026600079F48D919C911197280F391F2E5F3F4F60
:102670003983288312968D919C9113979B838A832B
:102680004115510571F4D0937C03C0937B034DC079
:1026900012968D919C911397AD01009711F0DC017A
:1026A000D3CFDA011396DC93CE931297FA012191DE
:1026B0003191E20FF31FCE17DF0769F4888199810A
:1026C000280F391F2E5F3F4FFA01318320838A8103
:1026D0009B8193838283E0E0F0E0DB0112968D9191
:1026E0009C911397009719F0BC01FD01F6CFAB0147
:1026F0004E5F5F4FDB018D919C91840F951F209160
:10270000790330917A032817390779F4309729F43F
:1027100010927C0310927B0302C0138212824250FB
:10272000504050937A0340937903DF91CF910895FD
:10273000A1E21A2EAA1BBB1BFD010DC0AA1FBB1FC5
:10274000EE1FFF1FA217B307E407F50720F0A21B37
:10275000B30BE40BF50B661F771F881F991F1A94A4
:1027600069F760957095809590959B01AC01BD01CE
:10277000CF010895EE0FFF1F0590F491E02D09940D
:102780002F923F924F925F926F927F928F929F9281
:10279000AF92BF92CF92DF92EF92FF920F931F936F
:1027A000CF93DF93CDB7DEB7CA1BDB0B0FB6F89420
:1027B000DEBF0FBECDBF09942A88398848885F8460
:1027C0006E847D848C849B84AA84B984C884DF80D1
:1027D000EE80FD800C811B81AA81B981CE0FD11DB5
:1027E0000FB6F894DEBF0FBECDBFED010895F8948B
:0227F000FFCF19
:1027F2005061636B657420726563656976656420F8
:10280200636F756E7465723A005061636B65742014
:102812006D697373656420726563656976656420AA
:102822007175657269657320636F756E7465723A4E
:1028320000736F6D657468696E67002D2D2D2D2DE7
:102842002D2D2D2D2D2D2D2D2D2D2D2D2D2D2D2DB6
:102852002D2D2D2D2D0A0D0053657373696F6E207A
:10286200436F756E7465723A202564202C2069725C
:1028720071312025642C20697271322025642C204C
:10288200697271333A25640A0D0064617461206FC4
:102892006E20706970652025750A0D0052656365AA
:1028A200697665642025732C202041434B20464FD6
:1028B20052204C4F2E0A0D0053454E4420424143B4
:1028C2004B2025730A0D00636C6F73696E6720736A
:1028D200657373696F6E2E2E2E0054494D454F5508
:1028E2005420534F20424144212125640A0D0052B5
:1028F200454345495645443A2025730A0D004C6F1D
:1029020067206F7574207375636365737321210A81
:102912000D000A0D0052616E67652074657374695B
:102922006E672E2E2E0054494D454F55540A0D0008
:1029320057656C6C20726563656976656420696EA3
:102942002072616E676520746573743A25730A0D8F
:102952000048616E647368616B696E672E2E2E008B
:10296200476F7420726573706F6E736520696E2095
:1029720048414E445348414B452025730A0D004FB0
:102982004B004F4B4C4F004B4F0080008303000025
:1029920000000000911139122711581138118111CC
:00000001FF
