:100000000C9464000C94A8080C94D5080C948C00F3
:100010000C948C000C948C000C948C000C948C0030
:100020000C948C000C948C000C948C000C948C0020
:100030000C948C000C948C000C948C000C948C0010
:100040000C9402090C948C000C948A0A0C94D80A23
:100050000C948C000C948C000C948C000C948C00F0
:100060000C948C000C948C000000000024002700ED
:100070002A0000000000250028002B0000000000DE
:1000800023002600290004040404040404040202DA
:100090000202020203030303030301020408102007
:1000A0004080010204081020010204081020000012
:1000B0000007000201000003040600000000000029
:1000C0000000E5005605440C11241FBECFEFD8E018
:1000D000DEBFCDBF11E0A0E0B1E0EAE0F5E202C092
:1000E00005900D92A03CB107D9F713E0A0ECB1E068
:1000F00001C01D92AE30B107E1F710E0C8ECD0E0CE
:1001000004C02297FE010E946B12C23CD107C9F7BE
:100110000E949A0C0C9483120C940000FB01DC01E9
:1001200002C001900D9241505040D8F70895FB0154
:10013000DC0101900D920020E1F70895FB019F0181
:10014000E8944230C4F04532B4F44A3029F497FBC5
:100150001EF4909581959F4F642F77270E946F1210
:10016000805D8A330CF0895D8193CB010097A1F704
:1001700016F45DE251931082C9010C94D500FB0185
:100180009F01423074F0453264F4642F77270E9457
:100190006F12805D8A330CF0895D8193CB010097EB
:1001A000A1F71082C9010C94D500DC01FC01672F76
:1001B00071917723E1F7329704C07C916D9370833E
:1001C0006291AE17BF07C8F30895CF92EF920F93D5
:1001D00088EC91E06CE04BE02AE009E058E0E52E85
:1001E00037E0C32E0E9411050F91EF90CF90089534
:1001F000CF92DF92EF92FF920F931F938C016B01CE
:1002000068ECE62E61E0F62EC7010E945304C70198
:100210000E944B04C701B8010E942C0EC70160E088
:1002200041E00E941C04C701B6010E942C0E1F91E0
:100230000F91FF90EF90DF90CF9008950F931F9351
:1002400088EE92E040E855E260E070E00E94130B17
:100250008091940161E00E94F60988EC91E060E1F0
:1002600042E020E00E945B0481E090E00E94A90C43
:10027000182F092F6091930170E041E00E9403075D
:100280001093C0010093C1011F910F9108958F92A7
:100290009F92AF92BF92CF92DF92EF92FF920F9315
:1002A0001F93DF93CF93CDB7DEB727970FB6F894A0
:1002B000DEBF0FBECDBFB82EA92E162F072F4A01C5
:1002C00060E071E00E94740F212F302FC9017C0182
:1002D00000E010E06E010894C11CD11C26C0F7019B
:1002E0008081803130F48B2D9A2D61E071E00E9485
:1002F000180FC601F701608140E10E94A70F8B2D06
:100300009A2DB6010E94280FC6010E9406100430E3
:10031000110534F48B2D9A2D63E071E00E94180FC3
:100320000F5F1F4F0894E11CF11C08151905BCF262
:100330008B2D9A2D27960FB6F894DEBF0FBECDBF3A
:10034000CF91DF911F910F91FF90EF90DF90CF90B1
:10035000BF90AF909F908F900895CF92DF92EF92D1
:10036000FF920F931F93DF93CF93CDB7DEB7C455A2
:10037000D0400FB6F894DEBF0FBECDBF1DC088ECD5
:1003800091E00E944B0488EC91E065E071E00E94EE
:10039000160E88EE92E065E171E00E94190E8091E0
:1003A000C0019091C1010E945005BC0188EE92E00D
:1003B0004AE050E00E94F70D8091C0019091C10188
:1003C0000E9444068823D9F28091940161E00E9442
:1003D000350A8091C0019091C1010E9405066E010D
:1003E0000894C11CD11CC6016EE171E00E94740F1B
:1003F0008E01085F1F4FC801B6010E94FB0F80915C
:10040000C0019091C1010E944A05BC01C8010E942F
:10041000420FBC01C6010E94D90FC8010E940C10F6
:10042000AFE0EA2EF12CEC0EFD1EC7016BE271E08D
:100430000E94740F8E010A5E1F4FC801B6010E9410
:10044000F00FC701B8010E94F800C8010E94061011
:10045000C7010E94061088EE92E065E171E00E94FB
:10046000190E8091C0019091C1010E945005BC01FC
:1004700088EE92E04AE050E00E94F70D68EE73E0EB
:1004800080E090E00E94580988EE92E065E171E01A
:100490000E94190E8091C0019091C1010E945005E7
:1004A000BC0188EE92E04AE050E00E94F70D809196
:1004B000C0019091C10162EC71E00E94A406182F66
:1004C00088EE92E065E171E00E94190E8091C00112
:1004D0009091C1010E945005BC0188EE92E04AE073
:1004E00050E00E94F70D8091C0019091C1010E94DF
:1004F0000506112391F18E01035E1F4FC80162ECC6
:1005000071E046E050E00E944701C601B8010E9438
:10051000D90FC8010E940610F4E2EF2EF12CEC0E68
:10052000FD1EC70167E371E00E94740F8E01055D37
:100530001F4FC801B6010E94F00FC701B8010E9409
:10054000F800C8010E940610C7010E94061088EE3C
:1005500092E0B6010E945F0E1CC0E2E3EE2EF12C89
:10056000EC0EFD1EC70167E471E00E94740F8E015E
:10057000075C1F4FC80164E571E00E94740FC7015A
:10058000B8010E94F800C8010E940610C7010E942D
:1005900006108091C0019091C1010E94050660E2A1
:1005A0007EE480E090E00E94580968EE73E080E00D
:1005B00090E00E94580988EE92E065E171E00E94A7
:1005C000190E8091C0019091C1010E945005BC019B
:1005D00088EE92E04AE050E00E94F70D88EE92E04B
:1005E00062E671E00E94160E8091C0019091C101F7
:1005F00062EC71E00E94A40688EE92E065E171E091
:100600000E94190E8091C0019091C1010E94500575
:10061000BC0188EE92E04AE050E00E94F70D8E01A6
:10062000005C1F4FC80162EC71E046E050E00E94A0
:1006300047016E010894C11CD11CC601B8010E947B
:10064000D90FC8010E94061077E4E72EF12CEC0EBA
:10065000FD1EC7016EE671E00E94740F8E01025B01
:100660001F4FC801B6010E94F00FC701B8010E94D8
:10067000F800C8010E940610C7010E940610C601BA
:100680000E940610CC5ADF4F0FB6F894DEBF0FBEA3
:10069000CDBFCF91DF911F910F91FF90EF90DF9031
:1006A000CF9008950F931F938C01FC01868160E029
:1006B0000E94350A81E090E00E94B109F80186812C
:1006C00061E00E94350A81E090E00E94B109F801E2
:1006D000868160E00E94350A84E690E00E94B109BC
:1006E0001F910F910895CF92DF92EF92FF920F9397
:1006F0001F93CF93DF93D82EC92E282F392FC901EE
:100700008C01C0E0D0E0E62EFF24F801878161E093
:100710000E94F609B7010C2E02C0759567950A94E0
:10072000E2F76170F80187810E94350A21960F5F18
:100730001F4FC830D10549F78D2D9C2D0E945203C3
:10074000DF91CF911F910F91FF90EF90DF90CF90AD
:100750000895CF92DF92EF92FF920F931F93CF9362
:10076000DF93D82EC92E282F392FC9018C01C0E064
:10077000D0E0E62EFF24F801878161E00E94F609AF
:10078000B7010C2E02C0759567950A94E2F7617067
:10079000F80187810E94350A21960F5F1F4FC430F0
:1007A000D10549F78D2D9C2D0E945203DF91CF91E9
:1007B0001F910F91FF90EF90DF90CF9008951F93BE
:1007C000CF93DF93EC01162F8C81642F0E94350AA2
:1007D0008D818F3F19F060E00E94350A8F8584FF7C
:1007E00005C0CE01612F0E9473030EC0612F70E01F
:1007F00084E0759567958A95E1F7CE010E94A9037B
:10080000CE01612F0E94A903DF91CF911F9108951E
:1008100041E00E94DF0381E090E0089540E00E9403
:10082000DF030895FC016089862F8460808B6C60F3
:10083000CF010E940E040895DF93CF93CDB7DEB7AA
:1008400028970FB6F894DEBF0FBECDBF9C01FE0106
:100850003196A7EAB1E088E00D9001928150E1F76E
:10086000F9018389481710F0482F4150E42FF0E038
:10087000EE0FFF1FEC0FFD1F8181680F6068C9013B
:100880000E940E0428960FB6F894DEBF0FBECDBFAF
:10089000CF91DF91089562E00E940E0480ED97E011
:1008A0000E94B109089561E00E940E0480ED97E076
:1008B0000E94B1090895CF93DF93EC01423018F004
:1008C0008F8588608F874B8B1C8A222329F04130CB
:1008D00019F48F8584608F8780E593EC0E94B109BD
:1008E0008C8160E00E94350A8E8160E00E94350AAA
:1008F0008D818F3F19F060E00E94350A6F8564FD9D
:100900001DC0CE0163E00E94A90384E991E10E9429
:10091000B109CE0163E00E94A90384E991E10E943C
:10092000B109CE0163E00E94A90386E990E00E942C
:10093000B109CE0162E00E94A90316C06062CE0137
:100940000E940E0484E991E10E94B1096F85606202
:10095000CE010E940E0486E990E00E94B1096F85E5
:100960006062CE010E940E046F856062CE010E941B
:100970000E0484E0888BCE010E941204CE010E94F6
:10098000530482E0898BCE0166E00E940E04DF9161
:10099000CF9108956F927F928F92AF92CF92EF9204
:1009A0000F931F93DF93CF93CDB7DEB73C01162F84
:1009B000842FF301448325830683E782C086A186C2
:1009C00082869D8593879E8594879F859587988944
:1009D000968761E00E94F609F30185818F3F19F047
:1009E00061E00E94F609F301868161E00E94F60948
:1009F000112319F0F301178603C080E1F301878703
:100A0000C30160E141E020E00E945B04CF91DF91EF
:100A10001F910F91EF90CF90AF908F907F906F903C
:100A200008958F92AF92CF92EF920F931F93CF932F
:100A3000DF93DC01362F542F722F102FAE2C8C2C0D
:100A400013961C921E92129783EA91E011969C9342
:100A50008E9300D000D0EDB7FEB73196CDB7DEB79C
:100A60001982118212821382CD0161E0432F2FEF90
:100A7000052FE72EC12E0E94CA040F900F900F90F1
:100A80000F90DF91CF911F910F91EF90CF90AF908A
:100A90008F9008952091470230914802C90108952E
:100AA0002091970130919801C901089585E292E063
:100AB0000E94420708951F93CF93DF9385E292E04F
:100AC0000E94A007882309F46CC085E292E060E0F0
:100AD00070E00E945D079091320280914902981760
:100AE00069F48091250290E0909348028093470238
:100AF00085E292E061E00E940C0853C090913202BE
:100B000080919601981709F04CC080912502C82F5A
:100B1000D0E0CF3FD10521F1FE01EE0FFF1FEC0F1A
:100B2000FD1FEE0FFF1FEF5FFD4F20E030E02F5F56
:100B30003F4FD901AB5DBD4F8C9180838C91882351
:100B400031F08C9190E090939801809397013196C9
:100B50002630310561F7C35BDD4F81E0888321C01A
:100B60001091260285E292E067E00E940C08109343
:100B7000250286E0189FD0011124A352BE4F20E029
:100B800030E02F5F3F4F8D91F901EB5DFD4F80838A
:100B900026303105B1F785E292E060E070E00E9416
:100BA0003A0885E292E067E00E942108DF91CF9148
:100BB0001F910895FF920F931F93F62E05E212E006
:100BC000C80162E00E940C088FEF80932502F0922A
:100BD0002602C80160E070E00E943A08C80167E0A0
:100BE0000E9421081F910F91FF9008958091320279
:100BF00090E08617970741F0609332026AEF70E049
:100C000080E090E00E9458090895CF93DF9388EE2A
:100C100092E06DE771E00E94160ECDEDD1E088EE16
:100C200092E069914AE050E00E94A50D88EE92E0C2
:100C300060E20E94D60C82E0C130D80781F788EECE
:100C400092E060E20E94FE0C88EE92E068E871E0BB
:100C50000E94160EC1E0D2E088EE92E069914AE06F
:100C600050E00E94A50D88EE92E060E20E94D60C52
:100C700082E0C532D80781F788EE92E060E20E94F8
:100C8000FE0CDF91CF910895CF93DF93EC0180911B
:100C9000470290914802892B99F180914A0288235A
:100CA000B9F4809147029091480290932E0280936C
:100CB0002D0285E292E061E00E940C0880914502DD
:100CC0008093250285E292E060E070E00E943A089D
:100CD00060919601CE0170E00E94F6058091470276
:100CE0009091480290932E0280932D0280914502AC
:100CF000909146029093300280932F0281E021C0B0
:100D000060914902CE0170E00E94F60580914A028E
:100D1000882359F085E292E061E00E940C0885E2A8
:100D200092E0609145020E947E0885E292E061E0D7
:100D30000E94210862E370E080E090E00E94580980
:100D400080E0DF91CF910895CF92DF92EF92FF92F2
:100D50000F931F93CF93DF937C016B010E944A098D
:100D60008B01EB01A0914B02B0914C02FD01E35BC2
:100D7000FD4F80818823A1F4C01BD10BCC5DD540F1
:100D80007CF40E944A09EB01C70160914B020E946A
:100D9000DA0562E370E080E090E00E945809E2CF5B
:100DA000A35BBD4F8C91882329F120E030E0D60170
:100DB000A20FB31F80914B0290914C02FC01EE0FE9
:100DC000FF1FE80FF91FEE0FFF1FE20FF31FEF5F8A
:100DD000FD4F80818C932F5F3F4F2630310539F7CF
:100DE00080914B0290914C02019690934C0280931B
:100DF0004B0281E0DF91CF911F910F91FF90EF9017
:100E0000DF90CF9008951F93142FEDEDF1E0119234
:100E100022E0E130F207D9F710924D0210924E0213
:100E200010924F02109250021092510210925202F0
:100E3000709346026093450210923102609149021C
:100E400070E00E94F60585E292E061E00E942108D0
:100E500080E06BE575E043E050E00E948508109368
:100E60004A02112349F080914502909146029093E5
:100E7000300280932F0204C01092300210922F0291
:100E80001F910895FC015298539A549A559A569A74
:100E90001186108613861286108A81E084878FE679
:100EA000858783E0868717868AEE808F8FED818F16
:100EB00084ED828F5B985C9808951F93CF93DF93A6
:100EC000DC016115710509F4BC015B9880E49FE1C8
:100ED0000197F1F7FB0160E070E0C1E0D0E015E0C0
:100EE00020C0108247E050E04E9B0AC09E01042EB5
:100EF00002C0220F331F0A94E2F78081822B808385
:100F0000812F8A95F1F75D9A812F8A95F1F75D9887
:100F1000415050408FEF4F3F580731F76F5F7F4F81
:100F2000319650968C91509790E068177907CCF2E3
:100F30005B9A85E08A95F1F7DF91CF911F91089533
:100F400089B190E0969587959695879581700895DB
:100F500027E030E070E045E0CB01022E02C095951D
:100F600087950A94E2F780FD02C05E9801C05E9A00
:100F7000842F8A95F1F75D9A842F8A95F1F75D9811
:100F8000215030408FEF2F3F380731F708950F93EE
:100F90001F93CF93DF938C015B985C9A8AE18A95CB
:100FA000F1F7662331F0F801678DC8010E94A807A8
:100FB0000DC0C0E0D0E0F801EC0FFD1F6189C80151
:100FC0000E94A8072196CF30D105A9F75C98DF9140
:100FD000CF911F910F910895FC018089880F880F90
:100FE000880F828B82859385938F82859385848FEA
:100FF00083EA858F968584859C648295880F807EA0
:10100000892B868F97858585880F892B878FCF01C0
:1010100060E00E94C7070895FC01569A1786662370
:1010200021F0608B0E94EC0707C0878D8E7F878F31
:10103000CF0161E00E94C70788EE93E00197F1F7C6
:101040000895FC01569A81E08787662329F0608B1A
:10105000CF010E94EC0707C0878D8160878FCF0189
:1010600061E00E94C70756985B9A88EE93E001976B
:10107000F1F70895EF92FF920F931F93CF93DF93B1
:10108000EC017B016115710509F47C015B9A8AE131
:101090008A95F1F7688DCE010E94A807698DCE016F
:1010A0000E94A8076A8DCE010E94A807288539856D
:1010B000CE01632F0E94A80768857985CE010E9422
:1010C000A80700E010E009C0F701E00FF11FCE0112
:1010D00060810E94A8070F5F1F4F888990E0081762
:1010E000190794F35B9888EE93E00197F1F7DF918D
:1010F000CF911F910F91FF90EF900895FC016083B5
:1011000060E070E00E943A080895823000F5E82F10
:10111000F0E0EE0FFF1FED5AFD4F718360838823CF
:1011200019F08130A1F408C0809169008C7F842B74
:1011300080936900E89A089580916900440F551FD3
:10114000440F551F837F842B80936900E99A08958B
:101150001F920F920FB60F9211242F933F934F932C
:101160005F936F937F938F939F93AF93BF93EF930F
:10117000FF938091530290915402892B29F0E091C2
:101180005302F09154020995FF91EF91BF91AF91F5
:101190009F918F917F916F915F914F913F912F918F
:1011A0000F900FBE0F901F9018951F920F920FB6C1
:1011B0000F9211242F933F934F935F936F937F93DD
:1011C0008F939F93AF93BF93EF93FF9380915502BB
:1011D00090915602892B29F0E0915502F091560228
:1011E0000995FF91EF91BF91AF919F918F917F9161
:1011F0006F915F914F913F912F910F900FBE0F9084
:101200001F9018951F920F920FB60F9211242F93D3
:101210003F938F939F93AF93BF9380915B02909185
:101220005C02A0915D02B0915E0230915F02019676
:10123000A11DB11D232F2D5F2D3720F02D570196B5
:10124000A11DB11D20935F0280935B0290935C020D
:10125000A0935D02B0935E02809157029091580274
:10126000A0915902B0915A020196A11DB11D80931F
:10127000570290935802A0935902B0935A02BF911B
:10128000AF919F918F913F912F910F900FBE0F9033
:101290001F9018958FB7F89420915B0230915C02F3
:1012A00040915D0250915E028FBFB901CA0108955D
:1012B0009B01AC017FB7F89480915702909158023E
:1012C000A0915902B0915A0266B5A89B05C06F3F24
:1012D00019F00196A11DB11D7FBFBA2FA92F982F1C
:1012E0008827860F911DA11DB11D62E0880F991FEF
:1012F000AA1FBB1F6A95D1F7BC012DC0FFB7F89498
:101300008091570290915802A0915902B0915A02CF
:10131000E6B5A89B05C0EF3F19F00196A11DB11DD0
:10132000FFBFBA2FA92F982F88278E0F911DA11DBF
:10133000B11DE2E0880F991FAA1FBB1FEA95D1F7E4
:10134000861B970B885E9340C8F221503040404086
:10135000504068517C4F211531054105510571F60A
:101360000895019739F0880F991F880F991F0297E8
:101370000197F1F70895789484B5826084BD84B5AF
:10138000816084BD85B5826085BD85B5816085BD80
:10139000EEE6F0E0808181608083E1E8F0E0108299
:1013A000808182608083808181608083E0E8F0E0DA
:1013B000808181608083E1EBF0E0808184608083C4
:1013C000E0EBF0E0808181608083EAE7F0E08081FB
:1013D000846080838081826080838081816080835B
:1013E0008081806880831092C1000895CF93DF933D
:1013F000482F50E0CA0186569F4FFC0134914A574E
:101400005F4FFA018491882369F190E0880F991F5A
:10141000FC01E859FF4FA591B491FC01EE58FF4F34
:10142000C591D491662351F42FB7F8948C91932FE2
:10143000909589238C93888189230BC0623061F455
:101440002FB7F8948C91932F909589238C93888152
:10145000832B88832FBF06C09FB7F8948C91832B72
:101460008C939FBFDF91CF910895482F50E0CA0120
:1014700082559F4FFC012491CA0186569F4FFC0163
:1014800094914A575F4FFA013491332309F440C0D5
:10149000222351F1233071F0243028F42130A1F0BF
:1014A000223011F514C02630B1F02730C1F02430BD
:1014B000D9F404C0809180008F7703C080918000B0
:1014C0008F7D8093800010C084B58F7702C084B573
:1014D0008F7D84BD09C08091B0008F7703C080915B
:1014E000B0008F7D8093B000E32FF0E0EE0FFF1F80
:1014F000EE58FF4FA591B4912FB7F894662321F4CD
:101500008C919095892302C08C91892B8C932FBF4D
:10151000089508951F920F920FB60F9211242F93E2
:101520003F934F938F939F93EF93FF938091C000CE
:1015300082FD1DC04091C6002091A0023091A10201
:101540002F5F3F4F2F7330708091A2029091A302C2
:101550002817390771F0E091A002F091A102E05A3A
:10156000FD4F40833093A1022093A00202C08091DE
:10157000C600FF91EF919F918F914F913F912F91D5
:101580000F900FBE0F901F901895E091F402F0910C
:10159000F502E05CFF4F8191919120813181821BA6
:1015A000930B8F739070892B11F00E94890A089514
:1015B0001F920F920FB60F9211242F933F938F9388
:1015C0009F93EF93FF932091E4023091E502809185
:1015D000E6029091E7022817390731F48091C100A3
:1015E0008F7D8093C10014C0E091E602F091E70284
:1015F000EC55FD4F20818091E6029091E702019623
:101600008F7390709093E7028093E6022093C60058
:10161000FF91EF919F918F913F912F910F900FBE6E
:101620000F901F901895AF92BF92DF92EF92FF92AA
:101630000F931F93CF93DF93EC017A018B01DD248D
:10164000403081EE580780E0680780E0780711F0AD
:10165000DD24D39491E0A92EB12CEC89FD89DD2005
:1016600069F0C50108A002C0880F991F0A94E2F72B
:10167000808360E079E08DE390E005C0108260E84F
:1016800074E88EE190E0A80197010E944712215072
:10169000304040405040569547953795279580E11A
:1016A0002030380720F0DD2011F0DD24D6CFE88986
:1016B000F9893083EA89FB89208319A2EE89FF89A1
:1016C000408121E030E0C9010C8C02C0880F991FD5
:1016D0000A94E2F7482B4083EE89FF894081C901D3
:1016E0000D8C02C0880F991F0A94E2F7482B4083A3
:1016F000EE89FF894081C9010E8C02C0880F991FB5
:101700000A94E2F7482B4083EE89FF8980810F8C91
:1017100002C0220F331F0A94E2F72095282320836A
:10172000DF91CF911F910F91FF90EF90DF90BF90CD
:10173000AF900895DC011C96ED91FC911D97E05C43
:10174000FF4F2191319180819181281B390B2F739B
:101750003070C9010895DC011C96ED91FC911D9734
:10176000E05CFF4F20813181E054F040DF01AE5B4F
:10177000BF4F8D919C9111972817390719F42FEFBE
:101780003FEF07C08D919C91E80FF91F8081282FB2
:1017900030E0C9010895DC011C96ED91FC911D9784
:1017A000E05CFF4F20813181E054F040DF01AE5B0F
:1017B000BF4F8D919C9111972817390719F42FEF7E
:1017C0003FEF10C08D919C911197E80FF91F208178
:1017D0008D919C91119701968F73907011969C93A7
:1017E0008E9330E0C9010895DC0191968C91919718
:1017F000882339F05496ED91FC915597808186FFAE
:10180000F9CF91961C920895CF93DF93EC01EE856A
:10181000FF85E05CFF4F20813181E054F0402F5F75
:101820003F4F2F733070DF01AE5BBF4F8D919C91A6
:10183000119728173907D1F3E05CFF4F8081918120
:10184000E054F040E80FF91F6083EE85FF85E05C0F
:10185000FF4F31832083EE89FF89208181E090E072
:101860000F8C02C0880F991F0A94E2F7282B20835F
:1018700081E089A3EC89FD8980818064808381E097
:1018800090E0DF91CF9108951092EB021092EA025E
:1018900088EE93E0A0E0B0E08093EC029093ED023C
:1018A000A093EE02B093EF0283EB91E09093E902F4
:1018B0008093E80280E692E09093F5028093F40230
:1018C00084EA92E09093F7028093F60285EC90E030
:1018D0009093F9028093F80284EC90E09093FB02DD
:1018E0008093FA0280EC90E09093FD028093FC02DA
:1018F00081EC90E09093FF028093FE0282EC90E0F6
:10190000909301038093000386EC90E0909303038F
:101910008093020384E08093040383E080930503B3
:1019200087E08093060385E08093070381E080933E
:1019300008030895CF93DF930E94BB090E941E0104
:10194000C5ECDAE00E94AD012097E1F30E94C50AE0
:10195000F9CF0E9412100895CF92DF92EF92FF927A
:101960000F931F93CF93DF937C016B018A01C0E03B
:10197000D0E00FC0D6016D916D01D701ED91FC91C2
:101980000190F081E02DC7010995C80FD91F0150C2
:1019900010400115110571F7CE01DF91CF911F9114
:1019A0000F91FF90EF90DF90CF900895DC01ED91C3
:1019B000FC910190F081E02D09950895EF92FF923E
:1019C0000F931F938C01DC01ED91FC910190F0814C
:1019D000E02D6DE009957C01D801ED91FC9101901D
:1019E000F081E02DC8016AE009959C012E0D3F1D94
:1019F000C9011F910F91FF90EF900895EF92FF9210
:101A00000F931F937C01DC01ED91FC910190F0811B
:101A1000E02D09958C01C7010E94DE0C080F191FEB
:101A2000C8011F910F91FF90EF900895CF93DF931E
:101A3000EC016115710519F420E030E00FC0DB0105
:101A40000D900020E9F71197A61BB70BE881F981EB
:101A50000280F381E02DAD0109959C01C901DF9160
:101A6000CF9108954F925F927F928F929F92AF9203
:101A7000BF92CF92DF92EF92FF920F931F93DF936B
:101A8000CF93CDB7DEB7A1970FB6F894DEBF0FBEE8
:101A9000CDBF2C01742ECB01223008F42AE019A20C
:101AA00031E2C32ED12CCC0EDD1E822E9924AA2425
:101AB000BB24672D752FA50194010E94471279015F
:101AC0008A01C801B701A50194010E942812472D7F
:101AD000461B0894C108D1084A3014F4405D01C087
:101AE000495CF6014083E114F1040105110521F080
:101AF0007E2C5F2DC801DDCFC201B6010E94160DFC
:101B0000A1960FB6F894DEBF0FBECDBFCF91DF9187
:101B10001F910F91FF90EF90DF90CF90BF90AF900B
:101B20009F908F907F905F904F900895DC012115DA
:101B3000310541F4ED91FC910190F081E02D642F8D
:101B4000099508950E94320D0895EF92FF920F9328
:101B50001F939A01E62EFF2400E010E0B801A701D0
:101B60000E94960D1F910F91FF90EF900895CF92D4
:101B7000DF92EF92FF920F931F93CF93DF93EC01CD
:101B80006A017B012115310541F4E881F981019059
:101B9000F081E02D642F09951FC02A303105D1F462
:101BA00077FF17C0E881F9810190F081E02D6DE2A7
:101BB00009958C0144275527BA014C195D096E0916
:101BC0007F09CE012AE00E94320D9801280F391FAB
:101BD00004C02AE00E94320D9C01C901DF91CF911F
:101BE0001F910F91FF90EF90DF90CF900895CF92CB
:101BF000DF92EF92FF920F931F936C017B019A018A
:101C00000027F7FC0095102FB801A7010E94B70D1F
:101C10008C01C6010E94DE0C080F191FC8011F911C
:101C20000F91FF90EF90DF90CF9008950E94160DD6
:101C30000895EF92FF920F931F937C010E94160D5F
:101C40008C01C7010E94DE0C080F191FC8011F91EB
:101C50000F91FF90EF900895AF92BF92CF92DF92D5
:101C6000EF92FF920F931F93CF93DF935C016B0171
:101C7000EE24FF24C0E0D0E010C0D501ED91FC912E
:101C800000811181C601BE010E94730E682FC5013B
:101C9000F8010995E80EF91E2196F60184819581D7
:101CA000C817D90750F3C701DF91CF911F910F914A
:101CB000FF90EF90DF90CF90BF90AF900895EF929C
:101CC000FF920F931F937C010E942C0E8C01C70181
:101CD0000E94DE0C9C01200F311FC9011F910F9142
:101CE000FF90EF900895FC01848195816817790732
:101CF00048F40190F081E02D309721F0E60FF71FB6
:101D00008081089580E008950F931F93CF93DF9310
:101D1000EC018B016F5F7F4F888199810E94471191
:101D2000009711F480E005C0998388831B830A83A0
:101D300081E0DF91CF911F910F910895CF93DF93B1
:101D4000EC0188819981892B29F08A819B818617F2
:101D5000970760F4CE010E94840E882341F08C81A5
:101D60009D81892B19F4E881F981108281E0DF914E
:101D7000CF910895EF92FF920F931F93CF93DF932C
:101D8000EC017B016C817D81E114F104C1F041150E
:101D9000510599F08A01060F171FB8010E949E0E87
:101DA000882369F0888199812C813D81820F931F5E
:101DB000B7010E9497001D830C8381E001C080E081
:101DC000DF91CF911F910F91FF90EF900895EF92C7
:101DD000FF920F931F93DF93CF93CDB7DEB7279773
:101DE0000FB6F894DEBF0FBECDBF7C01CB018E01D4
:101DF0000F5F1F4FB8014AE050E00E949E00F801BB
:101E000001900020E9F73197E01BF10BC701B80101
:101E1000AF010E94BA0E27960FB6F894DEBF0FBE30
:101E2000CDBFCF91DF911F910F91FF90EF9008955B
:101E30006115710511F480E00895DB010D9000201B
:101E4000E9F71197A61BB70BAD010E94BA0E0895D2
:101E5000FB0160817181448155810E94BA0E089511
:101E6000CF93DF93EC0188819981009711F00E9454
:101E7000AF10198218821D821C821B821A82DF9188
:101E8000CF9108950F931F93182F092F0E94E70EEB
:101E9000882321F4812F902F0E94300F812F902FC3
:101EA0001F910F910895EF92FF920F931F93CF937D
:101EB000DF93EC017B018A01BA010E949E0E882308
:101EC00021F4CE010E94300F07C01D830C8388814E
:101ED0009981B7010E949700CE01DF91CF911F91A8
:101EE0000F91FF90EF900895CF93DF93EC0119824B
:101EF00018821B821A821D821C821E826115710546
:101F000051F0DB010D900020E9F71197A61BB70BEC
:101F1000AD010E94530FDF91CF9108950F931F934E
:101F2000182F092F6115710559F0DB010D90002064
:101F3000E9F71197A61BB70BAD010E94530F02C022
:101F40000E94300F812F902F1F910F910895EF92D3
:101F5000FF920F931F93DF93CF93CDB7DEB72997EF
:101F60000FB6F894DEBF0FBECDBF8C01862FF801EF
:101F7000118210821382128215821482168290E0DE
:101F80007E010894E11CF11CB70150E00E94BF00E3
:101F9000C801B7010E948E0F29960FB6F894DEBFD4
:101FA0000FBECDBFCF91DF911F910F91FF90EF90AA
:101FB0000895CF93DF93EC01FB018617970761F03B
:101FC000608171816115710529F0448155810E94FC
:101FD000530F02C00E94300FCE01DF91CF910895C0
:101FE000FC011182108213821282158214821682E1
:101FF0000E94D90F0895FC0111821082138212826F
:102000001582148216820E94D90F0895FC018081E6
:1020100091810E94AF100895FC01808191810E94FE
:10202000AF1008950F931F93CF93DF93BC018230BD
:10203000910510F462E070E0E0910C03F0910D0363
:10204000A0E0B0E040E050E024C08081918186179C
:102050009707D0F08617970771F4828193811097C4
:1020600029F013969C938E9312972CC090930D0396
:1020700080930C0327C04115510519F0841795076B
:1020800018F4EF018D01AC01DF01828193819C0185
:10209000F9013097D1F641155105F9F0CA01861BB7
:1020A000970B8430910580F48A819B81011511057D
:1020B00021F0F8019383828304C090930D038093F1
:1020C0000C03FE01329645C0FE01E80FF91F619333
:1020D00071930297998388833CC080910A03909101
:1020E0000B03892B41F480919B0190919C0190936B
:1020F0000B0380930A0340919D0150919E0141156D
:10210000510541F44DB75EB78091990190919A01C4
:10211000481B590B20910A0330910B0324173507F4
:10212000B0F4CA01821B930B8617970780F0AB01AE
:102130004E5F5F4F8417950750F0420F531F509327
:102140000B0340930A03F9016193719302C0E0E02D
:10215000F0E0CF01DF91CF911F910F910895CF93C0
:10216000DF939C01009709F48FC0EC0122971B823A
:102170001A8260910C0370910D036115710581F451
:1021800088819981820F931F20910A0330910B035C
:102190002817390739F5D0930B03C0930A0374C08D
:1021A000DB0140E050E0AC17BD0708F1BB83AA8318
:1021B000FE0121913191E20FF31FAE17BF0779F4B1
:1021C0008D919C911197280F391F2E5F3F4F3983B6
:1021D000288312968D919C9113979B838A83411536
:1021E000510571F4D0930D03C0930C034DC01296AA
:1021F0008D919C911397AD01009711F0DC01D3CF25
:10220000DA011396DC93CE931297FA012191319162
:10221000E20FF31FCE17DF0769F488819981280F39
:10222000391F2E5F3F4FFA01318320838A819B81C2
:1022300093838283E0E0F0E0DB0112968D919C9124
:102240001397009719F0BC01FD01F6CFAB014E5F6B
:102250005F4FDB018D919C91840F951F20910A03A4
:1022600030910B032817390779F4309729F410922D
:102270000D0310920C0302C0138212824250504090
:1022800050930B0340930A03DF91CF9108956F920F
:102290007F928F929F92AF92BF92CF92DF92EF92F6
:1022A000FF920F931F93CF93DF938C01009729F434
:1022B000CB010E9412108C01BBC08EEFE82E8FEF75
:1022C000F82EE00EF11E4801860E971E8E149F0414
:1022D00008F4ACC0D7014D915C9111974617570790
:1022E000B8F04530510508F4A3C0CA010497861719
:1022F000970708F49DC042505040461B570BF4010D
:10230000419351936D937C93CF010E94AF1090C085
:102310005B01A41AB50A3801640E751EA0910C0366
:10232000B0910D03CC24DD24E0E0F0E047C0A61519
:10233000B705A9F5CD91DC911197CE0102968A15CA
:102340009B0568F1CE018A199B09029612962C9181
:10235000129713963C91059758F0F401228333832A
:10236000CA19DB09D183C083D7016D937C9309C05F
:102370004E5F5F4F4C0F5D1FF70151834083C901D2
:10238000FC01C114D10431F0D6011396FC93EE93F5
:1023900012974EC0F0930D03E0930C0349C08D914A
:1023A0009C911197E817F90708F4FC016D0112964A
:1023B0008C91129713969C919C01D901109709F06A
:1023C000B6CF80910A0390910B0386159705E9F427
:1023D000E617F707D0F420919D0130919E01211559
:1023E000310541F42DB73EB78091990190919A0142
:1023F000281B390B82169306C8F490920B03809227
:102400000A03F7017183608313C0CB010E9412108D
:10241000EC01009759F0D7014D915C91B8010E94F1
:102420008E00C8010E94AF108E0102C000E010E0D3
:10243000C801DF91CF911F910F91FF90EF90DF9036
:10244000CF90BF90AF909F908F907F906F900895A6
:10245000629FD001739FF001829FE00DF11D649F88
:10246000E00DF11D929FF00D839FF00D749FF00D14
:10247000659FF00D9927729FB00DE11DF91F639FB5
:10248000B00DE11DF91FBD01CF0111240895A1E296
:102490001A2EAA1BBB1BFD010DC0AA1FBB1FEE1FDE
:1024A000FF1FA217B307E407F50720F0A21BB30B29
:1024B000E40BF50B661F771F881F991F1A9469F7A5
:1024C00060957095809590959B01AC01BD01CF0101
:1024D0000895EE0FFF1F0590F491E02D0994AA1BBB
:1024E000BB1B51E107C0AA1FBB1FA617B70710F0FF
:1024F000A61BB70B881F991F5A95A9F78095909531
:0A250000BC01CD010895F894FFCF4F
:10250A00003000200042524F414443415354494E47
:10251A00472E2E2E00636F756E7465723A00494419
:10252A002072656365697665643A0042494B4520C5
:10253A00464F554E4421004F7065726174696F6E43
:10254A0020436F64653A0044617461207374617456
:10255A0075733A006E6F7420726563656976656497
:10256A002E005345434F4E442043414C4C005246A3
:10257A0049442052656365697665643A0054582077
:10258A004255464645523A0052582042554646451B
:10259A00523A002A0D0064FFFF80000E030000007B
:1025AA000000000804AC0C000040001400540000B5
:1025BA00000000040CAC0C9A0BCB0BAB0BF40B0019
:00000001FF
