:100000000C9464000C9440070C946D070C948C00C5
:100010000C948C000C948C000C948C000C948C0030
:100020000C948C000C948C000C948C000C948C0020
:100030000C948C000C948C000C948C000C948C0010
:100040000C949A070C948C000C9414090C9462097B
:100050000C948C000C948C000C948C000C948C00F0
:100060000C948C000C948C000000000024002700ED
:100070002A0000000000250028002B0000000000DE
:1000800023002600290004040404040404040202DA
:100090000202020203030303030301020408102007
:1000A0004080010204081020010204081020000012
:1000B0000007000201000003040600000000000029
:1000C0000000E500A804CE0A11241FBECFEFD8E03F
:1000D000DEBFCDBF11E0A0E0B1E0EAEFF0E202C088
:1000E00005900D92A239B107D9F712E0A2E9B1E06B
:1000F00001C01D92A03EB107E1F710E0C8ECD0E0CE
:1001000004C02297FE010E946310C23CD107C9F7C8
:100110000E94240B0C947B100C940000FB01DC016A
:1001200002C001900D9241505040D8F70895FB0154
:10013000DC0101900D920020E1F70895FB019F0181
:10014000E8944230C4F04532B4F44A3029F497FBC5
:100150001EF4909581959F4F642F77270E9467101A
:10016000805D8A330CF0895D8193CB010097A1F704
:1001700016F45DE251931082C9010C94D500FB0185
:100180009F01423074F0453264F4642F77270E9457
:100190006710805D8A330CF0895D8193CB010097F5
:1001A000A1F71082C9010C94D500DC01FC01672F76
:1001B00071917723E1F7329704C07C916D9370833E
:1001C0006291AE17BF07C8F30895CF92EF920F93D5
:1001D0008AE991E06CE04BE02AE009E058E0E52E86
:1001E00037E0C32E0E9469040F91EF90CF900895DD
:1001F000CF92DF92EF92FF920F931F938C016B01CE
:100200006AE9E62E61E0F62EC7010E94AB03C70142
:100210000E94A303C701B8010E94240CC70160E03B
:1002200041E00E947403C701B6010E94240C1F9193
:100230000F91FF90EF90DF90CF9008950F931F9351
:100240008AEB92E040E855E260E070E00E949D0990
:100250008091690161E00E9480088AE991E060E193
:1002600042E020E00E94B30381E090E00E94330B63
:10027000182F092F6091680170E041E00E949B05F2
:1002800010939201009393011F910F9108958F9203
:100290009F92AF92BF92CF92DF92EF92FF920F9315
:1002A0001F93DF93CF93CDB7DEB727970FB6F894A0
:1002B000DEBF0FBECDBFB82EA92E162F072F4A01C5
:1002C00060E071E00E946C0D212F302FC9017C018C
:1002D00000E010E06E010894C11CD11C26C0F7019B
:1002E0008081803130F48B2D9A2D61E071E00E9485
:1002F000100DC601F701608140E10E949F0D8B2D1A
:100300009A2DB6010E94200DC6010E94FE0D0430F8
:10031000110534F48B2D9A2D63E071E00E94100DCD
:100320000F5F1F4F0894E11CF11C08151905BCF262
:100330008B2D9A2D27960FB6F894DEBF0FBECDBF3A
:10034000CF91DF911F910F91FF90EF90DF90CF90B1
:10035000BF90AF909F908F900895CF92DF92EF92D1
:10036000FF920F931F93DF93CF93CDB7DEB7C654A1
:10037000D0400FB6F894DEBF0FBECDBF0AC08AE9E9
:1003800091E00E94A3038AE991E065E071E00E9498
:10039000210C80919201909193010E94080588237D
:1003A00071F38091690161E00E94BF086E010894B9
:1003B000C11CD11CC60165E171E00E946C0D8E016B
:1003C000085F1F4FC801B6010E94F30D8091920192
:1003D000909193010E94A204BC01C8010E943A0DB1
:1003E000BC01C6010E94D10DC8010E94040EFFE0AD
:1003F000EF2EF12CEC0EFD1EC70162E271E00E94AF
:100400006C0D8E010A5E1F4FC801B6010E94E80DF7
:10041000C701B8010E94F800C8010E94FE0DC70183
:100420000E94FE0D68EE73E080E090E00E94E2071B
:100430008AEB92E06EE271E00E94210C80919201C1
:100440009091930164E971E00E9468058E01035E5A
:100450001F4FC80164E971E046E050E00E94470187
:10046000C601B8010E94D10DC8010E94FE0DE4E250
:10047000EE2EF12CEC0EFD1EC70169E371E00E9427
:100480006C0D8E01055D1F4FC801B6010E94E80D7D
:10049000C701B8010E94F800C8010E94FE0DC70103
:1004A0000E94FE0D8AEB92E0B6010E94570C68EEA6
:1004B00073E080E090E00E94E2078AEB92E069E45A
:1004C00071E00E94210C809192019091930164E966
:1004D00071E00E9468058E010E5C1F4FC80164E93F
:1004E00071E046E050E00E944701C601B8010E9459
:1004F000D10DC8010E94FE0D79E3E72EF12CEC0E20
:10050000FD1EC70165E571E00E946C0D8E01005C67
:100510001F4FC801B6010E94E80DC701B8010E9433
:10052000F800C8010E94FE0DC7010E94FE0DC60121
:100530000E94FE0DCA5BDF4F0FB6F894DEBF0FBE00
:10054000CDBFCF91DF911F910F91FF90EF90DF9082
:10055000CF9008950F931F938C01FC01868160E07A
:100560000E94BF0881E090E00E943B08F80186816C
:1005700061E00E94BF0881E090E00E943B08F80122
:10058000868160E00E94BF0884E690E00E943B08FC
:100590001F910F910895CF92DF92EF92FF920F93E8
:1005A0001F93CF93DF93D82EC92E282F392FC9013F
:1005B0008C01C0E0D0E0E62EFF24F801878161E0E5
:1005C0000E948008B7010C2E02C0759567950A94A9
:1005D000E2F76170F80187810E94BF0821960F5FE2
:1005E0001F4FC830D10549F78D2D9C2D0E94AA02BE
:1005F000DF91CF911F910F91FF90EF90DF90CF90FF
:100600000895CF92DF92EF92FF920F931F93CF93B3
:10061000DF93D82EC92E282F392FC9018C01C0E0B5
:10062000D0E0E62EFF24F801878161E00E94800877
:10063000B7010C2E02C0759567950A94E2F76170B8
:10064000F80187810E94BF0821960F5F1F4FC430B9
:10065000D10549F78D2D9C2D0E94AA02DF91CF91E3
:100660001F910F91FF90EF90DF90CF9008951F930F
:10067000CF93DF93EC01162F8C81642F0E94BF086B
:100680008D818F3F19F060E00E94BF088F8584FF45
:1006900005C0CE01612F0E94CB020EC0612F70E019
:1006A00084E0759567958A95E1F7CE010E94010374
:1006B000CE01612F0E940103DF91CF911F91089518
:1006C00041E00E94370381E090E0089540E00E94FD
:1006D00037030895FC016089862F8460808B6C60ED
:1006E000CF010E9466030895DF93CF93CDB7DEB7A5
:1006F00028970FB6F894DEBF0FBECDBF9C01FE0158
:100700003196AAE7B1E088E00D9001928150E1F7BF
:10071000F9018389481710F0482F4150E42FF0E089
:10072000EE0FFF1FEC0FFD1F8181680F6068C9018C
:100730000E94660328960FB6F894DEBF0FBECDBFA9
:10074000CF91DF91089562E00E94660380ED97E00B
:100750000E943B08089561E00E94660380ED97E0E7
:100760000E943B080895CF93DF93EC01423018F0CC
:100770008F8588608F874B8B1C8A222329F041301C
:1007800019F48F8584608F8780E593EC0E943B0885
:100790008C8160E00E94BF088E8160E00E94BF08EB
:1007A0008D818F3F19F060E00E94BF086F8564FD66
:1007B0001DC0CE0163E00E94010384E991E10E9423
:1007C0003B08CE0163E00E94010384E991E10E94AD
:1007D0003B08CE0163E00E94010386E990E00E949D
:1007E0003B08CE0162E00E94010316C06062CE01A8
:1007F0000E94660384E991E10E943B086F85606274
:10080000CE010E94660386E990E00E943B086F8556
:100810006062CE010E9466036F856062CE010E9415
:10082000660384E0888BCE010E946A03CE010E9499
:10083000AB0382E0898BCE0166E00E946603DF9104
:10084000CF9108956F927F928F92AF92CF92EF9255
:100850000F931F93DF93CF93CDB7DEB73C01162FD5
:10086000842FF301448325830683E782C086A18613
:1008700082869D8593879E8594879F859587988995
:10088000968761E00E948008F30185818F3F19F00F
:1008900061E00E948008F301868161E00E94800887
:1008A000112319F0F301178603C080E1F301878754
:1008B000C30160E141E020E00E94B303CF91DF91EA
:1008C0001F910F91EF90CF90AF908F907F906F908E
:1008D00008958F92AF92CF92EF920F931F93CF9381
:1008E000DF93DC01362F542F722F102FAE2C8C2C5F
:1008F00013961C921E92129786E791E011969C9394
:100900008E9300D000D0EDB7FEB73196CDB7DEB7ED
:100910001982118212821382CD0161E0432F2FEFE1
:10092000052FE72EC12E0E9422040F900F900F90EA
:100930000F90DF91CF911F910F91EF90CF90AF90DB
:100940008F9008952091190230911A02C9010895DB
:1009500087EF91E00E94DA05089587EF91E00E9409
:100960003806882309F444C087EF91E060E070E026
:100970000E94F5059091040280911B02981769F47A
:100980008091F70190E090931A028093190287EF0B
:1009900091E061E00E94A406089590910402809184
:1009A0006B01981729F58091F701482F50E0FA0163
:1009B000E15EFD4F81E080834F3F5105C9F0DA01D0
:1009C000AA0FBB1FA40FB51FAA0FBB1FAD52BE4F6E
:1009D00020E030E02F5F3F4FF901E950FE4F80816A
:1009E0008D9326303105B1F750931E0240931D02BE
:1009F00008958091040290E08617970741F0609374
:100A000004026AEF70E080E090E00E94E20708953F
:100A1000CF93DF93EC018091190290911A02892BF8
:100A200099F180911C028823B9F480911902909168
:100A30001A02909300028093FF0187EF91E061E03A
:100A40000E94A406809117028093F70187EF91E03E
:100A500060E070E00E94D20660916B01CE0170E010
:100A60000E94F9048091190290911A029093000259
:100A70008093FF01809117029091180290930202D7
:100A80008093010281E021C060911B02CE0170E0E1
:100A90000E94F90480911C02882359F087EF91E0AD
:100AA00061E00E94A40687EF91E0609117020E9426
:100AB000160787EF91E061E00E94B90662E370E0FB
:100AC00080E090E00E94E20780E0DF91CF910895FE
:100AD000CF93DF9320E030E0DB01A20FB31F8091C2
:100AE0001D0290911E02FC01EE0FFF1FE80FF91F7F
:100AF000EE0FFF1FE20FF31FE155FE4F80818C9335
:100B00002F5F3F4F2630310539F7CFEAD1E08AEB2E
:100B100092E069914AE050E00E940F0C8AEB92E06B
:100B200064E671E00E94210C81E0C33DD80779F7AB
:100B3000DF91CF9108951F93142FEFEAF1E0119206
:100B400021E0E33DF207D9F710921F021092200234
:100B5000109221021092220210922302109224027B
:100B600070931802609317021092030260911B02A7
:100B700070E00E94F90487EF91E061E00E94B906FD
:100B800080E06DEA74E043E050E00E941D0710939E
:100B90001C02112349F08091170290911802909342
:100BA00002028093010204C010920202109201021C
:100BB0001F910895FC015298539A549A559A569A47
:100BC0001186108613861286108A81E084878FE64C
:100BD000858783E0868717868AEE808F8FED818FE9
:100BE00084ED828F5B985C9808951F93CF93DF9379
:100BF000DC016115710509F4BC015B9880E49FE19B
:100C00000197F1F7FB0160E070E0C1E0D0E015E092
:100C100020C0108247E050E04E9B0AC09E01042E87
:100C200002C0220F331F0A94E2F78081822B808357
:100C3000812F8A95F1F75D9A812F8A95F1F75D985A
:100C4000415050408FEF4F3F580731F76F5F7F4F54
:100C5000319650968C91509790E068177907CCF2B6
:100C60005B9A85E08A95F1F7DF91CF911F91089506
:100C700089B190E0969587959695879581700895AE
:100C800027E030E070E045E0CB01022E02C09595F0
:100C900087950A94E2F780FD02C05E9801C05E9AD3
:100CA000842F8A95F1F75D9A842F8A95F1F75D98E4
:100CB000215030408FEF2F3F380731F708950F93C1
:100CC0001F93CF93DF938C015B985C9A8AE18A959E
:100CD000F1F7662331F0F801678DC8010E944006E4
:100CE0000DC0C0E0D0E0F801EC0FFD1F6189C80124
:100CF0000E9440062196CF30D105A9F75C98DF917C
:100D0000CF911F910F910895FC018089880F880F62
:100D1000880F828B82859385938F82859385848FBC
:100D200083EA858F968584859C648295880F807E72
:100D3000892B868F97858585880F892B878FCF0193
:100D400060E00E945F060895FC01569A17866623AC
:100D500021F0608B0E94840607C0878D8E7F878F6D
:100D6000CF0161E00E945F0688EE93E00197F1F702
:100D70000895FC01569A81E08787662329F0608BED
:100D8000CF010E94840607C0878D8160878FCF01C5
:100D900061E00E945F0656985B9A88EE93E00197A7
:100DA000F1F70895EF92FF920F931F93CF93DF9384
:100DB000EC017B016115710509F47C015B9A8AE104
:100DC0008A95F1F7688DCE010E944006698DCE01AB
:100DD0000E9440066A8DCE010E9440062885398512
:100DE000CE01632F0E94400668857985CE010E945E
:100DF000400600E010E009C0F701E00FF11FCE014E
:100E000060810E9440060F5F1F4F888990E008179D
:100E1000190794F35B9888EE93E00197F1F7DF915F
:100E2000CF911F910F91FF90EF900895FC01608387
:100E300060E070E00E94D2060895823000F5E82F4D
:100E4000F0E0EE0FFF1FEB5DFD4F718360838823A1
:100E500019F08130A1F408C0809169008C7F842B47
:100E600080936900E89A089580916900440F551FA6
:100E7000440F551F837F842B80936900E99A08955E
:100E80001F920F920FB60F9211242F933F934F93FF
:100E90005F936F937F938F939F93AF93BF93EF93E2
:100EA000FF938091250290912602892B29F0E091F1
:100EB0002502F09126020995FF91EF91BF91AF9124
:100EC0009F918F917F916F915F914F913F912F9162
:100ED0000F900FBE0F901F9018951F920F920FB694
:100EE0000F9211242F933F934F935F936F937F93B0
:100EF0008F939F93AF93BF93EF93FF9380912702BC
:100F000090912802892B29F0E0912702F091280284
:100F10000995FF91EF91BF91AF919F918F917F9133
:100F20006F915F914F913F912F910F900FBE0F9056
:100F30001F9018951F920F920FB60F9211242F93A6
:100F40003F938F939F93AF93BF9380912D02909186
:100F50002E02A0912F02B091300230913102019601
:100F6000A11DB11D232F2D5F2D3720F02D57019688
:100F7000A11DB11D2093310280932D0290932E026A
:100F8000A0932F02B09330028091290290912A02FF
:100F9000A0912B02B0912C020196A11DB11D80934E
:100FA000290290932A02A0932B02B0932C02BF91A6
:100FB000AF919F918F913F912F910F900FBE0F9006
:100FC0001F9018959B01AC017FB7F894809129027E
:100FD00090912A02A0912B02B0912C0266B5A89B99
:100FE00005C06F3F19F00196A11DB11D7FBFBA2F3B
:100FF000A92F982F8827860F911DA11DB11D62E092
:10100000880F991FAA1FBB1F6A95D1F7BC012DC07D
:10101000FFB7F8948091290290912A02A0912B02A7
:10102000B0912C02E6B5A89B05C0EF3F19F00196E0
:10103000A11DB11DFFBFBA2FA92F982F88278E0F92
:10104000911DA11DB11DE2E0880F991FAA1FBB1FB2
:10105000EA95D1F7861B970B885E9340C8F2215022
:1010600030404040504068517C4F211531054105CA
:10107000510571F60895019739F0880F991F880F6F
:10108000991F02970197F1F70895789484B58260CB
:1010900084BD84B5816084BD85B5826085BD85B51C
:1010A000816085BDEEE6F0E0808181608083E1E8CB
:1010B000F0E0108280818260808380818160808303
:1010C000E0E8F0E0808181608083E1EBF0E0808106
:1010D00084608083E0EBF0E0808181608083EAE7D8
:1010E000F0E0808184608083808182608083808161
:1010F000816080838081806880831092C100089520
:10110000CF93DF93482F50E0CA0186569F4FFC01D2
:1011100034914A575F4FFA018491882369F190E036
:10112000880F991FFC01E859FF4FA591B491FC016C
:10113000EE58FF4FC591D491662351F42FB7F89420
:101140008C91932F909589238C93888189230BC050
:10115000623061F42FB7F8948C91932F9095892386
:101160008C938881832B88832FBF06C09FB7F89408
:101170008C91832B8C939FBFDF91CF910895482F43
:1011800050E0CA0182559F4FFC012491CA01865646
:101190009F4FFC0194914A575F4FFA0134913323DA
:1011A00009F440C0222351F1233071F0243028F497
:1011B0002130A1F0223011F514C02630B1F02730D3
:1011C000C1F02430D9F404C0809180008F7703C02F
:1011D000809180008F7D8093800010C084B58F77D0
:1011E00002C084B58F7D84BD09C08091B0008F7727
:1011F00003C08091B0008F7D8093B000E32FF0E0BA
:10120000EE0FFF1FEE58FF4FA591B4912FB7F89442
:10121000662321F48C919095892302C08C91892BAF
:101220008C932FBF089508951F920F920FB60F92BF
:1012300011242F933F934F938F939F93EF93FF939B
:101240008091C00082FD1DC04091C60020917202B5
:10125000309173022F5F3F4F2F7330708091740273
:10126000909175022817390771F0E0917202F091A0
:101270007302EE5CFD4F4083309373022093720241
:1012800002C08091C600FF91EF919F918F914F9185
:101290003F912F910F900FBE0F901F901895E091E6
:1012A000C602F091C702E05CFF4F819191912081CD
:1012B0003181821B930B8F739070892B11F00E94E8
:1012C000130908951F920F920FB60F9211242F93B6
:1012D0003F938F939F93EF93FF932091B6023091AA
:1012E000B7028091B8029091B9022817390731F4FA
:1012F0008091C1008F7D8093C10014C0E091B8023D
:10130000F091B902EA58FD4F20818091B802909186
:10131000B90201968F7390709093B9028093B802CE
:101320002093C600FF91EF919F918F913F912F9154
:101330000F900FBE0F901F901895AF92BF92DF9243
:10134000EF92FF920F931F93CF93DF93EC017A01FB
:101350008B01DD24403081EE580780E0680780E093
:10136000780711F0DD24D39491E0A92EB12CEC89FB
:10137000FD89DD2069F0C50108A002C0880F991F12
:101380000A94E2F7808360E079E08DE390E005C0A5
:10139000108260E874E88EE190E0A80197010E9455
:1013A0003F1021503040404050405695479537956A
:1013B000279580E12030380720F0DD2011F0DD2472
:1013C000D6CFE889F9893083EA89FB89208319A27D
:1013D000EE89FF89408121E030E0C9010C8C02C018
:1013E000880F991F0A94E2F7482B4083EE89FF8902
:1013F0004081C9010D8C02C0880F991F0A94E2F741
:10140000482B4083EE89FF894081C9010E8C02C0C0
:10141000880F991F0A94E2F7482B4083EE89FF89D1
:1014200080810F8C02C0220F331F0A94E2F72095AF
:1014300028232083DF91CF911F910F91FF90EF9090
:10144000DF90BF90AF900895DC011C96ED91FC9168
:101450001D97E05CFF4F2191319180819181281B84
:10146000390B2F733070C9010895DC011C96ED9182
:10147000FC911D97E05CFF4F20813181E054F040EA
:10148000DF01AE5BBF4F8D919C91119728173907F3
:1014900019F42FEF3FEF07C08D919C91E80FF91FD2
:1014A0008081282F30E0C9010895DC011C96ED9160
:1014B000FC911D97E05CFF4F20813181E054F040AA
:1014C000DF01AE5BBF4F8D919C91119728173907B3
:1014D00019F42FEF3FEF10C08D919C911197E80FF9
:1014E000F91F20818D919C91119701968F739070B7
:1014F00011969C938E9330E0C9010895DC0191967A
:101500008C919197882339F05496ED91FC915597E1
:10151000808186FFF9CF91961C920895CF93DF9337
:10152000EC01EE85FF85E05CFF4F20813181E054C6
:10153000F0402F5F3F4F2F733070DF01AE5BBF4F26
:101540008D919C91119728173907D1F3E05CFF4FDB
:1015500080819181E054F040E80FF91F6083EE85AF
:10156000FF85E05CFF4F31832083EE89FF89208176
:1015700081E090E00F8C02C0880F991F0A94E2F777
:10158000282B208381E089A3EC89FD8980818064F8
:10159000808381E090E0DF91CF9108951092BD02A9
:1015A0001092BC0288EE93E0A0E0B0E08093BE020F
:1015B0009093BF02A093C002B093C10286E891E06D
:1015C0009093BB028093BA0282E392E09093C702A9
:1015D0008093C60286E792E09093C9028093C80286
:1015E00085EC90E09093CB028093CA0284EC90E06B
:1015F0009093CD028093CC0280EC90E09093CF0248
:101600008093CE0281EC90E09093D1028093D0023F
:1016100082EC90E09093D3028093D20286EC90E02B
:101620009093D5028093D40284E08093D60283E025
:101630008093D70287E08093D80285E08093D90217
:1016400081E08093DA020895CF93DF930E944508EA
:101650000E941E01CFE4D9E00E94AD012097E1F382
:101660000E944F09F9CF0E940A0E0895CF92DF928F
:10167000EF92FF920F931F93CF93DF937C016B0147
:101680008A01C0E0D0E00FC0D6016D916D01D70195
:10169000ED91FC910190F081E02DC7010995C80FF3
:1016A000D91F015010400115110571F7CE01DF91CE
:1016B000CF911F910F91FF90EF90DF90CF90089501
:1016C000EF92FF920F931F938C01DC01ED91FC913F
:1016D0000190F081E02D6DE009957C01D801ED913C
:1016E000FC910190F081E02DC8016AE009959C0110
:1016F0002E0D3F1DC9011F910F91FF90EF9008958E
:10170000CF93DF93EC016115710519F420E030E00F
:101710000FC0DB010D900020E9F71197A61BB70B56
:10172000E881F9810280F381E02DAD0109959C01EA
:10173000C901DF91CF9108954F925F927F928F926E
:101740009F92AF92BF92CF92DF92EF92FF920F9350
:101750001F93DF93CF93CDB7DEB7A1970FB6F89461
:10176000DEBF0FBECDBF2C01742ECB01223008F49A
:101770002AE019A231E2C32ED12CCC0EDD1E822E1E
:101780009924AA24BB24672D752FA50194010E94DA
:101790003F1079018A01C801B701A50194010E9497
:1017A0002010472D461B0894C108D1084A3014F474
:1017B000405D01C0495CF6014083E114F10401057C
:1017C000110521F07E2C5F2DC801DDCFC201B601CD
:1017D0000E94800BA1960FB6F894DEBF0FBECDBF5E
:1017E000CF91DF911F910F91FF90EF90DF90CF90FD
:1017F000BF90AF909F908F907F905F904F90089593
:10180000DC012115310541F4ED91FC910190F0814D
:10181000E02D642F099508950E949C0B0895EF9286
:10182000FF920F931F939A01E62EFF2400E010E031
:10183000B801A7010E94000C1F910F91FF90EF903B
:1018400008950E94800B0895AF92BF92CF92DF92CD
:10185000EF92FF920F931F93CF93DF935C016B0185
:10186000EE24FF24C0E0D0E010C0D501ED91FC9142
:1018700000811181C601BE010E946B0C682FC50159
:10188000F8010995E80EF91E2196F60184819581EB
:10189000C817D90750F3C701DF91CF911F910F915E
:1018A000FF90EF90DF90CF90BF90AF900895EF92B0
:1018B000FF920F931F937C010E94240C8C01C7019F
:1018C0000E94600B9C01200F311FC9011F910F91D5
:1018D000FF90EF900895FC01848195816817790746
:1018E00048F40190F081E02D309721F0E60FF71FCA
:1018F0008081089580E008950F931F93CF93DF9325
:10190000EC018B016F5F7F4F888199810E943F0FAF
:10191000009711F480E005C0998388831B830A83B4
:1019200081E0DF91CF911F910F910895CF93DF93C5
:10193000EC0188819981892B29F08A819B81861706
:10194000970760F4CE010E947C0C882341F08C81C3
:101950009D81892B19F4E881F981108281E0DF9162
:10196000CF910895EF92FF920F931F93CF93DF9340
:10197000EC017B016C817D81E114F104C1F0411522
:10198000510599F08A01060F171FB8010E94960CA5
:10199000882369F0888199812C813D81820F931F72
:1019A000B7010E9497001D830C8381E001C080E095
:1019B000DF91CF911F910F91FF90EF900895EF92DB
:1019C000FF920F931F93DF93CF93CDB7DEB7279787
:1019D0000FB6F894DEBF0FBECDBF7C01CB018E01E8
:1019E0000F5F1F4FB8014AE050E00E949E00F801CF
:1019F00001900020E9F73197E01BF10BC701B80116
:101A0000AF010E94B20C27960FB6F894DEBF0FBE4E
:101A1000CDBFCF91DF911F910F91FF90EF9008956F
:101A20006115710511F480E00895DB010D9000202F
:101A3000E9F71197A61BB70BAD010E94B20C0895F0
:101A4000FB0160817181448155810E94B20C08952F
:101A5000CF93DF93EC0188819981009711F00E9468
:101A6000A70E198218821D821C821B821A82DF91A6
:101A7000CF9108950F931F93182F092F0E94DF0C09
:101A8000882321F4812F902F0E94280D812F902FE1
:101A90001F910F910895EF92FF920F931F93CF9391
:101AA000DF93EC017B018A01BA010E94960C882326
:101AB00021F4CE010E94280D07C01D830C8388816C
:101AC0009981B7010E949700CE01DF91CF911F91BC
:101AD0000F91FF90EF900895CF93DF93EC0119825F
:101AE00018821B821A821D821C821E82611571055A
:101AF00051F0DB010D900020E9F71197A61BB70B01
:101B0000AD010E944B0DDF91CF9108950F931F936C
:101B1000182F092F6115710559F0DB010D90002078
:101B2000E9F71197A61BB70BAD010E944B0D02C040
:101B30000E94280D812F902F1F910F910895EF92F1
:101B4000FF920F931F93DF93CF93CDB7DEB7299703
:101B50000FB6F894DEBF0FBECDBF8C01862FF80103
:101B6000118210821382128215821482168290E0F2
:101B70007E010894E11CF11CB70150E00E94BF00F7
:101B8000C801B7010E94860D29960FB6F894DEBFF2
:101B90000FBECDBFCF91DF911F910F91FF90EF90BE
:101BA0000895CF93DF93EC01FB018617970761F04F
:101BB000608171816115710529F0448155810E9410
:101BC0004B0D02C00E94280DCE01DF91CF910895E8
:101BD000FC011182108213821282158214821682F5
:101BE0000E94D10D0895FC0111821082138212828D
:101BF0001582148216820E94D10D0895FC01808105
:101C000091810E94A70E0895FC01808191810E941C
:101C1000A70E08950F931F93CF93DF93BC018230DB
:101C2000910510F462E070E0E091DE02F091DF02D5
:101C3000A0E0B0E040E050E024C0808191818617B0
:101C40009707D0F08617970771F4828193811097D8
:101C500029F013969C938E9312972CC09093DF02D9
:101C60008093DE0227C04115510519F084179507AE
:101C700018F4EF018D01AC01DF01828193819C0199
:101C8000F9013097D1F641155105F9F0CA01861BCB
:101C9000970B8430910580F48A819B810115110591
:101CA00021F0F8019383828304C09093DF02809334
:101CB000DE02FE01329645C0FE01E80FF91F619376
:101CC00071930297998388833CC08091DC02909144
:101CD000DD02892B41F480916E0190916F01909308
:101CE000DD028093DC024091700150917101411539
:101CF000510541F44DB75EB780916C0190916D0133
:101D0000481B590B2091DC023091DD022417350766
:101D1000B0F4CA01821B930B8617970780F0AB01C2
:101D20004E5F5F4F8417950750F0420F531F50933B
:101D3000DD024093DC02F9016193719302C0E0E09F
:101D4000F0E0CF01DF91CF911F910F910895CF93D4
:101D5000DF939C01009709F48FC0EC0122971B824E
:101D60001A826091DE027091DF026115710581F4C3
:101D700088819981820F931F2091DC023091DD02CE
:101D80002817390739F5D093DD02C093DC0274C0FF
:101D9000DB0140E050E0AC17BD0708F1BB83AA832C
:101DA000FE0121913191E20FF31FAE17BF0779F4C5
:101DB0008D919C911197280F391F2E5F3F4F3983CA
:101DC000288312968D919C9113979B838A8341154A
:101DD000510571F4D093DF02C093DE024DC012961C
:101DE0008D919C911397AD01009711F0DC01D3CF39
:101DF000DA011396DC93CE931297FA012191319177
:101E0000E20FF31FCE17DF0769F488819981280F4D
:101E1000391F2E5F3F4FFA01318320838A819B81D6
:101E200093838283E0E0F0E0DB0112968D919C9138
:101E30001397009719F0BC01FD01F6CFAB014E5F7F
:101E40005F4FDB018D919C91840F951F2091DC02E7
:101E50003091DD022817390779F4309729F4109270
:101E6000DF021092DE0202C0138212824250504002
:101E70005093DD024093DC02DF91CF9108956F9281
:101E80007F928F929F92AF92BF92CF92DF92EF920A
:101E9000FF920F931F93CF93DF938C01009729F448
:101EA000CB010E940A0E8C01BBC08EEFE82E8FEF93
:101EB000F82EE00EF11E4801860E971E8E149F0428
:101EC00008F4ACC0D7014D915C91119746175707A4
:101ED000B8F04530510508F4A3C0CA01049786172D
:101EE000970708F49DC042505040461B570BF40121
:101EF000419351936D937C93CF010E94A70E90C0A4
:101F00005B01A41AB50A3801640E751EA091DE02A9
:101F1000B091DF02CC24DD24E0E0F0E047C0A6155C
:101F2000B705A9F5CD91DC911197CE0102968A15DE
:101F30009B0568F1CE018A199B09029612962C9195
:101F4000129713963C91059758F0F401228333833E
:101F5000CA19DB09D183C083D7016D937C9309C073
:101F60004E5F5F4F4C0F5D1FF70151834083C901E6
:101F7000FC01C114D10431F0D6011396FC93EE9309
:101F800012974EC0F093DF02E093DE0249C08D91BC
:101F90009C911197E817F90708F4FC016D0112965E
:101FA0008C91129713969C919C01D901109709F07E
:101FB000B6CF8091DC029091DD0286159705E9F499
:101FC000E617F707D0F420917001309171012115C7
:101FD000310541F42DB73EB780916C0190916D01B0
:101FE000281B390B82169306C8F49092DD0280926A
:101FF000DC02F7017183608313C0CB010E940A0EDB
:10200000EC01009759F0D7014D915C91B8010E9405
:102010008E00C8010E94A70E8E0102C000E010E0F1
:10202000C801DF91CF911F910F91FF90EF90DF904A
:10203000CF90BF90AF909F908F907F906F900895BA
:10204000629FD001739FF001829FE00DF11D649F9C
:10205000E00DF11D929FF00D839FF00D749FF00D28
:10206000659FF00D9927729FB00DE11DF91F639FC9
:10207000B00DE11DF91FBD01CF0111240895A1E2AA
:102080001A2EAA1BBB1BFD010DC0AA1FBB1FEE1FF2
:10209000FF1FA217B307E407F50720F0A21BB30B3D
:1020A000E40BF50B661F771F881F991F1A9469F7B9
:1020B00060957095809590959B01AC01BD01CF0115
:1020C0000895EE0FFF1F0590F491E02D0994AA1BCF
:1020D000BB1B51E107C0AA1FBB1FA617B70710F013
:1020E000A61BB70B881F991F5A95A9F78095909545
:0A20F000BC01CD010895F894FFCF64
:1020FA00003000200042524F414443415354494E5C
:10210A00472E2E2E00494420726563656976656400
:10211A003A0042494B4520464F554E442100464914
:10212A005253542043414C4C004F7065726174699C
:10213A006F6E20436F64653A005345434F4E442007
:10214A0043414C4C005246494420526563656976C6
:10215A0065643A00202D20002A0D00648000E00208
:10216A000000000000006003360B0000400014006D
:10217A005400000000008E0A360B240A550A350A5C
:02218A007E0ACB
:00000001FF
