:100000000C9496010C94851C0C94B21C0C945B12FD
:100010000C9467050C9485120C94BE010C94BE01DF
:100020000C94BE010C94BE010C94BE010C94780B90
:100030000C94BE010C94BE010C94BE010C94BE0144
:100040000C94DF1C0C94BE010C94BA1E0C94081F77
:100050000C94BE010C94BE010C94BE010C94BE0124
:100060000C94BE010C94BE0100C2010001001100FD
:1000700011000C0000E100000A002500250021000D
:10008000009600001900390039003600127A00008D
:100090001F004600460044008070000022004D0012
:1000A0004D004A00004B00003600750075007200DC
:1000B000403800004A009C009C0099008025000008
:1000C0007200EC00EC00E900C0120000E900DA0167
:1000D000DA01D70160090000D701B603B603B30304
:1000E000B0040000B3036E076E076B0758020000F0
:1000F0006E07DC0EDC0ED80E2C010000DC0EC11DDC
:10010000C11DBE1D0A0B0C0D0E0F11121314151676
:100110000001020304056B02710277027F0288026C
:1001200092029B02A202AA02B102B802BF0250418F
:1001300020506F77657209203D2025530D0A00433A
:100140005243204C656E67746809203D2025530D8D
:100150000A004D6F64656C0909203D2025530D0A86
:100160000044617461205261746509203D2025536B
:100170000D0A0044594E50442F46454154555245AE
:1001800000434F4E4649470052465F534554555031
:100190000052465F434800454E5F52584144445226
:1001A00000454E5F41410052585F50575F50302D1F
:1001B000360054585F414444520052585F41444411
:1001C000525F50322D350052585F414444525F50C7
:1001D000302D31000D0A00253032780020307800B3
:1001E0002553092563203D000D0A00203078253075
:1001F0003278002553092563203D004F4253455274
:1002000056455F54583D253032783A20504F4C5374
:100210005F434E543D2578204152435F434E543D49
:1002200025780D0A005354415455530909203D20A7
:100230003078253032782052585F44523D2578205E
:1002400054585F44533D2578204D41585F52543DEA
:1002500025782052585F505F4E4F3D2578205458E6
:100260005F46554C4C3D25780D0A00314D425053A8
:1002700000324D425053003235304B425053006EE5
:10028000524632344C3031006E524632344C3031AA
:100290002B0044697361626C656400382062697484
:1002A0007300313620626974730050415F4D494ECE
:1002B0000050415F4C4F57004C415F4D454400504A
:1002C000415F484947480000000000240027002AF9
:1002D0000000000000250028002B00000000002383
:1002E0000026002900040404040404040402020299
:1002F0000202020303030303030102040810204067
:1003000080010204081020010204081020000000EF
:1003100007000201000003040600000000000000C6
:100320000000B005A00C7420A905990C11241FBE73
:10033000CFEFD8E0DEBFCDBF13E0A0E0B1E0EEEA42
:10034000FEE402C005900D92A234B107D9F715E082
:10035000A2E4B3E001C01D92AE34B107E1F713E0AF
:10036000C8E2D3E004C02297FE010E940F27C232E8
:10037000D107C9F70E94CA200C944A270C940000A8
:10038000FC0105900020E9F7809590958E0F9F1F46
:100390000895FB01DC0102C001900D9241505040D4
:1003A000D8F70895FB01DC0101900D920020E1F7E0
:1003B0000895FB019F01E8944230C4F04532B4F443
:1003C0004A3029F497FB1EF4909581959F4F642F36
:1003D00077270E94F926805D8A330CF0895D81932E
:1003E000CB010097A1F716F45DE251931082C90189
:1003F0000C94AD04FB019F01423074F0453264F46B
:10040000642F77270E94F926805D8A330CF0895D7E
:100410008193CB010097A1F71082C9010C94AD0420
:100420000F931F93CF93DF938C01EB01009731F46F
:100430006115710519F420E030E038C081E090E0EA
:100440006EE070E00E947404FC019C01009771F161
:1004500080E88383209771F0D387C28781E8838304
:100460008091480590914905892B21F4F093490525
:10047000E093480501151105C9F0118700878381B4
:100480008260838380914A0590914B05892B71F49A
:10049000F0934B05E0934A0580914C0590914D05F2
:1004A000892B21F4F0934D05E0934C05C901DF91B0
:1004B000CF911F910F910895A0E0B0E0E2E6F2E045
:1004C0000C942327FE0135966191719180914A0524
:1004D00090914B05AF010E9497022096E2E00C94A8
:1004E0003F27A0E0B0E0E7E7F2E00C942327FE010D
:1004F000359661917191A0914A05B0914B05139683
:100500008C911397886013968C9380914A059091F3
:100510004B05AF010E949702E0914A05F0914B050F
:100520002381277F23832096E2E00C943F27ABE0D2
:10053000B0E0EDE9F2E00C9413273C012B015A01E5
:10054000FC0117821682838181FD03C06FEF7FEF6C
:10055000C6C19AE0892E1E010894211C311CF301AA
:100560002381F20123FD859123FF81912F018823AF
:1005700009F4B2C1853239F423FD859123FF8191BD
:100580002F01853229F490E0B3010E94BD04E7CF2A
:10059000982FFF24EE249924FFE1FF15D0F09B3221
:1005A00069F09C3228F4903259F0933291F40EC0E5
:1005B0009D3249F0903369F441E024C052E0F52ABD
:1005C00084E0F82A28C098E0F92A25C0E0E1FE2A54
:1005D00022C0F7FC29C0892F80538A3070F4F6FEC0
:1005E00005C0989C902C1124980E15C0E89CE02C16
:1005F0001124E80EF0E2FF2A0EC09E3229F4F6FC28
:100600006BC140E4F42A07C09C3619F450E8F52A7F
:1006100002C0983649F4F20123FD959123FF919190
:100620002F01992309F0B8CF892F8554833018F012
:100630008052833038F444E050E0A40EB51E5FE3EE
:1006400059830FC0933631F0933779F0933509F021
:1006500056C020C0F5018081898342E050E0A40E9D
:10066000B51E610101E010E012C0F501C080D1802B
:10067000F6FC03C06FEF7FEF02C0692D70E042E02F
:1006800050E0A40EB51EC6010E94A2048C015FE7D3
:10069000F52214C0F501C080D180F6FC03C06FEFD5
:1006A0007FEF02C0692D70E042E050E0A40EB51E5D
:1006B000C6010E9490048C0150E8F52AF3FE07C0A1
:1006C0001AC080E290E0B3010E94BD04EA948E2D2E
:1006D00090E008171907A8F30EC0F601F7FC859102
:1006E000F7FE81916F0190E0B3010E94BD04E1101B
:1006F000EA94015010400115110579F7EAC09436CB
:1007000011F0993669F5F7FE08C0F50120813181B5
:100710004281538184E090E00AC0F501808191819B
:100720009C01442737FD4095542F82E090E0A80EAD
:10073000B91E9FE6F92257FF09C0509540953095A4
:1007400021953F4F4F4F5F4FE0E8FE2ACA01B901A4
:10075000A1012AE030E00E94E904D82ED21840C05E
:10076000953729F41F2D1F7E2AE030E01DC01F2D74
:10077000197F9F3661F0903720F4983509F0ACC0AE
:100780000FC0903739F0983709F0A6C004C028E0B0
:1007900030E00AC0106114FD146020E130E004C0B4
:1007A00014FD166020E132E017FF08C0F5016081FA
:1007B00071818281938144E050E008C0F50180811D
:1007C0009181BC0180E090E042E050E0A40EB51EB3
:1007D000A1010E94E904D82ED2188FE7F82EF12249
:1007E000F6FE0BC05EEFF522D91438F4F4FE07C014
:1007F000F2FC05C08FEEF82202C01D2D01C0192D9C
:10080000F4FE0DC0FE01ED0DF11D8081803319F461
:1008100099EEF92208C01F5FF2FE05C003C08F2DBC
:10082000867809F01F5F0F2DF3FC14C0F0FE0FC097
:100830001E1510F09D2C0BC09D2C9E0C911A1E2D88
:1008400006C080E290E0B3010E94BD041F5F1E1548
:10085000C0F304C01E1510F4E11A01C0EE2404FF19
:100860000FC080E390E0B3010E94BD0402FF1DC0F1
:1008700001FD03C088E790E00EC088E590E00BC062
:10088000802F867891F001FF02C08BE201C080E2E8
:10089000F7FC8DE290E0B3010E94BD0406C080E346
:1008A00090E0B3010E94BD049A94D914C0F3DA9485
:1008B000F101ED0DF11D808190E0B3010E94BD04B6
:1008C000DD20A9F706C080E290E0B3010E94BD04DC
:1008D000EA94EE20C1F743CEF30166817781CB0124
:1008E0002B96E2E10C942F270F931F93CF93DF9366
:1008F000689F8001699F100D789F100D1124C80119
:100900000E946824EC01009729F060E070E0A801E3
:100910000E949B04CE01DF91CF911F910F9108950A
:10092000FC010590615070400110D8F780959095BA
:100930008E0F9F1F0895DC0101C06D934150504000
:10094000E0F70895FC016150704001900110D8F764
:10095000809590958E0F9F1F0895DC01FC01672FF5
:1009600071917723E1F7329704C07C916D93708386
:100970006291AE17BF07C8F308950F931F93CF93EB
:10098000DF938C01EB018B8181FF1BC082FF0DC0C7
:100990002E813F818C819D812817390764F4E8817D
:1009A000F9810193F983E88306C0E885F985802FF2
:1009B0000995892B31F48E819F8101969F838E83C7
:1009C00002C00FEF1FEFC801DF91CF911F910F9170
:1009D0000895FA01AA27283051F1203181F1E894D5
:1009E0006F936E7F6E5F7F4F8F4F9F4FAF4FB1E022
:1009F0003ED0B4E03CD0670F781F891F9A1FA11D1D
:100A0000680F791F8A1F911DA11D6A0F711D811D1D
:100A1000911DA11D20D009F468943F912AE0269FE2
:100A200011243019305D3193DEF6CF010895462F41
:100A30004770405D4193B3E00FD0C9F7F6CF462F22
:100A40004F70405D4A3318F0495D31FD405241938B
:100A500002D0A9F7EACFB4E0A69597958795779548
:100A60006795BA95C9F700976105710508959B01CF
:100A7000AC010A2E06945795479537952795BA9558
:100A8000C9F7620F731F841F951FA01D0895882347
:100A900071F08091680082608093680080916C00A2
:100AA000816080936C0080916C0082600DC08091A9
:100AB00068008D7F8093680080916C008E7F8093AA
:100AC0006C0080916C008D7F80936C0008951F9264
:100AD0000F920FB60F9211242F933F934F935F9372
:100AE0006F937F938F939F93AF93BF93EF93FF93F6
:100AF00080E00E944705FF91EF91BF91AF919F91D8
:100B00008F917F916F915F914F913F912F910F90B6
:100B10000FBE0F901F9018958130910581F46F5F83
:100B20007F4FB1F482E493E00E94340A85E493E0BD
:100B300067E070E048E050E00E94BF090895892B0B
:100B400039F46F5F7F4F21F485E493E00E94A11395
:100B5000089580E090E06FEF7FEF0E948C0508958C
:100B600081E090E06FEF7FEF0E948C05089581E0B7
:100B70000E94470564E670E080E090E00E94351D29
:100B800083B7817F846083BF83B7816083BF8DE03B
:100B900060E00E94121E83B7816083BF889583B78F
:100BA0008E7F83BF83B78E7F83BF8DE061E00E941D
:100BB000121E0895813039F0813090F0823031F08A
:100BC000833071F406C08AE061E00CC08AE060E026
:100BD00002C08AE061E00E94121E8BE061E006C064
:100BE0008AE060E00E94121E8BE060E00E94121E0C
:100BF0008CE060E00E94121E08955F926F927F92D7
:100C00008F929F92AF92BF92CF92DF92EF92FF921C
:100C10000F931F93CF93DF930E94271D3B0100E0AA
:100C200010E0DD2482E0582ECC24C39459C00E94E9
:100C3000271D4B015C018EE00E94661E7C018FE047
:100C40000E94661EEC01E114F10439F4009729F4C6
:100C50008EE060E00E94121E11C0DD2009F43FC04A
:100C6000DD24C130D10511F4DD24D39480E091E07E
:100C7000E916F10409F481E08D1519F4DD24D3940B
:100C80002EC082E295E060E071E00E947A2281E06D
:100C9000E816F10469F4CD2B59F482E295E068E09E
:100CA00071E00E947A22F801E759FC4FC0820EC021
:100CB000DD20A1F0EF2891F482E295E062E171E09D
:100CC0000E947A22F801E759FC4F50820F5F1F4FB4
:100CD00068EC70E080E090E00E94351DDD24B401F6
:100CE000661977096051774224F4043011050CF439
:100CF0009ECF80E00430110509F481E0DF91CF91AF
:100D00001F910F91FF90EF90DF90CF90BF90AF9029
:100D10009F908F907F906F905F900895EF92FF92D9
:100D20001F93CF93DF930E94271D7B01EB0110E0FF
:100D300010C085E493E061E173E00E945F09182F21
:100D40000E94271DEB0162E370E080E090E00E94CA
:100D5000351DCE19DF09C051D7421CF4112349F3C8
:100D600011E0812FDF91CF911F91FF90EF900895B7
:100D70001F93CF93DF9381E00E94DA0582E295E032
:100D80006CE171E00E947A220E948E06882309F4A9
:100D9000CBC0C1E1D3E082E295E0699140E150E04F
:100DA0000E94D52183E0C731D807A9F783E00E94CC
:100DB000DA050E94FD05882309F4B6C082E295E0B9
:100DC00066E271E00E947A22C9E6D3E082E295E011
:100DD00069914AE050E00E94D52193E0CD36D907D1
:100DE000A9F782E295E060E20E942E2182E295E07E
:100DF00066E371E00E947A2206C062E370E080E060
:100E000090E00E94351D80916103909162030E94E1
:100E10000C0F882391F380916103909162030E94EB
:100E2000360CCDB7DEB72A970FB6F894DEBF0FBEEB
:100E3000CDBFEDB7FEB73196A3E4B1E0BA83A98385
:100E400022833383448355836683778380879187A6
:100E50000E945C028AE080936303EDB7FEB73A9686
:100E60000FB6F894FEBF0FBEEDBF80916103909165
:100E7000620363E673E00E94EA0D80916103909142
:100E8000620361E173E00E94EA0D80916103909139
:100E9000620369E673E00E94EA0D64E670E080E0B8
:100EA00090E00E94351D809161039091620363E69A
:100EB00073E00E94E8108823B9F18091610390915A
:100EC00062030E94C10EC3E6D3E011E060E070E06F
:100ED0008881883C11F461E070E082E295E04AE0AC
:100EE00050E00E945822212F30E040E050E08881FD
:100EF000883C11F441E050E02423352310E0232BFB
:100F000009F011E02196F3E0C936DF07F9F6112365
:100F100059F082E295E065E571E00E947A2282E074
:100F20000E94DA0581E001C080E0DF91CF911F913E
:100F300008951F93CF93DF938DB79EB70A970FB68F
:100F4000F8949EBF0FBE8DBFEDB7FEB7319687E612
:100F500091E0ADB7BEB712969C938E931197809196
:100F60000903828380910A03838380910B03848326
:100F700080910C03858380910D03868380910E03FD
:100F8000878380910F0380878091100381870E945F
:100F90005C02CDB7DEB72A960FB6F894DEBF0FBE5F
:100FA000CDBFC3E7D1E00FC000D0EDB7FEB7D2830D
:100FB000C1830E945C020F900F9062E370E080E0BA
:100FC00090E00E94351D80916103909162030E9420
:100FD0000C0F882349F380916103909162030E9472
:100FE000360CADB7BEB71A970FB6F894BEBF0FBE9A
:100FF000ADBFEDB7FEB73196A2E8B1E0CDB7DEB731
:10100000BA83A9832283338344835583668377839A
:10101000808791870E945C0284E180936303EDB72F
:10102000FEB73A960FB6F894FEBF0FBEEDBF8091A3
:1010300061039091620363E673E00E94EA0D809180
:1010400061039091620361E173E00E94EA0D64E63E
:1010500070E080E090E00E94351D809161039091E6
:10106000620363E673E00E94E8108823B9F180917F
:101070006103909162030E94C10EC3E6D3E011E0C8
:1010800060E070E08881883C11F461E070E082E209
:1010900095E04AE050E00E945822212F30E040E0E5
:1010A00050E08881883C11F441E050E0242335234E
:1010B00010E0232B09F011E02196F3E0C936DF0799
:1010C000F9F6112359F082E295E064E971E00E949B
:1010D0007A2282E00E94DA0581E001C080E0DF919F
:1010E000CF911F9108950E9499078091610390917B
:1010F00062030E94C10E80911703813021F083307A
:1011000009F041C01DC00E94B8068823A1F083E009
:101110008093170382E493E066E470E00E948A0AF9
:1011200068E873E180E090E00E94351D82E295E07E
:1011300064EA71E016C082E295E066EB71E018C0E7
:101140000E949907882381F081E08093170382E44D
:1011500093E060EA70E00E948A0A82E295E068EC1F
:1011600071E00E947A220FC082E295E068ED71E0A2
:101170000E947A2281E00E94DA0568E873E180E04B
:1011800090E00E94351D80916103909162030E945E
:10119000251080E00E94DA050E94B705089580E5D9
:1011A00099E060E070E00E9410020895DF92EF92F3
:1011B000FF920F931F9382E295E040E051EE60E0D2
:1011C00070E00E94431F0E94CF0883E085BF8AE041
:1011D00061E00E94D31D8BE061E00E94D31D8CE092
:1011E00061E00E94D31D8EE060E00E94D31D8FE07D
:1011F00060E00E94D31D02E413E0C80169E070E0E2
:101200000E94710BC80160EA70E00E948A0A8DE0BA
:1012100061E00E94D31D8DE061E00E94121E00D0AB
:1012200088EE91E0EDB7FEB7928381830E945C0265
:101230000F900F9081E090E00E94D920F82ED92ED7
:101240000091090310910A0320910B0330910C03C4
:1012500040910D0350910E0360910F0370911003A4
:10126000EE240E944511F0926103D092620300D0F7
:1012700000D080EF91E0EDB7FEB79283818382E0EA
:1012800090E0948383830E945C0278940F900F9087
:101290000F900F901F910F91FF90EF90DF900895A6
:1012A0000F931F93082F112707FD109582E295E0F9
:1012B000602F0E943420C8011F910F910895DF9282
:1012C000EF92FF920F931F93CF93DF93F82E092F86
:1012D000EB010E94CB13181619060CF046C08F2D97
:1012E000902F0E94AA13823009F03FC0DD24EE2423
:1012F00010E08F2D902F0E94CB1318161906CCF7F3
:101300008F2D902F0E94AA13282F8D3071F18A30D3
:1013100061F1833051F1823041F180538A3010F411
:10132000282F05C0822F8154863008F42753812F3F
:1013300090E010FD02C0D22E0DC0959587953D2DF1
:101340003295307F322BFE01E80FF91F308305976D
:1013500009F0E3261F5F1C3060F21C3031F490E08E
:101360008D818E1519F491E001C090E0892FDF91F5
:10137000CF911F910F91FF90EF90DF900895CF9242
:10138000DF92EF92FF920F931F93DF93CF93CDB72E
:10139000DEB76C970FB6F894DEBF0FBECDBF8C01E1
:1013A000F62EE42E20E00E941A156E010894C11C4E
:1013B000D11CC6016F2D4E2D20E00E941A158B8185
:1013C0009C81F801938382838D819E81AF81B88552
:1013D00084839583A683B78389859A85AB85BC85ED
:1013E00080879187A287B3878D8584878E8585873F
:1013F0008F859889978786878989808B8A899B8939
:10140000928B818B8C899D89948B838B8E899F890C
:10141000968B858B888D998D908F878B8A8D9B8DF0
:10142000928F818F9C8D838D8C7F292F227091705C
:10143000892B822B838FC6010E94A113C80140E82B
:1014400055E260E070E00E94AF126C960FB6F8941F
:10145000DEBF0FBECDBFCF91DF911F910F91FF90E7
:10146000EF90DF90CF900895FC0180916F038C3056
:1014700090F480838F5F80936F03815090E0FC0134
:10148000EE0FFF1FE80FF91FE059FC4F88EB9BE0C0
:101490009283818308958FEF80830895FC012081DA
:1014A0002C30B8F58181992787FD909548E850E068
:1014B000481B590B440F551F440F551F64177507E0
:1014C00084F08281992787FD909548E552E0481B7A
:1014D000590B440F551F440F551F641775070CF423
:1014E000AB0142505040CA01AA2797FDA095BA2FE0
:1014F000880F991FAA1FBB1F4FB7F89430E0F9015E
:10150000EE0FFF1FE20FF31FE059FC4F9283818320
:101510004FBF0895AF92BF92CF92DF92EF92FF92AA
:101520000F931F93CF93DF93EC019B0182E0603216
:1015300078070CF048C077FF03C020E030E005C01A
:10154000653B710514F024EB30E000D000D0B90108
:10155000882777FD8095982F2981332727FD30959F
:10156000E8E8AE2EB12CA21AB30AAA0CBB1CAA0C36
:10157000BB1CCC24B7FCC094DC2CEA81FF27E7FD20
:10158000F09528E532E02E1B3F0B220F331F220F70
:10159000331F442737FD4095542FEDB7FEB7218305
:1015A00032834383548320E030E040E050E004EB9A
:1015B000E02EF12C012D112D0E94D4229B010F90C1
:1015C0000F900F900F90CE01B9010E944E0ADF914B
:1015D000CF911F910F91FF90EF90DF90CF90BF9030
:1015E000AF900895CF92DF92EF92FF921F93CF9327
:1015F000DF93EC01162F7A01690188818C3008F0A5
:1016000064C0862F61E00E94D31D888190E0FC01B8
:10161000EE0FFF1FE80FF91FE059FC4F1F73808189
:10162000807C812B808380E292E08E199F0964E0A8
:1016300070E00E94A926698380E699E08C199D09D3
:1016400064E070E00E94A9266A83A8818A2F6CE07A
:101650000E949D26682F70E0AB01440F551F460F76
:10166000571F440F551F440F551F20E030E0C9019C
:10167000840F951FFC01EE0FFF1FE80FF91FE059C3
:10168000FC4F808186FD15C02F5F3F4F2C30310508
:1016900071F724C01092800082E080938100109244
:1016A000850010928400B19A80916F0082608093CF
:1016B0006F008A2F90E0FC01EE0FFF1FE80FF91F6B
:1016C000E059FC4F8081806480838881DF91CF91D5
:1016D0001F91FF90EF90DF90CF900895672BD1F28C
:1016E000E8CF40E252E020E639E00E94F20A089595
:1016F0001F920F920FB60F9211242F933F934F9387
:101700005F936F937F938F939F93AF93BF93EF9369
:10171000FF938091940387FF05C01092850010927B
:1017200084002BC020919403332727FD30958091AE
:101730006F0390E02817390704F5809194039927E7
:1017400087FD9095FC01EE0FFF1FE80FF91FE05990
:10175000FC4F808186FF11C080919403992787FDFB
:101760009095FC01EE0FFF1FE80FF91FE059FC4FA9
:1017700080818F7360E00E94121E809194038F5FBE
:101780008093940320919403332727FD3095809113
:101790006F0390E0281739070CF04EC08091940336
:1017A0008C300CF049C020918400309185008091EC
:1017B0009403992787FD9095FC01EE0FFF1FE80F1A
:1017C000F91FE059FC4F81819281280F391F309316
:1017D00089002093880080919403992787FD909534
:1017E000FC01EE0FFF1FE80FF91FE059FC4F80814D
:1017F00086FF2BC080919403992787FD9095FC016B
:10180000EE0FFF1FE80FF91FE059FC4F80818F7327
:1018100061E00E94121E19C080E49CE905C080911D
:1018200084009091850004969093890080938800AD
:101830008FEF8093940309C080918400909185007C
:10184000049680549C4940F3EACFFF91EF91BF91F9
:10185000AF919F918F917F916F915F914F913F9148
:101860002F910F900FBE0F901F90189520911D047F
:1018700030911E0440911F04509120046091210476
:101880007091220480912304909124040895813062
:101890009105E9F56F5F7F4F09F04AC085EF93E04E
:1018A00069E04AE00E944815809115049091160461
:1018B00020911704309118044091190450911A0492
:1018C00060911B0470911C0480931D0490931E046E
:1018D00020931F043093200440932104509322044A
:1018E000609323047093240484E394E06AEF71E02E
:1018F0000E94CC238BE394E06FE072E00E94CC2343
:1019000082E494E062E272E00E94CC230895892B85
:1019100079F46F5F7F4F61F482E494E00E94622467
:101920008BE394E00E94622484E394E00E946224AA
:10193000089580E090E06FEF7FEF0E94470C0895DC
:1019400081E090E06FEF7FEF0E94470C0895AF9227
:10195000BF92CF92DF92EF92FF920F931F93DF938C
:10196000CF93CDB7DEB769970FB6F894DEBF0FBE41
:10197000CDBF85EF93E0BE016E5F7F4FAE014D5F3F
:101980005F4F9E012F5F3F4F0E94F11685EF93E05E
:101990000E94551700D000D0EDB7FEB7319621E375
:1019A00032E0ADB7BEB712963C932E931197828367
:1019B00013820E945C020F900F900F900F9089810C
:1019C000882309F4E5C000D080E492E0EDB7FEB7CB
:1019D000928381830E945C0280911A030F900F9082
:1019E000853609F04EC085EF93E0BE016E5E7F4FF5
:1019F00041E00E9413198DB79EB70A970FB6F8946D
:101A00009EBF0FBE8DBFEDB7FEB7319687E492E063
:101A1000ADB7BEB712969C938E9311978A89828335
:101A20008B8983838C8984838D8985838E89868342
:101A30008F898783888D8087898D81870E945C024A
:101A40008A899B892C893D894E895F89688D798D2A
:101A500080931D0490931E0420931F043093200450
:101A60004093210450932204609323047093240430
:101A7000EDB7FEB73A960FB6F894FEBF0FBEEDBFB6
:101A800087C0833709F084C085EF93E065E074E098
:101A9000409118030E94131980910504C82EDD247B
:101AA000FFEFCF16D10409F449C080913004909122
:101AB00031040196909331048093300456E0E52E72
:101AC00054E0F52E860143E0000F111F4A95E1F71F
:101AD0000B531C4F34E0A32EB12CAC0EBD1ED7010E
:101AE0006D917D01F80161938F01C5014AE00E946B
:101AF00030248BE394E0B5010E949123C5010E943C
:101B00006224FEE0EF16F4E0FF0649F78E01055F60
:101B10001F4FC801B6014AE00E94FF2384E394E00E
:101B2000B8010E949123C8010E9462248AE294E0D5
:101B3000C80ED91E81E0D6018C932AC08091320450
:101B40009091330401969093330480933204109162
:101B5000060485EF93E00E94281610930504A12F38
:101B6000B0E023E0AA0FBB1F2A95E1F7AB56BC4FAC
:101B7000E6E0F4E08D91819384E0EE30F807D1F750
:101B8000399785EF93E0BF01409118030E947A1ABC
:101B900085EF93E00E945E1969960FB6F894DEBF58
:101BA0000FBECDBFCF91DF911F910F91FF90EF90AE
:101BB000DF90CF90BF90AF90089560931A0385EFA8
:101BC00093E00E945A1764E170E080E090E00E9488
:101BD000351D0895CF92DF92EF92FF920F931F93DE
:101BE000DF93CF93CDB7DEB727970FB6F894DEBF5C
:101BF0000FBECDBF162F072F85EF93E00E9428164A
:101C00008091260480930504212F302FC9017C0187
:101C100000E010E06E010894C11CD11CE091260484
:101C2000F091270463E0EE0FFF1F6A95E1F7E00FE4
:101C3000F11FEB56FC4FD7018C9180830F5F1F4F34
:101C4000F70161917F01F801EB5FFB4F6083C601F3
:101C50004AE00E94302482E494E0B6010E9491237D
:101C6000C6010E94622408301105C1F68091260445
:101C7000909127040196909327048093260485EF82
:101C800093E065E074E0409118030E947A1A64E6DC
:101C900070E080E090E00E94351D27960FB6F89422
:101CA000DEBF0FBECDBFCF91DF911F910F91FF908F
:101CB000EF90DF90CF900895CF93DF9382E295E08D
:101CC00063E572E00E947722C0E0D0E0FE01E65DAD
:101CD000FB4F608182E295E070E04AE050E00E94B4
:101CE000452282E295E060E20E9406212196C630FC
:101CF000D10561F782E295E060E20E942E21DF913A
:101D0000CF910895CF93DF9382E295E06DE572E085
:101D10000E947722C5E9D3E082E295E069914AE02A
:101D200050E00E94D52182E295E060E20E94062107
:101D300083E0C53CD80781F782E295E060E20E942B
:101D40002E2182E295E068E672E00E947722C5ECDF
:101D5000D3E082E295E069914AE050E00E94D5210B
:101D600082E295E060E20E94062183E0C53FD80749
:101D700081F782E295E060E20E942E21DF91CF910F
:101D80000895EF92FF920F931F937C0185EF93E0EC
:101D90000E94781B02E215E0C80163E772E00E942E
:101DA00077226091300470913104C8014AE050E01C
:101DB0000E945822C8016CE872E00E94772260916C
:101DC000320470913304C8014AE050E00E94582266
:101DD000C7010E94820E0E945C0EC80164E374E099
:101DE0000E94C022C8016BE374E00E94C022C801B7
:101DF00062E474E00E94C02200D084EB92E0EDB770
:101E0000FEB7928381830E945C020F900F901F9116
:101E10000F91FF90EF900895EF92FF920F931F9311
:101E2000CF93DF93EC0180911A03833709F4A8C0A4
:101E300090911D0420911E0430911F0440912004B4
:101E4000509121046091220470912304E0912404B4
:101E5000809115048917E9F4809116048217C9F45A
:101E6000809117048317A9F480911804841789F4CA
:101E700080911904851769F480911A04861749F432
:101E800080911B04871729F480911C048E1709F494
:101E900079C000911D0410911E0420911F043091FF
:101EA00020044091210450912204609123047091F8
:101EB000240485EF93E00E948F17809125048823E6
:101EC00009F055C085EF93E00E94281685EF93E056
:101ED0006DE074E048E00E947A1A8DB79EB70A97C9
:101EE0000FB6F8949EBF0FBE8DBFEDB7FEB731960B
:101EF00081ED92E0ADB7BEB712969C938E93119789
:101F000080910D04828380910E04838380910F045D
:101F1000848380911004858380911104868380914D
:101F20001204878380911304808780911404818731
:101F30000E945C028DB79EB70A960FB6F8949EBFBA
:101F40000FBE8DBFE0900D04F0900E0400910F04C1
:101F50001091100420911104309112044091130447
:101F60005091140485EF93E061E00E949418CE0133
:101F700063E770E00E94DD0D85EF93E00E945E193B
:101F800081E05CC0CE0165E670E00E94DD0D8091CD
:101F90002504882309F447C085EF93E00E942816A2
:101FA00085EF93E06DE074E048E00E942019ADB742
:101FB000BEB71A970FB6F894BEBF0FBEADBFEDB750
:101FC000FEB731968FED92E012969C938E93119707
:101FD00080910D04828380910E04838380910F048D
:101FE000848380911004858380911104868380917D
:101FF0001204878380911304808780911404818761
:102000000E945C028DB79EB70A960FB6F8949EBFE9
:102010000FBE8DBF85EF93E00E945E1962E370E012
:1020200080E090E008C085EF93E00E945E1968ECC4
:1020300070E080E090E00E94351D80E0DF91CF915C
:102040001F910F91FF90EF900895EF92FF920F93E1
:102050001F9320E030E0F901EB56FC4F1082F901AC
:10206000EB53FC4F10822F5F3F4F2033310599F720
:1020700010922A0410922B0410922C0410922D041A
:1020800010922E0410922F0465E670E00E94DD0D80
:1020900085EF93E00E945E1980912504882399F0D2
:1020A00000910D0410910E0420910F043091100442
:1020B0004091110450911204609113047091140422
:1020C00085EF93E00AC085EF93E000E010E020E0A8
:1020D00030E040E050E060E070E00E948F1785EF54
:1020E00093E061E0EE24FF2400E010E020E030E027
:1020F00040E050E00E94941810921D0410921E04BB
:1021000010921F04109220041092210410922204B5
:102110001092230410922404109227041092260493
:102120001092290410922804109231041092300465
:10213000109233041092320484E394E06AEF71E069
:102140000E94E6238BE394E06FE072E00E94E623B6
:1021500082E494E062E272E00E94E6231F910F9114
:10216000FF90EF900895FF920F931F93F62E02E2D7
:1021700015E0C8016EEE72E00E947722C8016F2D53
:102180004AE050E00E94E72105EF13E0C8010E94F9
:1021900028168FEF80930504F0920604109207042E
:1021A000109208041092090410920A0410920B0471
:1021B00010920C04C80165E074E0409118030E947D
:1021C0007A1AC8010E945E191F910F91FF9008951D
:1021D000CF92DF92EF92FF920F931F93CF93DF93F3
:1021E0007C016B010E94271D8B01EB01A09128044B
:1021F000B0912904FD01E65DFB4F80818823A1F4A5
:10220000C01BD10BC05DD7407CF40E94271DEB01A1
:10221000C701609128040E94B31064E670E080E07A
:1022200090E00E94351DE2CFA65DBB4F8C918823C4
:1022300019F120E030E0F601E20FF31FA09128042D
:10224000B091290473E0AA0FBB1F7A95E1F7A20FA2
:10225000B31FAB53BC4F8C9180832F5F3F4F28300F
:10226000310549F7809128049091290401969093B3
:1022700029048093280481E0DF91CF911F910F9171
:10228000FF90EF90DF90CF9008959F92AF92BF9212
:10229000CF92DF92EF92FF920F931F93CF93DF9332
:1022A000EC01F22ED32EC42EB52EA62E972E85EF3E
:1022B00093E00E94FE1980E090E0FC01EB56FC4F99
:1022C0001082FC01EB53FC4F108201968033910584
:1022D000A1F710922A0410922B0410922C04109251
:1022E0002D0410922E0410922F0400930D041093CD
:1022F0000E04F0920F04D0921004C0921104B09218
:102300001204A09213049092140485EF93E063E00A
:1023100070E00E946E1885EF93E061E070E00E942B
:10232000FB1785EF93E060E00E94E71685EF93E0EE
:10233000609118030E945B1585EF93E062E070E006
:102340000E942718CE0165E670E00E94DD0D85EF42
:1023500093E00E945E1980E067EA7CE042E050E092
:102360000E94621CE0922504EE2011F1E0900D0421
:10237000F0900E0400910F041091100420911104AC
:1023800030911204409113045091140485EF93E0AE
:1023900061E00E94941885EF93E000E010E020E0F7
:1023A00030E040E050E060E070E00E948F170DC028
:1023B00085EF93E061E0EE24FF2400E010E020E0F0
:1023C00030E040E050E00E949418DF91CF911F91DF
:1023D0000F91FF90EF90DF90CF90BF90AF909F90C4
:1023E00008950F931F93CF93DF93FC01738D769520
:1023F0007170A685B7859585772329F08C918923FF
:1024000009F454C004C08C91892309F04FC083891A
:10241000948920E001972FEF8F3F9207D9F7C58964
:10242000D689A685B785158560E031E040E050E0AB
:1024300000E0CE01202F01972FEF8F3F9207D9F7B1
:102440008C91812311F0632B03C0832F8095682327
:10245000330F4F5F5F4F4830510559F78789908D93
:1024600020E001972FEF8F3F9207D9F77111609508
:1024700080918B0420918C0490E001968F73907072
:1024800030E08217930779F0E0918B04F0E0E55B90
:10249000FB4F608380918B0490E001968F73907066
:1024A00080938B0403C0838D8160838FDF91CF91F4
:1024B0001F910F9108951F920F920FB60F92112442
:1024C0002F933F934F935F936F937F938F939F933C
:1024D000AF93BF93EF93FF938091490490914A0487
:1024E000009711F00E94F111FF91EF91BF91AF9110
:1024F0009F918F917F916F915F914F913F912F911C
:102500000F900FBE0F901F9018951F920F920FB64D
:102510000F9211242F933F934F935F936F937F9369
:102520008F939F93AF93BF93EF93FF938091490451
:1025300090914A04009711F00E94F111FF91EF91E0
:10254000BF91AF919F918F917F916F915F914F91CB
:102550003F912F910F900FBE0F901F901895CF9223
:10256000DF92EF92FF920F931F93CF93DF93EC01D3
:102570007A018B011A8E198E188E1F8A1E8A1D8A67
:102580001C8A1B8A20E030E06901CC0CDD1CC20EE5
:10259000D31EB601660F771F660F771FAB01485930
:1025A0005F4FFA0185919591A591B4918E159F0584
:1025B000A007B107E9F4FB01E459FF4F859194911D
:1025C0009C8B8B8BFB01E259FF4F859194919E8BE5
:1025D0008D8BFB01E059FF4F85919491988F8F8BE4
:1025E000FB01EE58FF4F859194919A8F898F06C019
:1025F0002F5F3F4F2D30310509F0C6CF8F89988D61
:10260000892B09F449C04C85463108F03DC09091B2
:102610006800483010F484E005C04E3010F082E0CD
:1026200001C081E0892B80936800483028F4EDE6F2
:10263000F0E0ADE6B0E00BC04E3028F0ECE6F0E0A4
:10264000ACE6B0E004C0EBE6F0E0ABE6B0E0508111
:10265000483040F481E090E002C0880F991F4A950D
:10266000E2F710C0242F30E04E3018F428503040EC
:1026700002C02E50304081E090E002C0880F991FC8
:102680002A95E2F7852B8C93898D9A8D20E001970E
:102690002FEF8F3F9207D9F78091490490914A0418
:1026A0008C179D0781F08B8D8E7F8B8F9FB7F89451
:1026B00010928B0480918B0480938C04D0934A04F5
:1026C000C09349049FBFDF91CF911F910F91FF905D
:1026D000EF90DF90CF900895FC014485463180F55E
:1026E000483028F4EDE6F0E0ADE6B0E00BC04E3047
:1026F00028F4EBE6F0E0ABE6B0E004C0ECE6F0E096
:10270000ACE6B0E05081483040F481E090E002C097
:10271000880F991F4A95E2F710C0242F30E04E3001
:1027200018F42850304002C02E50304081E090E034
:1027300002C0880F991F2A95E2F7809585238C9314
:102740000895FC0185E293E091838083CF010E948C
:102750006C1308952091490430914A0428173907D1
:1027600031F490918C0480918B04981719F42FEF19
:102770003FEF0FC0E0918C04F0E0E55BFB4F208160
:1027800080918C0490E001968F73907080938C04FC
:1027900030E0C90108952091490430914A04281776
:1027A000390719F020E030E00EC080918B042091B1
:1027B0008C0490E0805C9F4F821B910960E470E084
:1027C0000E94A9269C01C90108950F931F93DC0163
:1027D00059968D919C915A97892B49F481E090E00C
:1027E00013969C938E93129720E030E097C00FB71A
:1027F000F8945B968C915B975196ED91FC91529772
:1028000050962C91509781FF8DC08081822B8083C0
:1028100059968D919C915A97059620E001972FEF3C
:102820008F3F9207D9F75B968C915B9781FF35C0FC
:1028300031E040E050E070E010E0832F90E086232C
:1028400097235196ED91FC91529750962C91509769
:10285000892B29F0808120952823208303C0808143
:10286000822B808359968D919C915A97212F0197A5
:102870002FEF8F3F9207D9F7330F4F5F5F4F4830ED
:102880005105D9F65196ED91FC9152979081509651
:102890008C9150978095892333C031E040E050E01F
:1028A00070E010E0832F90E0862397235196ED91FE
:1028B000FC91529750962C915097892B21F0808152
:1028C000822B808304C08081209528232083599601
:1028D0008D919C915A97212F01972FEF8F3F92074F
:1028E000D9F7330F4F5F5F4F48305105D9F65196F6
:1028F000ED91FC915297808150969C915097892B35
:1029000080830FBF59968D919C915A9720E0019733
:102910002FEF8F3F9207D9F721E030E0C9011F91D7
:102920000F910895808120952823208371CF2091D5
:10293000490430914A042817390749F49FB7F8949D
:1029400010928B0480918B0480938C049FBF089518
:102950002091490430914A042817390731F49091A5
:102960008C0480918B04981719F42FEF3FEF0AC065
:10297000E0918C04F0E0E55BFB4F8081282F33274A
:1029800027FD3095C90108951F93CF93DF93EC0184
:10299000162F862F60E00E94D31D8B8D81FD04C011
:1029A000812F61E00E94121E1C87212F30E0C90197
:1029B00087509D4FFC0184918D872B513D4FF9012C
:1029C0006491E62FF0E0EE0FFF1FE552FD4F859179
:1029D00094919F878E87DF91CF911F910895FF92E9
:1029E0000F931F938C01F62E862F61E00E94D31D5A
:1029F0008F2D61E00E94121E8F2D90E0FC01E750A8
:102A0000FD4FE491D8015096EC9350978B519D4F18
:102A1000FC016491E62FF0E0EE0FFF1FEF52FD4F37
:102A20008591949152969C938E9351971F910F91FB
:102A3000FF900895FF920F931F938C01F62EFC01D7
:102A40001382128288EE93E0A0E0B0E08483958345
:102A5000A683B78385E293E091838083148A138AE7
:102A6000168A158A108E178A128E118E838D217008
:102A7000220F8C7F822B838FC801642F0E94EF145A
:102A8000C8016F2D0E94C4141F910F91FF900895EB
:102A9000FC016083418381E08283138280E284832E
:102AA0001582168210861186128613861486158664
:102AB000168617860895FC01613208F060E264838F
:102AC000089570E08DB79EB70E970FB6F8949EBF2D
:102AD0000FBE8DBFEDB7FEB7319685E292E0ADB780
:102AE000BEB712969C938E93119773836283CB012A
:102AF00056E0969587955A95E1F781709070958389
:102B00008483CB0145E0969587954A95E1F78170DE
:102B1000907097838683CB0134E0969587953A959C
:102B2000E1F78170907091878087CB0195958795AB
:102B300087709070938782876170707075876487E3
:102B40000E9471028DB79EB70E960FB6F8949EBF85
:102B50000FBE8DBF0895FF920F931F938C01F62E29
:102B600081E00E942C1C80E00E94351C80E00E94C5
:102B70003A1CF80181816F2D0E94121E1F910F9146
:102B8000FF9008951F93CF93DF93EC0160E070E016
:102B90000E94AB1580E68EBD0DB407FEFDCF8EB54D
:102BA0008FEF8EBD0DB407FEFDCF1EB5CE0161E0E7
:102BB00070E00E94AB15812FDF91CF911F91089596
:102BC0001F93CF93DF93EC0160E070E00E94AB15A0
:102BD0008FEF8EBD0DB407FEFDCF1EB5CE0161E0B7
:102BE00070E00E94AB15812FDF91CF911F91089566
:102BF0001F93CF93DF93EC0160E070E00E94AB1570
:102C000081EE8EBD0DB407FEFDCF1EB5CE0161E095
:102C100070E00E94AB15812FDF91CF911F91089535
:102C20001F93CF93DF93EC0160E070E00E94AB153F
:102C300082EE8EBD0DB407FEFDCF1EB5CE0161E064
:102C400070E00E94AB15812FDF91CF911F91089505
:102C50000F931F938C01FC01808160E00E94121E83
:102C6000C8010E94F815C8010E9410161F910F910B
:102C70000895EF92FF920F931F93CF93DF93EC0190
:102C8000F62EE72E9C81142F941708F4192F8E81AD
:102C9000882311F000E002C0092F011BCE0160E083
:102CA00070E00E94AB1581E68EBD0DB407FEFDCF2E
:102CB0008F2D9E2D9C01F901FEB49FEF07C09EBD94
:102CC0000DB407FEFDCF8EB5819311501123B9F7D6
:102CD00007C08EBD0DB407FEFDCF9EB5015001C0EB
:102CE0008FEF0023B1F7CE0161E070E00E94AB15D9
:102CF0008F2DDF91CF911F910F91FF90EF9008954D
:102D0000EF92FF920F931F93CF93DF93EC01F62E78
:102D1000E72E9C81142F941708F4192F8E81882395
:102D200011F000E002C0092F011BCE0160E070E04D
:102D30000E94AB1580EA8EBD0DB407FEFDCF8F2D2E
:102D40009E2D9C01F901FEB408C080818EBD0DB49A
:102D500007FEFDCF31968EB511501123B1F706C095
:102D60001EBC0DB407FEFDCF8EB501500023C1F788
:102D7000CE0161E070E00E94AB158F2DDF91CF9105
:102D80001F910F91FF90EF9008950F931F93CF9392
:102D9000DF93EC01162F042F60E070E00E94AB156A
:102DA0001F7110621EBD0DB407FEFDCF1EB50EBD16
:102DB0000DB407FEFDCF8EB5CE0161E070E00E943C
:102DC000AB15812FDF91CF911F910F91089566234D
:102DD00019F061E04FE302C061E040E00E94C516D7
:102DE0000895CF92DF92EF92FF920F931F938B0182
:102DF0007A01690167E040E70E94C51690E09C01F6
:102E0000E5E036952795EA95E1F72170F8012083F2
:102E100074E0969587957A95E1F7282F2170F70150
:102E2000208396958795969587958170F601808386
:102E30001F910F91FF90EF90DF90CF900895DF9258
:102E4000EF92FF920F931F93CF93DF938C017B013F
:102E50000E94E015C82FD0E0CE01A6E09695879598
:102E6000AA95E1F7DD24D394D82280FF15C0E114A0
:102E7000F10431F0CE01959587958770F701808335
:102E8000C80167E040E40E94C516C5FF05C0C8013F
:102E900067E040E20E94C5168D2DDF91CF911F9112
:102EA0000F91FF90EF90DF90089560E070E00E9436
:102EB0001F170895462F603808F04FE765E00E941D
:102EC000C5160895EF92FF920F931F93CF93DF9350
:102ED0007C01162FEA01022F60E070E00E94AB1522
:102EE0001F7110621EBD0DB407FEFDCF1EB508C0D8
:102EF00088818EBD0DB407FEFDCF21968EB50150A1
:102F00000023B1F7C70161E070E00E94AB15812F8B
:102F1000DF91CF911F910F91FF90EF900895EF9265
:102F2000FF920F931F93DF93CF93CDB7DEB7289710
:102F30000FB6F894DEBF0FBECDBF7C0109831A83A4
:102F40002B833C834D835E836F8378878E010F5F75
:102F50001F4F6AE0A80125E00E946217C70160E1E7
:102F6000A80125E00E946217F7014481413208F070
:102F700040E2C70161E10E94C51628960FB6F89499
:102F8000DEBF0FBECDBFCF91DF911F910F91FF909C
:102F9000EF9008951F93CF93DF93EC01162F60E01D
:102FA00070E00E94AB151F711EBD0DB407FEFDCF72
:102FB0008EB58FEF8EBD0DB407FEFDCF1EB5CE01D1
:102FC00061E070E00E94AB15812FDF91CF911F91DE
:102FD000089560E00E94CA178C7083FD03C020E052
:102FE00030E007C082FD03C021E030E002C022E0F3
:102FF00030E0C90108950F931F93CF93DF938C01A5
:10300000EB0160E00E94CA17482F437F209729F008
:10301000219711F4486001C04C60C80160E00E9433
:10302000C516DF91CF911F910F91089566E00E9420
:10303000CA178872803219F422E030E006C020E01E
:1030400030E0883011F421E030E0C9010895FF92AA
:103050000F931F93CF93DF93EC018B0166E00E94E7
:10306000CA171A82B7EDFB2EF8220230110511F4AF
:1030700080E206C00130110529F481E08A8388E0EE
:10308000F82A01C01A82CE0166E04F2D0E94C516B3
:10309000CE0166E00E94CA178F1511F481E002C0CC
:1030A0001A8280E0DF91CF911F910F91FF900895D8
:1030B00066E00E94CA178670863019F423E030E07B
:1030C0000BC0843019F422E030E006C020E030E08C
:1030D000823011F421E030E0C90108950F931F936D
:1030E000CF93DF938C01EB0166E00E94CA17482F53
:1030F000497FC330D10571F0C230D10511F444606D
:103100000AC0C130D10511F4426005C0209719F002
:10311000249709F44660C80166E00E94C516DF9155
:10312000CF911F910F910895BF92CF92DF92EF92AE
:10313000FF920F931F93DF93CF93CDB7DEB72897FE
:103140000FB6F894DEBF0FBECDBF6C01B62EE9827C
:10315000FA820B831C832D833E834F83588766231B
:1031600089F4F601E0868A8181878B8182878C8150
:1031700083878D8184878E8185878F8186878885E7
:10318000878707C0F6E0F61708F43DC081E06817AE
:1031900061F4EB2DF0E0EC5FFE4FE491C6016E2F81
:1031A000AE014F5F5F4F25E00BC0E62FF0E0EC5F14
:1031B000FE4FE491C6016E2FAE014F5F5F4F21E0DD
:1031C0000E9462170B2D10E0F801E65FFE4FE491BC
:1031D000C6016E2FF60144810E94C516C60162E049
:1031E0000E94CA17005F1E4FF801649121E030E091
:1031F00002C0220F331F6A95E2F7482F422BC60107
:1032000062E00E94C51628960FB6F894DEBF0FBE86
:10321000CDBFCF91DF911F910F91FF90EF90DF9085
:10322000CF90BF9008950F931F938C010E94391681
:10323000C80167E10E94CA1781701F910F9108951C
:10324000DF92EF92FF920F931F938C017B01D42E9C
:1032500060E00E94CA17482F4C7F4260C80160E0BE
:103260000E94C51686E990E00E948E1DC801B70134
:103270004D2D0E948016F801808161E00E94121E8F
:103280008FE090E00E948E1DF801808160E00E9436
:10329000121E1F910F91FF90EF90DF9008950F93F2
:1032A0001F938C0160E00E94CA17482F4D7FC80110
:1032B00060E00E94C5161F910F910895CF93DF9390
:1032C000EC0160E00E94CA17482F4360CE0160E025
:1032D0000E94C516CE0167E040E70E94C5168885AA
:1032E0009985892B9A85892B9B85892B9C85892B90
:1032F0009D85892B9E85892B9F85892B41F0AE0169
:10330000485F5F4FCE016AE025E00E946217CE0160
:103310000E941016CE010E94F815888161E00E947B
:10332000121E82E890E00E948E1DDF91CF910895D9
:10333000CF92DF92FF920F931F93CF93DF936C0195
:10334000EB01042FF22ECB010E94C001089710F070
:1033500020E001C029E000D000D000D0EDB7FEB7DA
:10336000319683EF91E0ADB7BEB712969C938E93E2
:103370001197D383C283822F992787FD90959583D8
:1033800084830E947102EDB7FEB736960FB6F894AB
:10339000FEBF0FBEEDBFCBEED1E01BC0102F1F5FF5
:1033A000C601602F0E94CA1700D000D0EDB7FEB74B
:1033B0003196ADB7BEB71296DC93CE931197828348
:1033C00013820E947102FA94012F0F900F900F90B8
:1033D0000F90FF2019F700D088EE91E0EDB7FEB70F
:1033E000928381830E9471020F900F90DF91CF91A1
:1033F0001F910F91FF90DF90CF900895CF93DF93AF
:10340000EC01888161E00E94D31D898161E00E9406
:10341000D31D0E944B1C888160E00E94121ECE01C9
:1034200061E070E00E94AB1565E070E080E090E044
:103430000E94351DCE0164E04FE40E94C516CE0106
:1034400063E070E00E946E18CE0162E070E00E94BE
:103450002718882311F081E08B83CE0160E070E0B3
:103460000E942718CE0162E070E00E94FB17CE0197
:103470006CE140E00E94C516CE0167E040E70E9483
:10348000C516CE016CE40E945A17CE010E94101698
:10349000CE010E94F815DF91CF910895EF92FF922F
:1034A0000F931F93CF93DF937C01162FEA01022F16
:1034B00060E070E00E94AB151F711EBD0DB407FEE9
:1034C000FDCF1EB59FEF07C09EBD0DB407FEFDCF1B
:1034D0008EB5899301500023B9F7C70161E070E010
:1034E0000E94AB15812FDF91CF911F910F91FF901B
:1034F000EF900895AF92BF92CF92DF92EF92FF923A
:103500000F931F93DF93CF9300D00F92CDB7DEB709
:103510008C010E9420190E94271D6B017C015E0115
:103520000894A11CB11CC80168E0A50121E00E941B
:103530004E1A807331F50E94271D6C197D098E0982
:103540009F09645F714080409040D8F4ECCFC8017F
:103550000E94C215F8018783C8010E944F19C80153
:103560000E94F8158F2D0F900F900F90CF91DF9143
:103570001F910F91FF90EF90DF90CF90BF90AF9091
:10358000089598012B5F3F4FC801BE016E5F7F4FCA
:10359000AE014D5F5F4F0E94F116FA80F801858100
:1035A0008823D1F2D4CF4F925F926F927F928F9205
:1035B0009F92AF92BF92CF92DF92EF92FF920F93C2
:1035C0001F93DF93CF9300D000D00F92CDB7DEB71B
:1035D0006C018B01E42EF22ECB010E94C0010897F2
:1035E00010F020E001C029E000D000D000D0EDB7FD
:1035F000FEB7319680EE91E0ADB7BEB712969C93C0
:103600008E93119713830283822F992787FD9095BC
:10361000958384830E947102EDB7FEB736960FB68C
:10362000F894FEBF0FBEEDBF2E010894411C511C43
:103630008CED682E81E0782E06E0802E912C8C0E89
:103640009D1E17EDA12E11E0B12E2FC0C6016E2DCB
:10365000A20125E00E944E1A00D0ADB7BEB7129667
:103660007C926E9211970E94710284010F900F90CC
:1036700015C000D000D0EDB7FEB73196ADB7BEB7DC
:103680001296BC92AE921197D8018C9182831382CC
:103690000E9471020F900F900F900F9001501040F8
:1036A0000C171D0731F7E394FA94FF2079F600D048
:1036B00084ED91E0EDB7FEB7928381830E947102A1
:1036C0000F900F900F900F900F900F900F90CF9141
:1036D000DF911F910F91FF90EF90DF90CF90BF90FF
:1036E000AF909F908F907F906F905F904F900895D4
:1036F0000F931F938C010E94E015682FC8010E9450
:103700006115C80167EC71E04AE022E00E94D31A1B
:10371000C8016AEB71E04CE024E00E949819C801EE
:1037200062EB71E040E121E00E94D31AC80167EA30
:1037300071E041E126E00E949819C80161EA71E058
:1037400041E021E00E949819C80167E971E042E078
:1037500021E00E949819C80161E971E045E021E08B
:103760000E949819C80168E871E046E021E00E94D3
:103770009819C80161E871E040E021E00E949819C1
:10378000C80163E771E04CE122E00E949819C8018A
:103790000E941618FC01EE0FFF1FEA5EFE4F2591F6
:1037A000349100D000D081E691E0EDB7FEB792836E
:1037B0008183348323830E947102F8018381E82F7F
:1037C000F0E0EE0FFF1FE45EFE4F2591349182E59D
:1037D00091E0EDB7FEB792838183348323830E9407
:1037E00071020F900F900F900F90C8010E94E9177F
:1037F000FC01EE0FFF1FE05EFE4F2591349100D0DB
:1038000000D08FE391E0EDB7FEB7928381833483DC
:1038100023830E9471020F900F900F900F90C801A8
:103820000E945818FC01EE0FFF1FEA5DFE4F259124
:10383000349100D000D08EE291E0EDB7FEB79283D4
:103840008183348323830E9471020F900F900F9025
:103850000F901F910F910895882319F48CB5806201
:1038600002C08CB58F7D8CBD08959CB5937F982B3D
:103870009CBD08952CB5382F33702C7F322B3CBD66
:103880002DB590E0959587959595879581702E7FBC
:10389000822B8DBD08958AE061E00E94121E8AE0AD
:1038A00061E00E94D31D8CB580618CBD8CB58064B5
:1038B0008CBD8DE061E00E94D31D8BE061E00E9431
:1038C000D31D0895823000F5E82FF0E0EE0FFF1FC2
:1038D000E357FB4F71836083882319F08130A1F493
:1038E00008C0809169008C7F842B80936900E89ADE
:1038F000089580916900440F551F440F551F837F21
:10390000842B80936900E99A08951F920F920FB655
:103910000F9211242F933F934F935F936F937F9355
:103920008F939F93AF93BF93EF93FF9380918D04F9
:1039300090918E04892B29F0E0918D04F0918E04F2
:103940000995FF91EF91BF91AF919F918F917F91D9
:103950006F915F914F913F912F910F900FBE0F90FC
:103960001F9018951F920F920FB60F9211242F934C
:103970003F934F935F936F937F938F939F93AF93F7
:10398000BF93EF93FF9380918F0490919004892BC4
:1039900029F0E0918F04F09190040995FF91EF9147
:1039A000BF91AF919F918F917F916F915F914F9157
:1039B0003F912F910F900FBE0F901F9018951F925F
:1039C0000F920FB60F9211242F933F938F939F93D3
:1039D000AF93BF938091950490919604A091970422
:1039E000B0919804309199040196A11DB11D232F27
:1039F0002D5F2D3720F02D570196A11DB11D20936D
:103A000099048093950490939604A0939704B0939F
:103A100098048091910490919204A0919304B091A4
:103A200094040196A11DB11D80939104909392047A
:103A3000A0939304B0939404BF91AF919F918F9101
:103A40003F912F910F900FBE0F901F9018958FB739
:103A5000F8942091950430919604409197045091E8
:103A600098048FBFB901CA0108959B01AC017FB7CB
:103A7000F8948091910490919204A0919304B09154
:103A8000940466B5A89B05C06F3F19F00196A11D6F
:103A9000B11D7FBFBA2FA92F982F8827860F911DA0
:103AA000A11DB11D62E0880F991FAA1FBB1F6A9557
:103AB000D1F7BC012DC0FFB7F8948091910490918B
:103AC0009204A0919304B0919404E6B5A89B05C01C
:103AD000EF3F19F00196A11DB11DFFBFBA2FA92F0D
:103AE000982F88278E0F911DA11DB11DE2E0880F30
:103AF000991FAA1FBB1FEA95D1F7861B970B885EFB
:103B00009340C8F2215030404040504068517C4FB3
:103B1000211531054105510571F60895019739F0D8
:103B2000880F991F880F991F02970197F1F7089541
:103B3000789484B5826084BD84B5816084BD85B588
:103B4000826085BD85B5816085BDEEE6F0E080814F
:103B500081608083E1E8F0E0108280818260808370
:103B6000808181608083E0E8F0E0808181608083F3
:103B7000E1EBF0E0808184608083E0EBF0E0808125
:103B800081608083EAE7F0E08081846080838081C7
:103B9000826080838081816080838081806880836F
:103BA0001092C1000895CF93DF93482F50E0CA01CF
:103BB00087509D4FFC0134914B515D4FFA01849128
:103BC000882369F190E0880F991FFC01E953FD4FAC
:103BD000A591B491FC01EF52FD4FC591D49166239C
:103BE00051F42FB7F8948C91932F909589238C934F
:103BF000888189230BC0623061F42FB7F8948C91CF
:103C0000932F909589238C938881832B88832FBF52
:103C100006C09FB7F8948C91832B8C939FBFDF9144
:103C2000CF910895482F50E0CA01835F9C4FFC015B
:103C30002491CA0187509D4FFC0194914B515D4FD7
:103C4000FA013491332309F440C0222351F1233087
:103C500071F0243028F42130A1F0223011F514C085
:103C60002630B1F02730C1F02430D9F404C080915F
:103C700080008F7703C0809180008F7D80938000CB
:103C800010C084B58F7702C084B58F7D84BD09C014
:103C90008091B0008F7703C08091B0008F7D8093BA
:103CA000B000E32FF0E0EE0FFF1FEF52FD4FA591A4
:103CB000B4912FB7F894662321F48C9190958923C1
:103CC00002C08C91892B8C932FBF0895682F70E0D0
:103CD000CB01835F9C4FFC012491CB0187509D4F0A
:103CE000FC0144916B517D4FFB019491992319F490
:103CF00020E030E03CC0222351F1233071F0243029
:103D000028F42130A1F0223011F514C02630B1F092
:103D10002730C1F02430D9F404C0809180008F771F
:103D200003C0809180008F7D8093800010C084B597
:103D30008F7702C084B58F7D84BD09C08091B000AB
:103D40008F7703C08091B0008F7D8093B000892F62
:103D500090E0880F991F85529D4FFC01A591B49169
:103D60008C9120E030E0842311F021E030E0C901A3
:103D7000089508951F920F920FB60F9211242F935A
:103D80003F934F938F939F93EF93FF938091C00046
:103D900082FD1DC04091C6002091DA043091DB0401
:103DA0002F5F3F4F2F7330708091DC049091DD04C2
:103DB0002817390771F0E091DA04F091DB04E65638
:103DC000FB4F40833093DB042093DA0402C08091E0
:103DD000C600FF91EF919F918F914F913F912F914D
:103DE0000F900FBE0F901F901895E0912E05F09147
:103DF0002F05E05CFF4F8191919120813181821BE1
:103E0000930B8F739070892B11F00E94B91E089547
:103E10001F920F920FB60F9211242F933F938F93FF
:103E20009F93EF93FF9320911E0530911F05809182
:103E30002005909121052817390731F48091C100A0
:103E40008F7D8093C10014C0E0912005F091210581
:103E5000E252FB4F2081809120059091210501962F
:103E60008F73907090932105809320052093C60056
:103E7000FF91EF919F918F913F912F910F900FBEE6
:103E80000F901F901895AF92BF92DF92EF92FF9222
:103E90000F931F93CF93DF93EC017A018B01DD2405
:103EA000403081EE580780E0680780E0780711F025
:103EB000DD24D39491E0A92EB12CEC89FD89DD207D
:103EC00069F0C50108A002C0880F991F0A94E2F7A3
:103ED000808360E079E08DE390E005C0108260E8C7
:103EE00074E88EE190E0A80197010E94BC26215061
:103EF000304040405040569547953795279580E192
:103F00002030380720F0DD2011F0DD24D6CFE889FD
:103F1000F9893083EA89FB89208319A2EE89FF8918
:103F2000408121E030E0C9010C8C02C0880F991F4C
:103F30000A94E2F7482B4083EE89FF894081C9014A
:103F40000D8C02C0880F991F0A94E2F7482B40831A
:103F5000EE89FF894081C9010E8C02C0880F991F2C
:103F60000A94E2F7482B4083EE89FF8980810F8C09
:103F700002C0220F331F0A94E2F7209528232083E2
:103F8000DF91CF911F910F91FF90EF90DF90BF9045
:103F9000AF900895DC011C96ED91FC911D97E05CBB
:103FA000FF4F2191319180819181281B390B2F7313
:103FB0003070C9010895DC011C96ED91FC911D97AC
:103FC000E05CFF4F20813181E054F040DF01AE5BC7
:103FD000BF4F8D919C9111972817390719F42FEF36
:103FE0003FEF07C08D919C91E80FF91F8081282F2A
:103FF00030E0C9010895DC011C96ED91FC911D97FC
:10400000E05CFF4F20813181E054F040DF01AE5B86
:10401000BF4F8D919C9111972817390719F42FEFF5
:104020003FEF10C08D919C911197E80FF91F2081EF
:104030008D919C91119701968F73907011969C931E
:104040008E9330E0C9010895DC0191968C9191978F
:10405000882339F05496ED91FC915597808186FF25
:10406000F9CF91961C920895CF93DF93EC01EE85E2
:10407000FF85E05CFF4F20813181E054F0402F5FED
:104080003F4F2F733070DF01AE5BBF4F8D919C911E
:10409000119728173907D1F3E05CFF4F8081918198
:1040A000E054F040E80FF91F6083EE85FF85E05C87
:1040B000FF4F31832083EE89FF89208181E090E0EA
:1040C0000F8C02C0880F991F0A94E2F7282B2083D7
:1040D00081E089A3EC89FD8980818064808381E00F
:1040E00090E0DF91CF91089510922505109224055C
:1040F00088EE93E0A0E0B0E080932605909327053A
:10410000A0932805B093290585E393E090932305B8
:10411000809322058AE994E090932F0580932E05E1
:104120008EED94E0909331058093300585EC90E01E
:10413000909333058093320584EC90E0909335059D
:104140008093340580EC90E090933705809336059A
:1041500081EC90E0909339058093380582EC90E0F3
:1041600090933B0580933A0586EC90E090933D0553
:1041700080933C0584E080933E0583E080933F0577
:1041800087E08093400585E08093410581E080933E
:1041900042050895CF93DF930E94981D0E94D60890
:1041A000C5EFDEE10E9473082097E1F30E94F51E3F
:1041B000F9CF0E9468240895CF92DF92EF92FF9288
:1041C0000F931F93CF93DF937C016B018A01C0E0B3
:1041D000D0E00FC0D6016D916D01D701ED91FC913A
:1041E0000190F081E02DC7010995C80FD91F01503A
:1041F00010400115110571F7CE01DF91CF911F918C
:104200000F91FF90EF90DF90CF900895DC01ED913A
:10421000FC910190F081E02D09950895EF92FF92B5
:104220000F931F938C01DC01ED91FC910190F081C3
:10423000E02D6DE009957C01D801ED91FC91019094
:10424000F081E02DC8016AE009959C012E0D3F1D0B
:10425000C9011F910F91FF90EF900895EF92FF9287
:104260000F931F937C01DC01ED91FC910190F08193
:10427000E02D09958C01C7010E940E21080F191F1E
:10428000C8011F910F91FF90EF900895CF93DF9396
:10429000EC016115710519F420E030E00FC0DB017D
:1042A0000D900020E9F71197A61BB70BE881F98163
:1042B0000280F381E02DAD0109959C01C901DF91D8
:1042C000CF9108954F925F927F928F929F92AF927B
:1042D000BF92CF92DF92EF92FF920F931F93DF93E3
:1042E000CF93CDB7DEB7A1970FB6F894DEBF0FBE60
:1042F000CDBF2C01742ECB01223008F42AE019A284
:1043000031E2C32ED12CCC0EDD1E822E9924AA249C
:10431000BB24672D752FA50194010E94BC2679014D
:104320008A01C801B701A50194010E947E26472D8C
:10433000461B0894C108D1084A3014F4405D01C0FE
:10434000495CF6014083E114F1040105110521F0F7
:104350007E2C5F2DC801DDCFC201B6010E9446212F
:10436000A1960FB6F894DEBF0FBECDBFCF91DF91FF
:104370001F910F91FF90EF90DF90CF90BF90AF9083
:104380009F908F907F905F904F900895DC01211552
:10439000310541F4ED91FC910190F081E02D642F05
:1043A000099508950E9462210895EF92FF920F935C
:1043B0001F939A01E62EFF2400E010E0B801A70148
:1043C0000E94C6211F910F91FF90EF900895CF9208
:1043D000DF92EF92FF920F931F936C01E62E9A01EA
:1043E000FF2400E010E0B801A7010E94C6218C0163
:1043F000C6010E940E21080F191FC8011F910F91BD
:10440000FF90EF90DF90CF900895CF92DF92EF92E0
:10441000FF920F931F93CF93DF93EC016A017B010F
:104420002115310541F4E881F9810190F081E02DF9
:10443000642F09951FC02A303105D1F477FF17C0CA
:10444000E881F9810190F081E02D6DE209958C0100
:1044500044275527BA014C195D096E097F09CE0121
:104460002AE00E9462219801280F391F04C02AE027
:104470000E9462219C01C901DF91CF911F910F9190
:10448000FF90EF90DF90CF900895EF92FF920F93FF
:104490001F937B019A010027F7FC0095102FB801AC
:1044A000A7010E9405221F910F91FF90EF900895A0
:1044B000CF92DF92EF92FF920F931F936C017B01DB
:1044C0009A010027F7FC0095102FB801A7010E9460
:1044D00005228C01C6010E940E21080F191FC80178
:1044E0001F910F91FF90EF90DF90CF9008950E9461
:1044F00046210895EF92FF920F931F937C010E9433
:1045000046218C01C7010E940E21080F191FC80106
:104510001F910F91FF90EF900895AF92BF92CF92AD
:10452000DF92EF92FF920F931F93CF93DF935C0183
:104530006B01EE24FF24C0E0D0E010C0D501ED9166
:10454000FC9100811181C601BE010E941D23682FCC
:10455000C501F8010995E80EF91E2196F60184813E
:104560009581C817D90750F3C701DF91CF911F91EB
:104570000F91FF90EF90DF90CF90BF90AF90089594
:10458000EF92FF920F931F937C010E948D228C016A
:10459000C7010E940E219C01200F311FC9011F91EC
:1045A0000F91FF90EF9008952F923F924F925F925C
:1045B0006F927F928F929F92AF92BF92CF92DF9233
:1045C000EF92FF920F931F93DF93CF93CDB7DEB798
:1045D0003B014C0119012A016D897E898F89988DD3
:1045E0006A197B098C099D09621A730A840A950A63
:1045F000A40193010E947E26E218F308040915091C
:10460000A80197010E94DE262A0D3B1D4C1D5D1D51
:10461000B901CA01CF91DF911F910F91FF90EF90E7
:10462000DF90CF90BF90AF909F908F907F906F90D2
:104630005F904F903F902F900895FC018481958169
:104640006817790748F40190F081E02D309721F048
:10465000E60FF71F8081089580E008950F931F9360
:10466000CF93DF93EC018B016F5F7F4F888199813E
:104670000E949D25009711F480E005C099838883EE
:104680001B830A8381E0DF91CF911F910F910895E1
:10469000CF93DF93EC0188819981892B29F08A815E
:1046A0009B818617970760F4CE010E942E238823F2
:1046B00041F08C819D81892B19F4E881F981108268
:1046C00081E0DF91CF910895EF92FF920F931F93B6
:1046D000CF93DF93EC017B016C817D81E114F104C8
:1046E000C1F04115510599F08A01060F171FB80155
:1046F0000E944823882369F0888199812C813D811B
:10470000820F931FB7010E94D2011D830C8381E0A9
:1047100001C080E0DF91CF911F910F91FF90EF904A
:104720000895FB0160817181448155810E94642359
:104730000895CF93DF93EC0188819981009711F060
:104740000E940525198218821D821C821B821A82F2
:10475000DF91CF910895EF92FF920F931F93CF9324
:10476000DF93EC017B018A01BA010E944823882370
:1047700021F4CE010E94992307C01D830C838881F8
:104780009981B7010E94D201CE01DF91CF911F9193
:104790000F91FF90EF900895CF93DF93EC01198272
:1047A00018821B821A821D821C821E82611571056D
:1047B00051F0DB010D900020E9F71197A61BB70B14
:1047C000AD010E94AB23DF91CF9108950F931F930A
:1047D000182F092F6115710559F0DB010D9000208C
:1047E000E9F71197A61BB70BAD010E94AB2302C0DE
:1047F0000E949923812F902F1F910F910895EF927E
:10480000FF920F931F93DF93CF93CDB7DEB76297DD
:104810000FB6F894DEBF0FBECDBF8C01CB01F801FF
:1048200011821082138212821582148216827E01F6
:104830000894E11CF11CB70150E00E94D901C801A5
:10484000B7010E94E62362960FB6F894DEBF0FBE52
:10485000CDBFCF91DF911F910F91FF90EF90089501
:10486000EF92FF920F931F93DF93CF93CDB7DEB7F5
:1048700029970FB6F894DEBF0FBECDBF8C01862FEF
:10488000F80111821082138212821582148216821C
:1048900090E07E010894E11CF11CB70150E00E94F9
:1048A000FA01C801B7010E94E62329960FB6F894D1
:1048B000DEBF0FBECDBFCF91DF911F910F91FF9053
:1048C000EF900895FC01808191810E940525089553
:1048D0000F931F93CF93DF93BC018230910510F4A7
:1048E00062E070E0E0914605F0914705A0E0B0E09D
:1048F00040E050E024C08081918186179707D0F076
:104900008617970771F482819381109729F0139687
:104910009C938E9312972CC09093470580934605E5
:1049200027C04115510519F08417950718F4EF01B8
:104930008D01AC01DF01828193819C01F9013097E7
:10494000D1F641155105F9F0CA01861B970B843049
:10495000910580F48A819B810115110521F0F801F0
:104960009383828304C09093470580934605FE019C
:10497000329645C0FE01E80FF91F619371930297CB
:10498000998388833CC08091440590914505892B8B
:1049900041F480911D0390911E03909345058093EF
:1049A000440540911F03509120034115510541F4E6
:1049B0004DB75EB780911B0390911C03481B590BA8
:1049C000209144053091450524173507B0F4CA01FC
:1049D000821B930B8617970780F0AB014E5F5F4FEA
:1049E0008417950750F0420F531F5093450540938D
:1049F0004405F9016193719302C0E0E0F0E0CF015A
:104A0000DF91CF911F910F910895CF93DF939C0178
:104A1000009709F48FC0EC0122971B821A826091E3
:104A20004605709147056115710581F4888199816A
:104A3000820F931F209144053091450528173907AF
:104A400039F5D0934505C093440574C0DB0140E0BF
:104A500050E0AC17BD0708F1BB83AA83FE0121918A
:104A60003191E20FF31FAE17BF0779F48D919C913E
:104A70001197280F391F2E5F3F4F398328831296D5
:104A80008D919C9113979B838A834115510571F4F5
:104A9000D0934705C09346054DC012968D919C91C9
:104AA0001397AD01009711F0DC01D3CFDA01139613
:104AB000DC93CE931297FA0121913191E20FF31F0B
:104AC000CE17DF0769F488819981280F391F2E5F7F
:104AD0003F4FFA01318320838A819B8193838283B4
:104AE000E0E0F0E0DB0112968D919C911397009726
:104AF00019F0BC01FD01F6CFAB014E5F5F4FDB014A
:104B00008D919C91840F951F20914405309145050E
:104B10002817390779F4309729F410924705109235
:104B2000460502C013821282425050405093450500
:104B300040934405DF91CF9108956F927F928F92B9
:104B40009F92AF92BF92CF92DF92EF92FF920F931C
:104B50001F93CF93DF938C01009729F4CB010E9420
:104B600068248C01BBC08EEFE82E8FEFF82EE00E8C
:104B7000F11E4801860E971E8E149F0408F4ACC0E7
:104B8000D7014D915C91119746175707B8F0453002
:104B9000510508F4A3C0CA0104978617970708F4C3
:104BA0009DC042505040461B570BF4014193519316
:104BB0006D937C93CF010E94052590C05B01A41AE0
:104BC000B50A3801640E751EA0914605B0914705DF
:104BD000CC24DD24E0E0F0E047C0A615B705A9F538
:104BE000CD91DC911197CE0102968A159B0568F153
:104BF000CE018A199B09029612962C911297139650
:104C00003C91059758F0F40122833383CA19DB09DC
:104C1000D183C083D7016D937C9309C04E5F5F4FF2
:104C20004C0F5D1FF70151834083C901FC01C11482
:104C3000D10431F0D6011396FC93EE9312974EC037
:104C4000F0934705E093460549C08D919C911197DB
:104C5000E817F90708F4FC016D0112968C91129780
:104C600013969C919C01D901109709F0B6CF8091C1
:104C700044059091450586159705E9F4E617F70771
:104C8000D0F420911F03309120032115310541F408
:104C90002DB73EB780911B0390911C03281B390B45
:104CA00082169306C8F49092450580924405F70158
:104CB0007183608313C0CB010E946824EC010097CC
:104CC00059F0D7014D915C91B8010E94C901C8010A
:104CD0000E9405258E0102C000E010E0C801DF91AE
:104CE000CF911F910F91FF90EF90DF90CF90BF90E9
:104CF000AF909F908F907F906F900895629FD001AA
:104D0000739FF001829FE00DF11D649FE00DF11D86
:104D1000929FF00D839FF00D749FF00D659FF00D35
:104D20009927729FB00DE11DF91F639FB00DE11D22
:104D3000F91FBD01CF0111240895991B79E004C02A
:104D4000991F961708F0961B881F7A95C9F78095CA
:104D5000089597FB092E07260AD077FD04D049D085
:104D600006D000201AF4709561957F4F0895F6F7EC
:104D7000909581959F4F0895A1E21A2EAA1BBB1B07
:104D8000FD010DC0AA1FBB1FEE1FFF1FA217B30717
:104D9000E407F50720F0A21BB30BE40BF50B661F2D
:104DA000771F881F991F1A9469F7609570958095F1
:104DB00090959B01AC01BD01CF01089597FB092E91
:104DC00005260ED057FD04D0D7DF0AD0001C38F4DA
:104DD00050954095309521953F4F4F4F5F4F089527
:104DE000F6F790958095709561957F4F8F4F9F4F07
:104DF0000895AA1BBB1B51E107C0AA1FBB1FA61722
:104E0000B70710F0A61BB70B881F991F5A95A9F773
:104E100080959095BC01CD010895EE0FFF1F059080
:104E2000F491E02D09942F923F924F925F926F92EE
:104E30007F928F929F92AF92BF92CF92DF92EF922A
:104E4000FF920F931F93CF93DF93CDB7DEB7CA1BAB
:104E5000DB0B0FB6F894DEBF0FBECDBF09942A88D6
:104E6000398848885F846E847D848C849B84AA847E
:104E7000B984C884DF80EE80FD800C811B81AA810B
:104E8000B981CE0FD11D0FB6F894DEBF0FBECDBFD6
:104E9000ED01089513E0C8E2D3E004C0FE010E94D2
:0E4EA0000F272296CC32D107C9F7F894FFCF26
:104EAE00494E534944452100494E5349444520310A
:104EBE002100494E5349444520322100524649446F
:104ECE00205245414400496E74726F647563656487
:104EDE0020636F6465004C697374656E696E672E2E
:104EEE002E2E0049442072656365697665643A2505
:104EFE006C750A0D0077697468647261772061635E
:104F0E00636570746564007465737420703A25640B
:104F1E000A0D004C697374656E696E672E2E2E0A2B
:104F2E000D0049442072656365697665643A256CA7
:104F3E006C750A0072657475726E206163636570BC
:104F4E007465640073756363657373207769746841
:104F5E006472617721006661696C7572652077698C
:104F6E00746864726177210073756363657373206F
:104F7E0072657475726E21006661696C757265205A
:104F8E0072657475726E210074657374210A0D005A
:104F9E00746573742564210A0D00524543454956C4
:104FAE004544205041434B4554205345513A0052FD
:104FBE0045434549564544204441544120534551AB
:104FCE003A00444154412053454E44204C4F473AF9
:104FDE000061766C61626C653A202564200A0D00D2
:104FEE00696369200A0D00526563753A20256420B5
:104FFE000A0D00424F4F4C2041434B3A005458206B
:10500E004255464645523A0052582042554646456C
:10501E00523A005061636B65742072656365697600
:10502E00656420636F756E7465723A005061636BD0
:10503E006574206D69737365642072656365697646
:10504E006564207175657269657320636F756E7422
:10505E0065723A002D2D2D2D2D2D2D2D2D2D2D2D15
:10506E002D2D2D2D2D2D2D2D2D2D2D2D2D2D0A0DA5
:10507E000049442073656E6465643A25640A0049EC
:10508E00442073656E6465643A25640A0D004153CD
:10509E004B494E4720666F722072657472616E7353
:1050AE006D697373696F6E3A002A0000000000008C
:1050BE00002223242526270109006580004E0500C5
:1050CE000000000000E513DC20CB13AA13A81497F0
:1050DE0014000000003420DC20CA1FFB1FDB1F243D
:0250EE002000A0
:00000001FF
