:100000000C94B2000C9473070C94A0070C94050395
:100010000C942F030C9459030C94DA000C94DA001E
:100020000C94DA000C94DA000C94DA000C94DA00E8
:100030000C94DA000C94DA000C94DA000C94DA00D8
:100040000C94CD070C94DA000C943D090C948B09A8
:100050000C94DA000C94DA000C94DA000C94DA00B8
:100060000C94DA000C94DA0000C2010001001100C7
:1000700011000C0000E100000A002500250021000D
:10008000009600001900390039003600127A00008D
:100090001F004600460044008070000022004D0012
:1000A0004D004A00004B00003600750075007200DC
:1000B000403800004A009C009C0099008025000008
:1000C0007200EC00EC00E900C0120000E900DA0167
:1000D000DA01D70160090000D701B603B603B30304
:1000E000B0040000B3036E076E076B0758020000F0
:1000F0006E07DC0EDC0ED80E2C010000DC0EC11DDC
:10010000C11DBE1D00000000240027002A000000C1
:100110000000250028002B0000000000230026001E
:10012000290004040404040404040202020202027A
:1001300003030303030301020408102040800102AB
:10014000040810200102040810200000000700022B
:1001500001000003040600000000000000006C0124
:10016000F70A650111241FBECFEFD8E0DEBFCDBF77
:1001700011E0A0E0B1E0ECEEF9E102C005900D92D3
:10018000A636B107D9F712E0A6E6B1E001C01D928C
:10019000AA3BB107E1F711E0C2E6D1E004C0229723
:1001A000FE010E94E50CCE35D107C9F70E944D0B28
:1001B0000C94E90C0C940000DF92EF92FF920F93E5
:1001C0001F93CF93DF93EC017B01E881F9810480D9
:1001D000F581E02D0995181619060CF050C0E8813C
:1001E000F9810680F781E02DCE010995823009F072
:1001F00046C0DD2400E010E0E881F9810480F5814B
:10020000E02DCE01099518161906B4F7E881F98199
:100210000680F781E02DCE010995282F8D3079F1E8
:100220008A3069F1833059F1823049F180538A3044
:1002300010F4282F05C0822F8154863008F42753EC
:10024000812F90E010FD02C0D22E0DC095958795AC
:100250003D2D3295307F322BF701E80FF91F3083A7
:10026000059709F003271F5F1C3030F21C3039F46A
:1002700090E0F7018581801719F491E001C090E0CA
:10028000892FDF91CF911F910F91FF90EF90DF9019
:1002900008958130910579F46F5F7F4FA9F486E668
:1002A00091E00E941C0681EA91E068E049E020E0CC
:1002B0000E94EE050895892B39F46F5F7F4F21F47A
:1002C00081EA91E00E947504089580E090E06FEF6C
:1002D0007FEF0E944901089581E090E06FEF7FEF8A
:1002E0000E94490108959C018091840190E0821749
:1002F000930741F0209384016AEF70E080E090E082
:100300000E941508089586E691E060E070E00E9482
:100310003706909184018091A0019817C1F48091D3
:100320006601809397018091970190E090938001FE
:1003300080937F018091430190E0909382018093AC
:10034000810186E691E061E00E94DE0608959091C9
:10035000840180914401981741F480916601809353
:100360009E018091670180939F010895CF93DF9351
:1003700086E691E066E00E94DE068AE280936601EE
:10038000C0E0D0E02196FE01E956FE4F6081FE01FB
:10039000EA59FE4F608388E992E04AE050E00E940B
:1003A000350C88E992E060E071E00E94650CC6308F
:1003B000D10541F786E691E060E070E00E940C070D
:1003C000DF91CF91089586E691E061E00E94F30607
:1003D00081EA91E068E971E00E94DC00882361F025
:1003E00088E992E062E071E00E94680C81E090E0B0
:1003F0009093BE018093BD0180919701882361F4A1
:100400008091A00190E00E94730188E992E06CE085
:1004100071E00E94680C089588E992E069E171E05A
:100420000E94650C6091970188E992E04AE050E0F3
:100430000E94470C86E691E061E00E94DE06809112
:1004400043018093660186E691E060E070E00E94DF
:100450000C078091440190E00E94730168EE73E004
:1004600080E090E00E9415080E94B60186E691E0C7
:1004700062E00E94F30680919E018D32E1F788E9E7
:1004800092E06AE271E00E94680C60919F0188E945
:1004900092E04AE050E00E94470C109297011092BF
:1004A0008201109281011092800110927F011092BE
:1004B000BE011092BD011092980110929901109204
:1004C0009A0110929B0110929C0110929D0188E963
:1004D00092E06EE371E00E94680C60ED77E080E0EE
:1004E00090E00E941508089588E992E040E855E2FE
:1004F00060E070E00E94C6098DE061E00E94A908FA
:1005000080E063E871E043E050E00E945007109201
:100510008301E1E8F1E011821082CF014B9761E0A5
:100520000E94F30681EA91E040E855E260E070E065
:100530000E94830308950F931F93CF93DF93FC01D1
:10054000738D76957170A685B7859585772329F08B
:100550008C91892309F454C004C08C91892309F03B
:100560004FC08389948920E001972FEF8F3F920736
:10057000D9F7C589D689A685B785158560E031E0AC
:1005800040E050E000E0CE01202F01972FEF8F3F99
:100590009207D9F78C91812311F0632B03C0832F2D
:1005A00080956823330F4F5F5F4F4830510559F7EF
:1005B0008789908D20E001972FEF8F3F9207D9F721
:1005C00071116095809101022091020290E00196E4
:1005D0008F73907030E08217930779F0E0910102F9
:1005E000F0E0EF53FE4F60838091010290E00196AE
:1005F0008F7390708093010203C0838D8160838F1D
:10060000DF91CF911F910F9108951F920F920FB616
:100610000F9211242F933F934F935F936F937F9388
:100620008F939F93AF93BF93EF93FF938091BF01FD
:100630009091C001009711F00E949B02FF91EF91F1
:10064000BF91AF919F918F917F916F915F914F91EA
:100650003F912F910F900FBE0F901F9018951F92F2
:100660000F920FB60F9211242F933F934F935F93E6
:100670006F937F938F939F93AF93BF93EF93FF936A
:100680008091BF019091C001009711F00E949B02E0
:10069000FF91EF91BF91AF919F918F917F916F915A
:1006A0005F914F913F912F910F900FBE0F901F9030
:1006B00018951F920F920FB60F9211242F933F930C
:1006C0004F935F936F937F938F939F93AF93BF935A
:1006D000EF93FF938091BF019091C001009711F0BB
:1006E0000E949B02FF91EF91BF91AF919F918F91DB
:1006F0007F916F915F914F913F912F910F900FBE1E
:100700000F901F901895CF92DF92EF92FF920F9368
:100710001F93CF93DF93EC017A018B011A8E198E10
:10072000188E1F8A1E8A1D8A1C8A1B8A20E030E0D0
:100730006901CC0CDD1CC20ED31EB601660F771FFB
:10074000660F771FAB0148595F4FFA01859195916C
:10075000A591B4918E159F05A007B107E9F4FB019F
:10076000E459FF4F859194919C8B8B8BFB01E2594F
:10077000FF4F859194919E8B8D8BFB01E059FF4F2C
:1007800085919491988F8F8BFB01EE58FF4F859147
:1007900094919A8F898F06C02F5F3F4F2D3031057E
:1007A00009F0C6CF8F89988D892B09F449C04C85F3
:1007B000463108F03DC090916800483010F484E064
:1007C00005C04E3010F082E001C081E0892B80939B
:1007D0006800483028F4EDE6F0E0ADE6B0E00BC08C
:1007E0004E3028F0ECE6F0E0ACE6B0E004C0EBE61A
:1007F000F0E0ABE6B0E05081483040F481E090E0BA
:1008000002C0880F991F4A95E2F710C0242F30E0EC
:100810004E3018F42850304002C02E50304081E055
:1008200090E002C0880F991F2A95E2F7852B8C93E0
:10083000898D9A8D20E001972FEF8F3F9207D9F78E
:100840008091BF019091C0018C179D0781F08B8D25
:100850008E7F8B8F9FB7F8941092010280910102D6
:1008600080930202D093C001C093BF019FBFDF916C
:10087000CF911F910F91FF90EF90DF90CF9008954F
:10088000FC014485463180F5483028F4EDE6F0E07F
:10089000ADE6B0E00BC04E3028F4EBE6F0E0ABE69E
:1008A000B0E004C0ECE6F0E0ACE6B0E050814830E7
:1008B00040F481E090E002C0880F991F4A95E2F76A
:1008C00010C0242F30E04E3018F42850304002C0C1
:1008D0002E50304081E090E002C0880F991F2A9589
:1008E000E2F7809585238C930895FC0189E491E0DB
:1008F00091838083CF010E94400408952091BF011D
:100900003091C0012817390731F49091020280918B
:100910000102981719F42FEF3FEF0FC0E091020288
:10092000F0E0EF53FE4F20818091020290E00196AB
:100930008F7390708093020230E0C9010895209176
:10094000BF013091C0012817390719F020E030E0CD
:100950000EC0809101022091020290E0805C9F4FC6
:10096000821B910960E470E00E949A0C9C01C9010D
:1009700008950F931F93DC0159968D919C915A977E
:10098000892B49F481E090E013969C938E93129703
:1009900020E030E097C00FB7F8945B968C915B979E
:1009A0005196ED91FC91529750962C91509781FF62
:1009B0008DC08081822B808359968D919C915A970E
:1009C000059620E001972FEF8F3F9207D9F75B96AE
:1009D0008C915B9781FF35C031E040E050E070E0E2
:1009E00010E0832F90E0862397235196ED91FC91A0
:1009F000529750962C915097892B29F08081209501
:100A00002823208303C08081822B808359968D9177
:100A10009C915A97212F01972FEF8F3F9207D9F77B
:100A2000330F4F5F5F4F48305105D9F65196ED9126
:100A3000FC915297908150968C9150978095892384
:100A400033C031E040E050E070E010E0832F90E0F0
:100A5000862397235196ED91FC91529750962C91B5
:100A60005097892B21F08081822B808304C0808164
:100A700020952823208359968D919C915A97212F58
:100A800001972FEF8F3F9207D9F7330F4F5F5F4FDB
:100A900048305105D9F65196ED91FC9152978081DD
:100AA00050969C915097892B80830FBF59968D91BA
:100AB0009C915A9720E001972FEF8F3F9207D9F72B
:100AC00021E030E0C9011F910F91089580812095A8
:100AD0002823208371CF2091BF013091C0012817B6
:100AE000390749F49FB7F8941092010280910102EE
:100AF000809302029FBF08952091BF013091C001F1
:100B00002817390731F49091020280910102981759
:100B100019F42FEF3FEF0AC0E0910202F0E0EF532B
:100B2000FE4F8081282F332727FD3095C901089576
:100B30001F93CF93DF93EC01162F862F60E00E9466
:100B4000A9088B8D81FD04C0812F61E00E94E80817
:100B50001C87212F30E0C9018A5C9E4FFC018491E3
:100B60008D872E5D3E4FF9016491E62FF0E0EE0F88
:100B7000FF1FE85EFE4F859194919F878E87DF91DE
:100B8000CF911F910895FF920F931F938C01F62E22
:100B9000862F61E00E94A9088F2D61E00E94E8087D
:100BA0008F2D90E0FC01EA5CFE4FE491D801509655
:100BB000EC9350978E5D9E4FFC016491E62FF0E020
:100BC000EE0FFF1FE25FFE4F8591949152969C932A
:100BD0008E9351971F910F91FF900895FF920F935D
:100BE0001F938C01F62EFC011382128288EE93E093
:100BF000A0E0B0E084839583A683B78389E491E085
:100C000091838083148A138A168A158A108E178A14
:100C1000128E118E838D2170220F8C7F822B838FF9
:100C2000C801642F0E94C305C8016F2D0E9498055A
:100C30001F910F91FF900895FC015298539A549A76
:100C4000559A569A128E118E148E138E11A281E02F
:100C5000858F8FE6868F83E0878F10A28AEE81A72B
:100C60008FED82A784ED83A75B985C9808951F930E
:100C7000CF93DF93DC016115710509F4BC015B982A
:100C800080E49FE10197F1F7FB0160E070E0C1E0D3
:100C9000D0E015E020C0108247E050E04E9B0AC033
:100CA0009E01042E02C0220F331F0A94E2F78081B6
:100CB000822B8083812F8A95F1F75D9A812F8A9507
:100CC000F1F75D98415050408FEF4F3F580731F793
:100CD0006F5F7F4F319691968C91919790E0681756
:100CE0007907CCF25B9A85E08A95F1F7DF91CF9195
:100CF0001F91089527E030E070E045E0CB01022E1F
:100D000002C0959587950A94E2F780FD02C05E982F
:100D100001C05E9A842F8A95F1F75D9A842F8A9597
:100D2000F1F75D98215030408FEF2F3F380731F7B2
:100D300008950F931F93CF93DF938C015B985C9A78
:100D40008AE18A95F1F7662331F0F80160A9C801BC
:100D50000E947A060DC0C0E0D0E0F801EC0FFD1F44
:100D600062A1C8010E947A062196CF30D105A9F769
:100D70005C98DF91CF911F910F910895FC0181A1A3
:100D8000880F880F880F83A3838D948D94A7838DFC
:100D9000948D85A783EA86A7978D858D9C6482951F
:100DA000880F807E892B87A790A1868D880F892B3D
:100DB00080ABCF0160E00E9499060895FC01569A2D
:100DC00010A2662321F061A30E94BE0607C080A97D
:100DD0008E7F80ABCF0161E00E94990688EE93E0A0
:100DE0000197F1F70895FC01569A81E080A36623EC
:100DF00029F061A3CF010E94BE0607C080A98160CF
:100E000080ABCF0161E00E94990656985B9A88EE0C
:100E100093E00197F1F70895EF92FF920F931F93DC
:100E2000CF93DF93EC017B016115710509F47C011F
:100E30005B9A8AE18A95F1F769A5CE010E947A064C
:100E40006AA5CE010E947A066BA5CE010E947A06A1
:100E5000298D3A8DCE01632F0E947A06698D7A8D95
:100E6000CE010E947A0600E010E009C0F701E00F11
:100E7000F11FCE0160810E947A060F5F1F4F89A18A
:100E800090E00817190794F35B9888EE93E00197B8
:100E9000F1F7DF91CF911F910F91FF90EF9008959F
:100EA000823000F5E82FF0E0EE0FFF1FED5FFD4F01
:100EB00071836083882319F08130A1F408C0809188
:100EC00069008C7F842B80936900E89A0895809153
:100ED0006900440F551F440F551F837F842B809357
:100EE0006900E99A08951F920F920FB60F9211248C
:100EF0002F933F934F935F936F937F938F939F9322
:100F0000AF93BF93EF93FF938091030290910402FC
:100F1000892B29F0E0910302F09104020995FF91D9
:100F2000EF91BF91AF919F918F917F916F915F9161
:100F30004F913F912F910F900FBE0F901F901895DA
:100F40001F920F920FB60F9211242F933F934F933E
:100F50005F936F937F938F939F93AF93BF93EF9321
:100F6000FF938091050290910602892B29F0E09170
:100F70000502F09106020995FF91EF91BF91AF91A3
:100F80009F918F917F916F915F914F913F912F91A1
:100F90000F900FBE0F901F9018951F920F920FB6D3
:100FA0000F9211242F933F938F939F93AF93BF93EF
:100FB00080910B0290910C02A0910D02B0910E0253
:100FC00030910F020196A11DB11D232F2D5F2D37EA
:100FD00020F02D570196A11DB11D20930F02809383
:100FE0000B0290930C02A0930D02B0930E0280911D
:100FF000070290910802A0910902B0910A0201969D
:10100000A11DB11D8093070290930802A0930902CD
:10101000B0930A02BF91AF919F918F913F912F9111
:101020000F900FBE0F901F9018959B01AC017FB7DA
:10103000F8948091070290910802A0910902B09162
:101040000A0266B5A89B05C06F3F19F00196A11D65
:10105000B11D7FBFBA2FA92F982F8827860F911D0A
:10106000A11DB11D62E0880F991FAA1FBB1F6A95C1
:10107000D1F7BC012DC0FFB7F89480910702909181
:101080000802A0910902B0910A02E6B5A89B05C02A
:10109000EF3F19F00196A11DB11DFFBFBA2FA92F77
:1010A000982F88278E0F911DA11DB11DE2E0880F9A
:1010B000991FAA1FBB1FEA95D1F7861B970B885E65
:1010C0009340C8F2215030404040504068517C4F1E
:1010D000211531054105510571F60895789484B5BF
:1010E000826084BD84B5816084BD85B5826085BD24
:1010F00085B5816085BDEEE6F0E08081816080830A
:10110000E1E8F0E0108280818260808380818160EC
:101110008083E0E8F0E0808181608083E1EBF0E0B3
:10112000808184608083E0EBF0E080818160808357
:10113000EAE7F0E080818460808380818260808340
:101140008081816080838081806880831092C1006B
:101150000895CF93DF93482F50E0CA018A5C9E4FD9
:10116000FC0134914E5D5E4FFA018491882369F150
:1011700090E0880F991FFC01EC5FFE4FA591B491A0
:10118000FC01E25FFE4FC591D491662351F42FB765
:10119000F8948C91932F909589238C93888189233F
:1011A0000BC0623061F42FB7F8948C91932F909517
:1011B00089238C938881832B88832FBF06C09FB798
:1011C000F8948C91832B8C939FBFDF91CF910895DE
:1011D000482F50E0CA01865B9E4FFC012491CA0152
:1011E0008A5C9E4FFC0194914E5D5E4FFA013491F2
:1011F000332309F440C0222351F1233071F024300D
:1012000028F42130A1F0223011F514C02630B1F0BD
:101210002730C1F02430D9F404C0809180008F774A
:1012200003C0809180008F7D8093800010C084B5C2
:101230008F7702C084B58F7D84BD09C08091B000D6
:101240008F7703C08091B0008F7D8093B000E32F33
:10125000F0E0EE0FFF1FE25FFE4FA591B4912FB7B4
:10126000F894662321F48C919095892302C08C9187
:10127000892B8C932FBF089508951F920F920FB65C
:101280000F9211242F933F934F938F939F93EF933C
:10129000FF938091C00082FD1DC04091C600209147
:1012A0005002309151022F5F3F4F2F733070809169
:1012B0005202909153022817390771F0E0915002C1
:1012C000F0915102E05FFD4F408330935102209333
:1012D000500202C08091C600FF91EF919F918F91C3
:1012E0004F913F912F910F900FBE0F901F90189527
:1012F000E091A402F091A502E05CFF4F81919191F1
:1013000020813181821B930B8F739070892B11F098
:101310000E943C0908951F920F920FB60F9211245C
:101320002F933F938F939F93EF93FF93209194027A
:101330003091950280919602909197022817390773
:1013400031F48091C1008F7D8093C10014C0E09181
:101350009602F0919702EC5AFD4F208180919602FF
:101360009091970201968F7390709093970280935B
:1013700096022093C600FF91EF919F918F913F912C
:101380002F910F900FBE0F901F901895AF92BF92A4
:10139000DF92EF92FF920F931F93CF93DF93EC01B5
:1013A0007A018B01DD24403081EE580780E0680728
:1013B00080E0780711F0DD24D39491E0A92EB12CC0
:1013C000EC89FD89DD2069F0C50108A002C0880F05
:1013D000991F0A94E2F7808360E079E08DE390E062
:1013E00005C0108260E874E88EE190E0A8019701E2
:1013F0000E94AD0C215030404040504056954795DA
:101400003795279580E12030380720F0DD2011F056
:10141000DD24D6CFE889F9893083EA89FB892083E6
:1014200019A2EE89FF89408121E030E0C9010C8CCE
:1014300002C0880F991F0A94E2F7482B4083EE8977
:10144000FF894081C9010D8C02C0880F991F0A9441
:10145000E2F7482B4083EE89FF894081C9010E8C59
:1014600002C0880F991F0A94E2F7482B4083EE8947
:10147000FF8980810F8C02C0220F331F0A94E2F78C
:10148000209528232083DF91CF911F910F91FF900A
:10149000EF90DF90BF90AF900895DC011C96ED9126
:1014A000FC911D97E05CFF4F2191319180819181EA
:1014B000281B390B2F733070C9010895DC011C966D
:1014C000ED91FC911D97E05CFF4F20813181E0544C
:1014D000F040DF01AE5BBF4F8D919C9111972817B3
:1014E000390719F42FEF3FEF07C08D919C91E80F5A
:1014F000F91F8081282F30E0C9010895DC011C9676
:10150000ED91FC911D97E05CFF4F20813181E0540B
:10151000F040DF01AE5BBF4F8D919C911197281772
:10152000390719F42FEF3FEF10C08D919C9111975F
:10153000E80FF91F20818D919C91119701968F736F
:10154000907011969C938E9330E0C9010895DC0150
:1015500091968C919197882339F05496ED91FC9156
:101560005597808186FFF9CF91961C920895CF936D
:10157000DF93EC01EE85FF85E05CFF4F2081318138
:10158000E054F0402F5F3F4F2F733070DF01AE5BB0
:10159000BF4F8D919C91119728173907D1F3E05CCB
:1015A000FF4F80819181E054F040E80FF91F608384
:1015B000EE85FF85E05CFF4F31832083EE89FF8954
:1015C000208181E090E00F8C02C0880F991F0A945F
:1015D000E2F7282B208381E089A3EC89FD898081B3
:1015E0008064808381E090E0DF91CF910895109234
:1015F0009B0210929A0288EE93E0A0E0B0E0809304
:101600009C0290939D02A0939E02B0939F0289E555
:1016100091E0909399028093980280E192E09093F8
:10162000A5028093A40284E592E09093A7028093A0
:10163000A60285EC90E09093A9028093A80284EC26
:1016400090E09093AB028093AA0280EC90E090939C
:10165000AD028093AC0281EC90E09093AF02809356
:10166000AE0282EC90E09093B1028093B00286ECDF
:1016700090E09093B3028093B20284E08093B4022E
:1016800083E08093B50287E08093B60285E0809383
:10169000B70281E08093B8020895CF93DF930E9450
:1016A0006E080E947402C8E7D9E00E94E301209707
:1016B000E1F30E947809F9CFCF92DF92EF92FF9287
:1016C0000F931F93CF93DF937C016B018A01C0E0DE
:1016D000D0E00FC0D6016D916D01D701ED91FC9165
:1016E0000190F081E02DC7010995C80FD91F015065
:1016F00010400115110571F7CE01DF91CF911F91B7
:101700000F91FF90EF90DF90CF900895EF92FF92AE
:101710000F931F938C01DC01ED91FC910190F081FE
:10172000E02D6DE009957C01D801ED91FC910190CF
:10173000F081E02DC8016AE009959C012E0D3F1D46
:10174000C9011F910F91FF90EF900895CF93DF9300
:10175000EC016115710519F420E030E00FC0DB01E8
:101760000D900020E9F71197A61BB70BE881F981CE
:101770000280F381E02DAD0109959C01C901DF9143
:10178000CF9108954F925F927F928F929F92AF92E6
:10179000BF92CF92DF92EF92FF920F931F93DF934E
:1017A000CF93CDB7DEB7A1970FB6F894DEBF0FBECB
:1017B000CDBF2C01742ECB01223008F42AE019A2EF
:1017C00031E2C32ED12CCC0EDD1E822E9924AA2408
:1017D000BB24672D752FA50194010E94AD0C7901E2
:1017E0008A01C801B701A50194010E947B0C472D15
:1017F000461B0894C108D1084A3014F4405D01C06A
:10180000495CF6014083E114F1040105110521F062
:101810007E2C5F2DC801DDCFC201B6010E94A60B50
:10182000A1960FB6F894DEBF0FBECDBFCF91DF916A
:101830001F910F91FF90EF90DF90CF90BF90AF90EE
:101840009F908F907F905F904F900895DC012115BD
:10185000310541F4ED91FC910190F081E02D642F70
:10186000099508950E94C20B0895EF92FF920F937D
:101870001F939A01E62EFF2400E010E0B801A701B3
:101880000E94260C1F910F91FF90EF900895CF9228
:10189000DF92EF92FF920F931F936C01E62E9A0155
:1018A000FF2400E010E0B801A7010E94260C8C0183
:1018B000C6010E94860B080F191FC8011F910F91C6
:1018C000FF90EF90DF90CF9008950E94A60B0895AF
:1018D000EF92FF920F931F937C010E94A60B8C0145
:1018E000C7010E94860B080F191FC8011F910F9195
:1018F000FF90EF900895629FD001739FF001829F47
:10190000E00DF11D649FE00DF11D929FF00D839F8E
:10191000F00D749FF00D659FF00D9927729FB00D2B
:10192000E11DF91F639FB00DE11DF91FBD01CF013E
:101930001124089597FB092E07260AD077FD04D0BD
:101940002ED006D000201AF4709561957F4F08952F
:10195000F6F7909581959F4F0895A1E21A2EAA1B44
:10196000BB1BFD010DC0AA1FBB1FEE1FFF1FA2174F
:10197000B307E407F50720F0A21BB30BE40BF50B4C
:10198000661F771F881F991F1A9469F760957095D5
:10199000809590959B01AC01BD01CF010895AA1BD4
:1019A000BB1B51E107C0AA1FBB1FA617B70710F04A
:1019B000A61BB70B881F991F5A95A9F7809590957C
:1019C000BC01CD010895EE0FFF1F0590F491E02DAD
:1019D000099411E0C2E6D1E004C0FE010E94E50CCA
:0C19E0002296C436D107C9F7F894FFCF57
:1019EC002000524649442052454144004C4953542E
:1019FC00454E494E472E2E2E00424F524E45204604
:101A0C004F554E44212049443A007573657220634A
:101A1C006F64652072656365697665643A00454E4E
:101A2C00440000C86400000000B9045C0B9F047EF5
:101A3C00047C056B0500000000B70A5C0B4D0A7EA8
:061A4C000A5E0AA70A0071
:00000001FF
