:100000000C9445010C946D010C946D010C946D01E0
:100010000C946D010C946D010C946D010C946D01A8
:100020000C946D010C946D010C946D010C946D0198
:100030000C946D010C946D010C946D010C946D0188
:100040000C940A0E0C946D010C94840F0C94D60F32
:100050000C946D010C946D010C946D010C946D0168
:100060000C946D010C946D010001020304050A0B50
:100070000C0D0E0F111213141516CF01D501DB0153
:10008000E301EC01F601FF0106020E0215021C025B
:100090002402504120506F77657209203D2025537E
:1000A0000D0A00435243204C656E67746809203D79
:1000B0002025530D0A004D6F64656C0909203D2011
:1000C00025530D0A00446174612052617465092052
:1000D0003D2025530D0A0044594E50442F464541BA
:1000E0005455524500434F4E4649470052465F53D0
:1000F000455455500052465F434800454E5F5258A4
:100100004144445200454E5F41410052585F5057B0
:100110005F50302D360054585F41444452005258CD
:100120005F414444525F50322D350052585F414484
:1001300044525F50302D31000D0A002530327800D6
:10014000203078002553092563203D000D0A00204A
:10015000307825303278002553092563203D004F43
:100160004253455256455F54583D253032783A2027
:10017000504F4C535F434E543D2578204152435FCE
:10018000434E543D25780D0A0053544154555309AC
:1001900009203D203078253032782052585F445273
:1001A0003D25782054585F44533D2578204D4158D3
:1001B0005F52543D25782052585F505F4E4F3D2589
:1001C000782054585F46554C4C3D25780D0A003137
:1001D0004D42505300324D425053003235304B4265
:1001E0005053006E524632344C3031006E5246321B
:1001F000344C30312B0044697361626C65640038A3
:100200002062697473003136206269747300504152
:100210005F4D494E0050415F4C4F570050415F4881
:100220004947480050415F4D4158000000000024FC
:100230000027002A0000000000250028002B0000F5
:100240000000002300260029000404040404040420
:100250000402020202020203030303030301020475
:100260000810204080010204081020010204081038
:100270002000000007000201000003040600000047
:100280000000000000000105451111241FBECFEF42
:10029000D8E0DEBFCDBF12E0A0E0B1E0EEE2F7E2D1
:1002A00002C005900D92AC36B107D9F713E0ACE669
:1002B000B2E001C01D92AF35B107E1F712E0CAE824
:1002C000D2E004C02297FE010E945A13C638D1071B
:1002D000C9F70E949C110C9495130C940000FC012A
:1002E00005900020E9F7809590958E0F9F1F089547
:1002F000FB01DC0102C001900D9241505040D8F743
:100300000895FB01DC018D91019080190110D9F352
:10031000990B08950F931F93CF93DF938C01EB01FB
:10032000009731F46115710519F420E030E038C010
:1003300081E090E06EE070E00E94EE03FC019C0121
:10034000009771F180E88383209771F0D387C2878B
:1003500081E883838091590390915A03892B21F47A
:10036000F0935A03E093590301151105C9F0118761
:10037000008783818260838380915B0390915C031B
:10038000892B71F4F0935C03E0935B0380915D0330
:1003900090915E03892B21F4F0935E03E0935D035B
:1003A000C901DF91CF911F910F910895A0E0B0E0B6
:1003B000ECEDF1E00C946E13FE01359661917191B4
:1003C00080915B0390915C03AF010E941102209623
:1003D000E2E00C948A13A0E0B0E0E1EFF1E00C94CD
:1003E0006E13FE01359661917191A0915B03B091FE
:1003F0005C0313968C911397886013968C9380916D
:100400005B0390915C03AF010E941102E0915B03DA
:10041000F0915C032381277F23832096E2E00C94F4
:100420008A13ABE0B0E0E7E1F2E00C945E133C012C
:100430002B015A01FC0117821682838181FD03C0C2
:100440006FEF7FEFC6C19AE0892E1E010894211C30
:10045000311CF3012381F20123FD859123FF81915A
:100460002F01882309F4B2C1853239F423FD859127
:1004700023FF81912F01853229F490E0B3010E947E
:100480002704E7CF982FFF24EE249924FFE1FF15DE
:10049000D0F09B3269F09C3228F4903259F09332BC
:1004A00091F40EC09D3249F0903369F441E024C0CC
:1004B00052E0F52A84E0F82A28C098E0F92A25C0FD
:1004C000E0E1FE2A22C0F7FC29C0892F80538A3040
:1004D00070F4F6FE05C0989C902C1124980E15C05F
:1004E000E89CE02C1124E80EF0E2FF2A0EC09E32B8
:1004F00029F4F6FC6BC140E4F42A07C09C3619F4D9
:1005000050E8F52A02C0983649F4F20123FD95918E
:1005100023FF91912F01992309F0B8CF892F85549A
:10052000833018F08052833038F444E050E0A40E59
:10053000B51E5FE359830FC0933631F0933779F0DE
:10054000933509F056C020C0F5018081898342E0CF
:1005500050E0A40EB51E610101E010E012C0F501EB
:10056000C080D180F6FC03C06FEF7FEF02C0692D21
:1005700070E042E050E0A40EB51EC6010E941C04CB
:100580008C015FE7F52214C0F501C080D180F6FC34
:1005900003C06FEF7FEF02C0692D70E042E050E0D2
:1005A000A40EB51EC6010E940A048C0150E8F52A6B
:1005B000F3FE07C01AC080E290E0B3010E94270456
:1005C000EA948E2D90E008171907A8F30EC0F601E3
:1005D000F7FC8591F7FE81916F0190E0B3010E94D5
:1005E0002704E110EA94015010400115110579F734
:1005F000EAC0943611F0993669F5F7FE08C0F501A6
:10060000208131814281538184E090E00AC0F5016C
:10061000808191819C01442737FD4095542F82E0D1
:1006200090E0A80EB91E9FE6F92257FF09C0509529
:100630004095309521953F4F4F4F5F4FE0E8FE2AA0
:10064000CA01B901A1012AE030E00E945304D82E6A
:10065000D21840C0953729F41F2D1F7E2AE030E0C4
:100660001DC01F2D197F9F3661F0903720F49835FB
:1006700009F0ACC00FC0903739F0983709F0A6C028
:1006800004C028E030E00AC0106114FD146020E1CD
:1006900030E004C014FD166020E132E017FF08C00E
:1006A000F501608171818281938144E050E008C04E
:1006B000F50180819181BC0180E090E042E050E052
:1006C000A40EB51EA1010E945304D82ED2188FE7A4
:1006D000F82EF122F6FE0BC05EEFF522D91438F4A5
:1006E000F4FE07C0F2FC05C08FEEF82202C01D2DFB
:1006F00001C0192DF4FE0DC0FE01ED0DF11D80812C
:10070000803319F499EEF92208C01F5FF2FE05C08C
:1007100003C08F2D867809F01F5F0F2DF3FC14C0E6
:10072000F0FE0FC01E1510F09D2C0BC09D2C9E0CD2
:10073000911A1E2D06C080E290E0B3010E942704AA
:100740001F5F1E15C0F304C01E1510F4E11A01C08E
:10075000EE2404FF0FC080E390E0B3010E94270461
:1007600002FF1DC001FD03C088E790E00EC088E5D0
:1007700090E00BC0802F867891F001FF02C08BE2E1
:1007800001C080E2F7FC8DE290E0B3010E942704F3
:1007900006C080E390E0B3010E9427049A94D91424
:1007A000C0F3DA94F101ED0DF11D808190E0B30109
:1007B0000E942704DD20A9F706C080E290E0B30183
:1007C0000E942704EA94EE20C1F743CEF30166812C
:1007D0007781CB012B96E2E10C947A130F931F9350
:1007E000CF93DF93689F8001699F100D789F100D54
:1007F0001124C8010E94DA11EC01009729F060E091
:1008000070E0A8010E941504CE01DF91CF911F91E5
:100810000F910895FC010590615070400110D8F7C8
:10082000809590958E0F9F1F0895DC0101C06D93F8
:1008300041505040E0F70895FC0161507040019034
:100840000110D8F7809590958E0F9F1F08950F93F4
:100850001F93CF93DF938C01EB018B8181FF1BC032
:1008600082FF0DC02E813F818C819D812817390721
:1008700064F4E881F9810193F983E88306C0E8858F
:10088000F985802F0995892B31F48E819F810196FE
:100890009F838E8302C00FEF1FEFC801DF91CF91BE
:1008A0001F910F910895FA01AA27283051F12031A4
:1008B00081F1E8946F936E7F6E5F7F4F8F4F9F4FF4
:1008C000AF4FB1E03ED0B4E03CD0670F781F891F36
:1008D0009A1FA11D680F791F8A1F911DA11D6A0F04
:1008E000711D811D911DA11D20D009F468943F91B7
:1008F0002AE0269F11243019305D3193DEF6CF01B6
:100900000895462F4770405D4193B3E00FD0C9F77B
:10091000F6CF462F4F70405D4A3318F0495D31FDE8
:100920004052419302D0A9F7EACFB4E0A69597953B
:10093000879577956795BA95C9F700976105710511
:1009400008959B01AC010A2E06945795479537955B
:100950002795BA95C9F7620F731F841F951FA01DB5
:10096000089580916D0290916E020E940805809317
:100970006C02882359F000D080E091E0EDB7FEB71B
:10098000928381830E94D6010F900F9068EC70E0F3
:1009900080E090E00E94520E089582EF94E060E0C3
:1009A00070E00E948A0108950F931F9383E393E000
:1009B00040E051EE60E070E00E9411100E94CD0412
:1009C00081E090E00E94AD11182F092F68E070E0DF
:1009D00040E00E94340610936D0200936E021F9156
:1009E0000F9108950F931F93082F112707FD10955E
:1009F00083E393E0602F0E940511C8011F910F91BE
:100A000008958FE692E069E04AE00E946307089546
:100A1000EF92FF920F931F93DF93CF9300D000D0FC
:100A20000F92CDB7DEB780919F02882309F062C094
:100A30008FE692E00E94FF0A00918F0210919002CF
:100A40002091910230919202409193025091940230
:100A500060919502709196028FE692E00E9455098E
:100A60008FE692E060EA72E042E00E941E0988236D
:100A700021F400D089E991E0D7C08FE692E00E948E
:100A8000370B62E370E080E090E00E94520E8FE648
:100A900092E00E94DF0A882319F500D08AEA91E0EB
:100AA000C3C08FE692E0B80143E00E94F008C8019D
:100AB00063E572E00E9481010097A9F400D000D0A4
:100AC0008DEB91E0EDB7FEB79283818314830383AE
:100AD0000E94D60181E00F900F900F900F90B8C048
:100AE0008E010D5F1F4F8FE692E00E94DF0A882380
:100AF000C1F6AEC08FE692E00E94370B62E370E071
:100B000080E090E00E94520E8FE692E00E94DF0AA1
:100B10008823D9F400D08EEF91E086C08FE692E072
:100B2000B70142E00E94F00800D000D0EDB7FEB758
:100B30001283018389819A81948383830E94D601E1
:100B40000F900F900F900F9006C07E010894E11C4B
:100B5000F11C0DEB11E08FE692E00E94DF0A882382
:100B6000E9F68FE692E00E94FF0A89819A819C0152
:100B7000330F220B322F482F892F922F522F622FA3
:100B8000722FE22FF22F042F0B5F11E0041708F0F1
:100B900010E0482F435321E0481708F020E0140FDD
:100BA00081E0141708F080E0282B892F855531E06B
:100BB000891708F030E0280F91E0281708F090E03E
:100BC000392B852F855441E0851708F040E0380F18
:100BD00091E0381708F090E0492B862F855491E07A
:100BE000861708F090E0480F51E0481708F050E0F1
:100BF000592B570F61E0571708F060E06E0F71E056
:100C00006E1708F070E07F0F8FE692E00E945509A2
:100C10008FE692E063E572E043E00E941E098823BC
:100C200059F400D08AE192E0EDB7FEB79283818358
:100C30000E94D60180E00AC000D081E392E0EDB7C7
:100C4000FEB7928381830E94D60181E00F900F90BE
:100C50000F900F900F900F900F90CF91DF911F91F9
:100C60000F91FF90EF900895EF92FF920F931F93D3
:100C700081E080937F023DEC309380022BEA209349
:100C800081029BEB909382029093830210928402E4
:100C90001092850210928602E7E8F2E082E08093EB
:100CA000870231832283938394831582168217826D
:100CB00083E080938F02309390022093910290936F
:100CC00092029093930210929402109295021092C5
:100CD0009602E7E9F2E084E0809397023183228371
:100CE000938394831582168217827093A102609376
:100CF000A00240939F028FE692E00E94D10B8FE604
:100D000092E061E00E94E6088FE692E068E00E94CF
:100D10006D078FE692E06FE04FE00E94DC08809163
:100D20009F02882309F080C000917F021091800209
:100D3000209181023091820240918302509184027D
:100D400060918502709186028FE692E00E945509BB
:100D5000E0908702F09088020091890210918A0247
:100D600020918B0230918C0240918D0250918E0225
:100D70008FE692E061E00E94440A8091A002909187
:100D8000A1029C01330F220B322F482F892F922F63
:100D9000322F622F722FE22FA22FF42FFB5F51E030
:100DA000F41708F050E0482F435301E0481708F0CB
:100DB00000E0F52EF40E81E0F41608F080E0082B38
:100DC000892F855511E0891708F010E0080F91E090
:100DD000081708F090E0192B832F855421E0831722
:100DE00008F020E0180F91E0181708F090E0292B88
:100DF000862F855491E0861708F090E0280F31E0A7
:100E0000281708F030E0392B370F41E0371708F08A
:100E100040E04E0F51E04E1708F050E05A0F8FE6B9
:100E200092E062E0EF2E3CC00091870210918802B0
:100E30002091890230918A0240918B0250918C025C
:100E400060918D0270918E028FE692E00E945509AA
:100E5000E0907F02F0908002009181021091820266
:100E60002091830230918402409185025091860244
:100E70008FE692E061E00E94440AE0908F02F090D9
:100E80009002009191021091920220919302309170
:100E9000940240919502509196028FE692E062E0B2
:100EA0000E94440A80919F02882321F08FE692E0FD
:100EB0000E94370B8FE692E00E941F0D1F910F9149
:100EC000FF90EF900895FC0160834183128280E2DD
:100ED0008383148285E082870895FC01613208F0E3
:100EE00060E26383089570E08DB79EB70E970FB6EA
:100EF000F8949EBF0FBE8DBFEDB7FEB7319689E85F
:100F000091E0ADB7BEB712969C938E931197738301
:100F10006283CB0156E0969587955A95E1F78170EB
:100F2000907095838483CB0145E0969587954A958B
:100F3000E1F78170907097838683CB0134E09695BA
:100F400087953A95E1F78170907091878087CB0102
:100F50009595879587709070938782876170707080
:100F6000758764870E94EB018DB79EB70E960FB60A
:100F7000F8949EBF0FBE8DBF0895FC0190818181C2
:100F8000981719F0892F0E942F0F0895FF920F9341
:100F90001F938C01F62E81E00E94D40D80E00E9408
:100FA000DD0D84E00E94E20DF80181816F2D0E9429
:100FB0002F0F85E090E00E94AB0E1F910F91FF90E4
:100FC0000895CF93DF93EC0160E00E94C60780E5AF
:100FD0008EBD0DB407FEFDCF8EB583E78EBD0DB47B
:100FE00007FEFDCF8EB5CE0161E00E94C607DF91FE
:100FF000CF9108951F93CF93DF93EC01162F60E0FC
:101000000E94C6071EBD0DB407FEFDCF1EB5CE0162
:1010100061E00E94C607812FDF91CF911F91089553
:101020006FEF0E94FA07089561EE0E94FA07089593
:1010300062EE0E94FA070895EF92FF920F931F93BA
:10104000CF93DF93EC01F62EE72E9B81142F94179C
:1010500008F4192F8C81882311F000E002C0092FB9
:10106000011BCE0160E00E94C60781E68EBD0DB473
:1010700007FEFDCF8F2D9E2D9C01F901FEB49FEF41
:1010800007C09EBD0DB407FEFDCF8EB581931150F4
:101090001123B9F707C08EBD0DB407FEFDCF9EB575
:1010A000015001C08FEF0023B1F7CE0161E00E9433
:1010B000C6078F2DDF91CF911F910F91FF90EF9079
:1010C0000895DF92EF92FF920F931F93CF93DF93D8
:1010D000EC01E62ED72EF22E9B81142F941708F4E4
:1010E000192F8C81882311F000E002C0092F011B09
:1010F000CE0160E00E94C607FEBC0DB407FEFDCF26
:101100008E2D9D2D9C01F901FEB408C080818EBDFD
:101110000DB407FEFDCF31968EB511501123B1F7F6
:1011200006C01EBC0DB407FEFDCF8EB501500023D6
:10113000C1F7CE0161E00E94C6078F2DDF91CF91EC
:101140001F910F91FF90EF90DF9008950F93CF9331
:10115000DF93EC01222311F420EA01C020EBCE0141
:101160000E946108002321F0CE0161E00E94BD07CA
:10117000DF91CF910F9108950F931F93CF93DF933A
:10118000EC01162F042F60E00E94C6071F71106249
:101190001EBD0DB407FEFDCF1EB50EBD0DB407FE7E
:1011A000FDCF8EB5CE0161E00E94C607812FDF9191
:1011B000CF911F910F910895262F4F702295207F78
:1011C000242B64E0422F0E94BC080895662319F086
:1011D00061E04FE302C061E040E00E94BC08089576
:1011E0000F931F938C010E941C08C80167E040E721
:1011F0000E94BC081F910F9108950F93CF93DF9326
:10120000EC0101E00E94A608CE010E941008807344
:10121000D9F3CE0160E00E94BD07CE0167E040E750
:101220000E94BC0884FD02C081E004C0CE010E947F
:10123000140880E0DF91CF910F91089520E00E9483
:10124000FD080895462F603808F04FE765E00E94DA
:10125000BC080895EF92FF920F931F93CF93DF93F3
:101260007C01162FEA01022F60E00E94C6071F7161
:1012700010621EBD0DB407FEFDCF1EB508C08881EB
:101280008EBD0DB407FEFDCF21968EB50150002313
:10129000B1F7C70161E00E94C607812FDF91CF91AE
:1012A0001F910F91FF90EF900895EF92FF920F938F
:1012B0001F93DF93CF93CDB7DEB728970FB6F8947F
:1012C000DEBF0FBECDBF7C0109831A832B833C8315
:1012D0004D835E836F8378878E010F5F1F4F6AE0B7
:1012E000A801F70122850E942A09C70160E1A8012F
:1012F000F70122850E942A09C70161E1F7014381B4
:101300000E94BC0828960FB6F894DEBF0FBECDBF72
:10131000CF91DF911F910F91FF90EF9008951F9350
:10132000CF93DF93EC01162F60E00E94C6071F7178
:101330001EBD0DB407FEFDCF8EB58FEF8EBD0DB473
:1013400007FEFDCF1EB5CE0161E00E94C607812FCA
:10135000DF91CF911F910895EF92FF921F937C012F
:1013600060E00E948F09182FC70161E00E948F0979
:101370001C7013FD05C0882319F420E030E007C07D
:1013800012FD03C021E030E002C022E030E0C901DC
:101390001F91FF90EF90089566E00E948F09887278
:1013A000803219F422E030E006C020E030E08830DE
:1013B00011F421E030E0C9010895FF920F931F93CB
:1013C000CF93DF93EC018B0166E00E948F09F7ED6C
:1013D000FF2EF82285E590E0A0E0B0E08B879C87A7
:1013E000AD87BE870230110539F480E2F82A8BE917
:1013F00090E0A0E0B0E009C00130110551F488E0B0
:10140000F82A81E490E0A0E0B0E08B879C87AD876C
:10141000BE87CE0166E04F2D0E94BC08CE0166E07B
:101420000E948F0990E08F1509F491E0892FDF91D8
:10143000CF911F910F91FF90089566E00E948F0950
:1014400090E086709070959587950895FF920F9320
:101450001F938C01F62E62E00E948F09E8E6F0E00F
:10146000EF0DF11DE49141E050E002C0440F551F23
:10147000EA95E2F740954823C80162E00E94BC0863
:101480001F910F91FF900895BF92CF92DF92EF923C
:10149000FF920F931F93DF93CF93CDB7DEB72897BB
:1014A0000FB6F894DEBF0FBECDBF6C01B62EE98239
:1014B000FA820B831C832D833E834F8358876623D8
:1014C00069F49C012B5F3F4FFC014285C901BE01BD
:1014D0006F5F7F4F50E00E94780107C0F6E0F6177B
:1014E00008F43EC081E0681769F4EB2DF0E0E259A2
:1014F000FF4FE491C6016E2FAE014F5F5F4FF601C3
:1015000022850BC0E62FF0E0E259FF4FE491C601BF
:101510006E2FAE014F5F5F4F21E00E942A090B2D15
:1015200010E0F801EC58FF4FE491C6016E2FF60170
:1015300043810E94BC08C60162E00E948F090859DD
:101540001F4FF801649121E030E002C0220F331FE9
:101550006A95E2F7482F422BC60162E00E94BC0860
:1015600028960FB6F894DEBF0FBECDBFCF91DF91A6
:101570001F910F91FF90EF90DF90CF90BF90089553
:101580000F931F93CF93DF93EC018B0167E10E94D0
:101590008F0980FF02C080E00DC00115110549F0E0
:1015A000CE010E94100890E0959587958770F8010C
:1015B000808381E0DF91CF911F910F91089560E0CA
:1015C00070E00E94C00A0895CF93DF93EC0160E0C1
:1015D0000E948F0981FD10C0CE0160E00E948F093A
:1015E000482F4260CE0160E00E94BC0865E070E0D8
:1015F00080E090E00E94520EDF91CF910895CF934A
:10160000DF93EC0160E00E94BD078B859C850E9402
:10161000AB0ECE016DE10E948F0981FF07C08B8563
:101620009C850E94AB0ECE010E941408CE0160E0A2
:101630000E948F09482F4E7FCE0160E00E94BC08B7
:10164000CE0162E00E948F09E8E6F0E0E49121E03B
:1016500030E002C0220F331FEA95E2F7482F422BF9
:10166000CE0162E00E94BC08DF91CF910895CF9334
:10167000DF93EC010E94E40ACE0160E00E948F0932
:10168000482F4160CE0160E00E94BC08CE0167E0B7
:1016900040E70E94BC08CE0161E00E94BD078D8139
:1016A000882349F0AE014B5F5F4FCE016AE02A8587
:1016B0000E942A0904C0CE0160E00E94260ACE01E1
:1016C0006DE10E948F0981FF03C0CE010E941408C2
:1016D000DF91CF910895CF92DF92FF920F931F93E6
:1016E000CF93DF936C01EB01042FF22ECB010E940C
:1016F0006F01089710F027E001C029E000D000D06A
:1017000000D0EDB7FEB7319687E591E0ADB7BEB733
:1017100012969C938E931197D383C283822F99271D
:1017200087FD9095958384830E94EB01EDB7FEB70A
:1017300036960FB6F894FEBF0FBEEDBFCFE4D1E0F2
:101740001BC0102F1F5FC601602F0E948F0900D0A1
:1017500000D0EDB7FEB73196ADB7BEB71296DC93A9
:10176000CE931197828313820E94EB01FA94012F8A
:101770000F900F900F900F90FF2019F700D08CE47E
:1017800091E0EDB7FEB7928381830E94EB010F9049
:101790000F90DF91CF911F910F91FF90DF90CF902D
:1017A0000895CF93DF93EC0198818981981721F0F8
:1017B000892F61E00E94F00E99818881891721F0BC
:1017C000892F61E00E94F00E0E94F30DCE0160E0CF
:1017D0000E94BD07CE0161E00E94C60765E070E08F
:1017E00080E090E00E94520ECE0160E04CE00E944A
:1017F000BC08CE0165E04FE00E94DC08CE0162E04B
:1018000070E00E94DD09882311F081E08A83CE0117
:1018100060E070E00E94DD09CE010E94E107CE0188
:101820006DE140E00E94BC08CE016CE140E00E9406
:10183000BC08CE0167E040E70E94BC08CE016CE422
:101840000E942209CE010E941808CE010E941408AD
:10185000CE010E94E40ACE0160E00E948F09482F69
:101860004E7FCE0160E00E94BC08DF91CF910895C9
:10187000EF92FF920F931F93CF93DF937C01162F6C
:10188000EA01022F60E00E94C6071F711EBD0DB461
:1018900007FEFDCF1EB59FEF07C09EBD0DB407FE2E
:1018A000FDCF8EB5899301500023B9F7C70161E0E0
:1018B0000E94C607812FDF91CF911F910F91FF905A
:1018C000EF9008952F923F924F925F926F927F9286
:1018D0008F929F92AF92BF92CF92DF92EF92FF9240
:1018E0000F931F93DF93CF93CDB7DEB75C018B01CE
:1018F000C42ED22E6DB67EB6CB010E946F01089722
:1019000010F027E001C029E000D000D000D0EDB7F2
:10191000FEB7319684E491E0ADB7BEB712969C93C2
:101920008E93119713830283822F992787FD9095B9
:10193000958384830E94EB01EDB7FEB736960FB610
:10194000F894FEBF0FBEEDBF40E4242E41E0342EDC
:101950003BE3432E31E0532E4CC09DB68EB6D501ED
:101960001A960C9110E0EDB7FEB7E01BF10B0FB625
:10197000F894FEBF0FBEEDBFEDB6FEB60894E11CB5
:10198000F11C202FC5016C2DA7010E94380C00D03E
:10199000ADB7BEB712963C922E9211970E94EB0102
:1019A0000E0D1F1D0F900F9015C000D000D0EDB789
:1019B000FEB73196ADB7BEB712965C924E921197B4
:1019C000D8018C91828313820E94EB010F900F90BB
:1019D0000F900F90015010400E151F0530F7C39463
:1019E000892D982D9C010FB6F8943EBF0FBE2DBFD8
:1019F000DA94DD2009F0B1CF00D088E391E0EDB7B3
:101A0000FEB7928381830E94EB010F900F900FB677
:101A1000F8947EBE0FBE6DBECF91DF911F910F91E6
:101A2000FF90EF90DF90CF90BF90AF909F908F90FE
:101A30007F906F905F904F903F902F9008950F93FD
:101A40001F938C010E941008682FC8010E94730721
:101A5000C8016BE271E04AE022E00E94620CC8011A
:101A60006EE171E04CE024E00E946B0BC80166E17E
:101A700071E040E121E00E94620CC8016BE071E07E
:101A800041E126E00E946B0BC80165E071E041E096
:101A900021E00E946B0BC8016BEF70E042E021E097
:101AA0000E946B0BC80165EF70E045E021E00E94E9
:101AB0006B0BC8016CEE70E046E021E00E946B0BFE
:101AC000C80165EE70E040E021E00E946B0BC801A8
:101AD00067ED70E04CE122E00E946B0BC8010E94B0
:101AE000CC09FC01EE0FFF1FE658FF4F2591349102
:101AF00000D000D085EC90E0EDB7FEB792838183F3
:101B0000348323830E94EB01F8018281E82FF0E007
:101B1000EE0FFF1FE058FF4F2591349186EB90E0C8
:101B2000EDB7FEB792838183348323830E94EB0158
:101B30000F900F900F900F90C8010E94AC09FC010C
:101B4000EE0FFF1FEC57FF4F2591349100D000D0CE
:101B500083EA90E0EDB7FEB79283818334832383D9
:101B60000E94EB010F900F900F900F90C8010E9400
:101B70001D0AE82FF0E0EE0FFF1FE657FF4F2591FB
:101B8000349100D000D082E990E0EDB7FEB79283A7
:101B90008183348323830E94EB010F900F900F9079
:101BA0000F901F910F910895882319F48CB58062CE
:101BB00002C08CB58F7D8CBD08959CB5937F982B0A
:101BC0009CBD08952CB5382F33702C7F322B3CBD33
:101BD0002DB590E0959587959595879581702E7F89
:101BE000822B8DBD08958AE061E00E942F0F8AE06C
:101BF00061E00E94F00E8CB580618CBD8CB5806474
:101C00008CBD8DE061E00E94F00E8BE061E00E94EF
:101C1000F00E08951F920F920FB60F9211242F937A
:101C20003F938F939F93AF93BF938091A602909120
:101C3000A702A091A802B091A9023091AA02019630
:101C4000A11DB11D232F2D5F2D3720F02D5701969B
:101C5000A11DB11D2093AA028093A6029093A70212
:101C6000A093A802B093A9028091A2029091A3022E
:101C7000A091A402B091A5020196A11DB11D80936F
:101C8000A2029093A302A093A402B093A502BF91D5
:101C9000AF919F918F913F912F910F900FBE0F9019
:101CA0001F9018959B01AC017FB7F8948091A20218
:101CB0009091A302A091A402B091A50266B5A89B41
:101CC00005C06F3F19F00196A11DB11D7FBFBA2F4E
:101CD000A92F982F8827860F911DA11DB11D62E0A5
:101CE000880F991FAA1FBB1F6A95D1F7BC012DC091
:101CF000FFB7F8948091A2029091A302A091A40250
:101D0000B091A502E6B5A89B05C0EF3F19F001967A
:101D1000A11DB11DFFBFBA2FA92F982F88278E0FA5
:101D2000911DA11DB11DE2E0880F991FAA1FBB1FC5
:101D3000EA95D1F7861B970B885E9340C8F2215035
:101D400030404040504068517C4F211531054105DD
:101D5000510571F60895019739F0880F991F880F82
:101D6000991F02970197F1F70895789484B58260DE
:101D700084BD84B5816084BD85B5826085BD85B52F
:101D8000816085BDEEE6F0E0808181608083E1E8DE
:101D9000F0E0108280818260808380818160808316
:101DA000E0E8F0E0808181608083E1EBF0E0808119
:101DB00084608083E0EBF0E0808181608083EAE7EB
:101DC000F0E0808184608083808182608083808174
:101DD000816080838081806880831092C100089533
:101DE000CF93DF93482F50E0CA01835A9D4FFC01E7
:101DF0003491475B5D4FFA018491882369F190E04B
:101E0000880F991FFC01E55DFD4FA591B491FC0180
:101E1000EB5CFD4FC591D491662351F42FB7F89434
:101E20008C91932F909589238C93888189230BC063
:101E3000623061F42FB7F8948C91932F9095892399
:101E40008C938881832B88832FBF06C09FB7F8941B
:101E50008C91832B8C939FBFDF91CF910895482F56
:101E600050E0CA018F589D4FFC012491CA01835A4A
:101E70009D4FFC019491475B5D4FFA0134913323F0
:101E800009F440C0222351F1233071F0243028F4AA
:101E90002130A1F0223011F514C02630B1F02730E6
:101EA000C1F02430D9F404C0809180008F7703C042
:101EB000809180008F7D8093800010C084B58F77E3
:101EC00002C084B58F7D84BD09C08091B0008F773A
:101ED00003C08091B0008F7D8093B000E32FF0E0CD
:101EE000EE0FFF1FEB5CFD4FA591B4912FB7F89457
:101EF000662321F48C919095892302C08C91892BC3
:101F00008C932FBF089508951F920F920FB60F92D2
:101F100011242F933F934F938F939F93EF93FF93AE
:101F20008091C00082FD1DC04091C6002091EB024F
:101F30003091EC022F5F3F4F2F7330708091ED0294
:101F40009091EE022817390771F0E091EB02F091C1
:101F5000EC02E555FD4F40833093EC022093EB02F9
:101F600002C08091C600FF91EF919F918F914F9198
:101F70003F912F910F900FBE0F901F901895E091F9
:101F80003F03F0914003E05CFF4F819191912081EC
:101F90003181805C9F4F821B930B60E470E00E9454
:101FA0000F13892B11F00E94830F08951F920F9237
:101FB0000FB60F9211242F933F938F939F93EF931C
:101FC000FF9320912F033091300380913103909142
:101FD00032032817390731F48091C1008F7D809337
:101FE000C10014C0E0913103F0913203E151FD4F83
:101FF0002081809131039091320301968F7390700C
:1020000090933203809331032093C600FF91EF91A8
:102010009F918F913F912F910F900FBE0F901F9026
:102020001895AF92BF92DF92EF92FF920F931F939A
:10203000CF93DF93EC017A018B01DD24403081EEF8
:10204000580780E0680780E0780711F0DD24D3941A
:1020500091E0A92EB12CEC89FD89DD2069F0C50144
:1020600008A002C0880F991F0A94E2F7808360E0FD
:1020700079E08DE390E005C0108260E874E88EE1BD
:1020800090E0A80197010E94221321503040404067
:102090005040569547953795279580E12030380771
:1020A00020F0DD2011F0DD24D6CFE889F9893083D6
:1020B000EA89FB89208319A2EE89FF89408121E00A
:1020C00030E0C9010C8C02C0880F991F0A94E2F716
:1020D000482B4083EE89FF894081C9010D8C02C0E5
:1020E000880F991F0A94E2F7482B4083EE89FF89F5
:1020F0004081C9010E8C02C0880F991F0A94E2F733
:10210000482B4083EE89FF8980810F8C02C0220F0B
:10211000331F0A94E2F7209528232083DF91CF9183
:102120001F910F91FF90EF90DF90BF90AF900895B7
:10213000DC011C96ED91FC911D97E05CFF4F8191B5
:10214000919120813181805C9F4F821B930B60E4D1
:1021500070E00E940F130895DC011C96ED91FC9134
:102160001D97E05CFF4F20813181E054F040DF019A
:10217000AE5BBF4F8D919C9111972817390719F4C9
:102180002FEF3FEF07C08D919C91E80FF91F8081E1
:10219000282F30E0C9010895DC011C96ED91FC91D7
:1021A0001D97E05CFF4F20813181E054F040DF015A
:1021B000AE5BBF4F8D919C9111972817390719F489
:1021C0002FEF3FEF10C08D919C911197E80FF91FF1
:1021D00020818D919C91119701968F73907011962B
:1021E0009C938E9330E0C9010895DC0191968C9107
:1021F0009197882339F05496ED91FC915597808101
:1022000086FFF9CF91961C920895CF93DF93EC014E
:10221000EE85FF85E05CFF4F20813181E054F04086
:102220002F5F3F4F2F733070DF01AE5BBF4F8D913B
:102230009C91119728173907D1F3E05CFF4F8081FB
:102240009181E054F040E80FF91F6083EE85FF852F
:10225000E05CFF4F31832083EE89FF89208181E09C
:1022600090E00F8C02C0880F991F0A94E2F7282B88
:10227000208381E089A3EC89FD898081806480834B
:1022800081E090E0DF91CF91089510923603109293
:10229000350388EE93E0A0E0B0E08093370390939D
:1022A0003803A0933903B0933A0380E692E0909309
:1022B0003403809333038BEA92E09093400380933E
:1022C0003F038FEE92E0909342038093410385ECAD
:1022D00090E0909344038093430384EC90E09093C8
:1022E00046038093450380EC90E0909348038093ED
:1022F000470381EC90E090934A038093490382EC7A
:1023000090E090934C0380934B0386EC90E0909385
:102310004E0380934D0384E080934F0383E08093CA
:10232000500387E08093510385E08093520381E05E
:102330008093530308950895CF93DF930E94B50EC1
:102340000E949B110E94D404CFEBDFE00E94B104F5
:102350002097E1F30E94BF0FF9CF0E94DA11089590
:10236000CF92DF92EF92FF920F931F93CF93DF9361
:102370007C016B018A01C0E0D0E00FC0D6016D91F5
:102380006D01D701ED91FC910190F081E02DC70125
:102390000995C80FD91F015010400115110571F79B
:1023A000CE01DF91CF911F910F91FF90EF90DF90C1
:1023B000CF9008950F931F93CF93DF93BC0182308A
:1023C000910510F462E070E0E0915703F09158033A
:1023D000A0E0B0E040E050E024C080819181861709
:1023E0009707D0F08617970771F482819381109731
:1023F00029F013969C938E9312972CC090935803B8
:102400008093570327C04115510519F0841795078C
:1024100018F4EF018D01AC01DF01828193819C01F1
:10242000F9013097D1F641155105F9F0CA01861B23
:10243000970B8430910580F48A819B8101151105E9
:1024400021F0F8019383828304C090935803809312
:102450005703FE01329645C0FE01E80FF91F619354
:1024600071930297998388833CC080915503909122
:102470005603892B41F48091580290915902909310
:1024800056038093550340915A0250915B024115C7
:10249000510541F44DB75EB78091560290915702B5
:1024A000481B590B209155033091560324173507CB
:1024B000B0F4CA01821B930B8617970780F0AB011B
:1024C0004E5F5F4F8417950750F0420F531F509394
:1024D000560340935503F9016193719302C0E0E004
:1024E000F0E0CF01DF91CF911F910F910895CF932D
:1024F000DF939C01009709F48FC0EC0122971B82A7
:102500001A8260915703709158036115710581F427
:1025100088819981820F931F209155033091560332
:102520002817390739F5D0935603C093550374C063
:10253000DB0140E050E0AC17BD0708F1BB83AA8384
:10254000FE0121913191E20FF31FAE17BF0779F41D
:102550008D919C911197280F391F2E5F3F4F398322
:10256000288312968D919C9113979B838A834115A2
:10257000510571F4D0935803C09357034DC0129680
:102580008D919C911397AD01009711F0DC01D3CF91
:10259000DA011396DC93CE931297FA0121913191CF
:1025A000E20FF31FCE17DF0769F488819981280FA6
:1025B000391F2E5F3F4FFA01318320838A819B812F
:1025C00093838283E0E0F0E0DB0112968D919C9191
:1025D0001397009719F0BC01FD01F6CFAB014E5FD8
:1025E0005F4FDB018D919C91840F951F20915503C6
:1025F000309156032817390779F4309729F410924F
:1026000058031092570302C0138212824250504066
:102610005093560340935503DF91CF91089597FB54
:10262000092E07260AD077FD04D02ED006D0002030
:102630001AF4709561957F4F0895F6F790958195FE
:102640009F4F0895A1E21A2EAA1BBB1BFD010DC0CE
:10265000AA1FBB1FEE1FFF1FA217B307E407F50752
:1026600020F0A21BB30BE40BF50B661F771F881F2E
:10267000991F1A9469F760957095809590959B01C4
:10268000AC01BD01CF010895AA1BBB1B51E107C0DE
:10269000AA1FBB1FA617B70710F0A61BB70B881FF2
:1026A000991F5A95A9F780959095BC01CD01089581
:1026B000EE0FFF1F0590F491E02D09942F923F92A9
:1026C0004F925F926F927F928F929F92AF92BF9242
:1026D000CF92DF92EF92FF920F931F93CF93DF93EE
:1026E000CDB7DEB7CA1BDB0B0FB6F894DEBF0FBE4B
:1026F000CDBF09942A88398848885F846E847D8498
:102700008C849B84AA84B984C884DF80EE80FD8099
:102710000C811B81AA81B981CE0FD11D0FB6F8940F
:0E272000DEBF0FBECDBFED010895F894FFCFD0
:10272E005465726D696E616C20696E2072616E67A0
:10273E0065210A0D005061636B65742072656365D7
:10274E006976656420636F756E7465723A005061C8
:10275E00636B6574206D6973736564207265636560
:10276E0069766564207175657269657320636F752E
:10277E006E7465723A00736F6D657468696E67008A
:10278E002D2D2D2D2D2D2D2D2D2D2D2D2D2D2D2D6B
:10279E002D2D2D2D2D2D2D2D2D2D0A0D004E6F771E
:1027AE002073656E64696E672025642061732070E6
:1027BE0061796C6F61642E20007772697465207484
:1027CE00696D656F75742E0A0D004E6F7468696EB3
:1027DE00672072656365697665640A0D00476F74DC
:1027EE0020726573706F6E73652025730A0D004E2F
:1027FE006F20646174612072656365697665640A31
:10280E000D00476F74206461746120256420667228
:10281E006F6D2070697065202575200A0D004E6F52
:10282E007468696E67207265636569766564207485
:10283E0065726D696E616C0A0D0062696B6520646C
:10284E0069646E27742072656365697665640A0D26
:10285E000062696B652072656365697665642063E5
:10286E006F6E6669726D6174696F6E20636F6465F9
:10287E000A0D004F4B0080005F03000000000000B7
:0C288E000511B0119810CC10AC10F51022
:00000001FF
