:100000000C94B4000C94CE0A0C94FB0A0C94940744
:100010000C94BE070C94E8070C94DC000C94DC00F4
:100020000C94DC000C94DC000C94DC000C94DC00E0
:100030000C94DC000C94DC000C94DC000C94DC00D0
:100040000C94280B0C94DC000C94A60C0C94F40C6F
:100050000C94DC000C94DC000C94DC000C94DC00B0
:100060000C94DC000C94DC0000C2010001001100C3
:1000700011000C0000E100000A002500250021000D
:10008000009600001900390039003600127A00008D
:100090001F004600460044008070000022004D0012
:1000A0004D004A00004B00003600750075007200DC
:1000B000403800004A009C009C0099008025000008
:1000C0007200EC00EC00E900C0120000E900DA0167
:1000D000DA01D70160090000D701B603B603B30304
:1000E000B0040000B3036E076E076B0758020000F0
:1000F0006E07DC0EDC0ED80E2C010000DC0EC11DDC
:10010000C11DBE1D00000000240027002A000000C1
:100110000000250028002B0000000000230026001E
:10012000290004040404040404040202020202027A
:1001300003030303030301020408102040800102AB
:10014000040810200102040810200000000700022B
:1001500001000003040600000000000000003F0151
:100160006802600E3801610211241FBECFEFD8E093
:10017000DEBFCDBF12E0A0E0B1E0E2EEF9E202C0E6
:1001800005900D92A235B107D9F713E0A2E5B2E0D0
:1001900001C01D92A93FB107E1F711E0C4E6D1E02B
:1001A00004C02297FE010E94E014CE35D107C9F7A2
:1001B0000E94B60E0C94E4140C940000FB01DC01C8
:1001C00002C001900D9241505040D8F70895FB01B4
:1001D000DC0101900D920020E1F70895FB019F01E1
:1001E000E8944230C4F04532B4F44A3029F497FB25
:1001F0001EF4909581959F4F642F77270E94CA1413
:10020000805D8A330CF0895D8193CB010097A1F763
:1002100016F45DE251931082C9010C940F01DC01C8
:10022000FC01672F71917723E1F7329704C07C912D
:100230006D9370836291AE17BF07C8F30895813044
:10024000910561F46F5F7F4F91F482E592E068E081
:1002500070E049E050E00E94D5050895892B39F4FB
:100260006F5F7F4F21F482E592E00E9404090895B8
:1002700080E090E06FEF7FEF0E941F01089581E022
:1002800090E06FEF7FEF0E941F010895EF92FF92C1
:100290000F931F93DF93CF93CDB7DEB72E970FB693
:1002A000F894DEBF0FBECDBF0CC06AE070E080E006
:1002B00090E00E947E0B83ED93E060E071E00E948D
:1002C000831082E592E064E272E00E947505882363
:1002D00061F383ED93E06AE071E00E94831081E0B6
:1002E00090E0909377028093760204E212E083ED2F
:1002F00093E0F80161918F0140E150E00E94DE0F30
:10030000F2E00A321F0799F783ED93E06AE00E945A
:10031000F20E06C083ED93E065E171E00E94831068
:1003200080916E0290916F020E947004882391F375
:100330007E010894E11CF11CC70162E271E00E9499
:10034000CE118E01085F1F4FC801B7010E944912EC
:1003500080916E0290916F020E944002BC01C80120
:100360000E949C11BC01C7010E943212C8010E9468
:100370005A1283ED93E0B7010E94C91084E1809383
:10038000700280916E0290916F0260E772E00E94AD
:10039000440380916E0290916F0264E272E00E94C9
:1003A000440383ED93E06FE271E00E94831068EEF6
:1003B00073E080E090E00E947E0B80916E0290914D
:1003C0006F0260E772E00E94D3048823D1F083EDCE
:1003D00093E068E371E00E94831000E712E083ED90
:1003E00093E0F80161918F014AE050E00E94DE0F36
:1003F000F2E006371F0799F783ED93E06AE00E9469
:10040000F20E80916E0290916F020E94F90360E4F7
:100410007DE083E090E00E947E0BCE0101960E9479
:1004200054122E960FB6F894DEBF0FBECDBFCF91FB
:10043000DF911F910F91FF90EF9008950F931F93FD
:1004400083ED93E040E855E260E070E00E942F0DFC
:100450008DE061E00E94120C81E090E00E94C50EE8
:10046000182F092F609122027091230240E00E9410
:10047000320510936E0200936F021F910F91089541
:100480002091E1023091E202C90108958130910585
:1004900071F46F5F7F4FA1F480EC92E00E94E7055A
:1004A00083EF92E067E471E00E94CE110895892BFA
:1004B00039F46F5F7F4F21F483EF92E00E94541272
:1004C000089580E090E06FEF7FEF0E94460208956C
:1004D00081E090E06FEF7FEF0E9446020895FF9267
:1004E0000F931F93F62E00EC12E0C80162E00E9409
:1004F000B1068FEF8093C002F092C102C80160E0A4
:1005000070E00E94DF06C80167E00E94C6061F91E6
:100510000F91FF900895EF92FF920F931F93DF9337
:10052000CF93CDB7DEB727970FB6F894DEBF0FBED7
:10053000CDBF80EC92E00E944506882309F483C079
:1005400080EC92E060E070E00E9402069091CC02A4
:100550008091E302981741F48091C00290E090935B
:10056000E2028093E1026FC09091CC0280912A0256
:10057000981709F068C08091C002E82EFF248FEF21
:10058000E816F104B1F18091EF029091F00201962A
:100590009093F0028093EF02D701AA0FBB1FAE0D1C
:1005A000BF1DAA0FBB1FA456BD4F20E030E02F5F38
:1005B0003F4FF901E054FD4F80818D932630310586
:1005C000B1F78E010F5F1F4FC801B7014AE00E94CB
:1005D000011283EF92E0B8010E948211E9EEF2E08D
:1005E000EE0EFF1E81E0F7018083C8010E945412C5
:1005F0002AC08091F1029091F20201969093F2024A
:100600008093F1021091C10280EC92E067E00E94B9
:10061000B1061093C00286E0189FD0011124A8589B
:10062000BD4F20E030E02F5F3F4F8D91F901E05446
:10063000FD4F808326303105B1F780EC92E060E019
:1006400070E00E94DF0680EC92E067E00E94C60640
:1006500027960FB6F894DEBF0FBECDBFCF91DF91C6
:100660001F910F91FF90EF9008958091CC0290E040
:100670008617970741F06093CC026AEF70E080E044
:1006800090E00E947E0B08950F931F93CF93DF930A
:10069000162F072F80EC92E067E00E94B106409190
:1006A000E5025091E6024093C002212F302FC9018C
:1006B000EC01DA01AA0FBB1FA40FB51FAA0FBB1FC5
:1006C000A858BD4F20E030E088818D932F5F3F4FC9
:1006D0008991F901E054FD4F808326303105A1F75F
:1006E0004F5F5F4F5093E6024093E50283ED93E046
:1006F00061E571E00E9480106091C00283ED93E09B
:100700004AE050E00E94F00F80EC92E060E070E080
:100710000E94DF0680EC92E067E00E94C606DF914F
:10072000CF911F910F910895CF93DF9383ED93E0C5
:1007300062E671E00E948010C0E0D0E0FE01E75167
:10074000FD4F608183ED93E070E04AE050E00E944D
:100750004E1083ED93E060E20E94F20E2196C630C7
:10076000D10561F783ED93E060E20E941A0FDF91FB
:10077000CF910895CF93DF9383ED93E06CE671E022
:100780000E948010C8E7D2E083ED93E069914AE0CF
:1007900050E00E94DE0F83ED93E060E20E94F20ED3
:1007A00082E0CC39D80781F783ED93E060E20E94C4
:1007B0001A0F83ED93E067E771E00E948010CCE9A7
:1007C000D2E083ED93E069914AE050E00E94DE0FB1
:1007D00083ED93E060E20E94F20E82E0C03CD80715
:1007E00081F783ED93E060E20E941A0FDF91CF91D1
:1007F0000895CF92DF92EF92FF920F931F936C01B7
:1008000003ED13E0C80162E871E00E948310C801A3
:100810006DE971E00E9480106091CC02C8014AE04D
:1008200050E00E94F00FC8016CEA71E00E94801055
:100830006091CE02C8014AE050E00E94F00FC8016A
:1008400068EB71E00E948010E9ECEE2EE2E0FE2EF3
:10085000F70160817181C8014AE050E00E94C10F38
:10086000C80167EC71E00E948010F7013297608147
:100870007181C8014AE050E00E94C10FC80167EDD4
:1008800071E00E9480106091EF027091F002C80147
:100890004AE050E00E946110C80160EF71E00E94E0
:1008A00080106091F1027091F202C8014AE050E0BC
:1008B0000E946110C6010E94BA030E949403C801FD
:1008C00063EF72E00E94C910C80167E072E00E9405
:1008D00083101F910F91FF90EF90DF90CF900895BC
:1008E000CF93DF93EC019091CC0280912A0298176C
:1008F000A1F18091E1029091E202892B81F1809136
:10090000E1029091E2029093C8028093C702809125
:10091000E4028823B9F480EC92E061E00E94B10621
:100920008091DF028093C00280EC92E060E070E092
:100930000E94DF068091DF029091E0029093CA024C
:100940008093C90260912A02CE0170E00E943503B3
:1009500080EC92E067E00E94C60681E021C06091D1
:10096000E302CE0170E00E9435038091E402882307
:1009700059F080EC92E061E00E94B10680EC92E0D8
:100980006091DF020E94230780EC92E061E00E9408
:10099000C60662E370E080E090E00E947E0B80E09B
:1009A000DF91CF910895CF92DF92EF92FF920F9354
:1009B0001F93CF93DF937C016B010E94700B8B011F
:1009C000EB01A091E702B091E802FD01E751FD4F74
:1009D00080818823A1F4C01BD10BCC5DD5407CF471
:1009E0000E94700BEB01C7016091E7020E946F0249
:1009F00062E370E080E090E00E947E0BE2CFA751BE
:100A0000BD4F8C91882329F120E030E0D601A20F60
:100A1000B31F8091E7029091E802FC01EE0FFF1FE7
:100A2000E80FF91FEE0FFF1FE20FF31FE456FD4F13
:100A300080818C932F5F3F4F2630310539F78091AD
:100A4000E7029091E80201969093E8028093E70212
:100A500081E0DF91CF911F910F91FF90EF90DF9098
:100A6000CF9008951F93142FE8E7F2E0119222E04F
:100A7000EC39F207D9F71092E9021092EA021092CB
:100A8000EB021092EC021092ED021092EE027093C3
:100A9000E0026093DF021092CB026091E30270E00B
:100AA0000E94350380EC92E061E00E94C60680E07F
:100AB0006BE872E043E050E00E94AB0A1093E4025E
:100AC000112349F08091DF029091E0029093CA02D5
:100AD0008093C90204C01092CA021092C9021092F7
:100AE000C8021092C7021F910895DF92EF92FF9201
:100AF0000F931F93CF93DF93F82E092FEB010E94E2
:100B00002E09181619060CF046C08F2D902F0E9442
:100B10000D09823009F03FC0DD24EE2410E08F2D56
:100B2000902F0E942E0918161906CCF78F2D902FA2
:100B30000E940D09282F8D3071F18A3061F18330C8
:100B400051F1823041F180538A3010F4282F05C0D2
:100B5000822F8154863008F42753812F90E010FDB6
:100B600002C0D22E0DC0959587953D2D3295307FD0
:100B7000322BFE01E80FF91F3083059709F0E326B9
:100B80001F5F1C3060F21C3031F490E08D818E15B7
:100B900019F491E001C090E0892FDF91CF911F916E
:100BA0000F91FF90EF90DF9008950F931F93182FF0
:100BB000092F20E00E947D0A812F902F40E855E206
:100BC00060E070E00E9412081F910F910895FC01EF
:100BD0005298539A549A559A569A108617821286AA
:100BE0001186178681E083878FE6848783E0858777
:100BF00016868AEE878B8FED808F84ED818F5B98D0
:100C00005C9808951F93CF93DF93DC016115710504
:100C100009F4BC015B9880E49FE10197F1F7FB01C7
:100C200060E070E0C1E0D0E015E020C0108247E055
:100C300050E04E9B0AC09E01042E02C0220F331FBB
:100C40000A94E2F78081822B8083812F8A95F1F7C5
:100C50005D9A812F8A95F1F75D98415050408FEF52
:100C60004F3F580731F76F5F7F4F31961F968C913A
:100C70001F9790E068177907CCF25B9A85E08A9518
:100C8000F1F7DF91CF911F91089589B190E096958A
:100C90008795969587958170089527E030E070E0FC
:100CA00045E0CB01022E02C0959587950A94E2F7A4
:100CB00080FD02C05E9801C05E9A842F8A95F1F78C
:100CC0005D9A842F8A95F1F75D98215030408FEF1F
:100CD0002F3F380731F708950F931F93CF93DF937A
:100CE0008C015B985C9A8AE18A95F1F7662331F072
:100CF000F801668DC8010E944D060DC0C0E0D0E02D
:100D0000F801EC0FFD1F6089C8010E944D06219675
:100D1000CF30D105A9F75C98DF91CF911F910F914A
:100D20000895FC018785880F880F880F818B818546
:100D30009285928F81859285838F83EA848F9585B2
:100D400083859C648295880F807E892B858F96850C
:100D50008485880F892B868FCF0160E00E946C0606
:100D60000895FC01569A1686662321F067870E9433
:100D7000910607C0868D8E7F868FCF0161E00E942D
:100D80006C0688EE93E00197F1F70895FC01569AFE
:100D900081E08687662329F06787CF010E9491064C
:100DA00007C0868D8160868FCF0161E00E946C064E
:100DB00056985B9A88EE93E00197F1F70895EF92C9
:100DC000FF920F931F93CF93DF93EC017B0161158B
:100DD000710509F47C015B9A8AE18A95F1F76F89C4
:100DE000CE010E944D06688DCE010E944D06698D90
:100DF000CE010E944D062F813885CE01632F0E94BF
:100E00004D066F817885CE010E944D0600E010E00E
:100E100009C0F701E00FF11FCE0160810E944D066D
:100E20000F5F1F4F8F8590E00817190794F35B98A9
:100E300088EE93E00197F1F7DF91CF911F910F9129
:100E4000FF90EF900895FC01608360E070E00E94E5
:100E5000DF0608950F931F93CF93DF93FC01738DEB
:100E600076957170A685B7859585772329F08C9145
:100E7000892309F454C004C08C91892309F04FC020
:100E80008389948920E001972FEF8F3F9207D9F74C
:100E9000C589D689A685B785158560E031E040E033
:100EA00050E000E0CE01202F01972FEF8F3F9207F7
:100EB000D9F78C91812311F0632B03C0832F809588
:100EC0006823330F4F5F5F4F4830510559F78789CB
:100ED000908D20E001972FEF8F3F9207D9F7711186
:100EE000609580913C0320913D0390E001968F73C3
:100EF000907030E08217930779F0E0913C03F0E0C6
:100F0000E450FD4F608380913C0390E001968F7325
:100F1000907080933C0303C0838D8160838FDF9149
:100F2000CF911F910F9108951F920F920FB60F92BC
:100F300011242F933F934F935F936F937F938F93DE
:100F40009F93AF93BF93EF93FF938091FA02909199
:100F5000FB02009711F00E942A07FF91EF91BF91C9
:100F6000AF919F918F917F916F915F914F913F9141
:100F70002F910F900FBE0F901F9018951F920F92F8
:100F80000FB60F9211242F933F934F935F936F935C
:100F90007F938F939F93AF93BF93EF93FF93809132
:100FA000FA029091FB02009711F00E942A07FF912C
:100FB000EF91BF91AF919F918F917F916F915F91D1
:100FC0004F913F912F910F900FBE0F901F9018954A
:100FD0001F920F920FB60F9211242F933F934F93AE
:100FE0005F936F937F938F939F93AF93BF93EF9391
:100FF000FF938091FA029091FB02009711F00E94FA
:101000002A07FF91EF91BF91AF919F918F917F91AF
:101010006F915F914F913F912F910F900FBE0F9065
:101020001F901895CF92DF92EF92FF920F931F932C
:10103000CF93DF93EC017A018B011A8E198E188EF3
:101040001F8A1E8A1D8A1C8A1B8A20E030E06901E3
:10105000CC0CDD1CC20ED31EB601660F771F660FC7
:10106000771FAB0148595F4FFA0185919591A59182
:10107000B4918E159F05A007B107E9F4FB01E4596F
:10108000FF4F859194919C8B8B8BFB01E259FF4F15
:10109000859194919E8B8D8BFB01E059FF4F85913B
:1010A0009491988F8F8BFB01EE58FF4F859194910F
:1010B0009A8F898F06C02F5F3F4F2D30310509F081
:1010C000C6CF8F89988D892B09F449C04C8546314C
:1010D00008F03DC090916800483010F484E005C0ED
:1010E0004E3010F082E001C081E0892B80936800CF
:1010F000483028F4EDE6F0E0ADE6B0E00BC04E304D
:1011000028F0ECE6F0E0ACE6B0E004C0EBE6F0E09E
:10111000ABE6B0E05081483040F481E090E002C09E
:10112000880F991F4A95E2F710C0242F30E04E3007
:1011300018F42850304002C02E50304081E090E03A
:1011400002C0880F991F2A95E2F7852B8C93898D11
:101150009A8D20E001972FEF8F3F9207D9F780916A
:10116000FA029091FB028C179D0781F08B8D8E7F88
:101170008B8F9FB7F89410923C0380913C0380932F
:101180003D03D093FB02C093FA029FBFDF91CF9142
:101190001F910F91FF90EF90DF90CF900895FC0189
:1011A0004485463180F5483028F4EDE6F0E0ADE6C0
:1011B000B0E00BC04E3028F4EBE6F0E0ABE6B0E078
:1011C00004C0ECE6F0E0ACE6B0E05081483040F41A
:1011D00081E090E002C0880F991F4A95E2F710C0A5
:1011E000242F30E04E3018F42850304002C02E50EA
:1011F000304081E090E002C0880F991F2A95E2F705
:10120000809585238C930895FC0185E392E091837A
:101210008083CF010E94CF0808952091FA02309177
:10122000FB022817390731F490913D0380913C036C
:10123000981719F42FEF3FEF0FC0E0913D03F0E056
:10124000E450FD4F208180913D0390E001968F7323
:10125000907080933D0330E0C90108952091FA0217
:101260003091FB022817390719F020E030E00EC05A
:1012700080913C0320913D0390E0805C9F4F821B56
:10128000910960E470E00E9495149C01C9010895E1
:101290000F931F93DC0159968D919C915A97892B3E
:1012A00049F481E090E013969C938E93129720E08E
:1012B00030E097C00FB7F8945B968C915B9751968E
:1012C000ED91FC91529750962C91509781FF8DC0D3
:1012D0008081822B808359968D919C915A97059697
:1012E00020E001972FEF8F3F9207D9F75B968C9103
:1012F0005B9781FF35C031E040E050E070E010E0E6
:10130000832F90E0862397235196ED91FC9152977D
:1013100050962C915097892B29F080812095282375
:10132000208303C08081822B808359968D919C916C
:101330005A97212F01972FEF8F3F9207D9F7330F3D
:101340004F5F5F4F48305105D9F65196ED91FC91B2
:101350005297908150968C9150978095892333C0F5
:1013600031E040E050E070E010E0832F90E0862311
:1013700097235196ED91FC91529750962C9150974E
:10138000892B21F08081822B808304C0808120956D
:101390002823208359968D919C915A97212F01974C
:1013A0002FEF8F3F9207D9F7330F4F5F5F4F4830D2
:1013B0005105D9F65196ED91FC9152978081509646
:1013C0009C915097892B80830FBF59968D919C914A
:1013D0005A9720E001972FEF8F3F9207D9F721E02E
:1013E00030E0C9011F910F91089580812095282335
:1013F000208371CF2091FA023091FB022817390720
:1014000049F49FB7F89410923C0380913C03809379
:101410003D039FBF08952091FA023091FB022817E7
:10142000390731F490913D0380913C03981719F4EA
:101430002FEF3FEF0AC0E0913D03F0E0E450FD4F95
:101440008081282F332727FD3095C90108951F93E8
:10145000CF93DF93EC01162F862F60E00E94120CD1
:101460008B8D81FD04C0812F61E00E94510C1C878F
:10147000212F30E0C9018A5C9E4FFC0184918D8749
:101480002E5D3E4FF9016491E62FF0E0EE0FFF1F55
:10149000E85EFE4F859194919F878E87DF91CF9173
:1014A0001F910895FF920F931F938C01F62E862FA4
:1014B00061E00E94120C8F2D61E00E94510C8F2D73
:1014C00090E0FC01EA5CFE4FE491D8015096EC9369
:1014D00050978E5D9E4FFC016491E62FF0E0EE0F79
:1014E000FF1FE25FFE4F8591949152969C938E93DD
:1014F00051971F910F91FF900895FF920F931F93A3
:101500008C01F62EFC011382128288EE93E0A0E09B
:10151000B0E084839583A683B78385E392E09183CB
:101520008083148A138A168A158A108E178A128E5F
:10153000118E838D2170220F8C7F822B838FC801A7
:10154000642F0E94520AC8016F2D0E94270A1F9122
:101550000F91FF900895823000F5E82FF0E0EE0F34
:10156000FF1FE25CFC4F71836083882319F0813098
:10157000A1F408C0809169008C7F842B809369005E
:10158000E89A089580916900440F551F440F551F34
:10159000837F842B80936900E99A08951F920F92AC
:1015A0000FB60F9211242F933F934F935F936F9336
:1015B0007F938F939F93AF93BF93EF93FF9380910C
:1015C0003E0390913F03892B29F0E0913E03F09177
:1015D0003F030995FF91EF91BF91AF919F918F913B
:1015E0007F916F915F914F913F912F910F900FBE1F
:1015F0000F901F9018951F920F920FB60F92112403
:101600002F933F934F935F936F937F938F939F930A
:10161000AF93BF93EF93FF93809140039091410369
:10162000892B29F0E0914003F09141030995FF9146
:10163000EF91BF91AF919F918F917F916F915F914A
:101640004F913F912F910F900FBE0F901F901895C3
:101650001F920F920FB60F9211242F933F938F93E7
:101660009F93AF93BF938091460390914703A091BE
:101670004803B091490330914A030196A11DB11D61
:10168000232F2D5F2D3720F02D570196A11DB11D61
:1016900020934A038093460390934703A093480303
:1016A000B09349038091420390914303A091440376
:1016B000B09145030196A11DB11D80934203909303
:1016C0004303A0934403B0934503BF91AF919F910F
:1016D0008F913F912F910F900FBE0F901F901895F3
:1016E0008FB7F89420914603309147034091480307
:1016F000509149038FBFB901CA0108959B01AC0104
:101700007FB7F8948091420390914303A0914403E2
:10171000B091450366B5A89B05C06F3F19F00196CF
:10172000A11DB11D7FBFBA2FA92F982F8827860F23
:10173000911DA11DB11D62E0880F991FAA1FBB1F3B
:101740006A95D1F7BC012DC0FFB7F8948091420390
:1017500090914303A0914403B0914503E6B5A89B43
:1017600005C0EF3F19F00196A11DB11DFFBFBA2FB3
:10177000A92F982F88278E0F911DA11DB11DE2E082
:10178000880F991FAA1FBB1FEA95D1F7861B970BDD
:10179000885E9340C8F2215030404040504068512C
:1017A0007C4F211531054105510571F60895789456
:1017B00084B5826084BD84B5816084BD85B5826056
:1017C00085BD85B5816085BDEEE6F0E080818160F4
:1017D0008083E1E8F0E010828081826080838081F4
:1017E00081608083E0E8F0E0808181608083E1EBCC
:1017F000F0E0808184608083E0EBF0E080818160B4
:101800008083EAE7F0E08081846080838081826069
:101810008083808181608083808180688083109252
:10182000C1000895CF93DF93482F50E0CA018A5C2E
:101830009E4FFC0134914E5D5E4FFA0184918823E6
:1018400069F190E0880F991FFC01EC5FFE4FA591B4
:10185000B491FC01E25FFE4FC591D491662351F42F
:101860002FB7F8948C91932F909589238C9388812E
:1018700089230BC0623061F42FB7F8948C91932FB9
:10188000909589238C938881832B88832FBF06C0F2
:101890009FB7F8948C91832B8C939FBFDF91CF914E
:1018A0000895482F50E0CA01865B9E4FFC012491A9
:1018B000CA018A5C9E4FFC0194914E5D5E4FFA0115
:1018C0003491332309F440C0222351F1233071F0C5
:1018D000243028F42130A1F0223011F514C0263034
:1018E000B1F02730C1F02430D9F404C080918000D9
:1018F0008F7703C0809180008F7D8093800010C01F
:1019000084B58F7702C084B58F7D84BD09C0809176
:10191000B0008F7703C08091B0008F7D8093B000BE
:10192000E32FF0E0EE0FFF1FE25FFE4FA591B491B1
:101930002FB7F894662321F48C919095892302C0E7
:101940008C91892B8C932FBF089508951F920F922D
:101950000FB60F9211242F933F934F938F939F9322
:10196000EF93FF938091C00082FD1DC04091C6009F
:1019700020918B0330918C032F5F3F4F2F7330707A
:1019800080918D0390918E032817390771F0E091B3
:101990008B03F0918C03E55BFC4F408330938C0309
:1019A00020938B0302C08091C600FF91EF919F911D
:1019B0008F914F913F912F910F900FBE0F901F90DD
:1019C0001895E091DF03F091E003E05CFF4F819117
:1019D000919120813181821B930B8F739070892BA1
:1019E00011F00E94A50C08951F920F920FB60F924E
:1019F00011242F933F938F939F93EF93FF93209105
:101A0000CF033091D0038091D1039091D203281756
:101A1000390731F48091C1008F7D8093C10014C0DB
:101A2000E091D103F091D203E157FC4F20818091E6
:101A3000D1039091D20301968F7390709093D2034B
:101A40008093D1032093C600FF91EF919F918F91D6
:101A50003F912F910F900FBE0F901F901895AF924E
:101A6000BF92DF92EF92FF920F931F93CF93DF937A
:101A7000EC017A018B01DD24403081EE580780E0D3
:101A8000680780E0780711F0DD24D39491E0A92E57
:101A9000B12CEC89FD89DD2069F0C50108A002C0E8
:101AA000880F991F0A94E2F7808360E079E08DE364
:101AB00090E005C0108260E874E88EE190E0A80133
:101AC00097010E94A8142150304040405040569544
:101AD00047953795279580E12030380720F0DD20A5
:101AE00011F0DD24D6CFE889F9893083EA89FB89B2
:101AF000208319A2EE89FF89408121E030E0C901ED
:101B00000C8C02C0880F991F0A94E2F7482B40837F
:101B1000EE89FF894081C9010D8C02C0880F991F91
:101B20000A94E2F7482B4083EE89FF894081C9017E
:101B30000E8C02C0880F991F0A94E2F7482B40834D
:101B4000EE89FF8980810F8C02C0220F331F0A9417
:101B5000E2F7209528232083DF91CF911F910F91E9
:101B6000FF90EF90DF90BF90AF900895DC011C963E
:101B7000ED91FC911D97E05CFF4F219131918081A7
:101B80009181281B390B2F733070C9010895DC0136
:101B90001C96ED91FC911D97E05CFF4F20813181F7
:101BA000E054F040DF01AE5BBF4F8D919C911197E7
:101BB0002817390719F42FEF3FEF07C08D919C913B
:101BC000E80FF91F8081282F30E0C9010895DC015A
:101BD0001C96ED91FC911D97E05CFF4F20813181B7
:101BE000E054F040DF01AE5BBF4F8D919C911197A7
:101BF0002817390719F42FEF3FEF10C08D919C91F2
:101C00001197E80FF91F20818D919C9111970196F2
:101C10008F73907011969C938E9330E0C901089554
:101C2000DC0191968C919197882339F05496ED912F
:101C3000FC915597808186FFF9CF91961C9208956B
:101C4000CF93DF93EC01EE85FF85E05CFF4F2081B1
:101C50003181E054F0402F5F3F4F2F733070DF0130
:101C6000AE5BBF4F8D919C91119728173907D1F327
:101C7000E05CFF4F80819181E054F040E80FF91F54
:101C80006083EE85FF85E05CFF4F31832083EE8922
:101C9000FF89208181E090E00F8C02C0880F991F9E
:101CA0000A94E2F7282B208381E089A3EC89FD893F
:101CB00080818064808381E090E0DF91CF910895FE
:101CC0001092D6031092D50388EE93E0A0E0B0E026
:101CD0008093D7039093D803A093D903B093DA03EA
:101CE00085E492E09093D4038093D3038BE493E054
:101CF0009093E0038093DF038FE893E09093E203F7
:101D00008093E10385EC90E09093E4038093E303F8
:101D100084EC90E09093E6038093E50380EC90E000
:101D20009093E8038093E70381EC90E09093EA03BB
:101D30008093E90382EC90E09093EC038093EB03B3
:101D400086EC90E09093EE038093ED0384E0809323
:101D5000EF0383E08093F00387E08093F10385E055
:101D60008093F20381E08093F3030895CF93DF9390
:101D70000E94D70B0E941E02C1EEDCE00E944601C9
:101D80002097E1F30E94E10CF9CF0E9460120895C0
:101D9000CF92DF92EF92FF920F931F93CF93DF9337
:101DA0007C016B018A01C0E0D0E00FC0D6016D91CB
:101DB0006D01D701ED91FC910190F081E02DC701FB
:101DC0000995C80FD91F015010400115110571F771
:101DD000CE01DF91CF911F910F91FF90EF90DF9097
:101DE000CF900895DC01ED91FC910190F081E02D00
:101DF00009950895EF92FF920F931F938C01DC01D8
:101E0000ED91FC910190F081E02D6DE009957C0150
:101E1000D801ED91FC910190F081E02DC8016AE0BC
:101E200009959C012E0D3F1DC9011F910F91FF9037
:101E3000EF900895EF92FF920F931F937C01DC01C6
:101E4000ED91FC910190F081E02D09958C01C70185
:101E50000E94FA0E080F191FC8011F910F91FF90E1
:101E6000EF900895CF93DF93EC016115710519F49C
:101E700020E030E00FC0DB010D900020E9F7119762
:101E8000A61BB70BE881F9810280F381E02DAD013B
:101E900009959C01C901DF91CF9108954F925F92FE
:101EA0007F928F929F92AF92BF92CF92DF92EF92EA
:101EB000FF920F931F93DF93CF93CDB7DEB7A19718
:101EC0000FB6F894DEBF0FBECDBF2C01742ECB0130
:101ED000223008F42AE019A231E2C32ED12CCC0E14
:101EE000DD1E822E9924AA24BB24672D752FA501FF
:101EF00094010E94A81479018A01C801B701A501C3
:101F000094010E947614472D461B0894C108D108FD
:101F10004A3014F4405D01C0495CF6014083E1148D
:101F2000F1040105110521F07E2C5F2DC801DDCFE4
:101F3000C201B6010E94320FA1960FB6F894DEBF1F
:101F40000FBECDBFCF91DF911F910F91FF90EF900A
:101F5000DF90CF90BF90AF909F908F907F905F90D9
:101F60004F900895DC012115310541F4ED91FC916C
:101F70000190F081E02D642F099508950E944E0F85
:101F80000895CF92DF92EF92FF920F931F936C010F
:101F90007B019A0100E010E0B801A7010E94B20F96
:101FA0008C01C6010E94FA0E080F191FC8011F916B
:101FB0000F91FF90EF90DF90CF900895EF92FF92F6
:101FC0000F931F939A01E62EFF2400E010E0B80162
:101FD000A7010E94B20F1F910F91FF90EF900895FB
:101FE000CF92DF92EF92FF920F931F936C01E62E38
:101FF0009A01FF2400E010E0B801A7010E94B20F8F
:102000008C01C6010E94FA0E080F191FC8011F910A
:102010000F91FF90EF90DF90CF900895CF92DF92D5
:10202000EF92FF920F931F93CF93DF93EC016A011E
:102030007B012115310541F4E881F9810190F0819E
:10204000E02D642F09951FC02A303105D1F477FFA8
:1020500017C0E881F9810190F081E02D6DE20995CA
:102060008C0144275527BA014C195D096E097F0977
:10207000CE012AE00E944E0F9801280F391F04C09C
:102080002AE00E944E0F9C01C901DF91CF911F9160
:102090000F91FF90EF90DF90CF900895EF92FF9215
:1020A0000F931F937B019A010027F7FC0095102FD7
:1020B000B801A7010E940E101F910F91FF90EF90A1
:1020C0000895CF92DF92EF92FF920F931F936C01CE
:1020D0007B019A010027F7FC0095102FB801A7019A
:1020E0000E940E108C01C6010E94FA0E080F191FE3
:1020F000C8011F910F91FF90EF90DF90CF9008954E
:102100000E94320F0895EF92FF920F931F937C016C
:102110000E94320F8C01C7010E94FA0E080F191F8E
:10212000C8011F910F91FF90EF900895AF92BF9259
:10213000CF92DF92EF92FF920F931F93CF93DF9393
:102140005C016B01EE24FF24C0E0D0E010C0D5019B
:10215000ED91FC9100811181C601BE010E94DD104C
:10216000682FC501F8010995E80EF91E2196F601C0
:1021700084819581C817D90750F3C701DF91CF91AA
:102180001F910F91FF90EF90DF90CF90BF90AF9095
:102190000895EF92FF920F931F937C010E94961077
:1021A0008C01C7010E94FA0E9C01200F311FC9014A
:1021B0001F910F91FF90EF900895FC01848195810C
:1021C0006817790748F40190F081E02D309721F0ED
:1021D000E60FF71F8081089580E008950F931F9305
:1021E000CF93DF93EC018B016F5F7F4F88819981E3
:1021F0000E949513009711F480E005C099838883AD
:102200001B830A8381E0DF91CF911F910F91089585
:10221000CF93DF93EC0188819981892B29F08A8102
:102220009B818617970760F4CE010E94EE108823E9
:1022300041F08C819D81892B19F4E881F98110820C
:1022400081E0DF91CF910895EF92FF920F931F935A
:10225000CF93DF93EC017B016C817D81E114F1046C
:10226000C1F04115510599F08A01060F171FB801F9
:102270000E940811882369F0888199812C813D8111
:10228000820F931FB7010E94E7001D830C8381E03A
:1022900001C080E0DF91CF911F910F91FF90EF90EF
:1022A0000895EF92FF920F931F93DF93CF93CDB7D3
:1022B000DEB727970FB6F894DEBF0FBECDBF7C0107
:1022C000CB018E010F5F1F4FB8014AE050E00E9422
:1022D000EE00F80101900020E9F73197E01BF10BC7
:1022E000C701B801AF010E94241127960FB6F894D8
:1022F000DEBF0FBECDBFCF91DF911F910F91FF9039
:10230000EF900895FB0160817181448155810E94A5
:1023100024110895CF93DF93EC0188819981009770
:1023200011F00E94FD12198218821D821C821B82EC
:102330001A82DF91CF9108950F931F93182F092FC1
:102340000E945111882321F4812F902F0E948A111D
:10235000812F902F1F910F910895EF92FF920F936D
:102360001F93CF93DF93EC017B018A01BA010E9496
:102370000811882321F4CE010E948A1107C01D8311
:102380000C8388819981B7010E94E700CE01DF911B
:10239000CF911F910F91FF90EF900895CF93DF930E
:1023A000EC01198218821B821A821D821C821E82F5
:1023B0006115710551F0DB010D900020E9F71197CF
:1023C000A61BB70BAD010E94AD11DF91CF9108950F
:1023D0000F931F93182F092F6115710559F0DB0119
:1023E0000D900020E9F71197A61BB70BAD010E94D5
:1023F000AD1102C00E948A11812F902F1F910F9161
:102400000895EF92FF920F931F93DF93CF93CDB771
:10241000DEB762970FB6F894DEBF0FBECDBF8C015A
:10242000CB01F8011182108213821282158214826C
:1024300016827E010894E11CF11CB70150E00E9455
:10244000EE00C801B7010E94E81162960FB6F89439
:10245000DEBF0FBECDBFCF91DF911F910F91FF90D7
:10246000EF900895CF93DF93EC01FB018617970758
:1024700061F0608171816115710529F04481558198
:102480000E94AD1102C00E948A11CE01DF91CF914E
:102490000895FC0111821082138212821582148227
:1024A00016820E9432120895FC01808191810E945F
:1024B000FD120895FC01808191810E94FD12089512
:1024C0000F931F93CF93DF93BC018230910510F4DB
:1024D00062E070E0E091F703F091F803A0E0B0E073
:1024E00040E050E024C08081918186179707D0F0AA
:1024F0008617970771F482819381109729F01396BC
:102500009C938E9312972CC09093F8038093F703BB
:1025100027C04115510519F08417950718F4EF01EC
:102520008D01AC01DF01828193819C01F90130971B
:10253000D1F641155105F9F0CA01861B970B84307D
:10254000910580F48A819B810115110521F0F80124
:102550009383828304C09093F8038093F703FE0172
:10256000329645C0FE01E80FF91F619371930297FF
:10257000998388833CC08091F5039091F603892B61
:1025800041F480912D0290912E029093F603809356
:10259000F50340912F02509130024115510541F44D
:1025A0004DB75EB780912B0290912C02481B590BBE
:1025B0002091F5033091F60324173507B0F4CA01D2
:1025C000821B930B8617970780F0AB014E5F5F4F1E
:1025D0008417950750F0420F531F5093F603409312
:1025E000F503F9016193719302C0E0E0F0E0CF01DF
:1025F000DF91CF911F910F910895CF93DF939C01AD
:10260000009709F48FC0EC0122971B821A82609117
:10261000F7037091F8036115710581F48881998140
:10262000820F931F2091F5033091F6032817390785
:1026300039F5D093F603C093F50374C0DB0140E095
:1026400050E0AC17BD0708F1BB83AA83FE012191BE
:102650003191E20FF31FAE17BF0779F48D919C9172
:102660001197280F391F2E5F3F4F39832883129609
:102670008D919C9113979B838A834115510571F429
:10268000D093F803C093F7034DC012968D919C919F
:102690001397AD01009711F0DC01D3CFDA01139647
:1026A000DC93CE931297FA0121913191E20FF31F3F
:1026B000CE17DF0769F488819981280F391F2E5FB3
:1026C0003F4FFA01318320838A819B8193838283E8
:1026D000E0E0F0E0DB0112968D919C91139700975A
:1026E00019F0BC01FD01F6CFAB014E5F5F4FDB017E
:1026F0008D919C91840F951F2091F5033091F603E5
:102700002817390779F4309729F41092F8031092BA
:10271000F70302C013821282425050405093F603D6
:102720004093F503DF91CF9108956F927F928F923E
:102730009F92AF92BF92CF92DF92EF92FF920F9350
:102740001F93CF93DF938C01009729F4CB010E9454
:1027500060128C01BBC08EEFE82E8FEFF82EE00EDA
:10276000F11E4801860E971E8E149F0408F4ACC01B
:10277000D7014D915C91119746175707B8F0453036
:10278000510508F4A3C0CA0104978617970708F4F7
:102790009DC042505040461B570BF401419351934A
:1027A0006D937C93CF010E94FD1290C05B01A41A2F
:1027B000B50A3801640E751EA091F703B091F803B5
:1027C000CC24DD24E0E0F0E047C0A615B705A9F56C
:1027D000CD91DC911197CE0102968A159B0568F187
:1027E000CE018A199B09029612962C911297139684
:1027F0003C91059758F0F40122833383CA19DB0911
:10280000D183C083D7016D937C9309C04E5F5F4F26
:102810004C0F5D1FF70151834083C901FC01C114B6
:10282000D10431F0D6011396FC93EE9312974EC06B
:10283000F093F803E093F70349C08D919C911197B1
:10284000E817F90708F4FC016D0112968C911297B4
:1028500013969C919C01D901109709F0B6CF8091F5
:10286000F5039091F60386159705E9F4E617F70747
:10287000D0F420912F02309130022115310541F41E
:102880002DB73EB780912B0290912C02281B390B5B
:1028900082169306C8F49092F6038092F503F7012E
:1028A0007183608313C0CB010E946012EC0100971A
:1028B00059F0D7014D915C91B8010E94DE00C8012A
:1028C0000E94FD128E0102C000E010E0C801DF91FD
:1028D000CF911F910F91FF90EF90DF90CF90BF901D
:1028E000AF909F908F907F906F900895629FD001DE
:1028F000739FF001829FE00DF11D649FE00DF11DBB
:10290000929FF00D839FF00D749FF00D659FF00D69
:102910009927729FB00DE11DF91F639FB00DE11D56
:10292000F91FBD01CF011124089597FB092E072639
:102930000AD077FD04D02ED006D000201AF470956E
:1029400061957F4F0895F6F7909581959F4F089573
:10295000A1E21A2EAA1BBB1BFD010DC0AA1FBB1FA3
:10296000EE1FFF1FA217B307E407F50720F0A21B15
:10297000B30BE40BF50B661F771F881F991F1A9482
:1029800069F760957095809590959B01AC01BD01AC
:10299000CF010895AA1BBB1B51E107C0AA1FBB1F93
:1029A000A617B70710F0A61BB70B881F991F5A95DB
:1029B000A9F780959095BC01CD010895EE0FFF1FFA
:1029C0000590F491E02D099411E0C4E6D1E004C033
:1029D000FE010E94E0142296C836D107C9F7F89488
:0229E000FFCF27
:1029E20057414954205246494400524649442052D4
:1029F20045414421004C697374656E696E672E2EE1
:102A02002E0049442072656365697665643A0077F1
:102A12006169746461746100636F646520726563E7
:102A220065697665643A00737569746570636B3ABB
:102A32000070636B2073656E64206E756D626572E3
:102A42003A00424F4F4C2041434B3A0054582042E7
:102A520055464645523A005258204255464645523E
:102A62003A002D2D2D2D2D2D2D5246204445425517
:102A7200472D2D2D2D2D2D2D2D2D2D2D0052616407
:102A8200696F206368616E6E656C3A0052616469B9
:102A92006F206D6F64653A004C6F63616C206164F6
:102AA20064726573733A0052656D6F746520616478
:102AB20064726573733A005061636B65742072656A
:102AC20063656976656420636F756E7465723A003A
:102AD2005061636B6574206D697373656420636F05
:102AE200756E7465723A002D2D2D2D2D2D2D2D2DE7
:102AF2002D2D2D2D2D2D2D2D2D2D2D2D2D2D2D2D04
:102B02002D00C8002223242526271E8000F9030059
:102B120000000000004809C80E2E090D090B0AFA30
:102B22000900000000200EC80EB60DE70DC70D10FB
:022B32000E0093
:00000001FF
