:100000000C94B4000C94640B0C94910B0C942A087F
:100010000C9454080C947E080C94DC000C94DC00C6
:100020000C94DC000C94DC000C94DC000C94DC00E0
:100030000C94DC000C94DC000C94DC000C94DC00D0
:100040000C94BE0B0C94DC000C943C0D0C948A0DAB
:100050000C94DC000C94DC000C94DC000C94DC00B0
:100060000C94DC000C94DC0000C2010001001100C3
:1000700011000C0000E100000A002500250021000D
:10008000009600001900390039003600127A00008D
:100090001F004600460044008070000022004D0012
:1000A0004D004A00004B00003600750075007200DC
:1000B000403800004A009C009C0099008025000008
:1000C0007200EC00EC00E900C0120000E900DA0167
:1000D000DA01D70160090000D701B603B603B30304
:1000E000B0040000B3036E076E076B0758020000F0
:1000F0006E07DC0EDC0ED80E2C010000DC0EC11DDC
:10010000C11DBE1D00000000240027002A000000C1
:100110000000250028002B0000000000230026001E
:10012000290004040404040404040202020202027A
:1001300003030303030301020408102040800102AB
:10014000040810200102040810200000000700022B
:10015000010000030406000000000000000055013B
:100160009802F60E4E01910211241FBECFEFD8E087
:10017000DEBFCDBF12E0A0E0B1E0E2E7FBE202C0EB
:1001800005900D92AA39B107D9F714E0AAE9B2E0B7
:1001900001C01D92AF34B107E1F711E0C4E6D1E030
:1001A00004C02297FE010E94A815CE35D107C9F7D9
:1001B0000E944C0F0C94AC150C940000FB01DC0168
:1001C00002C001900D9241505040D8F70895FB01B4
:1001D000DC0101900D920020E1F70895FB019F01E1
:1001E000E8944230C4F04532B4F44A3029F497FB25
:1001F0001EF4909581959F4F642F77270E9492154A
:10020000805D8A330CF0895D8193CB010097A1F763
:1002100016F45DE251931082C9010C942501FB0193
:100220009F01423074F0453264F4642F77270E94B6
:100230009215805D8A330CF0895D8193CB01009724
:10024000A1F71082C9010C942501DC01FC01672F84
:1002500071917723E1F7329704C07C916D9370839D
:100260006291AE17BF07C8F308958130910561F41C
:100270006F5F7F4F91F48AE992E068E070E049E0B7
:1002800050E00E946B060895892B39F46F5F7F4F11
:1002900021F48AE992E00E949A09089580E090E0B2
:1002A0006FEF7FEF0E943501089581E090E06FEFDE
:1002B0007FEF0E9435010895EF92FF920F931F93F5
:1002C000DF93CF93CDB7DEB72E970FB6F894DEBF8E
:1002D0000FBECDBF89E294E060E071E00E94191189
:1002E00006C062E370E080E090E00E94140C8AE9AE
:1002F00092E06CE672E00E940B06882391F389E29B
:1003000094E06AE071E00E94191181E090E090931E
:10031000BF028093BE020CE612E089E294E0F8018D
:1003200061918F0140E150E00E947410F2E00237C9
:100330001F0799F789E294E060E20E94B00F89E21A
:1003400094E065E171E00E94191106C062E370E07B
:1003500080E090E00E94140C8091B6029091B70268
:100360000E940605882391F37E010894E11CF11C8C
:10037000C70162E271E00E9464128E01085F1F4FA4
:10038000C801B7010E9411138091B6029091B70283
:100390000E945C02BC01C8010E943212BC01C7016C
:1003A0000E94FA12C8010E94221389E294E0B70168
:1003B0000E945F1184E18093B8028091B60290910F
:1003C000B70268EB72E00E9476038091B6029091CA
:1003D000B7026CE672E00E94760389E294E06FE275
:1003E00071E00E94191168EE73E080E090E00E94D5
:1003F000140C8091B6029091B70268EB72E00E94F3
:1004000069058823D1F089E294E068E371E00E94F5
:10041000191108EB12E089E294E0F80161918F0173
:100420004AE050E00E947410F2E00E3B1F0799F77B
:1004300089E294E06AE00E94880F8091B602909170
:10044000B7020E94850460E47DE083E090E00E94B2
:10045000140CCE0101960E941C132E960FB6F89430
:10046000DEBF0FBECDBFCF91DF911F910F91FF90E7
:10047000EF9008950F931F9389E294E040E855E2CE
:1004800060E070E00E94C50D8DE061E00E94A80C64
:1004900081E090E00E945B0F182F092F60916A02A3
:1004A00070916B0240E00E94C8051093B602009361
:1004B000B7021F910F9108952091290330912A03CB
:1004C000C901089581309105D1F46F5F7F4F41F5E7
:1004D00088E093E00E947D068BE393E067E471E09F
:1004E0000E94641282E493E06CE571E00E94641261
:1004F00089E493E06FE671E00E9464120895892B0D
:1005000079F46F5F7F4F61F489E493E00E941C13DC
:1005100082E493E00E941C138BE393E00E941C137F
:10052000089580E090E06FEF7FEF0E9462020895EF
:1005300081E090E06FEF7FEF0E9462020895AF923A
:10054000BF92CF92DF92EF92FF920F931F93DF93B0
:10055000CF93CDB7DEB72E970FB6F894DEBF0FBEA0
:10056000CDBF88E093E00E94DB06882309F499C0A0
:1005700088E093E060E070E00E9498069091140398
:1005800080912B03981741F48091080390E0909399
:100590002A038093290385C09091140380917202ED
:1005A000981709F07EC080910803E82EFF248FEF92
:1005B000E816F10409F44BC0809137039091380399
:1005C000019690933803809337038701000F111F22
:1005D0000E0D1F1D000F111F0C511D4FCC24DD24CB
:1005E0005E010894A11CB11C0894C11CD11CF60129
:1005F000E85FFC4F8081D8018D938D016081C5013A
:100600004AE00E94C81282E493E0B5010E941812E9
:10061000C5010E941C13B6E0CB16D10429F78E0148
:10062000085F1F4FC801B7014AE00E9497128BE391
:1006300093E0B8010E941812C8010E941C13E1E364
:10064000F3E0EE0EFF1E81E0D7018C932AC080916B
:10065000390390913A03019690933A0380933903BA
:100660001091090388E093E067E00E944707109328
:10067000080386E0189FD0011124A054BD4F20E04C
:1006800030E02F5F3F4F8D91F901E85FFC4F808391
:1006900026303105B1F788E093E060E070E00E9419
:1006A000750788E093E067E00E945C072E960FB61E
:1006B000F894DEBF0FBECDBFCF91DF911F910F9198
:1006C000FF90EF90DF90CF90BF90AF900895809112
:1006D000140390E08617970741F0609314036AEFC4
:1006E00070E080E090E00E94140C0895CF92DF92B9
:1006F000EF92FF920F931F93DF93CF93CDB7DEB7A7
:1007000027970FB6F894DEBF0FBECDBF162F072F69
:1007100088E093E067E00E94470780912D03809373
:100720000803212F302FC9017C0100E010E06E0189
:100730000894C11CD11C80912D0390912E03FC01C3
:10074000EE0FFF1FE80FF91FEE0FFF1FE00FF11F65
:10075000E054FD4FD7018C9180830F5F1F4FF7014D
:1007600081917F01F801E85FFC4F80836081C601C1
:100770004AE00E94C81289E493E0B6010E94181270
:10078000C6010E941C1306301105A9F680912D03A5
:1007900090912E03019690932E0380932D0388E071
:1007A00093E060E070E00E94750788E093E067E006
:1007B0000E945C0764E670E080E090E00E94140C08
:1007C00027960FB6F894DEBF0FBECDBFCF91DF9155
:1007D0001F910F91FF90EF90DF90CF900895FF92BF
:1007E0000F931F93F62E09E214E0C8016EE771E043
:1007F0000E941611C8016F2D4AE050E00E94861039
:1008000008E013E0C80167E00E9447078FEF80937C
:100810000803F092090310920A0310920B0310923E
:100820000C0310920D03C80160E070E00E94750790
:10083000C80167E00E945C071F910F91FF90089527
:10084000CF93DF9389E294E069E971E00E94161189
:10085000C0E0D0E0FE01EF5CFC4F608189E294E0F3
:1008600070E04AE050E00E94E41089E294E060E227
:100870000E94880F2196C630D10561F789E294E085
:1008800060E20E94B00FDF91CF910895CF93DF9384
:1008900089E294E063EA71E00E941611C0ECD2E0B4
:1008A00089E294E069914AE050E00E94741089E284
:1008B00094E060E20E94880F82E0C43ED80781F78E
:1008C00089E294E060E20E94B00F89E294E06EEA6F
:1008D00071E00E941611C4EED2E089E294E06991C1
:1008E0004AE050E00E94741089E294E060E20E94C5
:1008F000880F83E0C830D80781F789E294E060E28E
:100900000E94B00FDF91CF910895CF92DF92EF92C6
:10091000FF920F931F936C0109E214E0C80169EB89
:1009200071E00E941911C80164ED71E00E94161176
:1009300060911403C8014AE050E00E948610C8018B
:1009400063EE71E00E94161160911603C8014AE03F
:1009500050E00E948610C8016FEE71E00E941611EF
:10096000E1E1EE2EE3E0FE2EF70160817181C80126
:100970004AE050E00E945710C8016EEF71E00E94FB
:100980001611F701329760817181C8014AE050E089
:100990000E945710C8016EE072E00E94161160912B
:1009A000370370913803C8014AE050E00E94F71005
:1009B000C80167E272E00E941611609139037091DC
:1009C0003A03C8014AE050E00E94F710C6010E94B5
:1009D00046040E942004C8016BE373E00E945F118B
:1009E000C80162E473E00E945F11C80169E473E02A
:1009F0000E945F11C8016FE472E00E9419111F91FB
:100A00000F91FF90EF90DF90CF900895CF93DF93F9
:100A1000EC0190911403809172029817A1F18091DA
:100A2000290390912A03892B81F1809129039091C8
:100A30002A039093100380930F0380912C03882343
:100A4000B9F488E093E061E00E94470780912703B2
:100A50008093080388E093E060E070E00E947507EF
:100A600080912703909128039093120380931103A0
:100A700060917202CE0170E00E94670388E093E00B
:100A800067E00E945C0781E021C060912B03CE01EA
:100A900070E00E94670380912C03882359F088E05E
:100AA00093E061E00E94470788E093E060912703AC
:100AB0000E94B90788E093E061E00E945C0762E36E
:100AC00070E080E090E00E94140C80E0DF91CF9114
:100AD0000895CF92DF92EF92FF920F931F93CF93DF
:100AE000DF937C016B010E94060C8B01EB01A0914E
:100AF0002F03B0913003FD01EF5CFC4F8081882310
:100B0000A1F4C01BD10BC05DD7407CF40E94060C41
:100B1000EB01C70160912F030E94EF0364E670E0D0
:100B200080E090E00E94140CE2CFAF5CBC4F8C914F
:100B3000882329F120E030E0D601A20FB31F809175
:100B40002F0390913003FC01EE0FFF1FE80FF91FF8
:100B5000EE0FFF1FE20FF31FEC51FD4F80818C93CE
:100B60002F5F3F4F2630310539F780912F03909149
:100B7000300301969093300380932F0381E0DF913F
:100B8000CF911F910F91FF90EF90DF90CF9008953C
:100B90001F93142FE0ECF2E0119222E0E43EF20702
:100BA000D9F710923103109232031092330310924E
:100BB0003403109235031092360370932803609328
:100BC00027031092130360912B0370E00E946703C8
:100BD00088E093E061E00E945C0780E06FE972E0EA
:100BE00043E050E00E94410B10932C03112349F085
:100BF000809127039091280390931203809311030F
:100C000004C010921203109211031092100310925C
:100C10000F031F910895DF92EF92FF920F931F939E
:100C2000CF93DF93F82E092FEB010E94C409181609
:100C300019060CF046C08F2D902F0E94A309823018
:100C400009F03FC0DD24EE2410E08F2D902F0E948C
:100C5000C40918161906CCF78F2D902F0E94A309EE
:100C6000282F8D3071F18A3061F1833051F182305B
:100C700041F180538A3010F4282F05C0822F81540F
:100C8000863008F42753812F90E010FD02C0D22E49
:100C90000DC0959587953D2D3295307F322BFE0105
:100CA000E80FF91F3083059709F0E3261F5F1C301A
:100CB00060F21C3031F490E08D818E1519F491E0D2
:100CC00001C090E0892FDF91CF911F910F91FF908C
:100CD000EF90DF9008950F931F93182F092F20E0B6
:100CE0000E94130B812F902F40E855E260E070E0E6
:100CF0000E94A8081F910F910895FC015298539AE1
:100D0000549A559A569A108617821286118617861B
:100D100081E083878FE6848783E0858716868AEE65
:100D2000878B8FED808F84ED818F5B985C98089521
:100D30001F93CF93DF93DC016115710509F4BC01AA
:100D40005B9880E49FE10197F1F7FB0160E070E0C0
:100D5000C1E0D0E015E020C0108247E050E04E9B9B
:100D60000AC09E01042E02C0220F331F0A94E2F72C
:100D70008081822B8083812F8A95F1F75D9A812F64
:100D80008A95F1F75D98415050408FEF4F3F5807DB
:100D900031F76F5F7F4F31961F968C911F9790E0D0
:100DA00068177907CCF25B9A85E08A95F1F7DF91B5
:100DB000CF911F91089589B190E09695879596956A
:100DC00087958170089527E030E070E045E0CB0121
:100DD000022E02C0959587950A94E2F780FD02C025
:100DE0005E9801C05E9A842F8A95F1F75D9A842FF0
:100DF0008A95F1F75D98215030408FEF2F3F3807EB
:100E000031F708950F931F93CF93DF938C015B9875
:100E10005C9A8AE18A95F1F7662331F0F801668DD4
:100E2000C8010E94E3060DC0C0E0D0E0F801EC0F5D
:100E3000FD1F6089C8010E94E3062196CF30D105CD
:100E4000A9F75C98DF91CF911F910F910895FC0154
:100E50008785880F880F880F818B81859285928F77
:100E600081859285838F83EA848F958583859C64B1
:100E70008295880F807E892B858F96858485880F43
:100E8000892B868FCF0160E00E9402070895FC0144
:100E9000569A1686662321F067870E94270707C0A7
:100EA000868D8E7F868FCF0161E00E94020788EEDB
:100EB00093E00197F1F70895FC01569A81E0868747
:100EC000662329F06787CF010E94270707C0868D18
:100ED0008160868FCF0161E00E94020756985B9A7D
:100EE00088EE93E00197F1F70895EF92FF920F9348
:100EF0001F93CF93DF93EC017B016115710509F41A
:100F00007C015B9A8AE18A95F1F76F89CE010E9494
:100F1000E306688DCE010E94E306698DCE010E9432
:100F2000E3062F813885CE01632F0E94E3066F818F
:100F30007885CE010E94E30600E010E009C0F701C9
:100F4000E00FF11FCE0160810E94E3060F5F1F4F8B
:100F50008F8590E00817190794F35B9888EE93E06B
:100F60000197F1F7DF91CF911F910F91FF90EF90D3
:100F70000895FC01608360E070E00E9475070895A9
:100F80000F931F93CF93DF93FC01738D7695717050
:100F9000A685B7859585772329F08C91892309F457
:100FA00054C004C08C91892309F04FC0838994896F
:100FB00020E001972FEF8F3F9207D9F7C589D68997
:100FC000A685B785158560E031E040E050E000E09F
:100FD000CE01202F01972FEF8F3F9207D9F78C91E9
:100FE000812311F0632B03C0832F80956823330F77
:100FF0004F5F5F4F4830510559F78789908D20E04A
:1010000001972FEF8F3F9207D9F77111609580916B
:1010100092032091930390E001968F73907030E0DB
:101020008217930779F0E0919203F0E0EE5AFC4FBB
:1010300060838091920390E001968F73907080930B
:10104000920303C0838D8160838FDF91CF911F91C5
:101050000F9108951F920F920FB60F9211242F93A4
:101060003F934F935F936F937F938F939F93AF9330
:10107000BF93EF93FF93809150039091510300979A
:1010800011F00E94C007FF91EF91BF91AF919F9126
:101090008F917F916F915F914F913F912F910F9021
:1010A0000FBE0F901F9018951F920F920FB60F92C0
:1010B00011242F933F934F935F936F937F938F935D
:1010C0009F93AF93BF93EF93FF93809150039091C1
:1010D0005103009711F00E94C007FF91EF91BF915B
:1010E000AF919F918F917F916F915F914F913F91C0
:1010F0002F910F900FBE0F901F9018951F920F9277
:101100000FB60F9211242F933F934F935F936F93DA
:101110007F938F939F93AF93BF93EF93FF938091B0
:10112000500390915103009711F00E94C007FF9166
:10113000EF91BF91AF919F918F917F916F915F914F
:101140004F913F912F910F900FBE0F901F901895C8
:10115000CF92DF92EF92FF920F931F93CF93DF9383
:10116000EC017A018B011A8E198E188E1F8A1E8A45
:101170001D8A1C8A1B8A20E030E06901CC0CDD1C32
:10118000C20ED31EB601660F771F660F771FAB0125
:1011900048595F4FFA0185919591A591B4918E15AB
:1011A0009F05A007B107E9F4FB01E459FF4F8591C2
:1011B00094919C8B8B8BFB01E259FF4F859194910D
:1011C0009E8B8D8BFB01E059FF4F85919491988FF9
:1011D0008F8BFB01EE58FF4F859194919A8F898FE9
:1011E00006C02F5F3F4F2D30310509F0C6CF8F89E4
:1011F000988D892B09F449C04C85463108F03DC0D3
:1012000090916800483010F484E005C04E3010F032
:1012100082E001C081E0892B80936800483028F487
:10122000EDE6F0E0ADE6B0E00BC04E3028F0ECE6C5
:10123000F0E0ACE6B0E004C0EBE6F0E0ABE6B0E036
:101240005081483040F481E090E002C0880F991F3F
:101250004A95E2F710C0242F30E04E3018F42850A1
:10126000304002C02E50304081E090E002C0880F34
:10127000991F2A95E2F7852B8C93898D9A8D20E012
:1012800001972FEF8F3F9207D9F7809150039091EC
:1012900051038C179D0781F08B8D8E7F8B8F9FB7AD
:1012A000F894109292038091920380939303D093C9
:1012B0005103C09350039FBFDF91CF911F910F91B6
:1012C000FF90EF90DF90CF900895FC014485463168
:1012D00080F5483028F4EDE6F0E0ADE6B0E00BC074
:1012E0004E3028F4EBE6F0E0ABE6B0E004C0ECE60C
:1012F000F0E0ACE6B0E05081483040F481E090E0AE
:1013000002C0880F991F4A95E2F710C0242F30E0E1
:101310004E3018F42850304002C02E50304081E04A
:1013200090E002C0880F991F2A95E2F780958523E7
:101330008C930895FC018DE792E091838083CF0127
:101340000E94650908952091500330915103281798
:10135000390731F49091930380919203981719F40F
:101360002FEF3FEF0FC0E0919303F0E0EE5AFC4FF8
:1013700020818091930390E001968F739070809309
:10138000930330E0C9010895209150033091510337
:101390002817390719F020E030E00EC08091920341
:1013A0002091930390E0805C9F4F821B910960E441
:1013B00070E00E945D159C01C90108950F931F9371
:1013C000DC0159968D919C915A97892B49F481E0C3
:1013D00090E013969C938E93129720E030E097C094
:1013E0000FB7F8945B968C915B975196ED91FC91B9
:1013F000529750962C91509781FF8DC08081822BFF
:10140000808359968D919C915A97059620E001977B
:101410002FEF8F3F9207D9F75B968C915B9781FFF7
:1014200035C031E040E050E070E010E0832F90E004
:10143000862397235196ED91FC91529750962C91CB
:101440005097892B29F0808120952823208303C081
:101450008081822B808359968D919C915A97212F60
:1014600001972FEF8F3F9207D9F7330F4F5F5F4FF1
:1014700048305105D9F65196ED91FC9152979081E3
:1014800050968C9150978095892333C031E040E08D
:1014900050E070E010E0832F90E086239723519670
:1014A000ED91FC91529750962C915097892B21F0F9
:1014B0008081822B808304C0808120952823208313
:1014C00059968D919C915A97212F01972FEF8F3F1D
:1014D0009207D9F7330F4F5F5F4F48305105D9F668
:1014E0005196ED91FC915297808150969C91509726
:1014F000892B80830FBF59968D919C915A9720E03C
:1015000001972FEF8F3F9207D9F721E030E0C90113
:101510001F910F910895808120952823208371CFFA
:1015200020915003309151032817390749F49FB790
:10153000F8941092920380919203809393039FBF3B
:10154000089520915003309151032817390731F441
:101550009091930380919203981719F42FEF3FEF26
:101560000AC0E0919303F0E0EE5AFC4F8081282FEF
:10157000332727FD3095C90108951F93CF93DF933B
:10158000EC01162F862F60E00E94A80C8B8D81FD48
:1015900004C0812F61E00E94E70C1C87212F30E0FE
:1015A000C9018A5C9E4FFC0184918D872E5D3E4F60
:1015B000F9016491E62FF0E0EE0FFF1FE85EFE4FA9
:1015C000859194919F878E87DF91CF911F91089588
:1015D000FF920F931F938C01F62E862F61E00E94DD
:1015E000A80C8F2D61E00E94E70C8F2D90E0FC018C
:1015F000EA5CFE4FE491D8015096EC9350978E5DD3
:101600009E4FFC016491E62FF0E0EE0FFF1FE25FBA
:10161000FE4F8591949152969C938E9351971F9172
:101620000F91FF900895FF920F931F938C01F62E58
:10163000FC011382128288EE93E0A0E0B0E0848384
:101640009583A683B7838DE792E091838083148A84
:10165000138A168A158A108E178A128E118E838D20
:101660002170220F8C7F822B838FC801642F0E94F0
:10167000E80AC8016F2D0E94BD0A1F910F91FF90CB
:101680000895823000F5E82FF0E0EE0FFF1FEC56D2
:10169000FC4F71836083882319F08130A1F408C066
:1016A000809169008C7F842B80936900E89A08956B
:1016B00080916900440F551F440F551F837F842B71
:1016C00080936900E99A08951F920F920FB60F92C6
:1016D00011242F933F934F935F936F937F938F9337
:1016E0009F93AF93BF93EF93FF9380919403909157
:1016F0009503892B29F0E0919403F09195030995C6
:10170000FF91EF91BF91AF919F918F917F916F91D9
:101710005F914F913F912F910F900FBE0F901F90AF
:1017200018951F920F920FB60F9211242F933F938B
:101730004F935F936F937F938F939F93AF93BF93D9
:10174000EF93FF938091960390919703892B29F053
:10175000E0919603F09197030995FF91EF91BF9166
:10176000AF919F918F917F916F915F914F913F9139
:101770002F910F900FBE0F901F9018951F920F92F0
:101780000FB60F9211242F933F938F939F93AF9394
:10179000BF9380919C0390919D03A0919E03B09173
:1017A0009F033091A0030196A11DB11D232F2D5F32
:1017B0002D3720F02D570196A11DB11D2093A003B8
:1017C00080939C0390939D03A0939E03B0939F03EB
:1017D0008091980390919903A0919A03B0919B03F3
:1017E0000196A11DB11D8093980390939903A09336
:1017F0009A03B0939B03BF91AF919F918F913F91BB
:101800002F910F900FBE0F901F9018958FB7F894DF
:1018100020919C0330919D0340919E0350919F0322
:101820008FBFB901CA0108959B01AC017FB7F8943D
:101830008091980390919903A0919A03B0919B0392
:1018400066B5A89B05C06F3F19F00196A11DB11D9B
:101850007FBFBA2FA92F982F8827860F911DA11D12
:10186000B11D62E0880F991FAA1FBB1F6A95D1F7AF
:10187000BC012DC0FFB7F894809198039091990313
:10188000A0919A03B0919B03E6B5A89B05C0EF3FDA
:1018900019F00196A11DB11DFFBFBA2FA92F982FD6
:1018A00088278E0F911DA11DB11DE2E0880F991FA1
:1018B000AA1FBB1FEA95D1F7861B970B885E934042
:1018C000C8F2215030404040504068517C4F2115B3
:1018D00031054105510571F60895789484B582600B
:1018E00084BD84B5816084BD85B5826085BD85B5C4
:1018F000816085BDEEE6F0E0808181608083E1E873
:10190000F0E01082808182608083808181608083AA
:10191000E0E8F0E0808181608083E1EBF0E08081AD
:1019200084608083E0EBF0E0808181608083EAE77F
:10193000F0E0808184608083808182608083808108
:10194000816080838081806880831092C1000895C7
:10195000CF93DF93482F50E0CA018A5C9E4FFC0171
:1019600034914E5D5E4FFA018491882369F190E0D5
:10197000880F991FFC01EC5FFE4FA591B491FC010B
:10198000E25FFE4FC591D491662351F42FB7F894CE
:101990008C91932F909589238C93888189230BC0F8
:1019A000623061F42FB7F8948C91932F909589232E
:1019B0008C938881832B88832FBF06C09FB7F894B0
:1019C0008C91832B8C939FBFDF91CF910895482FEB
:1019D00050E0CA01865B9E4FFC012491CA018A5CDB
:1019E0009E4FFC0194914E5D5E4FFA01349133237A
:1019F00009F440C0222351F1233071F0243028F43F
:101A00002130A1F0223011F514C02630B1F027307A
:101A1000C1F02430D9F404C0809180008F7703C0D6
:101A2000809180008F7D8093800010C084B58F7777
:101A300002C084B58F7D84BD09C08091B0008F77CE
:101A400003C08091B0008F7D8093B000E32FF0E061
:101A5000EE0FFF1FE25FFE4FA591B4912FB7F894F0
:101A6000662321F48C919095892302C08C91892B57
:101A70008C932FBF089508951F920F920FB60F9267
:101A800011242F933F934F938F939F93EF93FF9343
:101A90008091C00082FD1DC04091C6002091E103ED
:101AA0003091E2032F5F3F4F2F7330708091E3033B
:101AB0009091E4032817390771F0E091E103F09168
:101AC000E203EF55FC4F40833093E2032093E103A0
:101AD00002C08091C600FF91EF919F918F914F912D
:101AE0003F912F910F900FBE0F901F901895E0918E
:101AF0003504F0913604E05CFF4F81919191208193
:101B00003181821B930B8F739070892B11F00E948F
:101B10003B0D08951F920F920FB60F9211242F9331
:101B20003F938F939F93EF93FF93209125043091E0
:101B3000260480912704909128042817390731F44E
:101B40008091C1008F7D8093C10014C0E091270473
:101B5000F0912804EB51FC4F208180912704909153
:101B6000280401968F739070909328048093270423
:101B70002093C600FF91EF919F918F913F912F91FC
:101B80000F900FBE0F901F901895AF92BF92DF92EB
:101B9000EF92FF920F931F93CF93DF93EC017A01A3
:101BA0008B01DD24403081EE580780E0680780E03B
:101BB000780711F0DD24D39491E0A92EB12CEC89A3
:101BC000FD89DD2069F0C50108A002C0880F991FBA
:101BD0000A94E2F7808360E079E08DE390E005C04D
:101BE000108260E874E88EE190E0A80197010E94FD
:101BF00070152150304040405040569547953795DC
:101C0000279580E12030380720F0DD2011F0DD2419
:101C1000D6CFE889F9893083EA89FB89208319A224
:101C2000EE89FF89408121E030E0C9010C8C02C0BF
:101C3000880F991F0A94E2F7482B4083EE89FF89A9
:101C40004081C9010D8C02C0880F991F0A94E2F7E8
:101C5000482B4083EE89FF894081C9010E8C02C068
:101C6000880F991F0A94E2F7482B4083EE89FF8979
:101C700080810F8C02C0220F331F0A94E2F7209557
:101C800028232083DF91CF911F910F91FF90EF9038
:101C9000DF90BF90AF900895DC011C96ED91FC9110
:101CA0001D97E05CFF4F2191319180819181281B2C
:101CB000390B2F733070C9010895DC011C96ED912A
:101CC000FC911D97E05CFF4F20813181E054F04092
:101CD000DF01AE5BBF4F8D919C911197281739079B
:101CE00019F42FEF3FEF07C08D919C91E80FF91F7A
:101CF0008081282F30E0C9010895DC011C96ED9108
:101D0000FC911D97E05CFF4F20813181E054F04051
:101D1000DF01AE5BBF4F8D919C911197281739075A
:101D200019F42FEF3FEF10C08D919C911197E80FA0
:101D3000F91F20818D919C91119701968F7390705E
:101D400011969C938E9330E0C9010895DC01919621
:101D50008C919197882339F05496ED91FC91559789
:101D6000808186FFF9CF91961C920895CF93DF93DF
:101D7000EC01EE85FF85E05CFF4F20813181E0546E
:101D8000F0402F5F3F4F2F733070DF01AE5BBF4FCE
:101D90008D919C91119728173907D1F3E05CFF4F83
:101DA00080819181E054F040E80FF91F6083EE8557
:101DB000FF85E05CFF4F31832083EE89FF8920811E
:101DC00081E090E00F8C02C0880F991F0A94E2F71F
:101DD000282B208381E089A3EC89FD8980818064A0
:101DE000808381E090E0DF91CF91089510922C04E0
:101DF00010922B0488EE93E0A0E0B0E080932D04D5
:101E000090932E04A0932F04B09330048DE892E0B9
:101E100090932A048093290481EA93E090933604F6
:101E20008093350485EE93E09093380480933704D3
:101E300085EC90E090933A048093390484EC90E030
:101E400090933C0480933B0480EC90E090933E049C
:101E500080933D0481EC90E09093400480933F0494
:101E600082EC90E0909342048093410486EC90E0F1
:101E7000909344048093430484E08093450483E07A
:101E80008093460487E08093470485E0809348046C
:101E900081E0809349040895CF93DF930E946D0CF5
:101EA0000E943A02C7E7DDE00E945C012097E1F35F
:101EB0000E94770DF9CF0E9428130895CF92DF92E8
:101EC000EF92FF920F931F93CF93DF937C016B01EF
:101ED0008A01C0E0D0E00FC0D6016D916D01D7013D
:101EE000ED91FC910190F081E02DC7010995C80F9B
:101EF000D91F015010400115110571F7CE01DF9176
:101F0000CF911F910F91FF90EF90DF90CF900895A8
:101F1000DC01ED91FC910190F081E02D099508958F
:101F2000EF92FF920F931F938C01DC01ED91FC91D6
:101F30000190F081E02D6DE009957C01D801ED91D3
:101F4000FC910190F081E02DC8016AE009959C01A7
:101F50002E0D3F1DC9011F910F91FF90EF90089525
:101F6000EF92FF920F931F937C01DC01ED91FC91A6
:101F70000190F081E02D09958C01C7010E94900F1E
:101F8000080F191FC8011F910F91FF90EF9008953E
:101F9000CF93DF93EC016115710519F420E030E077
:101FA0000FC0DB010D900020E9F71197A61BB70BBE
:101FB000E881F9810280F381E02DAD0109959C0152
:101FC000C901DF91CF9108954F925F927F928F92D6
:101FD0009F92AF92BF92CF92DF92EF92FF920F93B8
:101FE0001F93DF93CF93CDB7DEB7A1970FB6F894C9
:101FF000DEBF0FBECDBF2C01742ECB01223008F402
:102000002AE019A231E2C32ED12CCC0EDD1E822E85
:102010009924AA24BB24672D752FA50194010E9441
:10202000701579018A01C801B701A50194010E94C8
:102030003E15472D461B0894C108D1084A3014F4B8
:10204000405D01C0495CF6014083E114F1040105E3
:10205000110521F07E2C5F2DC801DDCFC201B60134
:102060000E94C80FA1960FB6F894DEBF0FBECDBF79
:10207000CF91DF911F910F91FF90EF90DF90CF9064
:10208000BF90AF909F908F907F905F904F900895FA
:10209000DC012115310541F4ED91FC910190F081B5
:1020A000E02D642F099508950E94E40F0895CF92C2
:1020B000DF92EF92FF920F931F936C017B019A01C5
:1020C00000E010E0B801A7010E9448108C01C60191
:1020D0000E94900F080F191FC8011F910F91FF90C8
:1020E000EF90DF90CF900895EF92FF920F931F93A0
:1020F0009A01E62EFF2400E010E0B801A7010E943B
:1021000048101F910F91FF90EF900895CF92DF92AA
:10211000EF92FF920F931F936C01E62E9A01FF241A
:1021200000E010E0B801A7010E9448108C01C60130
:102130000E94900F080F191FC8011F910F91FF9067
:10214000EF90DF90CF900895CF92DF92EF92FF92C1
:102150000F931F93CF93DF93EC016A017B0121154D
:10216000310541F4E881F9810190F081E02D642F7F
:1021700009951FC02A303105D1F477FF17C0E881D7
:10218000F9810190F081E02D6DE209958C014427E1
:102190005527BA014C195D096E097F09CE012AE065
:1021A0000E94E40F9801280F391F04C02AE00E9402
:1021B000E40F9C01C901DF91CF911F910F91FF9016
:1021C000EF90DF90CF900895EF92FF920F931F93BF
:1021D0007B019A010027F7FC0095102FB801A70199
:1021E0000E94A4101F910F91FF90EF900895CF923D
:1021F000DF92EF92FF920F931F936C017B019A0184
:102200000027F7FC0095102FB801A7010E94A41029
:102210008C01C6010E94900F080F191FC8011F9161
:102220000F91FF90EF90DF90CF9008950E94C80F1C
:102230000895EF92FF920F931F937C010E94C80FA5
:102240008C01C7010E94900F080F191FC8011F9130
:102250000F91FF90EF900895AF92BF92CF92DF92CF
:10226000EF92FF920F931F93CF93DF935C016B016B
:10227000EE24FF24C0E0D0E010C0D501ED91FC9128
:1022800000811181C601BE010E947311682FC50132
:10229000F8010995E80EF91E2196F60184819581D1
:1022A000C817D90750F3C701DF91CF911F910F9144
:1022B000FF90EF90DF90CF90BF90AF900895EF9296
:1022C000FF920F931F937C010E942C118C01C70178
:1022D0000E94900F9C01200F311FC9011F910F9187
:1022E000FF90EF900895FC0184819581681779072C
:1022F00048F40190F081E02D309721F0E60FF71FB0
:102300008081089580E008950F931F93CF93DF930A
:10231000EC018B016F5F7F4F888199810E945D1472
:10232000009711F480E005C0998388831B830A839A
:1023300081E0DF91CF911F910F910895CF93DF93AB
:10234000EC0188819981892B29F08A819B818617EC
:10235000970760F4CE010E948411882341F08C819C
:102360009D81892B19F4E881F981108281E0DF9148
:10237000CF910895EF92FF920F931F93CF93DF9326
:10238000EC017B016C817D81E114F104C1F0411508
:10239000510599F08A01060F171FB8010E949E117E
:1023A000882369F0888199812C813D81820F931F58
:1023B000B7010E94E7001D830C8381E001C080E02B
:1023C000DF91CF911F910F91FF90EF900895EF92C1
:1023D000FF920F931F93DF93CF93CDB7DEB727976D
:1023E0000FB6F894DEBF0FBECDBF7C01CB018E01CE
:1023F0000F5F1F4FB8014AE050E00E94EE00F80165
:1024000001900020E9F73197E01BF10BC701B801FB
:10241000AF010E94BA1127960FB6F894DEBF0FBE27
:10242000CDBFCF91DF911F910F91FF90EF90089555
:10243000FB0160817181448155810E94BA11089528
:10244000CF93DF93EC0188819981009711F00E946E
:10245000C513198218821D821C821B821A82DF9189
:10246000CF9108950F931F93182F092F0E94E71102
:10247000882321F4812F902F0E942012812F902FEA
:102480001F910F910895EF92FF920F931F93CF9397
:10249000DF93EC017B018A01BA010E949E1188231F
:1024A00021F4CE010E94201207C01D830C83888175
:1024B0009981B7010E94E700CE01DF91CF911F9172
:1024C0000F91FF90EF900895CF93DF93EC01198265
:1024D00018821B821A821D821C821E826115710560
:1024E00051F0DB010D900020E9F71197A61BB70B07
:1024F000AD010E944312DF91CF9108950F931F9376
:10250000182F092F6115710559F0DB010D9000207E
:10251000E9F71197A61BB70BAD010E94431202C049
:102520000E942012812F902F1F910F910895EF92FA
:10253000FF920F931F93DF93CF93CDB7DEB76297D0
:102540000FB6F894DEBF0FBECDBF8C01CB01F801F2
:1025500011821082138212821582148216827E01E9
:102560000894E11CF11CB70150E00E94EE00C80184
:10257000B7010E947E1262960FB6F894DEBF0FBEBE
:10258000CDBFCF91DF911F910F91FF90EF900895F4
:10259000EF92FF920F931F93DF93CF93CDB7DEB7E8
:1025A00029970FB6F894DEBF0FBECDBF8C01862FE2
:1025B000F80111821082138212821582148216820F
:1025C00090E07E010894E11CF11CB70150E00E94EC
:1025D0000F01C801B7010E947E1229960FB6F89428
:1025E000DEBF0FBECDBFCF91DF911F910F91FF9046
:1025F000EF900895CF93DF93EC01FB0186179707C7
:1026000061F0608171816115710529F04481558106
:102610000E94431202C00E942012CE01DF91CF918E
:102620000895FC0111821082138212821582148295
:1026300016820E94FA120895FC01808191810E9405
:10264000C5130895FC01808191810E94C5130895EE
:102650000F931F93CF93DF93BC018230910510F449
:1026600062E070E0E0914D04F0914E04A0E0B0E033
:1026700040E050E024C08081918186179707D0F018
:102680008617970771F482819381109729F013962A
:102690009C938E9312972CC090934E0480934D047C
:1026A00027C04115510519F08417950718F4EF015B
:1026B0008D01AC01DF01828193819C01F90130978A
:1026C000D1F641155105F9F0CA01861B970B8430EC
:1026D000910580F48A819B810115110521F0F80193
:1026E0009383828304C090934E0480934D04FE0133
:1026F000329645C0FE01E80FF91F6193719302976E
:10270000998388833CC080914B0490914C04892B21
:1027100041F4809175029091760290934C048093DD
:102720004B0440917702509178024115510541F4D4
:102730004DB75EB78091730290917402481B590B9C
:1027400020914B0430914C0424173507B0F4CA0192
:10275000821B930B8617970780F0AB014E5F5F4F8C
:102760008417950750F0420F531F50934C04409329
:102770004B04F9016193719302C0E0E0F0E0CF01F6
:10278000DF91CF911F910F910895CF93DF939C011B
:10279000009709F48FC0EC0122971B821A82609186
:1027A0004D0470914E046115710581F48881998101
:1027B000820F931F20914B0430914C042817390746
:1027C00039F5D0934C04C0934B0474C0DB0140E056
:1027D00050E0AC17BD0708F1BB83AA83FE0121912D
:1027E0003191E20FF31FAE17BF0779F48D919C91E1
:1027F0001197280F391F2E5F3F4F39832883129678
:102800008D919C9113979B838A834115510571F497
:10281000D0934E04C0934D044DC012968D919C915F
:102820001397AD01009711F0DC01D3CFDA011396B5
:10283000DC93CE931297FA0121913191E20FF31FAD
:10284000CE17DF0769F488819981280F391F2E5F21
:102850003F4FFA01318320838A819B819383828356
:10286000E0E0F0E0DB0112968D919C9113970097C8
:1028700019F0BC01FD01F6CFAB014E5F5F4FDB01EC
:102880008D919C91840F951F20914B0430914C04A5
:102890002817390779F4309729F410924E041092D2
:1028A0004D0402C0138212824250504050934C0497
:1028B00040934B04DF91CF9108956F927F928F9256
:1028C0009F92AF92BF92CF92DF92EF92FF920F93BF
:1028D0001F93CF93DF938C01009729F4CB010E94C3
:1028E00028138C01BBC08EEFE82E8FEFF82EE00E80
:1028F000F11E4801860E971E8E149F0408F4ACC08A
:10290000D7014D915C91119746175707B8F04530A4
:10291000510508F4A3C0CA0104978617970708F465
:102920009DC042505040461B570BF40141935193B8
:102930006D937C93CF010E94C51390C05B01A41AD4
:10294000B50A3801640E751EA0914D04B0914E0475
:10295000CC24DD24E0E0F0E047C0A615B705A9F5DA
:10296000CD91DC911197CE0102968A159B0568F1F5
:10297000CE018A199B09029612962C9112971396F2
:102980003C91059758F0F40122833383CA19DB097F
:10299000D183C083D7016D937C9309C04E5F5F4F95
:1029A0004C0F5D1FF70151834083C901FC01C11425
:1029B000D10431F0D6011396FC93EE9312974EC0DA
:1029C000F0934E04E0934D0449C08D919C91119772
:1029D000E817F90708F4FC016D0112968C91129723
:1029E00013969C919C01D901109709F0B6CF809164
:1029F0004B0490914C0486159705E9F4E617F70708
:102A0000D0F420917702309178022115310541F4FC
:102A10002DB73EB78091730290917402281B390B39
:102A200082169306C8F490924C0480924B04F701EE
:102A30007183608313C0CB010E942813EC010097BF
:102A400059F0D7014D915C91B8010E94DE00C80198
:102A50000E94C5138E0102C000E010E0C801DF91A2
:102A6000CF911F910F91FF90EF90DF90CF90BF908B
:102A7000AF909F908F907F906F900895629FD0014C
:102A8000739FF001829FE00DF11D649FE00DF11D29
:102A9000929FF00D839FF00D749FF00D659FF00DD8
:102AA0009927729FB00DE11DF91F639FB00DE11DC5
:102AB000F91FBD01CF011124089597FB092E0726A8
:102AC0000AD077FD04D02ED006D000201AF47095DD
:102AD00061957F4F0895F6F7909581959F4F0895E2
:102AE000A1E21A2EAA1BBB1BFD010DC0AA1FBB1F12
:102AF000EE1FFF1FA217B307E407F50720F0A21B84
:102B0000B30BE40BF50B661F771F881F991F1A94F0
:102B100069F760957095809590959B01AC01BD011A
:102B2000CF010895AA1BBB1B51E107C0AA1FBB1F01
:102B3000A617B70710F0A61BB70B881F991F5A9549
:102B4000A9F780959095BC01CD010895EE0FFF1F68
:102B50000590F491E02D099411E0C4E6D1E004C0A1
:102B6000FE010E94A8152296C836D107C9F7F8942D
:022B7000FFCF95
:102B72005741495420524649440052464944205242
:102B820045414421004C697374656E696E672E2E4F
:102B92002E0049442072656365697665643A007760
:102BA2006169746461746100636F64652072656356
:102BB20065697665643A0052454345495645442065
:102BC2005041434B4554205345513A0052454345E9
:102BD200495645442044415441205345513A00440A
:102BE2004154412053454E44204C4F473A004153F3
:102BF2004B494E4720666F722072657472616E7324
:102C02006D697373696F6E3A00424F4F4C204143B6
:102C12004B3A005458204255464645523A005258C3
:102C2200204255464645523A002D2D2D2D2D2D2D53
:102C320052462044454255472D2D2D2D2D2D2D2D0B
:102C42002D2D2D00526164696F206368616E6E657F
:102C52006C3A00526164696F206D6F64653A004C92
:102C62006F63616C20616464726573733A005265CC
:102C72006D6F746520616464726573733A005061AC
:102C8200636B657420726563656976656420636F42
:102C9200756E7465723A005061636B6574206D697C
:102CA2007373656420726563656976656420717506
:102CB200657269657320636F756E7465723A002D73
:102CC2002D2D2D2D2D2D2D2D2D2D2D2D2D2D2D2D32
:102CD2002D2D2D2D2D2D2D2D2D00C8002223242507
:102CE20026271E80004F04000000000000DE095E5F
:102CF2000FC409A309A10A900A00000000B60E5EE3
:0A2D02000F4C0E7D0E5D0EA60E00B4
:00000001FF
