:100000000C9496010C94491B0C94761B0C941511BE
:100010000C9467050C943F110C94BE010C94BE0126
:100020000C94BE010C94BE010C94BE010C943A0BCE
:100030000C94BE010C94BE010C94BE010C94BE0144
:100040000C94A31B0C94BE010C947E1D0C94CC1D2F
:100050000C94BE010C94BE010C94BE010C94BE0124
:100060000C94BE010C94BE0100C2010001001100FD
:1000700011000C0000E100000A002500250021000D
:10008000009600001900390039003600127A00008D
:100090001F004600460044008070000022004D0012
:1000A0004D004A00004B00003600750075007200DC
:1000B000403800004A009C009C0099008025000008
:1000C0007200EC00EC00E900C0120000E900DA0167
:1000D000DA01D70160090000D701B603B603B30304
:1000E000B0040000B3036E076E076B0758020000F0
:1000F0006E07DC0EDC0ED80E2C010000DC0EC11DDC
:10010000C11DBE1D0A0B0C0D0E0F11121314151676
:100110000001020304056B02710277027F0288026C
:1001200092029B02A202AA02B102B802BF0250418F
:1001300020506F77657209203D2025530D0A00433A
:100140005243204C656E67746809203D2025530D8D
:100150000A004D6F64656C0909203D2025530D0A86
:100160000044617461205261746509203D2025536B
:100170000D0A0044594E50442F46454154555245AE
:1001800000434F4E4649470052465F534554555031
:100190000052465F434800454E5F52584144445226
:1001A00000454E5F41410052585F50575F50302D1F
:1001B000360054585F414444520052585F41444411
:1001C000525F50322D350052585F414444525F50C7
:1001D000302D31000D0A00253032780020307800B3
:1001E0002553092563203D000D0A00203078253075
:1001F0003278002553092563203D004F4253455274
:1002000056455F54583D253032783A20504F4C5374
:100210005F434E543D2578204152435F434E543D49
:1002200025780D0A005354415455530909203D20A7
:100230003078253032782052585F44523D2578205E
:1002400054585F44533D2578204D41585F52543DEA
:1002500025782052585F505F4E4F3D2578205458E6
:100260005F46554C4C3D25780D0A00314D425053A8
:1002700000324D425053003235304B425053006EE5
:10028000524632344C3031006E524632344C3031AA
:100290002B0044697361626C656400382062697484
:1002A0007300313620626974730050415F4D494ECE
:1002B0000050415F4C4F57004C415F4D454400504A
:1002C000415F484947480000000000240027002AF9
:1002D0000000000000250028002B00000000002383
:1002E0000026002900040404040404040402020299
:1002F0000202020303030303030102040810204067
:1003000080010204081020010204081020000000EF
:1003100007000201000003040600000000000000C6
:100320000000B005410C381FA9053A0C11241FBE6E
:10033000CFEFD8E0DEBFCDBF12E0A0E0B1E0E6E352
:10034000FCE402C005900D92A23EB107D9F714E07B
:10035000A2EEB2E001C01D92AA3DB107E1F713E0A1
:10036000C8E2D3E004C02297FE010E94D325C23226
:10037000D107C9F70E948E1F0C940E260C94000022
:10038000FC0105900020E9F7809590958E0F9F1F46
:100390000895FB01DC0102C001900D9241505040D4
:1003A000D8F70895FB01DC0101900D920020E1F7E0
:1003B0000895FB019F01E8944230C4F04532B4F443
:1003C0004A3029F497FB1EF4909581959F4F642F36
:1003D00077270E94BD25805D8A330CF0895D81936B
:1003E000CB010097A1F716F45DE251931082C90189
:1003F0000C94AD04FB019F01423074F0453264F46B
:10040000642F77270E94BD25805D8A330CF0895DBB
:100410008193CB010097A1F71082C9010C94AD0420
:100420000F931F93CF93DF938C01EB01009731F46F
:100430006115710519F420E030E038C081E090E0EA
:100440006EE070E00E947404FC019C01009771F161
:1004500080E88383209771F0D387C28781E8838304
:100460008091D4049091D504892B21F4F093D50484
:10047000E093D40401151105C9F011870087838129
:10048000826083838091D6049091D704892B71F484
:10049000F093D704E093D6048091D8049091D904C6
:1004A000892B21F4F093D904E093D804C901DF919A
:1004B000CF911F910F910895A0E0B0E0E2E6F2E045
:1004C0000C94E725FE013596619171918091D604D7
:1004D0009091D704AF010E9497022096E2E00C941D
:1004E0000326A0E0B0E0E7E7F2E00C94E725FE0188
:1004F000359661917191A091D604B091D70413966D
:100500008C911397886013968C938091D604909168
:10051000D704AF010E949702E091D604F091D7046E
:100520002381277F23832096E2E00C940326ABE00F
:10053000B0E0EDE9F2E00C94D7253C012B015A0123
:10054000FC0117821682838181FD03C06FEF7FEF6C
:10055000C6C19AE0892E1E010894211C311CF301AA
:100560002381F20123FD859123FF81912F018823AF
:1005700009F4B2C1853239F423FD859123FF8191BD
:100580002F01853229F490E0B3010E94BD04E7CF2A
:10059000982FFF24EE249924FFE1FF15D0F09B3221
:1005A00069F09C3228F4903259F0933291F40EC0E5
:1005B0009D3249F0903369F441E024C052E0F52ABD
:1005C00084E0F82A28C098E0F92A25C0E0E1FE2A54
:1005D00022C0F7FC29C0892F80538A3070F4F6FEC0
:1005E00005C0989C902C1124980E15C0E89CE02C16
:1005F0001124E80EF0E2FF2A0EC09E3229F4F6FC28
:100600006BC140E4F42A07C09C3619F450E8F52A7F
:1006100002C0983649F4F20123FD959123FF919190
:100620002F01992309F0B8CF892F8554833018F012
:100630008052833038F444E050E0A40EB51E5FE3EE
:1006400059830FC0933631F0933779F0933509F021
:1006500056C020C0F5018081898342E050E0A40E9D
:10066000B51E610101E010E012C0F501C080D1802B
:10067000F6FC03C06FEF7FEF02C0692D70E042E02F
:1006800050E0A40EB51EC6010E94A2048C015FE7D3
:10069000F52214C0F501C080D180F6FC03C06FEFD5
:1006A0007FEF02C0692D70E042E050E0A40EB51E5D
:1006B000C6010E9490048C0150E8F52AF3FE07C0A1
:1006C0001AC080E290E0B3010E94BD04EA948E2D2E
:1006D00090E008171907A8F30EC0F601F7FC859102
:1006E000F7FE81916F0190E0B3010E94BD04E1101B
:1006F000EA94015010400115110579F7EAC09436CB
:1007000011F0993669F5F7FE08C0F50120813181B5
:100710004281538184E090E00AC0F501808191819B
:100720009C01442737FD4095542F82E090E0A80EAD
:10073000B91E9FE6F92257FF09C0509540953095A4
:1007400021953F4F4F4F5F4FE0E8FE2ACA01B901A4
:10075000A1012AE030E00E94E904D82ED21840C05E
:10076000953729F41F2D1F7E2AE030E01DC01F2D74
:10077000197F9F3661F0903720F4983509F0ACC0AE
:100780000FC0903739F0983709F0A6C004C028E0B0
:1007900030E00AC0106114FD146020E130E004C0B4
:1007A00014FD166020E132E017FF08C0F5016081FA
:1007B00071818281938144E050E008C0F50180811D
:1007C0009181BC0180E090E042E050E0A40EB51EB3
:1007D000A1010E94E904D82ED2188FE7F82EF12249
:1007E000F6FE0BC05EEFF522D91438F4F4FE07C014
:1007F000F2FC05C08FEEF82202C01D2D01C0192D9C
:10080000F4FE0DC0FE01ED0DF11D8081803319F461
:1008100099EEF92208C01F5FF2FE05C003C08F2DBC
:10082000867809F01F5F0F2DF3FC14C0F0FE0FC097
:100830001E1510F09D2C0BC09D2C9E0C911A1E2D88
:1008400006C080E290E0B3010E94BD041F5F1E1548
:10085000C0F304C01E1510F4E11A01C0EE2404FF19
:100860000FC080E390E0B3010E94BD0402FF1DC0F1
:1008700001FD03C088E790E00EC088E590E00BC062
:10088000802F867891F001FF02C08BE201C080E2E8
:10089000F7FC8DE290E0B3010E94BD0406C080E346
:1008A00090E0B3010E94BD049A94D914C0F3DA9485
:1008B000F101ED0DF11D808190E0B3010E94BD04B6
:1008C000DD20A9F706C080E290E0B3010E94BD04DC
:1008D000EA94EE20C1F743CEF30166817781CB0124
:1008E0002B96E2E10C94F3250F931F93CF93DF93A4
:1008F000689F8001699F100D789F100D1124C80119
:100900000E942C23EC01009729F060E070E0A80120
:100910000E949B04CE01DF91CF911F910F9108950A
:10092000FC010590615070400110D8F780959095BA
:100930008E0F9F1F0895DC0101C06D934150504000
:10094000E0F70895FC016150704001900110D8F764
:10095000809590958E0F9F1F0895DC01FC01672FF5
:1009600071917723E1F7329704C07C916D93708386
:100970006291AE17BF07C8F308950F931F93CF93EB
:10098000DF938C01EB018B8181FF1BC082FF0DC0C7
:100990002E813F818C819D812817390764F4E8817D
:1009A000F9810193F983E88306C0E885F985802FF2
:1009B0000995892B31F48E819F8101969F838E83C7
:1009C00002C00FEF1FEFC801DF91CF911F910F9170
:1009D0000895FA01AA27283051F1203181F1E894D5
:1009E0006F936E7F6E5F7F4F8F4F9F4FAF4FB1E022
:1009F0003ED0B4E03CD0670F781F891F9A1FA11D1D
:100A0000680F791F8A1F911DA11D6A0F711D811D1D
:100A1000911DA11D20D009F468943F912AE0269FE2
:100A200011243019305D3193DEF6CF010895462F41
:100A30004770405D4193B3E00FD0C9F7F6CF462F22
:100A40004F70405D4A3318F0495D31FD405241938B
:100A500002D0A9F7EACFB4E0A69597958795779548
:100A60006795BA95C9F700976105710508959B01CF
:100A7000AC010A2E06945795479537952795BA9558
:100A8000C9F7620F731F841F951FA01D0895882347
:100A900071F08091680082608093680080916C00A2
:100AA000816080936C0080916C0082600DC08091A9
:100AB00068008D7F8093680080916C008E7F8093AA
:100AC0006C0080916C008D7F80936C0008951F9264
:100AD0000F920FB60F9211242F933F934F935F9372
:100AE0006F937F938F939F93AF93BF93EF93FF93F6
:100AF00080E00E944705FF91EF91BF91AF919F91D8
:100B00008F917F916F915F914F913F912F910F90B6
:100B10000FBE0F901F9018958130910581F46F5F83
:100B20007F4FB1F482EE92E00E94F60985EE92E0EA
:100B300067E070E048E050E00E9481090895892B49
:100B400039F46F5F7F4F21F485EE92E00E945B12D3
:100B5000089580E090E06FEF7FEF0E948C0508958C
:100B600081E090E06FEF7FEF0E948C05089581E0B7
:100B70000E94470564E670E080E090E00E94F91B67
:100B800083B7817F846083BF83B7816083BF8DE03B
:100B900060E00E94D61C83B7816083BF889583B7CD
:100BA0008E7F83BF83B78E7F83BF8DE061E00E941D
:100BB000D61C0895813039F0813090F0823031F0C8
:100BC000833071F406C08AE061E00CC08AE060E026
:100BD00002C08AE061E00E94D61C8BE061E006C0A2
:100BE0008AE060E00E94D61C8BE060E00E94D61C88
:100BF0008CE060E00E94D61C08955F926F927F9215
:100C00008F929F92AF92BF92CF92DF92EF92FF921C
:100C10000F931F93CF93DF930E94EB1B3B0100E0E8
:100C200010E0DD2482E0582ECC24C39459C00E94E9
:100C3000EB1B4B015C018EE00E942A1D7C018FE0C2
:100C40000E942A1DEC01E114F10439F4009729F403
:100C50008EE060E00E94D61C11C0DD2009F43FC088
:100C6000DD24C130D10511F4DD24D39480E091E07E
:100C7000E916F10409F481E08D1519F4DD24D3940B
:100C80002EC08EEA94E060E071E00E943E2181E097
:100C9000E816F10469F4CD2B59F48EEA94E068E08B
:100CA00071E00E943E21F801E75FFC4FC0820EC058
:100CB000DD20A1F0EF2891F48EEA94E062E171E08A
:100CC0000E943E21F801E75FFC4F50820F5F1F4FEB
:100CD00068EC70E080E090E00E94F91BDD24B40134
:100CE000661977096051774224F4043011050CF439
:100CF0009ECF80E00430110509F481E0DF91CF91AF
:100D00001F910F91FF90EF90DF90CF90BF90AF9029
:100D10009F908F907F906F905F900895EF92FF92D9
:100D20001F93CF93DF930E94EB1B7B01EB0110E03D
:100D300010C085EE92E062EB72E00E942109182F4C
:100D40000E94EB1BEB0162E370E080E090E00E9408
:100D5000F91BCE19DF09C051D7421CF4112349F306
:100D600011E0812FDF91CF911F91FF90EF900895B7
:100D70001F93CF93DF9381E00E94DA058EEA94E01F
:100D80006CE171E00E943E210E948E06882309F4E6
:100D9000CBC0C2EBD2E08EEA94E0699140E150E032
:100DA0000E94992082E0C83BD807A9F783E00E94FF
:100DB000DA050E94FD05882309F4B6C08EEA94E0A6
:100DC00066E271E00E943E21C9E0D3E08EEA94E041
:100DD00069914AE050E00E94992093E0CD30D90714
:100DE000A9F78EEA94E060E20E94F21F8EEA94E096
:100DF00066E371E00E943E2106C062E370E080E09D
:100E000090E00E94F91B80910103909102030E94DF
:100E10004C0E882391F380910103909102030E946C
:100E2000F80BCDB7DEB72A970FB6F894DEBF0FBE2A
:100E3000CDBFEDB7FEB73196A3E4B1E0BA83A98385
:100E400022833383448355836683778380879187A6
:100E50000E945C028AE080930303EDB7FEB73A96E6
:100E60000FB6F894FEBF0FBEEDBF809101039091C5
:100E7000020363E073E00E942D0D809101039091C5
:100E8000020362EB72E00E942D0D809101039091AC
:100E9000020369E073E00E942D0D64E670E080E0DB
:100EA00090E00E94F91B809101039091020363E09E
:100EB00073E00E949C0F8823B9F180910103909107
:100EC00002030E94070EC3E0D3E011E060E070E08F
:100ED0008881883C11F461E070E08EEA94E04AE099
:100EE00050E00E941C21212F30E040E050E088813A
:100EF000883C11F441E050E02423352310E0232BFB
:100F000009F011E02196F3E0C930DF07F9F611236B
:100F100059F08EEA94E064E571E00E943E2182E09F
:100F20000E94DA0581E001C080E0DF91CF911F913E
:100F300008951F93CF93DF938EEA94E066E371E008
:100F40000E943E2106C062E370E080E090E00E94D3
:100F5000F91B80910103909102030E944C0E88239B
:100F600091F380910103909102030E94F80BCDB799
:100F7000DEB72A970FB6F894DEBF0FBECDBFEDB730
:100F8000FEB73196A6E6B1E0BA83A9832283338304
:100F90004483558366837783808791870E945C02B0
:100FA00084E180930303EDB7FEB73A960FB6F89449
:100FB000FEBF0FBEEDBF809101039091020363E07D
:100FC00073E00E942D0D809101039091020362EB6A
:100FD00072E00E942D0D64E670E080E090E00E94D7
:100FE000F91B809101039091020363E073E00E947A
:100FF0009C0F8823B9F180910103909102030E9414
:10100000070EC3E0D3E011E060E070E08881883C27
:1010100011F461E070E08EEA94E04AE050E00E9452
:101020001C21212F30E040E050E08881883C11F401
:1010300041E050E02423352310E0232B09F011E098
:101040002196F3E0C930DF07F9F6112359F08EEA53
:1010500094E066E771E00E943E2182E00E94DA059A
:1010600081E001C080E0DF91CF911F9108958091D0
:101070000103909102030E94070E8091B802813013
:1010800021F0833009F041C01DC00E94B8068823BA
:10109000A1F083E08093B80282EE92E066E470E013
:1010A0000E944C0A68E873E180E090E00E94F91B1E
:1010B0008EEA94E066E871E016C08EEA94E068E992
:1010C00071E018C00E949907882381F081E0809325
:1010D000B80282EE92E060EA70E00E944C0A8EEA6A
:1010E00094E06AEA71E00E943E210FC08EEA94E02B
:1010F0006AEB71E00E943E2181E00E94DA0568E817
:1011000073E180E090E00E94F91B809101039091CF
:1011100002030E94DB0E80E00E94DA050E94B70500
:10112000089582E199E060E070E00E941002089565
:10113000DF92EF92FF920F931F938EEA94E040E0CC
:1011400051EE60E070E00E94071E0E94910883E06B
:1011500085BF8AE061E00E94971C8BE061E00E94FD
:10116000971C8CE061E00E94971C8EE060E00E947A
:10117000971C8FE060E00E94971C02EE12E0C8010D
:1011800069E070E00E94330BC80160EA70E00E94E1
:101190004C0A8DE061E00E94971C8DE061E00E94A6
:1011A000D61C00D08AEC91E0EDB7FEB79283818324
:1011B0000E945C020F900F9081E090E00E949D1FC2
:1011C000F82ED92E0091AA021091AB022091AC0208
:1011D0003091AD024091AE025091AF026091B002E9
:1011E0007091B102EE240E94FC0FF0920103D092A4
:1011F000020300D000D082ED91E0EDB7FEB79283FC
:10120000818382E090E0948383830E945C027894DF
:101210000F900F900F900F901F910F91FF90EF90F4
:10122000DF9008950F931F93082F112707FD109546
:101230008EEA94E0602F0E94F81EC8011F910F9162
:101240000895DF92EF92FF920F931F93CF93DF9356
:10125000F82E092FEB010E948512181619060CF0C2
:1012600046C08F2D902F0E946412823009F03FC03B
:10127000DD24EE2410E08F2D902F0E948512181689
:101280001906CCF78F2D902F0E946412282F8D30D5
:1012900071F18A3061F1833051F1823041F1805334
:1012A0008A3010F4282F05C0822F8154863008F42C
:1012B0002753812F90E010FD02C0D22E0DC09595CE
:1012C00087953D2D3295307F322BFE01E80FF91FB7
:1012D0003083059709F0E3261F5F1C3060F21C3055
:1012E00031F490E08D818E1519F491E001C090E009
:1012F000892FDF91CF911F910F91FF90EF90DF9099
:101300000895CF92DF92EF92FF920F931F93DF9396
:10131000CF93CDB7DEB76C970FB6F894DEBF0FBE94
:10132000CDBF8C01F62EE42E20E00E94D4136E0176
:101330000894C11CD11CC6016F2D4E2D20E00E94C7
:10134000D4138B819C81F801938382838D819E814C
:10135000AF81B88584839583A683B78389859A8571
:10136000AB85BC8580879187A287B3878D8584876D
:101370008E8585878F859889978786878989808BD1
:101380008A899B89928B818B8C899D89948B838B95
:101390008E899F89968B858B888D998D908F878B71
:1013A0008A8D9B8D928F818F9C8D838D8C7F292F31
:1013B00022709170892B822B838FC6010E945B1251
:1013C000C80140E855E260E070E00E9469116C9647
:1013D0000FB6F894DEBF0FBECDBFCF91DF911F9146
:1013E0000F91FF90EF90DF90CF900895FC018091D6
:1013F0000F038C3090F480838F5F80930F038150B4
:1014000090E0FC01EE0FFF1FE80FF91FE05FFC4FBB
:1014100088EB9BE09283818308958FEF808308950A
:10142000FC0120812C30B8F58181992787FD9095AA
:1014300048E850E0481B590B440F551F440F551FF7
:101440006417750784F08281992787FD909548E598
:1014500052E0481B590B440F551F440F551F64178A
:1014600075070CF4AB0142505040CA01AA2797FD02
:10147000A095BA2F880F991FAA1FBB1F4FB7F894CA
:1014800030E0F901EE0FFF1FE20FF31FE05FFC4FAA
:10149000928381834FBF0895AF92BF92CF92DF9224
:1014A000EF92FF920F931F93CF93DF93EC019B0179
:1014B00082E0603278070CF048C077FF03C020E07C
:1014C00030E005C0653B710514F024EB30E000D03E
:1014D00000D0B901882777FD8095982F298133277F
:1014E00027FD3095E8E8AE2EB12CA21AB30AAA0C5B
:1014F000BB1CAA0CBB1CCC24B7FCC094DC2CEA811E
:10150000FF27E7FDF09528E532E02E1B3F0B220F69
:10151000331F220F331F442737FD4095542FEDB75B
:10152000FEB7218332834383548320E030E040E0E0
:1015300050E004EBE02EF12C012D112D0E9498219A
:101540009B010F900F900F900F90CE01B9010E9458
:10155000100ADF91CF911F910F91FF90EF90DF90D4
:10156000CF90BF90AF900895CF92DF92EF92FF920D
:101570001F93CF93DF93EC01162F7A0169018881C5
:101580008C3008F064C0862F61E00E94971C88812F
:1015900090E0FC01EE0FFF1FE80FF91FE05FFC4F2A
:1015A0001F738081807C812B808380E292E08E1982
:1015B0009F0964E070E00E946D25698380E699E0F0
:1015C0008C199D0964E070E00E946D256A83A881F2
:1015D0008A2F6CE00E946125682F70E0AB01440FF8
:1015E000551F460F571F440F551F440F551F20E02E
:1015F00030E0C901840F951FFC01EE0FFF1FE80FBB
:10160000F91FE05FFC4F808186FD15C02F5F3F4FC3
:101610002C30310571F724C01092800082E0809355
:1016200081001092850010928400B19A80916F0021
:10163000826080936F008A2F90E0FC01EE0FFF1F05
:10164000E80FF91FE05FFC4F808180648083888110
:10165000DF91CF911F91FF90EF90DF90CF90089591
:10166000672BD1F2E8CF40E252E020E639E00E9459
:10167000B40A08951F920F920FB60F9211242F9360
:101680003F934F935F936F937F938F939F93AF930A
:10169000BF93EF93FF938091340387FF05C01092AF
:1016A0008500109284002BC020913403332727FD3E
:1016B000309580910F0390E02817390704F5809149
:1016C0003403992787FD9095FC01EE0FFF1FE80F6B
:1016D000F91FE05FFC4F808186FF11C080913403C9
:1016E000992787FD9095FC01EE0FFF1FE80FF91F6A
:1016F000E05FFC4F80818F7360E00E94D61C809178
:1017000034038F5F8093340320913403332727FD04
:10171000309580910F0390E0281739070CF04EC0E8
:10172000809134038C300CF049C0209184003091BA
:10173000850080913403992787FD9095FC01EE0F79
:10174000FF1FE80FF91FE05FFC4F81819281280F96
:10175000391F3093890020938800809134039927A2
:1017600087FD9095FC01EE0FFF1FE80FF91FE05F6A
:10177000FC4F808186FF2BC080913403992787FD21
:101780009095FC01EE0FFF1FE80FF91FE05FFC4F83
:1017900080818F7361E00E94D61C19C080E49CE9AF
:1017A00005C08091840090918500049690938900F3
:1017B000809388008FEF8093340309C08091840068
:1017C00090918500049680549C4940F3EACFFF91A4
:1017D000EF91BF91AF919F918F917F916F915F91A9
:1017E0004F913F912F910F900FBE0F901F90189522
:1017F0002091A9033091AA034091AB035091AC030F
:101800006091AD037091AE038091AF039091B003EE
:10181000089581309105E1F46F5F7F4F51F589E8BC
:1018200093E069E04AE00E94021480EC93E06CEDE2
:1018300071E00E94902287EC93E061EF71E00E94DA
:1018400090228EEC93E064E072E00E949022089572
:10185000892B79F46F5F7F4F61F48EEC93E00E94E7
:10186000262387EC93E00E94262380EC93E00E94DD
:101870002623089580E090E06FEF7FEF0E94090C2F
:10188000089581E090E06FEF7FEF0E94090C0895CA
:10189000AF92BF92CF92DF92EF92FF920F931F937E
:1018A000DF93CF93CDB7DEB766970FB6F894DEBF60
:1018B0000FBECDBF89E893E00E941916882309F472
:1018C000AAC08091BB02853609F589E893E0BE0184
:1018D000615F7F4F48E00E94D7178F8598892989DB
:1018E0003A894B895C896D897E898093A90390939D
:1018F000AA032093AB033093AC034093AD03509302
:10190000AE036093AF037093B00385C0833709F0D3
:1019100082C089E893E069E973E04091B9020E94CE
:10192000D71780919903E82EFF248FEFE816F10472
:1019300009F44AC08091BC039091BD030196909335
:10194000BD038093BC033AE9C32E33E0D32E870155
:1019500023E0000F111F2A95E1F70E191F09015A04
:101960001C4F5E010894A11CB11CF60161916F012E
:10197000F80161938F01C5014AE00E94F42287ECCF
:1019800093E0B5010E945522C5010E942623F1EA89
:10199000CF16F3E0DF0649F78E01085F1F4FC8013D
:1019A000B7014AE00E94C32280EC93E0B8010E9494
:1019B0005522C8010E94262386EB93E0E80EF91E0B
:1019C00081E0F701808327C08091BE039091BF031F
:1019D00001969093BF038093BE0310919A0389E808
:1019E00093E00E94E2141093990387E0189FD001BE
:1019F0001124AB5CBC4FEAE9F3E08D91819383E065
:101A0000E13AF807D1F7389789E893E0BF014091B0
:101A1000B9020E943E1989E893E00E942218669656
:101A20000FB6F894DEBF0FBECDBFCF91DF911F91EF
:101A30000F91FF90EF90DF90CF90BF90AF900895FF
:101A40006093BB0289E893E00E941E1664E670E092
:101A500080E090E00E94F91B0895CF92DF92EF9210
:101A6000FF920F931F93DF93CF93CDB7DEB72797E6
:101A70000FB6F894DEBF0FBECDBF162F072F89E833
:101A800093E00E94E2148091B20380939903212F86
:101A9000302FC9017C0100E010E06E010894C11CE8
:101AA000D11C8091B2039091B303FC0143E0EE0F8F
:101AB000FF1F4A95E1F7E81BF90BE00FF11FEB5C04
:101AC000FC4FD7018C9180830F5F1F4FF70161910D
:101AD0007F01F801E756FC4F6083C6014AE00E948F
:101AE000F4228EEC93E0B6010E945522C6010E94BA
:101AF000262307301105A9F68091B2039091B30314
:101B000001969093B3038093B20389E893E069E967
:101B100073E04091B9020E943E1964E670E080E0F3
:101B200090E00E94F91B27960FB6F894DEBF0FBE17
:101B3000CDBFCF91DF911F910F91FF90EF90DF907C
:101B4000CF900895CF93DF938EEA94E063E172E043
:101B50000E943B21C0E0D0E0FE01EA54FC4F6081CE
:101B60008EEA94E070E04AE050E00E9409218EEA9B
:101B700094E060E20E94CA1F2196C630D10561F749
:101B80008EEA94E060E20E94F21FDF91CF91089507
:101B9000CF93DF938EEA94E06DE172E00E943B21E7
:101BA000C5E3D3E08EEA94E069914AE050E00E94F8
:101BB00099208EEA94E060E20E94CA1F83E0CF354C
:101BC000D80781F78EEA94E060E20E94F21F8EEA65
:101BD00094E068E272E00E943B21CFE5D3E08EEA18
:101BE00094E069914AE050E00E9499208EEA94E0E6
:101BF00060E20E94CA1F83E0C938D80781F78EEAE5
:101C000094E060E20E94F21FDF91CF910895EF927D
:101C1000FF920F931F937C0189E893E00E943C1A86
:101C20000EEA14E0C80163E372E00E943B21609178
:101C3000BC037091BD03C8014AE050E00E941C2122
:101C4000C8016CE472E00E943B216091BE03709178
:101C5000BF03C8014AE050E00E941C21C7010E9456
:101C6000C80D0E94A20DC80160EC73E00E9484219F
:101C7000C80167EC73E00E948421C8016EEC73E038
:101C80000E948421C80164E772E00E943E211F91F6
:101C90000F91FF90EF900895EF92FF920F931F9393
:101CA000CF93DF93EC018091BB02833709F45BC0D3
:101CB0008091A9039091AA032091AB033091AC03CA
:101CC0004091AD035091AE036091AF037091B003AA
:101CD000892B822B832B842B852B862B872B09F436
:101CE00044C00091A9031091AA032091AB03309145
:101CF000AC034091AD035091AE036091AF0370917E
:101D0000B00389E893E00E9453168091B1038823C1
:101D100009F589E893E00E94E21489E893E061EA1A
:101D200073E04091B9020E943E19E090A103F09047
:101D3000A2030091A3031091A4032091A503309165
:101D4000A6034091A7035091A80389E893E061E0BE
:101D50000E945817CE0163E770E00E94200D89E8C9
:101D600093E00E94221881E01FC0CE0165E670E07A
:101D70000E94200D8091B103882359F089E893E0F7
:101D80000E94E21489E893E061EA73E048E00E946F
:101D90003E1989E893E00E94221862E370E080E037
:101DA00090E00E94F91B80E0DF91CF911F910F918D
:101DB000FF90EF900895EF92FF920F931F9320E012
:101DC00030E0F901EB5CFC4F1082F901E15AFC4F65
:101DD00010822F5F3F4F2A32310599F71092B603D8
:101DE0001092B7031092B8031092B9031092BA037D
:101DF0001092BB0365E670E00E94200D89E893E035
:101E00000E9422188091B103882399F00091A103C8
:101E10001091A2032091A3033091A4034091A50344
:101E20005091A6036091A7037091A80389E893E0FD
:101E30000AC089E893E000E010E020E030E040E0F4
:101E400050E060E070E00E94531689E893E061E0A2
:101E5000EE24FF2400E010E020E030E040E050E01D
:101E60000E9458171092A9031092AA031092AB0374
:101E70001092AC031092AD031092AE031092AF0318
:101E80001092B0031092B3031092B2031092B503F4
:101E90001092B4031092BD031092BC031092BF03C2
:101EA0001092BE0380EC93E06CED71E00E94AA22D8
:101EB00087EC93E061EF71E00E94AA228EEC93E040
:101EC00064E072E00E94AA221F910F91FF90EF90B0
:101ED0000895FF920F931F93F62E0EEA14E0C801A7
:101EE0006FE872E00E943B21C8016F2D4AE050E08C
:101EF0000E94AB2009E813E0C8010E94E2148FEFB2
:101F000080939903F0929A0310929B0310929C0382
:101F100010929D0310929E0310929F03C80169E9DD
:101F200073E04091B9020E943E19C8010E94221834
:101F30001F910F91FF900895CF92DF92EF92FF9241
:101F40000F931F93CF93DF937C016B010E94EB1BD8
:101F50008B01EB01A091B403B091B503FD01EA54EC
:101F6000FC4F80818823A1F4C01BD10BC05DD740FA
:101F70007CF40E94EB1BEB01C7016091B4030E944B
:101F8000690F64E670E080E090E00E94F91BE2CF08
:101F9000AA54BC4F8C91882331F120E030E0D60167
:101FA000A20FB31F8091B4039091B503FC0153E0DD
:101FB000EE0FFF1F5A95E1F7E81BF90BE20FF31F35
:101FC000E15AFC4F80818C932F5F3F4F27303105C2
:101FD00031F78091B4039091B50301969093B503C6
:101FE0008093B40381E0DF91CF911F910F91FF9017
:101FF000EF90DF90CF9008959F92AF92BF92CF92D3
:10200000DF92EF92FF920F931F93CF93DF93EC0138
:10201000F22ED32EC42EB52EA62E972E89E893E04D
:102020000E94C21880E090E0FC01EB5CFC4F108243
:10203000FC01E15AFC4F108201968A329105A1F70A
:102040001092B6031092B7031092B8031092B9031E
:102050001092BA031092BB030093A1031093A20342
:10206000F092A303D092A403C092A503B092A6035A
:10207000A092A7039092A80389E893E063E070E040
:102080000E94321789E893E061E070E00E94BF1679
:1020900089E893E060E00E94AB1589E893E06FE087
:1020A0004FE00E94A11589E893E068E00E941514B2
:1020B00089E893E062E070E00E94EB16CE0165E6ED
:1020C00070E00E94200D89E893E00E94221880E0D1
:1020D00068E47CE042E050E00E94261BE092B103FD
:1020E000EE20A1F0E090A103F090A2030091A303E1
:1020F0001091A4032091A5033091A6034091A7035A
:102100005091A80389E893E061E00BC089E893E06F
:1021100061E0EE24FF2400E010E020E030E040E049
:1021200050E00E94581789E893E000E010E020E0BA
:1021300030E040E050E060E070E00E945316DF9134
:10214000CF911F910F91FF90EF90DF90CF90BF90B4
:10215000AF909F9008950F931F93CF93DF93FC014F
:10216000738D76957170A685B7859585772329F04F
:102170008C91892309F454C004C08C91892309F0FF
:102180004FC08389948920E001972FEF8F3F9207FA
:10219000D9F7C589D689A685B785158560E031E070
:1021A00040E050E000E0CE01202F01972FEF8F3F5D
:1021B0009207D9F78C91812311F0632B03C0832FF1
:1021C00080956823330F4F5F5F4F4830510559F7B3
:1021D0008789908D20E001972FEF8F3F9207D9F7E5
:1021E00071116095809117042091180490E0019678
:1021F0008F73907030E08217930779F0E0911704A5
:10220000F0E0E952FC4F60838091170490E0019662
:102210008F7390708093170403C0838D8160838FC8
:10222000DF91CF911F910F9108951F920F920FB6DA
:102230000F9211242F933F934F935F936F937F934C
:102240008F939F93AF93BF93EF93FF938091D503A9
:102250009091D603009711F00E94AB10FF91EF917F
:10226000BF91AF919F918F917F916F915F914F91AE
:102270003F912F910F900FBE0F901F9018951F92B6
:102280000F920FB60F9211242F933F934F935F93AA
:102290006F937F938F939F93AF93BF93EF93FF932E
:1022A0008091D5039091D603009711F00E94AB1056
:1022B000FF91EF91BF91AF919F918F917F916F911E
:1022C0005F914F913F912F910F900FBE0F901F90F4
:1022D0001895CF92DF92EF92FF920F931F93CF93B7
:1022E000DF93EC017A018B011A8E198E188E1F8AEA
:1022F0001E8A1D8A1C8A1B8A20E030E06901CC0CF2
:10230000DD1CC20ED31EB601660F771F660F771F46
:10231000AB0148595F4FFA0185919591A591B49110
:102320008E159F05A007B107E9F4FB01E459FF4FA3
:10233000859194919C8B8B8BFB01E259FF4F85918A
:1023400094919E8B8D8BFB01E059FF4F8591949169
:10235000988F8F8BFB01EE58FF4F859194919A8F48
:10236000898F06C02F5F3F4F2D30310509F0C6CF52
:102370008F89988D892B09F449C04C85463108F026
:102380003DC090916800483010F484E005C04E30A4
:1023900010F082E001C081E0892B80936800483012
:1023A00028F4EDE6F0E0ADE6B0E00BC04E3028F0EA
:1023B000ECE6F0E0ACE6B0E004C0EBE6F0E0ABE663
:1023C000B0E05081483040F481E090E002C0880FD6
:1023D000991F4A95E2F710C0242F30E04E3018F4D0
:1023E0002850304002C02E50304081E090E002C0C2
:1023F000880F991F2A95E2F7852B8C93898D9A8DEA
:1024000020E001972FEF8F3F9207D9F78091D503F6
:102410009091D6038C179D0781F08B8D8E7F8B8FCB
:102420009FB7F894109217048091170480931804B2
:10243000D093D603C093D5039FBFDF91CF911F9157
:102440000F91FF90EF90DF90CF900895FC014485AD
:10245000463180F5483028F4EDE6F0E0ADE6B0E036
:102460000BC04E3028F4EBE6F0E0ABE6B0E004C081
:10247000ECE6F0E0ACE6B0E05081483040F481E0BA
:1024800090E002C0880F991F4A95E2F710C0242FF0
:1024900030E04E3018F42850304002C02E5030400A
:1024A00081E090E002C0880F991F2A95E2F780959D
:1024B00085238C930895FC0186EC92E091838083C0
:1024C000CF010E94261208952091D5033091D603A2
:1024D0002817390731F49091180480911704981740
:1024E00019F42FEF3FEF0FC0E0911804F0E0E9522C
:1024F000FC4F20818091180490E001968F739070BA
:102500008093180430E0C90108952091D5033091DB
:10251000D6032817390719F020E030E00EC080916B
:1025200017042091180490E0805C9F4F821B910952
:1025300060E470E00E946D259C01C90108950F932D
:102540001F93DC0159968D919C915A97892B49F4E0
:1025500081E090E013969C938E93129720E030E0F8
:1025600097C00FB7F8945B968C915B975196ED915D
:10257000FC91529750962C91509781FF8DC080818D
:10258000822B808359968D919C915A97059620E0D5
:1025900001972FEF8F3F9207D9F75B968C915B974E
:1025A00081FF35C031E040E050E070E010E0832F63
:1025B00090E0862397235196ED91FC915297509687
:1025C0002C915097892B29F08081209528232083F6
:1025D00003C08081822B808359968D919C915A975C
:1025E000212F01972FEF8F3F9207D9F7330F4F5FBE
:1025F0005F4F48305105D9F65196ED91FC915297B5
:10260000908150968C9150978095892333C031E00A
:1026100040E050E070E010E0832F90E086239723A5
:102620005196ED91FC91529750962C915097892B91
:1026300021F08081822B808304C080812095282313
:10264000208359968D919C915A97212F01972FEFB6
:102650008F3F9207D9F7330F4F5F5F4F48305105D7
:10266000D9F65196ED91FC915297808150969C91AC
:102670005097892B80830FBF59968D919C915A97C3
:1026800020E001972FEF8F3F9207D9F721E030E04C
:10269000C9011F910F9108958081209528232083DF
:1026A00071CF2091D5033091D6032817390749F40B
:1026B0009FB7F89410921704809117048093180420
:1026C0009FBF08952091D5033091D603281739076D
:1026D00031F49091180480911704981719F42FEF92
:1026E0003FEF0AC0E0911804F0E0E952FC4F80810E
:1026F000282F332727FD3095C90108951F93CF93C5
:10270000DF93EC01162F862F60E00E94971C8B8DC3
:1027100081FD04C0812F61E00E94D61C1C87212FFF
:1027200030E0C90187509D4FFC0184918D872B516A
:102730003D4FF9016491E62FF0E0EE0FFF1FE552E7
:10274000FD4F859194919F878E87DF91CF911F9147
:102750000895FF920F931F938C01F62E862F61E050
:102760000E94971C8F2D61E00E94D61C8F2D90E057
:10277000FC01E750FD4FE491D8015096EC9350973F
:102780008B519D4FFC016491E62FF0E0EE0FFF1F8F
:10279000EF52FD4F8591949152969C938E93519751
:1027A0001F910F91FF900895FF920F931F938C013B
:1027B000F62EFC011382128288EE93E0A0E0B0E0D6
:1027C00084839583A683B78386EC92E0918380838C
:1027D000148A138A168A158A108E178A128E118E01
:1027E000838D2170220F8C7F822B838FC801642FF1
:1027F0000E94A913C8016F2D0E947E131F910F9193
:10280000FF900895FC016083418381E082831382FD
:1028100080E28483158216821086118612861386C2
:1028200014861586168617860895FC01613208F015
:1028300060E26483089570E08DB79EB70E970FB67F
:10284000F8949EBF0FBE8DBFEDB7FEB7319685E2FF
:1028500092E0ADB7BEB712969C938E931197738397
:102860006283CB0156E0969587955A95E1F7817082
:10287000907095838483CB0145E0969587954A9522
:10288000E1F78170907097838683CB0134E0969551
:1028900087953A95E1F78170907091878087CB0199
:1028A0009595879587709070938782876170707017
:1028B000758764870E9471028DB79EB70E960FB61A
:1028C000F8949EBF0FBE8DBF0895FF920F931F9384
:1028D0008C01F62E81E00E94F01A80E00E94F91A25
:1028E00080E00E94FE1AF80181816F2D0E94D61CA3
:1028F0001F910F91FF9008951F93CF93DF93EC01E9
:1029000060E070E00E94651480E68EBD0DB407FEA5
:10291000FDCF8EB58FEF8EBD0DB407FEFDCF1EB57A
:10292000CE0161E070E00E946514812FDF91CF91AC
:102930001F9108951F93CF93DF93EC0160E070E047
:102940000E9465148FEF8EBD0DB407FEFDCF1EB53E
:10295000CE0161E070E00E946514812FDF91CF917C
:102960001F9108951F93CF93DF93EC0160E070E017
:102970000E94651481EE8EBD0DB407FEFDCF1EB51D
:10298000CE0161E070E00E946514812FDF91CF914C
:102990001F9108951F93CF93DF93EC0160E070E0E7
:1029A0000E94651482EE8EBD0DB407FEFDCF1EB5EC
:1029B000CE0161E070E00E946514812FDF91CF911C
:1029C0001F9108950F931F938C01FC01808160E09B
:1029D0000E94D61CC8010E94B214C8010E94CA14E9
:1029E0001F910F910895EF92FF920F931F93CF9332
:1029F000DF93EC01F62EE72E9C81142F941708F438
:102A0000192F8E81882311F000E002C0092F011BCD
:102A1000CE0160E070E00E94651481E68EBD0DB4C9
:102A200007FEFDCF8F2D9E2D9C01F901FEB49FEF77
:102A300007C09EBD0DB407FEFDCF8EB5819311502A
:102A40001123B9F707C08EBD0DB407FEFDCF9EB5AB
:102A5000015001C08FEF0023B1F7CE0161E070E0BB
:102A60000E9465148F2DDF91CF911F910F91FF90E0
:102A7000EF900895EF92FF920F931F93CF93DF9300
:102A8000EC01F62EE72E9C81142F941708F4192FD1
:102A90008E81882311F000E002C0092F011BCE01B6
:102AA00060E070E00E94651480EA8EBD0DB407FE00
:102AB000FDCF8F2D9E2D9C01F901FEB408C08081B1
:102AC0008EBD0DB407FEFDCF31968EB5115011238A
:102AD000B1F706C01EBC0DB407FEFDCF8EB5015088
:102AE0000023C1F7CE0161E070E00E9465148F2DD4
:102AF000DF91CF911F910F91FF90EF9008950F9369
:102B00001F93CF93DF93EC01162F042F60E070E04A
:102B10000E9465141F7110621EBD0DB407FEFDCF2B
:102B20001EB50EBD0DB407FEFDCF8EB5CE0161E022
:102B300070E00E946514812FDF91CF911F910F915A
:102B40000895262F4F702295207F242B64E0422F7A
:102B50000E947F150895662319F061E04FE302C0DB
:102B600061E040E00E947F150895CF92DF92EF92DE
:102B7000FF920F931F938B017A01690167E040E791
:102B80000E947F1590E09C01E5E036952795EA9537
:102B9000E1F72170F801208374E0969587957A9586
:102BA000E1F7282F2170F701208396958795969558
:102BB00087958170F60180831F910F91FF90EF90B0
:102BC000DF90CF900895DF92EF92FF920F931F93C3
:102BD000CF93DF938C017B010E949A14C82FD0E021
:102BE000CE01A6E096958795AA95E1F7DD24D394CA
:102BF000D82280FF15C0E114F10431F0CE01959583
:102C000087958770F7018083C80167E040E40E94E0
:102C10007F15C5FF05C0C80167E040E20E947F152F
:102C20008D2DDF91CF911F910F91FF90EF90DF904D
:102C3000089560E070E00E94E3150895462F603823
:102C400008F04FE765E00E947F150895EF92FF922C
:102C50000F931F93CF93DF937C01162FEA01022F6E
:102C600060E070E00E9465141F7110621EBD0DB41B
:102C700007FEFDCF1EB508C088818EBD0DB407FECE
:102C8000FDCF21968EB501500023B1F7C70161E059
:102C900070E00E946514812FDF91CF911F910F91F9
:102CA000FF90EF900895EF92FF920F931F93DF93A1
:102CB000CF93CDB7DEB728970FB6F894DEBF0FBE1F
:102CC000CDBF7C0109831A832B833C834D835E83B4
:102CD0006F8378878E010F5F1F4F6AE0A80125E0A0
:102CE0000E942616C70160E1A80125E00E94261671
:102CF000F7014481413208F040E2C70161E10E94DE
:102D00007F1528960FB6F894DEBF0FBECDBFCF91CA
:102D1000DF911F910F91FF90EF9008951F93CF9334
:102D2000DF93EC01162F60E070E00E9465141F71C4
:102D30001EBD0DB407FEFDCF8EB58FEF8EBD0DB459
:102D400007FEFDCF1EB5CE0161E070E00E94651464
:102D5000812FDF91CF911F91089560E00E948E1620
:102D60008C7083FD03C020E030E007C082FD03C00B
:102D700021E030E002C022E030E0C90108950F9365
:102D80001F93CF93DF938C01EB0160E00E948E16BE
:102D9000482F437F209729F0219711F4486001C004
:102DA0004C60C80160E00E947F15DF91CF911F91B8
:102DB0000F91089566E00E948E168872803219F491
:102DC00022E030E006C020E030E0883011F421E05D
:102DD00030E0C9010895FF920F931F93CF93DF93C3
:102DE000EC018B0166E00E948E161A82B7EDFB2E75
:102DF000F8220230110511F480E206C001301105FD
:102E000029F481E08A8388E0F82A01C01A82CE0181
:102E100066E04F2D0E947F15CE0166E00E948E165F
:102E20008F1511F481E002C01A8280E0DF91CF910A
:102E30001F910F91FF90089566E00E948E16867094
:102E4000863019F423E030E00BC0843019F422E01E
:102E500030E006C020E030E0823011F421E030E0C4
:102E6000C90108950F931F93CF93DF938C01EB015A
:102E700066E00E948E16482F497FC330D10571F05D
:102E8000C230D10511F444600AC0C130D10511F43B
:102E9000426005C0209719F0249709F44660C801E4
:102EA00066E00E947F15DF91CF911F910F910895E9
:102EB000BF92CF92DF92EF92FF920F931F93DF9317
:102EC000CF93CDB7DEB728970FB6F894DEBF0FBE0D
:102ED000CDBF6C01B62EE982FA820B831C832D8351
:102EE0003E834F835887662389F4F601E0868A8102
:102EF00081878B8182878C8183878D8184878E8176
:102F000085878F8186878885878707C0F6E0F617D3
:102F100008F43DC081E0681761F4EB2DF0E0EC5F50
:102F2000FE4FE491C6016E2FAE014F5F5F4F25E06B
:102F30000BC0E62FF0E0EC5FFE4FE491C6016E2F70
:102F4000AE014F5F5F4F21E00E9426160B2D10E06F
:102F5000F801E65FFE4FE491C6016E2FF601448151
:102F60000E947F15C60162E00E948E16005F1E4F10
:102F7000F801649121E030E002C0220F331F6A950E
:102F8000E2F7482F422BC60162E00E947F15289687
:102F90000FB6F894DEBF0FBECDBFCF91DF911F916A
:102FA0000F91FF90EF90DF90CF90BF9008950F9317
:102FB0001F938C010E94F314C80167E10E948E16D2
:102FC00081701F910F910895DF92EF92FF920F93FE
:102FD0001F938C017B01D42E60E00E948E16482F37
:102FE0004C7F4260C80160E00E947F1586E990E056
:102FF0000E94521CC801B7014D2D0E943A15F801DC
:10300000808161E00E94D61C8FE090E00E94521CFB
:10301000F801808160E00E94D61C1F910F91FF9003
:10302000EF90DF9008950F931F938C0160E00E9452
:103030008E16482F4D7FC80160E00E947F151F91BA
:103040000F910895CF93DF93EC0160E00E948E16FC
:10305000482F4360CE0160E00E947F15CE0167E0FB
:1030600040E70E947F1588859985892B9A85892B51
:103070009B85892B9C85892B9D85892B9E85892BFA
:103080009F85892B41F0AE01485F5F4FCE016AE01A
:1030900025E00E942616CE010E94CA14CE010E948D
:1030A000B214888161E00E94D61C82E890E00E9400
:1030B000521CDF91CF910895CF92DF92FF920F9330
:1030C0001F93CF93DF936C01EB01042FF22ECB0102
:1030D0000E94C001089710F020E001C029E000D054
:1030E00000D000D0EDB7FEB7319683EF91E0ADB7D9
:1030F000BEB712969C938E931197D383C283822F6F
:10310000992787FD9095958384830E947102EDB77E
:10311000FEB736960FB6F894FEBF0FBEEDBFCBEEEE
:10312000D1E01BC0102F1F5FC601602F0E948E16BA
:1031300000D000D0EDB7FEB73196ADB7BEB712964E
:10314000DC93CE931197828313820E947102FA94CA
:10315000012F0F900F900F900F90FF2019F700D0C4
:1031600088EE91E0EDB7FEB7928381830E947102F1
:103170000F900F90DF91CF911F910F91FF90DF90F3
:10318000CF900895CF93DF93EC01888161E00E9496
:10319000971C898161E00E94971C0E940F1B888107
:1031A00060E00E94D61CCE0161E070E00E946514D0
:1031B00065E070E080E090E00E94F91BCE0164E0E1
:1031C0004FE40E947F15CE0163E070E00E94321749
:1031D000CE0162E070E00E94EB16882311F081E0DE
:1031E0008B83CE0160E070E00E94EB16CE0162E0BE
:1031F00070E00E94BF16CE016CE140E00E947F1596
:10320000CE0167E040E70E947F15CE016CE40E948A
:103210001E16CE010E94CA14CE010E94B214DF9184
:10322000CF910895EF92FF920F931F93CF93DF9367
:103230007C01162FEA01022F60E070E00E94651405
:103240001F711EBD0DB407FEFDCF1EB59FEF07C059
:103250009EBD0DB407FEFDCF8EB5899301500023AE
:10326000B9F7C70161E070E00E946514812FDF911A
:10327000CF911F910F91FF90EF900895AF92BF9261
:10328000CF92DF92EF92FF920F931F93DF93CF9332
:1032900000D00F92CDB7DEB78C010E94E4170E94D8
:1032A000EB1B6B017C015E010894A11CB11CC801E1
:1032B00068E0A50121E00E941219807331F50E9497
:1032C000EB1B6C197D098E099F09645F714080407A
:1032D0009040D8F4ECCFC8010E947C14F801878399
:1032E000C8010E941318C8010E94B2148F2D0F90BC
:1032F0000F900F90CF91DF911F910F91FF90EF9062
:10330000DF90CF90BF90AF90089598012B5F3F4F13
:10331000C801BE016E5F7F4FAE014D5F5F4F0E94DF
:10332000B515FA80F80185818823D1F2D4CF4F9268
:103330005F926F927F928F929F92AF92BF92CF9245
:10334000DF92EF92FF920F931F93DF93CF9300D002
:1033500000D00F92CDB7DEB76C018B01E42EF22EB8
:10336000CB010E94C001089710F020E001C029E0C5
:1033700000D000D000D0EDB7FEB7319680EE91E0DE
:10338000ADB7BEB712969C938E93119713830283A9
:10339000822F992787FD9095958384830E947102DF
:1033A000EDB7FEB736960FB6F894FEBF0FBEEDBF71
:1033B0002E010894411C511C8CED682E81E0782E62
:1033C00006E0802E912C8C0E9D1E17EDA12E11E093
:1033D000B12E2FC0C6016E2DA20125E00E94121948
:1033E00000D0ADB7BEB712967C926E9211970E9434
:1033F000710284010F900F9015C000D000D0EDB77E
:10340000FEB73196ADB7BEB71296BC92AE92119789
:10341000D8018C91828313820E9471020F900F90C9
:103420000F900F90015010400C171D0731F7E394D7
:10343000FA94FF2079F600D084ED91E0EDB7FEB765
:10344000928381830E9471020F900F900F900F90D2
:103450000F900F900F90CF91DF911F910F91FF90E0
:10346000EF90DF90CF90BF90AF909F908F907F9024
:103470006F905F904F9008950F931F938C010E945F
:103480009A14682FC8010E941B14C80167EC71E0F0
:103490004AE022E00E949719C8016AEB71E04CE013
:1034A00024E00E945C18C80162EB71E040E121E079
:1034B0000E949719C80167EA71E041E126E00E9485
:1034C0005C18C80161EA71E041E021E00E945C18EB
:1034D000C80167E971E042E021E00E945C18C80180
:1034E00061E971E045E021E00E945C18C80168E8EC
:1034F00071E046E021E00E945C18C80161E871E0DB
:1035000040E021E00E945C18C80163E771E04CE1F3
:1035100022E00E945C18C8010E94DA16FC01EE0F3E
:10352000FF1FEA5EFE4F2591349100D000D081E666
:1035300091E0EDB7FEB792838183348323830E94A9
:103540007102F8018381E82FF0E0EE0FFF1FE45EC7
:10355000FE4F2591349182E591E0EDB7FEB792835D
:103560008183348323830E9471020F900F900F9008
:103570000F90C8010E94AD16FC01EE0FFF1FE05E28
:10358000FE4F2591349100D000D08FE391E0EDB74C
:10359000FEB792838183348323830E9471020F904C
:1035A0000F900F900F90C8010E941C17FC01EE0FA6
:1035B000FF1FEA5DFE4F2591349100D000D08EE2CE
:1035C00091E0EDB7FEB792838183348323830E9419
:1035D00071020F900F900F900F901F910F9108950F
:1035E000882319F48CB5806202C08CB58F7D8CBDA8
:1035F00008959CB5937F982B9CBD08952CB5382FCA
:1036000033702C7F322B3CBD2DB590E0959587957E
:103610009595879581702E7F822B8DBD08958AE0C8
:1036200061E00E94D61C8AE061E00E94971C8CB584
:1036300080618CBD8CB580648CBD8DE061E00E94A2
:10364000971C8BE061E00E94971C0895823000F582
:10365000E82FF0E0EE0FFF1FE75EFB4F7183608302
:10366000882319F08130A1F408C0809169008C7F13
:10367000842B80936900E89A089580916900440F33
:10368000551F440F551F837F842B80936900E99A4F
:1036900008951F920F920FB60F9211242F933F930C
:1036A0004F935F936F937F938F939F93AF93BF934A
:1036B000EF93FF938091190490911A04892B29F0BC
:1036C000E0911904F0911A040995FF91EF91BF91CF
:1036D000AF919F918F917F916F915F914F913F91AA
:1036E0002F910F900FBE0F901F9018951F920F9261
:1036F0000FB60F9211242F933F934F935F936F93C5
:103700007F938F939F93AF93BF93EF93FF9380919A
:103710001B0490911C04892B29F0E0911B04F0916B
:103720001C040995FF91EF91BF91AF919F918F91EB
:103730007F916F915F914F913F912F910F900FBEAD
:103740000F901F9018951F920F920FB60F92112491
:103750002F933F938F939F93AF93BF9380912104B7
:1037600090912204A0912304B09124043091250467
:103770000196A11DB11D232F2D5F2D3720F02D5750
:103780000196A11DB11D20932504809321049093DF
:103790002204A0932304B093240480911D049091EB
:1037A0001E04A0911F04B09120040196A11DB11D1B
:1037B00080931D0490931E04A0931F04B0932004D3
:1037C000BF91AF919F918F913F912F910F900FBE1D
:1037D0000F901F9018958FB7F89420912104309185
:1037E000220440912304509124048FBFB901CA01DF
:1037F00008959B01AC017FB7F89480911D049091CE
:103800001E04A0911F04B091200466B5A89B05C0BA
:103810006F3F19F00196A11DB11D7FBFBA2FA92FCF
:10382000982F8827860F911DA11DB11D62E0880F7A
:10383000991FAA1FBB1F6A95D1F7BC012DC0FFB706
:10384000F89480911D0490911E04A0911F04B091E2
:103850002004E6B5A89B05C0EF3F19F00196A11D15
:10386000B11DFFBFBA2FA92F982F88278E0F911D4A
:10387000A11DB11DE2E0880F991FAA1FBB1FEA9589
:10388000D1F7861B970B885E9340C8F221503040D9
:103890004040504068517C4F21153105410551058C
:1038A00071F60895019739F0880F991F880F991FB5
:1038B00002970197F1F70895789484B5826084BDEA
:1038C00084B5816084BD85B5826085BD85B5816024
:1038D00085BDEEE6F0E0808181608083E1E8F0E084
:1038E0001082808182608083808181608083E0E8B3
:1038F000F0E0808181608083E1EBF0E08081846092
:103900008083E0EBF0E0808181608083EAE7F0E093
:1039100080818460808380818260808380818160F7
:1039200080838081806880831092C1000895CF9346
:10393000DF93482F50E0CA0187509D4FFC0134911E
:103940004B515D4FFA018491882369F190E0880F13
:10395000991FFC01E953FD4FA591B491FC01EF5271
:10396000FD4FC591D491662351F42FB7F8948C91F3
:10397000932F909589238C93888189230BC0623083
:1039800061F42FB7F8948C91932F909589238C93A1
:103990008881832B88832FBF06C09FB7F8948C91B2
:1039A000832B8C939FBFDF91CF910895482F50E0D8
:1039B000CA01835F9C4FFC012491CA0187509D4F2F
:1039C000FC0194914B515D4FFA013491332309F47A
:1039D00040C0222351F1233071F0243028F42130EB
:1039E000A1F0223011F514C02630B1F02730C1F01B
:1039F0002430D9F404C0809180008F7703C0809177
:103A000080008F7D8093800010C084B58F7702C0C6
:103A100084B58F7D84BD09C08091B0008F7703C0CD
:103A20008091B0008F7D8093B000E32FF0E0EE0F27
:103A3000FF1FEF52FD4FA591B4912FB7F894662365
:103A400021F48C919095892302C08C91892B8C93C1
:103A50002FBF0895682F70E0CB01835F9C4FFC015E
:103A60002491CB0187509D4FFC0144916B517D4FB8
:103A7000FB019491992319F420E030E03CC022230B
:103A800051F1233071F0243028F42130A1F022309C
:103A900011F514C02630B1F02730C1F02430D9F42C
:103AA00004C0809180008F7703C0809180008F7D5B
:103AB0008093800010C084B58F7702C084B58F7D5D
:103AC00084BD09C08091B0008F7703C08091B000A1
:103AD0008F7D8093B000892F90E0880F991F8552C9
:103AE0009D4FFC01A591B4918C9120E030E084239E
:103AF00011F021E030E0C901089508951F920F925E
:103B00000FB60F9211242F933F934F938F939F9350
:103B1000EF93FF938091C00082FD1DC04091C600CD
:103B200020916604309167042F5F3F4F2F733070F0
:103B300080916804909169042817390771F0E09129
:103B40006604F0916704EA5DFB4F4083309367049D
:103B50002093660402C08091C600FF91EF919F916F
:103B60008F914F913F912F910F900FBE0F901F900B
:103B70001895E091BA04F091BB04E05CFF4F81918D
:103B8000919120813181821B930B8F739070892BCF
:103B900011F00E947D1D08951F920F920FB60F9293
:103BA00011242F933F938F939F93EF93FF93209133
:103BB000AA043091AB048091AC049091AD04281715
:103BC000390731F48091C1008F7D8093C10014C00A
:103BD000E091AC04F091AD04E659FB4F2081809157
:103BE000AC049091AD0401968F7390709093AD04E6
:103BF0008093AC042093C600FF91EF919F918F9129
:103C00003F912F910F900FBE0F901F901895AF927C
:103C1000BF92DF92EF92FF920F931F93CF93DF93A8
:103C2000EC017A018B01DD24403081EE580780E001
:103C3000680780E0780711F0DD24D39491E0A92E85
:103C4000B12CEC89FD89DD2069F0C50108A002C016
:103C5000880F991F0A94E2F7808360E079E08DE392
:103C600090E005C0108260E874E88EE190E0A80161
:103C700097010E9480252150304040405040569589
:103C800047953795279580E12030380720F0DD20D3
:103C900011F0DD24D6CFE889F9893083EA89FB89E0
:103CA000208319A2EE89FF89408121E030E0C9011B
:103CB0000C8C02C0880F991F0A94E2F7482B4083AE
:103CC000EE89FF894081C9010D8C02C0880F991FC0
:103CD0000A94E2F7482B4083EE89FF894081C901AD
:103CE0000E8C02C0880F991F0A94E2F7482B40837C
:103CF000EE89FF8980810F8C02C0220F331F0A9446
:103D0000E2F7209528232083DF91CF911F910F9117
:103D1000FF90EF90DF90BF90AF900895DC011C966C
:103D2000ED91FC911D97E05CFF4F219131918081D5
:103D30009181281B390B2F733070C9010895DC0164
:103D40001C96ED91FC911D97E05CFF4F2081318125
:103D5000E054F040DF01AE5BBF4F8D919C91119715
:103D60002817390719F42FEF3FEF07C08D919C9169
:103D7000E80FF91F8081282F30E0C9010895DC0188
:103D80001C96ED91FC911D97E05CFF4F20813181E5
:103D9000E054F040DF01AE5BBF4F8D919C911197D5
:103DA0002817390719F42FEF3FEF10C08D919C9120
:103DB0001197E80FF91F20818D919C911197019621
:103DC0008F73907011969C938E9330E0C901089583
:103DD000DC0191968C919197882339F05496ED915E
:103DE000FC915597808186FFF9CF91961C9208959A
:103DF000CF93DF93EC01EE85FF85E05CFF4F2081E0
:103E00003181E054F0402F5F3F4F2F733070DF015E
:103E1000AE5BBF4F8D919C91119728173907D1F355
:103E2000E05CFF4F80819181E054F040E80FF91F82
:103E30006083EE85FF85E05CFF4F31832083EE8950
:103E4000FF89208181E090E00F8C02C0880F991FCC
:103E50000A94E2F7282B208381E089A3EC89FD896D
:103E600080818064808381E090E0DF91CF9108952C
:103E70001092B1041092B00488EE93E0A0E0B0E09C
:103E80008093B2049093B304A093B404B093B504A8
:103E900086ED92E09093AF048093AE0486E294E0C6
:103EA0009093BB048093BA048AE694E09093BD0497
:103EB0008093BC0485EC90E09093BF048093BE0493
:103EC00084EC90E09093C1048093C00480EC90E077
:103ED0009093C3048093C20481EC90E09093C50456
:103EE0008093C40482EC90E09093C7048093C6044E
:103EF00086EC90E09093C9048093C80484E080939A
:103F0000CA0483E08093CB0487E08093CC0485E0EF
:103F10008093CD0481E08093CE040895CF93DF9306
:103F20000E945C1C0E949808C9EBDDE10E943708E2
:103F30002097E1F30E94B91DF9CF0E942C23089528
:103F4000CF92DF92EF92FF920F931F93CF93DF9365
:103F50007C016B018A01C0E0D0E00FC0D6016D91F9
:103F60006D01D701ED91FC910190F081E02DC70129
:103F70000995C80FD91F015010400115110571F79F
:103F8000CE01DF91CF911F910F91FF90EF90DF90C5
:103F9000CF900895DC01ED91FC910190F081E02D2E
:103FA00009950895EF92FF920F931F938C01DC0106
:103FB000ED91FC910190F081E02D6DE009957C017F
:103FC000D801ED91FC910190F081E02DC8016AE0EB
:103FD00009959C012E0D3F1DC9011F910F91FF9066
:103FE000EF900895EF92FF920F931F937C01DC01F5
:103FF000ED91FC910190F081E02D09958C01C701B4
:104000000E94D21F080F191FC8011F910F91FF9026
:10401000EF900895CF93DF93EC016115710519F4CA
:1040200020E030E00FC0DB010D900020E9F7119790
:10403000A61BB70BE881F9810280F381E02DAD0169
:1040400009959C01C901DF91CF9108954F925F922C
:104050007F928F929F92AF92BF92CF92DF92EF9218
:10406000FF920F931F93DF93CF93CDB7DEB7A19746
:104070000FB6F894DEBF0FBECDBF2C01742ECB015E
:10408000223008F42AE019A231E2C32ED12CCC0E42
:10409000DD1E822E9924AA24BB24672D752FA5012D
:1040A00094010E94802579018A01C801B701A50108
:1040B00094010E944225472D461B0894C108D1084F
:1040C0004A3014F4405D01C0495CF6014083E114BC
:1040D000F1040105110521F07E2C5F2DC801DDCF13
:1040E000C201B6010E940A20A1960FB6F894DEBF65
:1040F0000FBECDBFCF91DF911F910F91FF90EF9039
:10410000DF90CF90BF90AF909F908F907F905F9007
:104110004F900895DC012115310541F4ED91FC919A
:104120000190F081E02D642F099508950E942620CA
:104130000895EF92FF920F931F939A01E62EFF24AA
:1041400000E010E0B801A7010E948A201F910F91A2
:10415000FF90EF900895CF92DF92EF92FF920F932E
:104160001F936C01E62E9A01FF2400E010E0B801D5
:10417000A7010E948A208C01C6010E94D21F080F4D
:10418000191FC8011F910F91FF90EF90DF90CF9002
:104190000895CF92DF92EF92FF920F931F93CF93E8
:1041A000DF93EC016A017B012115310541F4E881BF
:1041B000F9810190F081E02D642F09951FC02A300C
:1041C0003105D1F477FF17C0E881F9810190F081C2
:1041D000E02D6DE209958C0144275527BA014C1951
:1041E0005D096E097F09CE012AE00E942620980110
:1041F000280F391F04C02AE00E9426209C01C90113
:10420000DF91CF911F910F91FF90EF90DF90CF90B2
:104210000895EF92FF920F931F937B019A0100275D
:10422000F7FC0095102FB801A7010E94C9201F912B
:104230000F91FF90EF900895CF92DF92EF92FF924F
:104240000F931F936C017B019A010027F7FC0095E7
:10425000102FB801A7010E94C9208C01C6010E943D
:10426000D21F080F191FC8011F910F91FF90EF90E7
:10427000DF90CF9008950E940A200895EF92FF9258
:104280000F931F937C010E940A208C01C7010E949A
:10429000D21F080F191FC8011F910F91FF90EF90B7
:1042A0000895AF92BF92CF92DF92EF92FF920F9359
:1042B0001F93CF93DF935C016B01EE24FF24C0E0DA
:1042C000D0E010C0D501ED91FC9100811181C601B3
:1042D000BE010E94E121682FC501F8010995E80E91
:1042E000F91E2196F60184819581C817D90750F3EC
:1042F000C701DF91CF911F910F91FF90EF90DF9059
:10430000CF90BF90AF900895EF92FF920F931F93BD
:104310007C010E9451218C01C7010E94D21F9C0187
:10432000200F311FC9011F910F91FF90EF90089549
:104330002F923F924F925F926F927F928F929F92B5
:10434000AF92BF92CF92DF92EF92FF920F931F93A3
:10435000DF93CF93CDB7DEB73B014C0119012A01A2
:104360006D897E898F89988D6A197B098C099D09D1
:10437000621A730A840A950AA40193010E944225D5
:10438000E218F30804091509A80197010E94A22563
:104390002A0D3B1D4C1D5D1DB901CA01CF91DF9156
:1043A0001F910F91FF90EF90DF90CF90BF90AF9053
:1043B0009F908F907F906F905F904F903F902F9045
:1043C0000895FC01848195816817790748F401906C
:1043D000F081E02D309721F0E60FF71F80810895DE
:1043E00080E008950F931F93CF93DF93EC018B012F
:1043F0006F5F7F4F888199810E946124009711F43B
:1044000080E005C0998388831B830A8381E0DF9164
:10441000CF911F910F910895CF93DF93EC01888185
:104420009981892B29F08A819B818617970760F4EF
:10443000CE010E94F221882341F08C819D81892B3D
:1044400019F4E881F981108281E0DF91CF9108951C
:10445000EF92FF920F931F93CF93DF93EC017B01B9
:104460006C817D81E114F104C1F04115510599F091
:104470008A01060F171FB8010E940C22882369F0D9
:10448000888199812C813D81820F931FB7010E9401
:10449000D2011D830C8381E001C080E0DF91CF91C8
:1044A0001F910F91FF90EF900895FB016081718142
:1044B000448155810E9428220895CF93DF93EC0117
:1044C00088819981009711F00E94C923198218826E
:1044D0001D821C821B821A82DF91CF910895EF9278
:1044E000FF920F931F93CF93DF93EC017B018A011F
:1044F000BA010E940C22882321F4CE010E945D2281
:1045000007C01D830C8388819981B7010E94D20165
:10451000CE01DF91CF911F910F91FF90EF90089501
:10452000CF93DF93EC01198218821B821A821D82BD
:104530001C821E826115710551F0DB010D90002077
:10454000E9F71197A61BB70BAD010E946F22DF910F
:10455000CF9108950F931F93182F092F611571059F
:1045600059F0DB010D900020E9F71197A61BB70B5E
:10457000AD010E946F2202C00E945D22812F902F08
:104580001F910F910895EF92FF920F931F93DF9366
:10459000CF93CDB7DEB762970FB6F894DEBF0FBEEC
:1045A000CDBF8C01CB01F8011182108213821282DF
:1045B0001582148216827E010894E11CF11CB70159
:1045C00050E00E94D901C801B7010E94AA22629658
:1045D0000FB6F894DEBF0FBECDBFCF91DF911F9114
:1045E0000F91FF90EF900895EF92FF920F931F931A
:1045F000DF93CF93CDB7DEB729970FB6F894DEBF20
:104600000FBECDBF8C01862FF8011182108213825C
:10461000128215821482168290E07E010894E11CB9
:10462000F11CB70150E00E94FA01C801B7010E94D5
:10463000AA2229960FB6F894DEBF0FBECDBFCF9148
:10464000DF911F910F91FF90EF900895FC01808101
:1046500091810E94C92308950F931F93CF93DF93F5
:10466000BC018230910510F462E070E0E091D20468
:10467000F091D304A0E0B0E040E050E024C080819D
:10468000918186179707D0F08617970771F482817A
:104690009381109729F013969C938E9312972CC0B8
:1046A0009093D3048093D20427C04115510519F08B
:1046B0008417950718F4EF018D01AC01DF018281A9
:1046C00093819C01F9013097D1F641155105F9F01C
:1046D000CA01861B970B8430910580F48A819B81E7
:1046E0000115110521F0F8019383828304C0909392
:1046F000D3048093D204FE01329645C0FE01E80F38
:10470000F91F619371930297998388833CC08091CC
:10471000D0049091D104892B41F48091BE029091F4
:10472000BF029093D1048093D0044091C002509175
:10473000C1024115510541F44DB75EB78091BC02ED
:104740009091BD02481B590B2091D0043091D104A7
:1047500024173507B0F4CA01821B930B86179707FD
:1047600080F0AB014E5F5F4F8417950750F0420F0A
:10477000531F5093D1044093D004F9016193719376
:1047800002C0E0E0F0E0CF01DF91CF911F910F91E7
:104790000895CF93DF939C01009709F48FC0EC013B
:1047A00022971B821A826091D2047091D304611502
:1047B000710581F488819981820F931F2091D00423
:1047C0003091D1042817390739F5D093D104C0931B
:1047D000D00474C0DB0140E050E0AC17BD0708F125
:1047E000BB83AA83FE0121913191E20FF31FAE1723
:1047F000BF0779F48D919C911197280F391F2E5F77
:104800003F4F3983288312968D919C9113979B83F8
:104810008A834115510571F4D093D304C093D20417
:104820004DC012968D919C911397AD01009711F098
:10483000DC01D3CFDA011396DC93CE931297FA0101
:1048400021913191E20FF31FCE17DF0769F48881C0
:104850009981280F391F2E5F3F4FFA013183208342
:104860008A819B8193838283E0E0F0E0DB011296F2
:104870008D919C911397009719F0BC01FD01F6CF23
:10488000AB014E5F5F4FDB018D919C91840F951FB3
:104890002091D0043091D1042817390779F430974A
:1048A00029F41092D3041092D20402C0138212820F
:1048B000425050405093D1044093D004DF91CF91A7
:1048C00008956F927F928F929F92AF92BF92CF92F4
:1048D000DF92EF92FF920F931F93CF93DF938C01A0
:1048E000009729F4CB010E942C238C01BBC08EEFD2
:1048F000E82E8FEFF82EE00EF11E4801860E971E6F
:104900008E149F0408F4ACC0D7014D915C911197AF
:1049100046175707B8F04530510508F4A3C0CA013F
:1049200004978617970708F49DC042505040461BD5
:10493000570BF401419351936D937C93CF010E94E7
:10494000C92390C05B01A41AB50A3801640E751E14
:10495000A091D204B091D304CC24DD24E0E0F0E0B7
:1049600047C0A615B705A9F5CD91DC911197CE01E9
:1049700002968A159B0568F1CE018A199B09029659
:1049800012962C91129713963C91059758F0F401CA
:1049900022833383CA19DB09D183C083D7016D9386
:1049A0007C9309C04E5F5F4F4C0F5D1FF701518331
:1049B0004083C901FC01C114D10431F0D601139622
:1049C000FC93EE9312974EC0F093D304E093D2047D
:1049D00049C08D919C911197E817F90708F4FC01E3
:1049E0006D0112968C91129713969C919C01D9019E
:1049F000109709F0B6CF8091D0049091D10486151C
:104A00009705E9F4E617F707D0F42091C00230913A
:104A1000C1022115310541F42DB73EB78091BC028A
:104A20009091BD02281B390B82169306C8F4909210
:104A3000D1048092D004F7017183608313C0CB014D
:104A40000E942C23EC01009759F0D7014D915C9105
:104A5000B8010E94C901C8010E94C9238E0102C089
:104A600000E010E0C801DF91CF911F910F91FF90FE
:104A7000EF90DF90CF90BF90AF909F908F907F90FE
:104A80006F900895629FD001739FF001829FE00DA7
:104A9000F11D649FE00DF11D929FF00D839FF00DBD
:104AA000749FF00D659FF00D9927729FB00DE11D69
:104AB000F91F639FB00DE11DF91FBD01CF01112446
:104AC0000895991B79E004C0991F961708F0961B6A
:104AD000881F7A95C9F78095089597FB092E0726B8
:104AE0000AD077FD04D049D006D000201AF4709582
:104AF00061957F4F0895F6F7909581959F4F0895A2
:104B0000A1E21A2EAA1BBB1BFD010DC0AA1FBB1FD1
:104B1000EE1FFF1FA217B307E407F50720F0A21B43
:104B2000B30BE40BF50B661F771F881F991F1A94B0
:104B300069F760957095809590959B01AC01BD01DA
:104B4000CF01089597FB092E05260ED057FD04D0FE
:104B5000D7DF0AD0001C38F4509540953095219548
:104B60003F4F4F4F5F4F0895F6F7909580957095A2
:104B700061957F4F8F4F9F4F0895AA1BBB1B51E13B
:104B800007C0AA1FBB1FA617B70710F0A61BB70BBD
:104B9000881F991F5A95A9F780959095BC01CD0162
:104BA0000895EE0FFF1F0590F491E02D09942F92C8
:104BB0003F924F925F926F927F928F929F92AF92AD
:104BC000BF92CF92DF92EF92FF920F931F93CF93FA
:104BD000DF93CDB7DEB7CA1BDB0B0FB6F894DEBF91
:104BE0000FBECDBF09942A88398848885F846E84B7
:104BF0007D848C849B84AA84B984C884DF80EE8001
:104C0000FD800C811B81AA81B981CE0FD11D0FB609
:104C1000F894DEBF0FBECDBFED01089513E0C8E2EA
:104C2000D3E004C0FE010E94D3252296CC32D107E6
:064C3000C9F7F894FFCF64
:104C3600494E534944452100494E53494445203184
:104C46002100494E534944452032210052464944E9
:104C5600205245414400496E74726F647563656401
:104C660020636F6465004C697374656E696E672EA8
:104C76002E2E0049442072656365697665643A257F
:104C86006C750A0077697468647261772061636382
:104C9600657074656400494420726563656976656C
:104CA600643A256C0A0072657475726E20616363DE
:104CB60065707465640073756363657373207769E3
:104CC60074686472617721006661696C757265202B
:104CD60077697468647261772100737563636573BD
:104CE600732072657475726E21006661696C7572E7
:104CF600652072657475726E210074657374210A7D
:104D06000D00746573742564210A0D0052454345F0
:104D160049564544205041434B4554205345513A4A
:104D26000052454345495645442044415441205389
:104D360045513A00444154412053454E44204C4F7E
:104D4600473A00424F4F4C2041434B3A00545820BB
:104D56004255464645523A00525820425546464527
:104D6600523A005061636B657420726563656976BB
:104D7600656420636F756E7465723A005061636B8B
:104D86006574206D69737365642072656365697601
:104D96006564207175657269657320636F756E74DD
:104DA60065723A002D2D2D2D2D2D2D2D2D2D2D2DD0
:104DB6002D2D2D2D2D2D2D2D2D2D2D2D2D2D004136
:104DC600534B494E4720666F722072657472616E4E
:104DD600736D697373696F6E3A008E000000000090
:104DE6000000222324252627010800658000DA0416
:104DF6000000000000009F12A01F851264126213BB
:104E0600511300000000F81EA01F8E1EBF1E9F1E1D
:024E1600E81E94
:00000001FF
