:100000000C94B3000C9423090C9450090C94E9054A
:100010000C9413060C943D060C94DB000C94DB004E
:100020000C94DB000C94DB000C94DB000C94DB00E4
:100030000C94DB000C94DB000C94DB000C94DB00D4
:100040000C947D090C94DB000C94ED0A0C943B0B92
:100050000C94DB000C94DB000C94DB000C94DB00B4
:100060000C94DB000C94DB0000C2010001001100C5
:1000700011000C0000E100000A002500250021000D
:10008000009600001900390039003600127A00008D
:100090001F004600460044008070000022004D0012
:1000A0004D004A00004B00003600750075007200DC
:1000B000403800004A009C009C0099008025000008
:1000C0007200EC00EC00E900C0120000E900DA0167
:1000D000DA01D70160090000D701B603B603B30304
:1000E000B0040000B3036E076E076B0758020000F0
:1000F0006E07DC0EDC0ED80E2C010000DC0EC11DDC
:10010000C11DBE1D00000000240027002A000000C1
:100110000000250028002B0000000000230026001E
:10012000290004040404040404040202020202027A
:1001300003030303030301020408102040800102AB
:10014000040810200102040810200000000700022B
:1001500001000003040600000000000000003E0152
:100160002102A70C370111241FBECFEFD8E0DEBF5C
:10017000CDBF11E0A0E0B1E0E2E7F4E202C00590FB
:100180000D92A237B107D9F713E0A2E7B1E001C0A1
:100190001D92AC30B107E1F711E0C4E6D1E004C034
:1001A0002297FE010E942812CE35D107C9F70E947E
:1001B000FD0C0C942C120C940000FB01DC0102C01D
:1001C00001900D9241505040D8F70895FB01DC0199
:1001D00001900D920020E1F70895FB019F01E89442
:1001E0004230C4F04532B4F44A3029F497FB1EF48F
:1001F000909581959F4F642F77270E941212805D02
:100200008A330CF0895D8193CB010097A1F716F436
:100210005DE251931082C9010C940E01DC01FC01D6
:10022000672F71917723E1F7329704C07C916D932A
:1002300070836291AE17BF07C8F3089581309105AE
:1002400061F46F5F7F4F91F482E791E068E070E0C6
:1002500049E050E00E942A040895892B39F46F5F29
:100260007F4F21F482E791E00E945907089580E0D2
:1002700090E06FEF7FEF0E941E01089581E090E013
:100280006FEF7FEF0E941E010895EF92FF920F9390
:100290001F93DF93CF93CDB7DEB72E970FB6F894A9
:1002A000DEBF0FBECDBF82E791E064E471E00E9443
:1002B000CA03882301F186EE92E060E071E00E94BB
:1002C0001D0E81E090E0909397018093960104E4E5
:1002D00011E086EE92E0F80161918F0140E150E07B
:1002E0000E94080EF1E00A341F0799F786EE92E0AB
:1002F0006AE00E94390D86EE92E06AE071E004C087
:1003000086EE92E062E171E00E941D0E80918E0106
:1003100090918F010E942B03882391F37E01089412
:10032000E11CF11CC7016FE171E00E94600F8E01BA
:10033000085F1F4FC801B7010E94910F80918E0185
:1003400090918F010E941B02BC01C8010E942E0FD8
:10035000BC01C7010E947A0FC8010E94A20F86EE5D
:1003600092E0B7010E94630E84E180939001809136
:100370008E0190918F0160E971E00E949B0200E084
:1003800010E080918E0190918F0164E471E00E94F1
:100390009B020F5F1F4F0530110599F780918E0169
:1003A00090918F010E94EC0280918E0190918F01BB
:1003B00064E471E00E949B0280918E0190918F0114
:1003C0000E94EC0260E47DE083E090E00E94C509B9
:1003D000CE0101960E949C0F2E960FB6F894DEBFB8
:1003E0000FBECDBFCF91DF911F910F91FF90EF9086
:1003F00008950F931F9386EE92E040E855E260E087
:1004000070E00E94760B8DE061E00E94590A81E065
:1004100090E00E940C0D182F092F609142017091FD
:10042000430140E00E948B0310938E0100938F01E3
:100430001F910F9108952091010230910202C9018C
:10044000089580EE91E00E943C0408951F93CF939D
:10045000DF9380EE91E00E949A04882309F462C041
:1004600080EE91E060E070E00E9457049091EC0112
:1004700080910302981769F48091E00190E09093D5
:1004800002028093010280EE91E061E00E94060585
:1004900049C09091EC0180914A01981709F042C03F
:1004A0008091E001C82FD0E0CF3FD105D1F0DE012F
:1004B000AA0FBB1FAC0FBD1FAA0FBB1FA454BE4F7A
:1004C00020E030E02F5F3F4FF901E052FE4F808186
:1004D0008D9326303105B1F7C95FDD4F81E0888308
:1004E00021C01091E10180EE91E067E00E940605D5
:1004F0001093E00186E0189FD0011124A856BE4F4A
:1005000020E030E02F5F3F4F8D91F901E052FE4F28
:10051000808326303105B1F780EE91E060E070E035
:100520000E94340580EE91E067E00E941B05DF9198
:10053000CF911F9108950F931F93CF93DF93162FA1
:10054000072F80EE91E067E00E94060540910502CA
:10055000509106024093E001212F302FC901EC0198
:10056000DA01AA0FBB1FA40FB51FAA0FBB1FA85605
:10057000BE4F20E030E088818D932F5F3F4F8991FF
:10058000F901E052FE4F808326303105A1F74F5F1D
:100590005F4F509306024093050280EE91E060E0C9
:1005A00070E00E94340580EE91E067E00E941B0538
:1005B000DF91CF911F910F9108958091EC0190E010
:1005C0008617970741F06093EC016AEF70E080E0D6
:1005D00090E00E94C5090895CF93DF9386EE92E0E4
:1005E0006CE271E00E941A0EC8E9D1E086EE92E05A
:1005F00069914AE050E00E94080E86EE92E060E2C7
:100600000E94390D81E0CC3BD80781F786EE92E05D
:1006100060E20E94610D86EE92E067E371E00E9465
:100620001A0ECCEBD1E086EE92E069914AE050E000
:100630000E94080E86EE92E060E20E94390D81E091
:10064000C03ED80781F786EE92E060E20E94610D1D
:10065000DF91CF910895CF93DF93EC018091010258
:1006600090910202892B99F1809104028823B9F4B8
:1006700080910102909102029093E8018093E7013A
:1006800080EE91E061E00E9406058091FF01809379
:10069000E00180EE91E060E070E00E94340560913E
:1006A0004A01CE0170E00E94DD028091010290912A
:1006B00002029093E8018093E7018091FF019091FD
:1006C00000029093EA018093E90181E021C06091EA
:1006D0000302CE0170E00E94DD02809104028823B3
:1006E00059F080EE91E061E00E94060580EE91E015
:1006F0006091FF010E94780580EE91E061E00E9428
:100700001B0562E370E080E090E00E94C50980E094
:10071000DF91CF9108951F93142FE8E9F1E0119232
:1007200021E0EC3BF207D9F7109207021092080281
:100730001092090210920A0210920B0210920C02FF
:10074000709300026093FF011092EB01609103022D
:1007500070E00E94DD0280EE91E061E00E941B05E6
:1007600080E066E272E043E050E00E9400091093EE
:100770000402112349F08091FF01909100029093AF
:10078000EA018093E90104C01092EA011092E901A4
:100790001F910895DF92EF92FF920F931F93CF93D3
:1007A000DF93F82E092FEB010E9483071816190614
:1007B0000CF046C08F2D902F0E946207823009F006
:1007C0003FC0DD24EE2410E08F2D902F0E94830780
:1007D00018161906CCF78F2D902F0E946207282F2C
:1007E0008D3071F18A3061F1833051F1823041F105
:1007F00080538A3010F4282F05C0822F8154863010
:1008000008F42753812F90E010FD02C0D22E0DC0B6
:10081000959587953D2D3295307F322BFE01E80F5F
:10082000F91F3083059709F0E3261F5F1C3060F243
:100830001C3031F490E08D818E1519F491E001C0E7
:1008400090E0892FDF91CF911F910F91FF90EF9052
:10085000DF9008950F931F93182F092F20E00E9417
:10086000D208812F902F40E855E260E070E00E94AE
:1008700067061F910F910895FC015298539A549A5C
:10088000559A569A1086178212861186178681E02D
:1008900083878FE6848783E0858716868AEE878B39
:1008A0008FED808F84ED818F5B985C9808951F9306
:1008B000CF93DF93DC016115710509F4BC015B98EE
:1008C00080E49FE10197F1F7FB0160E070E0C1E097
:1008D000D0E015E020C0108247E050E04E9B0AC0F7
:1008E0009E01042E02C0220F331F0A94E2F780817A
:1008F000822B8083812F8A95F1F75D9A812F8A95CB
:10090000F1F75D98415050408FEF4F3F580731F756
:100910006F5F7F4F31961F968C911F9790E06817FD
:100920007907CCF25B9A85E08A95F1F7DF91CF9158
:100930001F91089589B190E0969587959695879532
:100940008170089527E030E070E045E0CB01022E91
:1009500002C0959587950A94E2F780FD02C05E98E3
:1009600001C05E9A842F8A95F1F75D9A842F8A954B
:10097000F1F75D98215030408FEF2F3F380731F766
:1009800008950F931F93CF93DF938C015B985C9A2C
:100990008AE18A95F1F7662331F0F801668DC80186
:1009A0000E94A2040DC0C0E0D0E0F801EC0FFD1FD2
:1009B0006089C8010E94A2042196CF30D105A9F711
:1009C0005C98DF91CF911F910F910895FC0187856D
:1009D000880F880F880F818B81859285928F818502
:1009E0009285838F83EA848F958583859C64829525
:1009F000880F807E892B858F96858485880F892B2B
:100A0000868FCF0160E00E94C1040895FC01569AD0
:100A10001686662321F067870E94E60407C0868D4C
:100A20008E7F868FCF0161E00E94C10488EE93E043
:100A30000197F1F70895FC01569A81E086876623B5
:100A400029F06787CF010E94E60407C0868D816088
:100A5000868FCF0161E00E94C10456985B9A88EEB0
:100A600093E00197F1F70895EF92FF920F931F9390
:100A7000CF93DF93EC017B016115710509F47C01D3
:100A80005B9A8AE18A95F1F76F89CE010E94A204F0
:100A9000688DCE010E94A204698DCE010E94A2043D
:100AA0002F813885CE01632F0E94A2046F81788543
:100AB000CE010E94A20400E010E009C0F701E00F9F
:100AC000F11FCE0160810E94A2040F5F1F4F8F852E
:100AD00090E00817190794F35B9888EE93E001976C
:100AE000F1F7DF91CF911F910F91FF90EF90089553
:100AF000FC01608360E070E00E94340508950F936C
:100B00001F93CF93DF93FC01738D76957170A6854B
:100B1000B7859585772329F08C91892309F454C0F2
:100B200004C08C91892309F04FC08389948920E007
:100B300001972FEF8F3F9207D9F7C589D689A685F0
:100B4000B785158560E031E040E050E000E0CE017F
:100B5000202F01972FEF8F3F9207D9F78C91812398
:100B600011F0632B03C0832F80956823330F4F5FF1
:100B70005F4F4830510559F78789908D20E00197E4
:100B80002FEF8F3F9207D9F77111609580914F0237
:100B90002091500290E001968F73907030E08217A0
:100BA000930779F0E0914F02F0E0E15FFD4F608341
:100BB00080914F0290E001968F73907080934F0266
:100BC00003C0838D8160838FDF91CF911F910F913F
:100BD00008951F920F920FB60F9211242F933F93F7
:100BE0004F935F936F937F938F939F93AF93BF9335
:100BF000EF93FF9380910D0290910E02009711F0F8
:100C00000E947F05FF91EF91BF91AF919F918F91CE
:100C10007F916F915F914F913F912F910F900FBEF8
:100C20000F901F9018951F920F920FB60F921124DC
:100C30002F933F934F935F936F937F938F939F93E4
:100C4000AF93BF93EF93FF9380910D0290910E02AB
:100C5000009711F00E947F05FF91EF91BF91AF9136
:100C60009F918F917F916F915F914F913F912F91C4
:100C70000F900FBE0F901F9018951F920F920FB6F6
:100C80000F9211242F933F934F935F936F937F9312
:100C90008F939F93AF93BF93EF93FF9380910D0238
:100CA00090910E02009711F00E947F05FF91EF9145
:100CB000BF91AF919F918F917F916F915F914F9174
:100CC0003F912F910F900FBE0F901F901895CF92CC
:100CD000DF92EF92FF920F931F93CF93DF93EC017C
:100CE0007A018B011A8E198E188E1F8A1E8A1D8A10
:100CF0001C8A1B8A20E030E06901CC0CDD1CC20E8E
:100D0000D31EB601660F771F660F771FAB014859D8
:100D10005F4FFA0185919591A591B4918E159F052C
:100D2000A007B107E9F4FB01E459FF4F85919491C5
:100D30009C8B8B8BFB01E259FF4F859194919E8B8D
:100D40008D8BFB01E059FF4F85919491988F8F8B8C
:100D5000FB01EE58FF4F859194919A8F898F06C0C1
:100D60002F5F3F4F2D30310509F0C6CF8F89988D09
:100D7000892B09F449C04C85463108F03DC090915B
:100D80006800483010F484E005C04E3010F082E076
:100D900001C081E0892B80936800483028F4EDE69B
:100DA000F0E0ADE6B0E00BC04E3028F0ECE6F0E04D
:100DB000ACE6B0E004C0EBE6F0E0ABE6B0E05081BA
:100DC000483040F481E090E002C0880F991F4A95B6
:100DD000E2F710C0242F30E04E3018F42850304095
:100DE00002C02E50304081E090E002C0880F991F71
:100DF0002A95E2F7852B8C93898D9A8D20E00197B7
:100E00002FEF8F3F9207D9F780910D0290910E023C
:100E10008C179D0781F08B8D8E7F8B8F9FB7F894F9
:100E200010924F0280914F0280935002D0930E0295
:100E3000C0930D029FBFDF91CF911F910F91FF9043
:100E4000EF90DF90CF900895FC014485463180F506
:100E5000483028F4EDE6F0E0ADE6B0E00BC04E30EF
:100E600028F4EBE6F0E0ABE6B0E004C0ECE6F0E03E
:100E7000ACE6B0E05081483040F481E090E002C040
:100E8000880F991F4A95E2F710C0242F30E04E30AA
:100E900018F42850304002C02E50304081E090E0DD
:100EA00002C0880F991F2A95E2F7809585238C93BD
:100EB0000895FC0185E591E091838083CF010E9434
:100EC0002407089520910D0230910E02281739074A
:100ED00031F49091500280914F02981719F42FEF3E
:100EE0003FEF0FC0E0915002F0E0E15FFD4F208145
:100EF0008091500290E001968F7390708093500221
:100F000030E0C901089520910D0230910E0228179A
:100F1000390719F020E030E00EC080914F02209197
:100F2000500290E0805C9F4F821B910960E470E06A
:100F30000E94DD119C01C90108950F931F93DC01EC
:100F400059968D919C915A97892B49F481E090E0B4
:100F500013969C938E93129720E030E097C00FB7C2
:100F6000F8945B968C915B975196ED91FC9152971A
:100F700050962C91509781FF8DC08081822B808369
:100F800059968D919C915A97059620E001972FEFE5
:100F90008F3F9207D9F75B968C915B9781FF35C0A5
:100FA00031E040E050E070E010E0832F90E08623D5
:100FB00097235196ED91FC91529750962C91509712
:100FC000892B29F0808120952823208303C08081EC
:100FD000822B808359968D919C915A97212F01974E
:100FE0002FEF8F3F9207D9F7330F4F5F5F4F483096
:100FF0005105D9F65196ED91FC91529790815096FA
:101000008C9150978095892333C031E040E050E0C7
:1010100070E010E0832F90E0862397235196ED91A6
:10102000FC91529750962C915097892B21F08081FA
:10103000822B808304C080812095282320835996A9
:101040008D919C915A97212F01972FEF8F3F9207F7
:10105000D9F7330F4F5F5F4F48305105D9F651969E
:10106000ED91FC915297808150969C915097892BDD
:1010700080830FBF59968D919C915A9720E00197DC
:101080002FEF8F3F9207D9F721E030E0C9011F9180
:101090000F910895808120952823208371CF20917E
:1010A0000D0230910E022817390749F49FB7F894C2
:1010B00010924F0280914F02809350029FBF08957B
:1010C00020910D0230910E022817390731F49091CA
:1010D000500280914F02981719F42FEF3FEF0AC08A
:1010E000E0915002F0E0E15FFD4F8081282F33272F
:1010F00027FD3095C90108951F93CF93DF93EC012D
:10110000162F862F60E00E94590A8B8D81FD04C046
:10111000812F61E00E94980A1C87212F30E0C901CD
:101120008A5C9E4FFC0184918D872E5D3E4FF901B4
:101130006491E62FF0E0EE0FFF1FE85EFE4F859111
:1011400094919F878E87DF91CF911F910895FF9291
:101150000F931F938C01F62E862F61E00E94590A8F
:101160008F2D61E00E94980A8F2D90E0FC01EA5CCF
:10117000FE4FE491D8015096EC9350978E5D9E4FB0
:10118000FC016491E62FF0E0EE0FFF1FE25FFE4FDF
:101190008591949152969C938E9351971F910F91A4
:1011A000FF900895FF920F931F938C01F62EFC0180
:1011B0001382128288EE93E0A0E0B0E084839583EE
:1011C000A683B78385E591E091838083148A138A8F
:1011D000168A158A108E178A128E118E838D2170B1
:1011E000220F8C7F822B838FC801642F0E94A70857
:1011F000C8016F2D0E947C081F910F91FF900895E8
:10120000823000F5E82FF0E0EE0FFF1FEF5AFD4FA0
:1012100071836083882319F08130A1F408C0809124
:1012200069008C7F842B80936900E89A08958091EF
:101230006900440F551F440F551F837F842B8093F3
:101240006900E99A08951F920F920FB60F92112428
:101250002F933F934F935F936F937F938F939F93BE
:10126000AF93BF93EF93FF938091510290915202FD
:10127000892B29F0E0915102F09152020995FF91DA
:10128000EF91BF91AF919F918F917F916F915F91FE
:101290004F913F912F910F900FBE0F901F90189577
:1012A0001F920F920FB60F9211242F933F934F93DB
:1012B0005F936F937F938F939F93AF93BF93EF93BE
:1012C000FF938091530290915402892B29F0E09171
:1012D0005302F09154020995FF91EF91BF91AF91A4
:1012E0009F918F917F916F915F914F913F912F913E
:1012F0000F900FBE0F901F9018951F920F920FB670
:101300000F9211242F933F938F939F93AF93BF938B
:101310008091590290915A02A0915B02B0915C02B7
:1013200030915D020196A11DB11D232F2D5F2D3738
:1013300020F02D570196A11DB11D20935D028093D1
:10134000590290935A02A0935B02B0935C02809181
:10135000550290915602A0915702B0915802019601
:10136000A11DB11D8093550290935602A093570280
:10137000B0935802BF91AF919F918F913F912F9160
:101380000F900FBE0F901F9018959B01AC017FB777
:10139000F8948091550290915602A0915702B09115
:1013A000580266B5A89B05C06F3F19F00196A11DB4
:1013B000B11D7FBFBA2FA92F982F8827860F911DA7
:1013C000A11DB11D62E0880F991FAA1FBB1F6A955E
:1013D000D1F7BC012DC0FFB7F894809155029091D0
:1013E0005602A0915702B0915802E6B5A89B05C0DD
:1013F000EF3F19F00196A11DB11DFFBFBA2FA92F14
:10140000982F88278E0F911DA11DB11DE2E0880F36
:10141000991FAA1FBB1FEA95D1F7861B970B885E01
:101420009340C8F2215030404040504068517C4FBA
:10143000211531054105510571F60895789484B55B
:10144000826084BD84B5816084BD85B5826085BDC0
:1014500085B5816085BDEEE6F0E0808181608083A6
:10146000E1E8F0E010828081826080838081816089
:101470008083E0E8F0E0808181608083E1EBF0E050
:10148000808184608083E0EBF0E0808181608083F4
:10149000EAE7F0E0808184608083808182608083DD
:1014A0008081816080838081806880831092C10008
:1014B0000895CF93DF93482F50E0CA018A5C9E4F76
:1014C000FC0134914E5D5E4FFA018491882369F1ED
:1014D00090E0880F991FFC01EC5FFE4FA591B4913D
:1014E000FC01E25FFE4FC591D491662351F42FB702
:1014F000F8948C91932F909589238C9388818923DC
:101500000BC0623061F42FB7F8948C91932F9095B3
:1015100089238C938881832B88832FBF06C09FB734
:10152000F8948C91832B8C939FBFDF91CF9108957A
:10153000482F50E0CA01865B9E4FFC012491CA01EE
:101540008A5C9E4FFC0194914E5D5E4FFA0134918E
:10155000332309F440C0222351F1233071F02430A9
:1015600028F42130A1F0223011F514C02630B1F05A
:101570002730C1F02430D9F404C0809180008F77E7
:1015800003C0809180008F7D8093800010C084B55F
:101590008F7702C084B58F7D84BD09C08091B00073
:1015A0008F7703C08091B0008F7D8093B000E32FD0
:1015B000F0E0EE0FFF1FE25FFE4FA591B4912FB751
:1015C000F894662321F48C919095892302C08C9124
:1015D000892B8C932FBF089508951F920F920FB6F9
:1015E0000F9211242F933F934F938F939F93EF93D9
:1015F000FF938091C00082FD1DC04091C6002091E4
:101600009E0230919F022F5F3F4F2F733070809169
:10161000A0029091A1022817390771F0E0919E0273
:10162000F0919F02E25AFD4F408330939F02209336
:101630009E0202C08091C600FF91EF919F918F9111
:101640004F913F912F910F900FBE0F901F901895C3
:10165000E091F202F091F302E05CFF4F81919191F1
:1016600020813181821B930B8F739070892B11F035
:101670000E94EC0A08951F920F920FB60F92112448
:101680002F933F938F939F93EF93FF932091E202C9
:101690003091E3028091E4029091E5022817390726
:1016A00031F48091C1008F7D8093C10014C0E0911E
:1016B000E402F091E502EE55FD4F20818091E402B5
:1016C0009091E50201968F7390709093E50280935C
:1016D000E4022093C600FF91EF919F918F913F917B
:1016E0002F910F900FBE0F901F901895AF92BF9241
:1016F000DF92EF92FF920F931F93CF93DF93EC0152
:101700007A018B01DD24403081EE580780E06807C4
:1017100080E0780711F0DD24D39491E0A92EB12C5C
:10172000EC89FD89DD2069F0C50108A002C0880FA1
:10173000991F0A94E2F7808360E079E08DE390E0FE
:1017400005C0108260E874E88EE190E0A80197017E
:101750000E94F0112150304040405040569547952E
:101760003795279580E12030380720F0DD2011F0F3
:10177000DD24D6CFE889F9893083EA89FB89208383
:1017800019A2EE89FF89408121E030E0C9010C8C6B
:1017900002C0880F991F0A94E2F7482B4083EE8914
:1017A000FF894081C9010D8C02C0880F991F0A94DE
:1017B000E2F7482B4083EE89FF894081C9010E8CF6
:1017C00002C0880F991F0A94E2F7482B4083EE89E4
:1017D000FF8980810F8C02C0220F331F0A94E2F729
:1017E000209528232083DF91CF911F910F91FF90A7
:1017F000EF90DF90BF90AF900895DC011C96ED91C3
:10180000FC911D97E05CFF4F219131918081918186
:10181000281B390B2F733070C9010895DC011C9609
:10182000ED91FC911D97E05CFF4F20813181E054E8
:10183000F040DF01AE5BBF4F8D919C91119728174F
:10184000390719F42FEF3FEF07C08D919C91E80FF6
:10185000F91F8081282F30E0C9010895DC011C9612
:10186000ED91FC911D97E05CFF4F20813181E054A8
:10187000F040DF01AE5BBF4F8D919C91119728170F
:10188000390719F42FEF3FEF10C08D919C911197FC
:10189000E80FF91F20818D919C91119701968F730C
:1018A000907011969C938E9330E0C9010895DC01ED
:1018B00091968C919197882339F05496ED91FC91F3
:1018C0005597808186FFF9CF91961C920895CF930A
:1018D000DF93EC01EE85FF85E05CFF4F20813181D5
:1018E000E054F0402F5F3F4F2F733070DF01AE5B4D
:1018F000BF4F8D919C91119728173907D1F3E05C68
:10190000FF4F80819181E054F040E80FF91F608320
:10191000EE85FF85E05CFF4F31832083EE89FF89F0
:10192000208181E090E00F8C02C0880F991F0A94FB
:10193000E2F7282B208381E089A3EC89FD8980814F
:101940008064808381E090E0DF91CF9108951092D0
:10195000E9021092E80288EE93E0A0E0B0E0809304
:10196000EA029093EB02A093EC02B093ED0285E6BD
:1019700091E09093E7028093E6028EE592E09093E7
:10198000F3028093F20282EA92E09093F502809350
:10199000F40285EC90E09093F7028093F60284ECD9
:1019A00090E09093F9028093F80280EC90E090939D
:1019B000FB028093FA0281EC90E09093FD02809309
:1019C000FC0282EC90E09093FF028093FE0286EC92
:1019D00090E0909301038093000384E080930203DE
:1019E00083E08093030387E08093040385E0809382
:1019F000050381E0809306030895CF93DF930E944F
:101A00001E0A0E94F901C8E2DBE00E94450120970E
:101A1000E1F30E94280BF9CF0E94A80F0895CF92FE
:101A2000DF92EF92FF920F931F93CF93DF937C018E
:101A30006B018A01C0E0D0E00FC0D6016D916D014D
:101A4000D701ED91FC910190F081E02DC70109953E
:101A5000C80FD91F015010400115110571F7CE01B3
:101A6000DF91CF911F910F91FF90EF90DF90CF907A
:101A70000895DC01ED91FC910190F081E02D099534
:101A80000895EF92FF920F931F938C01DC01ED916B
:101A9000FC910190F081E02D6DE009957C01D80169
:101AA000ED91FC910190F081E02DC8016AE009956B
:101AB0009C012E0D3F1DC9011F910F91FF90EF90CA
:101AC0000895EF92FF920F931F937C01DC01ED913B
:101AD000FC910190F081E02D09958C01C7010E94D5
:101AE000410D080F191FC8011F910F91FF90EF9032
:101AF0000895CF93DF93EC016115710519F420E08F
:101B000030E00FC0DB010D900020E9F71197A61B14
:101B1000B70BE881F9810280F381E02DAD010995D1
:101B20009C01C901DF91CF9108954F925F927F92FE
:101B30008F929F92AF92BF92CF92DF92EF92FF92DD
:101B40000F931F93DF93CF93CDB7DEB7A1970FB657
:101B5000F894DEBF0FBECDBF2C01742ECB01223016
:101B600008F42AE019A231E2C32ED12CCC0EDD1EDE
:101B7000822E9924AA24BB24672D752FA5019401D8
:101B80000E94F01179018A01C801B701A5019401F1
:101B90000E94BE11472D461B0894C108D1084A3047
:101BA00014F4405D01C0495CF6014083E114F10486
:101BB0000105110521F07E2C5F2DC801DDCFC2018A
:101BC000B6010E94790DA1960FB6F894DEBF0FBE44
:101BD000CDBFCF91DF911F910F91FF90EF90DF90DC
:101BE000CF90BF90AF909F908F907F905F904F90DD
:101BF0000895DC012115310541F4ED91FC9101902E
:101C0000F081E02D642F099508950E94950D0895A7
:101C1000EF92FF920F931F939A01E62EFF2400E0AC
:101C200010E0B801A7010E94F90D1F910F91FF90DC
:101C3000EF9008950E94790D0895EF92FF920F930F
:101C40001F937C010E94790D8C01C7010E94410DF8
:101C5000080F191FC8011F910F91FF90EF90089571
:101C6000AF92BF92CF92DF92EF92FF920F931F93AA
:101C7000CF93DF935C016B01EE24FF24C0E0D0E042
:101C800010C0D501ED91FC9100811181C601BE010A
:101C90000E94770E682FC501F8010995E80EF91E1C
:101CA0002196F60184819581C817D90750F3C701A1
:101CB000DF91CF911F910F91FF90EF90DF90CF9028
:101CC000BF90AF900895EF92FF920F931F937C0106
:101CD0000E94300E8C01C7010E94410D9C01200F13
:101CE000311FC9011F910F91FF90EF900895FC01E2
:101CF000848195816817790748F40190F081E02D7F
:101D0000309721F0E60FF71F8081089580E0089555
:101D10000F931F93CF93DF93EC018B016F5F7F4F86
:101D2000888199810E94DD10009711F480E005C040
:101D3000998388831B830A8381E0DF91CF911F9170
:101D40000F910895CF93DF93EC0188819981892BBE
:101D500029F08A819B818617970760F4CE010E9443
:101D6000880E882341F08C819D81892B19F4E881AC
:101D7000F981108281E0DF91CF910895EF92FF9277
:101D80000F931F93CF93DF93EC017B016C817D81D7
:101D9000E114F104C1F04115510599F08A01060FD3
:101DA000171FB8010E94A20E882369F088819981CB
:101DB0002C813D81820F931FB7010E94E6001D8395
:101DC0000C8381E001C080E0DF91CF911F910F91E2
:101DD000FF90EF900895EF92FF920F931F93DF9380
:101DE000CF93CDB7DEB727970FB6F894DEBF0FBEFF
:101DF000CDBF7C01CB018E010F5F1F4FB8014AE0C0
:101E000050E00E94ED00F80101900020E9F73197C1
:101E1000E01BF10BC701B801AF010E94BE0E27966F
:101E20000FB6F894DEBF0FBECDBFCF91DF911F91EB
:101E30000F91FF90EF900895CF93DF93EC0188818D
:101E40009981009711F00E944510198218821D8215
:101E50001C821B821A82DF91CF9108950F931F93EA
:101E6000182F092F0E94EB0E882321F4812F902F29
:101E70000E941C0F812F902F1F910F910895EF92B8
:101E8000FF920F931F93CF93DF93EC017B018A01A5
:101E9000BA010E94A20E882321F4CE010E941C0FD9
:101EA00007C01D830C8388819981B7010E94E600D9
:101EB000CE01DF91CF911F910F91FF90EF90089588
:101EC000CF93DF93EC01198218821B821A821D8244
:101ED0001C821E826115710551F0DB010D900020FE
:101EE000E9F71197A61BB70BAD010E943F0FDF91D9
:101EF000CF910895CF93DF93EC01FB0186179707ED
:101F000061F0608171816115710529F0448155810D
:101F10000E943F0F02C00E941C0FCE01DF91CF91A3
:101F20000895FC011182108213821282158214829C
:101F300016820E947A0F0895FC01808191810E948F
:101F400045100895FC01808191810E9445100895FB
:101F50000F931F93CF93DF93BC018230910510F450
:101F600062E070E0E0910A03F0910B03A0E0B0E0C2
:101F700040E050E024C08081918186179707D0F01F
:101F80008617970771F482819381109729F0139631
:101F90009C938E9312972CC090930B0380930A030B
:101FA00027C04115510519F08417950718F4EF0162
:101FB0008D01AC01DF01828193819C01F901309791
:101FC000D1F641155105F9F0CA01861B970B8430F3
:101FD000910580F48A819B810115110521F0F8019A
:101FE0009383828304C090930B0380930A03FE01C2
:101FF000329645C0FE01E80FF91F61937193029775
:10200000998388833CC08091080390910903892BB0
:1020100041F480914D0190914E019093090380937A
:10202000080340914F01509150014115510541F471
:102030004DB75EB780914B0190914C01481B590BF5
:10204000209108033091090324173507B0F4CA0121
:10205000821B930B8617970780F0AB014E5F5F4F93
:102060008417950750F0420F531F50930903409374
:102070000803F9016193719302C0E0E0F0E0CF0141
:10208000DF91CF911F910F910895CF93DF939C0122
:10209000009709F48FC0EC0122971B821A8260918D
:1020A0000A0370910B036115710581F48881998190
:1020B000820F931F209108033091090328173907D5
:1020C00039F5D0930903C093080374C0DB0140E0E5
:1020D00050E0AC17BD0708F1BB83AA83FE01219134
:1020E0003191E20FF31FAE17BF0779F48D919C91E8
:1020F0001197280F391F2E5F3F4F3983288312967F
:102100008D919C9113979B838A834115510571F49E
:10211000D0930B03C0930A034DC012968D919C91EE
:102120001397AD01009711F0DC01D3CFDA011396BC
:10213000DC93CE931297FA0121913191E20FF31FB4
:10214000CE17DF0769F488819981280F391F2E5F28
:102150003F4FFA01318320838A819B81938382835D
:10216000E0E0F0E0DB0112968D919C9113970097CF
:1021700019F0BC01FD01F6CFAB014E5F5F4FDB01F3
:102180008D919C91840F951F209108033091090334
:102190002817390779F4309729F410920B0310921D
:1021A0000A0302C013821282425050405093090326
:1021B00040930803DF91CF9108956F927F928F92A1
:1021C0009F92AF92BF92CF92DF92EF92FF920F93C6
:1021D0001F93CF93DF938C01009729F4CB010E94CA
:1021E000A80F8C01BBC08EEFE82E8FEFF82EE00E0B
:1021F000F11E4801860E971E8E149F0408F4ACC091
:10220000D7014D915C91119746175707B8F04530AB
:10221000510508F4A3C0CA0104978617970708F46C
:102220009DC042505040461B570BF40141935193BF
:102230006D937C93CF010E94451090C05B01A41A5E
:10224000B50A3801640E751EA0910A03B0910B0304
:10225000CC24DD24E0E0F0E047C0A615B705A9F5E1
:10226000CD91DC911197CE0102968A159B0568F1FC
:10227000CE018A199B09029612962C9112971396F9
:102280003C91059758F0F40122833383CA19DB0986
:10229000D183C083D7016D937C9309C04E5F5F4F9C
:1022A0004C0F5D1FF70151834083C901FC01C1142C
:1022B000D10431F0D6011396FC93EE9312974EC0E1
:1022C000F0930B03E0930A0349C08D919C91119701
:1022D000E817F90708F4FC016D0112968C9112972A
:1022E00013969C919C01D901109709F0B6CF80916B
:1022F00008039091090386159705E9F4E617F70797
:10230000D0F420914F01309150012115310541F455
:102310002DB73EB780914B0190914C01281B390B92
:1023200082169306C8F49092090380920803F7017D
:102330007183608313C0CB010E94A80FEC0100974A
:1023400059F0D7014D915C91B8010E94DD00C801A0
:102350000E9445108E0102C000E010E0C801DF912C
:10236000CF911F910F91FF90EF90DF90CF90BF9092
:10237000AF909F908F907F906F900895629FD00153
:10238000739FF001829FE00DF11D649FE00DF11D30
:10239000929FF00D839FF00D749FF00D659FF00DDF
:1023A0009927729FB00DE11DF91F639FB00DE11DCC
:1023B000F91FBD01CF011124089597FB092E0726AF
:1023C0000AD077FD04D02ED006D000201AF47095E4
:1023D00061957F4F0895F6F7909581959F4F0895E9
:1023E000A1E21A2EAA1BBB1BFD010DC0AA1FBB1F19
:1023F000EE1FFF1FA217B307E407F50720F0A21B8B
:10240000B30BE40BF50B661F771F881F991F1A94F7
:1024100069F760957095809590959B01AC01BD0121
:10242000CF010895AA1BBB1B51E107C0AA1FBB1F08
:10243000A617B70710F0A61BB70B881F991F5A9550
:10244000A9F780959095BC01CD010895EE0FFF1F6F
:102450000590F491E02D099411E0C4E6D1E004C0A8
:10246000FE010E9428122296C636D107C9F7F894B9
:02247000FFCF9C
:10247200524649442052454144004E4F205246495B
:1024820044004C697374656E696E672E2E2E004986
:10249200442072656365697665643A005458204247
:1024A20055464645523A00525820425546464552F4
:1024B2003A00C8002223242526276480000C03004A
:1024C20000000000009D070F0D8307620760084FA0
:1024D2000800000000670C0F0DFD0B2E0C0E0C57B0
:0224E2000C00EC
:00000001FF
