:100000000C9496010C94171B0C94441B0C94E31055
:100010000C9467050C940D110C94BE010C94BE0158
:100020000C94BE010C94BE010C94BE010C94170BF1
:100030000C94BE010C94BE010C94BE010C94BE0144
:100040000C94711B0C94BE010C944C1D0C949A1DC5
:100050000C94BE010C94BE010C94BE010C94BE0124
:100060000C94BE010C94BE0100C2010001001100FD
:1000700011000C0000E100000A002500250021000D
:10008000009600001900390039003600127A00008D
:100090001F004600460044008070000022004D0012
:1000A0004D004A00004B00003600750075007200DC
:1000B000403800004A009C009C0099008025000008
:1000C0007200EC00EC00E900C0120000E900DA0167
:1000D000DA01D70160090000D701B603B603B30304
:1000E000B0040000B3036E076E076B0758020000F0
:1000F0006E07DC0EDC0ED80E2C010000DC0EC11DDC
:10010000C11DBE1D0A0B0C0D0E0F11121314151676
:100110000001020304056B02710277027F0288026C
:1001200092029B02A202AA02B102B802BF0250418F
:1001300020506F77657209203D2025530D0A00433A
:100140005243204C656E67746809203D2025530D8D
:100150000A004D6F64656C0909203D2025530D0A86
:100160000044617461205261746509203D2025536B
:100170000D0A0044594E50442F46454154555245AE
:1001800000434F4E4649470052465F534554555031
:100190000052465F434800454E5F52584144445226
:1001A00000454E5F41410052585F50575F50302D1F
:1001B000360054585F414444520052585F41444411
:1001C000525F50322D350052585F414444525F50C7
:1001D000302D31000D0A00253032780020307800B3
:1001E0002553092563203D000D0A00203078253075
:1001F0003278002553092563203D004F4253455274
:1002000056455F54583D253032783A20504F4C5374
:100210005F434E543D2578204152435F434E543D49
:1002200025780D0A005354415455530909203D20A7
:100230003078253032782052585F44523D2578205E
:1002400054585F44533D2578204D41585F52543DEA
:1002500025782052585F505F4E4F3D2578205458E6
:100260005F46554C4C3D25780D0A00314D425053A8
:1002700000324D425053003235304B425053006EE5
:10028000524632344C3031006E524632344C3031AA
:100290002B0044697361626C656400382062697484
:1002A0007300313620626974730050415F4D494ECE
:1002B0000050415F4C4F57004C415F4D454400504A
:1002C000415F484947480000000000240027002AF9
:1002D0000000000000250028002B00000000002383
:1002E0000026002900040404040404040402020299
:1002F0000202020303030303030102040810204067
:1003000080010204081020010204081020000000EF
:1003100007000201000003040600000000000000C6
:100320000000B0051E0C061FA905170C11241FBEE6
:10033000CFEFD8E0DEBFCDBF12E0A0E0B1E0E2ED4C
:10034000FBE402C005900D92A03DB107D9F714E07F
:10035000A0EDB2E001C01D92A93CB107E1F713E0A6
:10036000C8E2D3E004C02297FE010E94A125C23258
:10037000D107C9F70E945C1F0C94DC250C94000087
:10038000FC0105900020E9F7809590958E0F9F1F46
:100390000895FB01DC0102C001900D9241505040D4
:1003A000D8F70895FB01DC0101900D920020E1F7E0
:1003B0000895FB019F01E8944230C4F04532B4F443
:1003C0004A3029F497FB1EF4909581959F4F642F36
:1003D00077270E948B25805D8A330CF0895D81939D
:1003E000CB010097A1F716F45DE251931082C90189
:1003F0000C94AD04FB019F01423074F0453264F46B
:10040000642F77270E948B25805D8A330CF0895DED
:100410008193CB010097A1F71082C9010C94AD0420
:100420000F931F93CF93DF938C01EB01009731F46F
:100430006115710519F420E030E038C081E090E0EA
:100440006EE070E00E947404FC019C01009771F161
:1004500080E88383209771F0D387C28781E8838304
:100460008091C3049091C404892B21F4F093C404B7
:10047000E093C30401151105C9F01187008783813A
:10048000826083838091C5049091C604892B71F4A6
:10049000F093C604E093C5048091C7049091C8040A
:1004A000892B21F4F093C804E093C704C901DF91BC
:1004B000CF911F910F910895A0E0B0E0E2E6F2E045
:1004C0000C94B525FE013596619171918091C5041A
:1004D0009091C604AF010E9497022096E2E00C942E
:1004E000D125A0E0B0E0E7E7F2E00C94B525FE01ED
:1004F000359661917191A091C504B091C60413968F
:100500008C911397886013968C938091C504909179
:10051000C604AF010E949702E091C504F091C604A1
:100520002381277F23832096E2E00C94D125ABE042
:10053000B0E0EDE9F2E00C94A5253C012B015A0155
:10054000FC0117821682838181FD03C06FEF7FEF6C
:10055000C6C19AE0892E1E010894211C311CF301AA
:100560002381F20123FD859123FF81912F018823AF
:1005700009F4B2C1853239F423FD859123FF8191BD
:100580002F01853229F490E0B3010E94BD04E7CF2A
:10059000982FFF24EE249924FFE1FF15D0F09B3221
:1005A00069F09C3228F4903259F0933291F40EC0E5
:1005B0009D3249F0903369F441E024C052E0F52ABD
:1005C00084E0F82A28C098E0F92A25C0E0E1FE2A54
:1005D00022C0F7FC29C0892F80538A3070F4F6FEC0
:1005E00005C0989C902C1124980E15C0E89CE02C16
:1005F0001124E80EF0E2FF2A0EC09E3229F4F6FC28
:100600006BC140E4F42A07C09C3619F450E8F52A7F
:1006100002C0983649F4F20123FD959123FF919190
:100620002F01992309F0B8CF892F8554833018F012
:100630008052833038F444E050E0A40EB51E5FE3EE
:1006400059830FC0933631F0933779F0933509F021
:1006500056C020C0F5018081898342E050E0A40E9D
:10066000B51E610101E010E012C0F501C080D1802B
:10067000F6FC03C06FEF7FEF02C0692D70E042E02F
:1006800050E0A40EB51EC6010E94A2048C015FE7D3
:10069000F52214C0F501C080D180F6FC03C06FEFD5
:1006A0007FEF02C0692D70E042E050E0A40EB51E5D
:1006B000C6010E9490048C0150E8F52AF3FE07C0A1
:1006C0001AC080E290E0B3010E94BD04EA948E2D2E
:1006D00090E008171907A8F30EC0F601F7FC859102
:1006E000F7FE81916F0190E0B3010E94BD04E1101B
:1006F000EA94015010400115110579F7EAC09436CB
:1007000011F0993669F5F7FE08C0F50120813181B5
:100710004281538184E090E00AC0F501808191819B
:100720009C01442737FD4095542F82E090E0A80EAD
:10073000B91E9FE6F92257FF09C0509540953095A4
:1007400021953F4F4F4F5F4FE0E8FE2ACA01B901A4
:10075000A1012AE030E00E94E904D82ED21840C05E
:10076000953729F41F2D1F7E2AE030E01DC01F2D74
:10077000197F9F3661F0903720F4983509F0ACC0AE
:100780000FC0903739F0983709F0A6C004C028E0B0
:1007900030E00AC0106114FD146020E130E004C0B4
:1007A00014FD166020E132E017FF08C0F5016081FA
:1007B00071818281938144E050E008C0F50180811D
:1007C0009181BC0180E090E042E050E0A40EB51EB3
:1007D000A1010E94E904D82ED2188FE7F82EF12249
:1007E000F6FE0BC05EEFF522D91438F4F4FE07C014
:1007F000F2FC05C08FEEF82202C01D2D01C0192D9C
:10080000F4FE0DC0FE01ED0DF11D8081803319F461
:1008100099EEF92208C01F5FF2FE05C003C08F2DBC
:10082000867809F01F5F0F2DF3FC14C0F0FE0FC097
:100830001E1510F09D2C0BC09D2C9E0C911A1E2D88
:1008400006C080E290E0B3010E94BD041F5F1E1548
:10085000C0F304C01E1510F4E11A01C0EE2404FF19
:100860000FC080E390E0B3010E94BD0402FF1DC0F1
:1008700001FD03C088E790E00EC088E590E00BC062
:10088000802F867891F001FF02C08BE201C080E2E8
:10089000F7FC8DE290E0B3010E94BD0406C080E346
:1008A00090E0B3010E94BD049A94D914C0F3DA9485
:1008B000F101ED0DF11D808190E0B3010E94BD04B6
:1008C000DD20A9F706C080E290E0B3010E94BD04DC
:1008D000EA94EE20C1F743CEF30166817781CB0124
:1008E0002B96E2E10C94C1250F931F93CF93DF93D6
:1008F000689F8001699F100D789F100D1124C80119
:100900000E94FA22EC01009729F060E070E0A80153
:100910000E949B04CE01DF91CF911F910F9108950A
:10092000FC010590615070400110D8F780959095BA
:100930008E0F9F1F0895DC0101C06D934150504000
:10094000E0F70895FC016150704001900110D8F764
:10095000809590958E0F9F1F0895DC01FC01672FF5
:1009600071917723E1F7329704C07C916D93708386
:100970006291AE17BF07C8F308950F931F93CF93EB
:10098000DF938C01EB018B8181FF1BC082FF0DC0C7
:100990002E813F818C819D812817390764F4E8817D
:1009A000F9810193F983E88306C0E885F985802FF2
:1009B0000995892B31F48E819F8101969F838E83C7
:1009C00002C00FEF1FEFC801DF91CF911F910F9170
:1009D0000895FA01AA27283051F1203181F1E894D5
:1009E0006F936E7F6E5F7F4F8F4F9F4FAF4FB1E022
:1009F0003ED0B4E03CD0670F781F891F9A1FA11D1D
:100A0000680F791F8A1F911DA11D6A0F711D811D1D
:100A1000911DA11D20D009F468943F912AE0269FE2
:100A200011243019305D3193DEF6CF010895462F41
:100A30004770405D4193B3E00FD0C9F7F6CF462F22
:100A40004F70405D4A3318F0495D31FD405241938B
:100A500002D0A9F7EACFB4E0A69597958795779548
:100A60006795BA95C9F700976105710508959B01CF
:100A7000AC010A2E06945795479537952795BA9558
:100A8000C9F7620F731F841F951FA01D0895882347
:100A900071F08091680082608093680080916C00A2
:100AA000816080936C0080916C0082600DC08091A9
:100AB00068008D7F8093680080916C008E7F8093AA
:100AC0006C0080916C008D7F80936C0008951F9264
:100AD0000F920FB60F9211242F933F934F935F9372
:100AE0006F937F938F939F93AF93BF93EF93FF93F6
:100AF00080E00E944705FF91EF91BF91AF919F91D8
:100B00008F917F916F915F914F913F912F910F90B6
:100B10000FBE0F901F9018958130910581F46F5F83
:100B20007F4FB1F480ED92E00E94D30983ED92E013
:100B300067E070E048E050E00E945E090895892B6C
:100B400039F46F5F7F4F21F483ED92E00E94291208
:100B5000089580E090E06FEF7FEF0E948C0508958C
:100B600081E090E06FEF7FEF0E948C05089581E0B7
:100B70000E94470564E670E080E090E00E94C71B99
:100B800083B7817F846083BF83B7816083BF8DE03B
:100B900060E00E94A41C83B7816083BF889583B7FF
:100BA0008E7F83BF83B78E7F83BF8DE061E00E941D
:100BB000A41C0895813039F0813090F0823031F0FA
:100BC000833071F406C08AE061E00CC08AE060E026
:100BD00002C08AE061E00E94A41C8BE061E006C0D4
:100BE0008AE060E00E94A41C8BE060E00E94A41CEC
:100BF0008CE060E00E94A41C08955F926F927F9247
:100C00008F929F92AF92BF92CF92DF92EF92FF921C
:100C10000F931F93CF93DF930E94B91B3B0100E01A
:100C200010E0DD2482E0582ECC24C39459C00E94E9
:100C3000B91B4B015C018EE00E94F81C7C018FE027
:100C40000E94F81CEC01E114F10439F4009729F436
:100C50008EE060E00E94A41C11C0DD2009F43FC0BA
:100C6000DD24C130D10511F4DD24D39480E091E07E
:100C7000E916F10409F481E08D1519F4DD24D3940B
:100C80002EC08DE994E060E071E00E940C2181E0CB
:100C9000E816F10469F4CD2B59F48DE994E068E08D
:100CA00071E00E940C21F801E950FD4FC0820EC096
:100CB000DD20A1F0EF2891F48DE994E062E171E08C
:100CC0000E940C21F801E950FD4F50820F5F1F4F29
:100CD00068EC70E080E090E00E94C71BDD24B40166
:100CE000661977096051774224F4043011050CF439
:100CF0009ECF80E00430110509F481E0DF91CF91AF
:100D00001F910F91FF90EF90DF90CF90BF90AF9029
:100D10009F908F907F906F905F900895EF92FF92D9
:100D20001F93CF93DF930E94B91B7B01EB0110E06F
:100D300010C083ED92E060EA72E00E94FE08182F76
:100D40000E94B91BEB0162E370E080E090E00E943A
:100D5000C71BCE19DF09C051D7421CF4112349F338
:100D600011E0812FDF91CF911F91FF90EF900895B7
:100D70001F93CF93DF9381E00E94DA058DE994E021
:100D80006CE171E00E940C210E948E06882309F418
:100D9000CBC0C0EAD2E08DE994E0699140E150E037
:100DA0000E94672082E0C63AD807A9F783E00E9434
:100DB000DA050E94FD05882309F4B6C08DE994E0A8
:100DC00066E271E00E940C21C7EFD2E08DE994E069
:100DD00069914AE050E00E94672092E0CB3FD9073A
:100DE000A9F78DE994E060E20E94C01F8DE994E0CC
:100DF00066E371E00E940C2106C062E370E080E0CF
:100E000090E00E94C71B8091EF029091F0020E9437
:100E10002A0E882391F38091EF029091F0020E94B4
:100E2000D50BCDB7DEB72A970FB6F894DEBF0FBE4D
:100E3000CDBFEDB7FEB73196A3E4B1E0BA83A98385
:100E400022833383448355836683778380879187A6
:100E50000E945C028AE08093F102EDB7FEB73A96F9
:100E60000FB6F894FEBF0FBEEDBF8091EF029091D8
:100E7000F00261EF72E00E940B0D8091EF02909101
:100E8000F00260EA72E00E940B0D8091EF029091F7
:100E9000F00267EF72E00E940B0D64E670E080E004
:100EA00090E00E94C71B8091EF029091F00261EFE9
:100EB00072E00E947B0F8823B9F18091EF0290913C
:100EC000F0020E94E50DC1EFD2E011E060E070E0B9
:100ED0008881883C11F461E070E08DE994E04AE09B
:100EE00050E00E94EA20212F30E040E050E088816D
:100EF000883C11F441E050E02423352310E0232BFB
:100F000009F011E02196F2E0C73FDF07F9F611235F
:100F100059F08DE994E064E571E00E940C2182E0D3
:100F20000E94DA0581E001C080E0DF91CF911F913E
:100F300008951F93CF93DF938DE994E066E371E00A
:100F40000E940C2106C062E370E080E090E00E9405
:100F5000C71B8091EF029091F0020E942A0E882315
:100F600091F38091EF029091F0020E94D50BCDB7E2
:100F7000DEB72A970FB6F894DEBF0FBECDBFEDB730
:100F8000FEB73196A6E6B1E0BA83A9832283338304
:100F90004483558366837783808791870E945C02B0
:100FA00084E18093F102EDB7FEB73A960FB6F8945C
:100FB000FEBF0FBEEDBF8091EF029091F00261EF96
:100FC00072E00E940B0D8091EF029091F00260EAB6
:100FD00072E00E940B0D64E670E080E090E00E94F9
:100FE000C71B8091EF029091F00261EF72E00E94C6
:100FF0007B0F8823B9F18091EF029091F0020E945B
:10100000E50DC1EFD2E011E060E070E08881883C3E
:1010100011F461E070E08DE994E04AE050E00E9454
:10102000EA20212F30E040E050E08881883C11F434
:1010300041E050E02423352310E0232B09F011E098
:101040002196F2E0C73FDF07F9F6112359F08DE949
:1010500094E066E771E00E940C2182E00E94DA05CC
:1010600081E001C080E0DF91CF911F9108958091D0
:10107000A602813021F0833009F041C01DC00E94DA
:10108000B8068823A1F083E08093A60280ED92E069
:1010900066E470E00E94290A68E873E180E090E06D
:1010A0000E94C71B8DE994E066E871E016C08DE9E7
:1010B00094E068E971E018C00E949907882381F0E4
:1010C00081E08093A60280ED92E060EA70E00E94E9
:1010D000290A8DE994E06AEA71E00E940C210FC0B0
:1010E0008DE994E06AEB71E00E940C2181E00E949E
:1010F000DA0568E873E180E090E00E94C71B809108
:10110000EF029091F0020E94BA0E80E00E94DA0590
:101110000E94B70508958FEE98E060E070E00E94AD
:1011200010020895DF92EF92FF920F931F938DE9C3
:1011300094E040E051EE60E070E00E94D51D0E9416
:101140008B0883E085BF8AE061E00E94651C8BE02C
:1011500061E00E94651C8CE061E00E94651C8EE0ED
:1011600060E00E94651C8FE060E00E94651C00ED5D
:1011700012E0C80169E070E00E94100BC80160EA4B
:1011800070E00E94290A8DE061E00E94651C8DE0FC
:1011900061E00E94A41C81E090E00E946B1FF82E89
:1011A000D92E009198021091990220919A023091C3
:1011B0009B0240919C0250919D0260919E02709111
:1011C0009F02EE240E94DB0FF092EF02D092F00219
:1011D00078941F910F91FF90EF90DF9008950F93F7
:1011E0001F93082F112707FD10958DE994E0602FBC
:1011F0000E94C61EC8011F910F910895DF92EF92C1
:10120000FF920F931F93CF93DF93F82E092FEB01DB
:101210000E945312181619060CF046C08F2D902FFD
:101220000E943212823009F03FC0DD24EE2410E02B
:101230008F2D902F0E94531218161906CCF78F2D60
:10124000902F0E943212282F8D3071F18A3061F177
:10125000833051F1823041F180538A3010F4282FCD
:1012600005C0822F8154863008F42753812F90E0E7
:1012700010FD02C0D22E0DC0959587953D2D32955B
:10128000307F322BFE01E80FF91F3083059709F0FC
:10129000E3261F5F1C3060F21C3031F490E08D813A
:1012A0008E1519F491E001C090E0892FDF91CF9164
:1012B0001F910F91FF90EF90DF900895CF92DF92F2
:1012C000EF92FF920F931F93DF93CF93CDB7DEB7CB
:1012D0006C970FB6F894DEBF0FBECDBF8C01F62E13
:1012E000E42E20E00E94A2136E010894C11CD11CC0
:1012F000C6016F2D4E2D20E00E94A2138B819C8190
:10130000F801938382838D819E81AF81B885848328
:101310009583A683B78389859A85AB85BC858087AD
:101320009187A287B3878D8584878E8585878F85F2
:101330009889978786878989808B8A899B89928BF0
:10134000818B8C899D89948B838B8E899F89968BC9
:10135000858B888D998D908F878B8A8D9B8D928FB1
:10136000818F9C8D838D8C7F292F22709170892B8A
:10137000822B838FC6010E942912C80140E855E2E2
:1013800060E070E00E9437116C960FB6F894DEBFF3
:101390000FBECDBFCF91DF911F910F91FF90EF90C6
:1013A000DF90CF900895FC018091FD028C3090F485
:1013B00080838F5F8093FD02815090E0FC01EE0FEF
:1013C000FF1FE80FF91FE250FD4F88EB9BE092836F
:1013D000818308958FEF80830895FC0120812C3054
:1013E000B8F58181992787FD909548E850E0481B22
:1013F000590B440F551F440F551F6417750784F090
:101400008281992787FD909548E552E0481B590B4A
:10141000440F551F440F551F641775070CF4AB019B
:1014200042505040CA01AA2797FDA095BA2F880FB5
:10143000991FAA1FBB1F4FB7F89430E0F901EE0FB8
:10144000FF1FE20FF31FE250FD4F928381834FBFD6
:101450000895AF92BF92CF92DF92EF92FF920F93D7
:101460001F93CF93DF93EC019B0182E060327807FA
:101470000CF048C077FF03C020E030E005C0653BBA
:10148000710514F024EB30E000D000D0B9018827BA
:1014900077FD8095982F2981332727FD3095E8E83F
:1014A000AE2EB12CA21AB30AAA0CBB1CAA0CBB1CF0
:1014B000CC24B7FCC094DC2CEA81FF27E7FDF09533
:1014C00028E532E02E1B3F0B220F331F220F331F64
:1014D000442737FD4095542FEDB7FEB72183328363
:1014E0004383548320E030E040E050E004EBE02E02
:1014F000F12C012D112D0E9466219B010F900F9060
:101500000F900F90CE01B9010E94ED09DF91CF91AC
:101510001F910F91FF90EF90DF90CF90BF90AF9011
:101520000895CF92DF92EF92FF921F93CF93DF93B4
:10153000EC01162F7A01690188818C3008F064C0B3
:10154000862F61E00E94651C888190E0FC01EE0F0F
:10155000FF1FE80FF91FE250FD4F1F738081807C51
:10156000812B808380E292E08E199F0964E070E015
:101570000E943B25698380E699E08C199D0964E00F
:1015800070E00E943B256A83A8818A2F6CE00E944C
:101590002F25682F70E0AB01440F551F460F571FD2
:1015A000440F551F440F551F20E030E0C901840F40
:1015B000951FFC01EE0FFF1FE80FF91FE250FD4FD2
:1015C000808186FD15C02F5F3F4F2C30310571F7AC
:1015D00024C01092800082E08093810010928500E8
:1015E00010928400B19A80916F00826080936F00A6
:1015F0008A2F90E0FC01EE0FFF1FE80FF91FE25069
:10160000FD4F8081806480838881DF91CF911F911D
:10161000FF90EF90DF90CF900895672BD1F2E8CF45
:1016200040E252E020E639E00E94910A08951F92BC
:101630000F920FB60F9211242F933F934F935F9306
:101640006F937F938F939F93AF93BF93EF93FF938A
:101650008091220387FF05C01092850010928400BC
:101660002BC020912203332727FD30958091FD0266
:1016700090E02817390704F580912203992787FD08
:101680009095FC01EE0FFF1FE80FF91FE250FD4F90
:10169000808186FF11C080912203992787FD909554
:1016A000FC01EE0FFF1FE80FF91FE250FD4F808194
:1016B0008F7360E00E94A41C809122038F5F80934F
:1016C000220320912203332727FD30958091FD02CC
:1016D00090E0281739070CF04EC0809122038C301F
:1016E0000CF049C020918400309185008091220344
:1016F000992787FD9095FC01EE0FFF1FE80FF91F5A
:10170000E250FD4F81819281280F391F309389006B
:101710002093880080912203992787FD9095FC01F2
:10172000EE0FFF1FE80FF91FE250FD4F808186FF8B
:101730002BC080912203992787FD9095FC01EE0F25
:10174000FF1FE80FF91FE250FD4F80818F7361E0AA
:101750000E94A41C19C080E49CE905C0809184000B
:1017600090918500049690938900809388008FEF74
:101770008093220309C08091840090918500049693
:1017800080549C4940F3EACFFF91EF91BF91AF9114
:101790009F918F917F916F915F914F913F912F9189
:1017A0000F900FBE0F901F901895209197033091C6
:1017B00098034091990350919A0360919B03709113
:1017C0009C0380919D0390919E0308958130910523
:1017D000E1F46F5F7F4F51F587E793E069E04AE0FE
:1017E0000E94D0138FEA93E06AEC71E00E945E22BF
:1017F00086EB93E06FED71E00E945E228DEB93E04B
:1018000062EF71E00E945E220895892B79F46F5F88
:101810007F4F61F48DEB93E00E94F42286EB93E01E
:101820000E94F4228FEA93E00E94F422089580E05F
:1018300090E06FEF7FEF0E94E60B089581E090E06B
:101840006FEF7FEF0E94E60B0895AF92BF92CF92A9
:10185000DF92EF92FF920F931F93DF93CF93CDB759
:10186000DEB766970FB6F894DEBF0FBECDBF87E731
:1018700093E00E94E715882309F4ABC080919F0391
:10188000853611F587E793E0BE01615F7F4F409198
:10189000A7020E94A5178F85988929893A894B89C3
:1018A0005C896D897E898093970390939803209338
:1018B000990330939A0340939B0350939C03609346
:1018C0009D0370939E0385C0833709F082C087E72C
:1018D00093E067E873E04091A7020E94A51780910A
:1018E0008703E82EFF248FEFE816F10409F44AC0BD
:1018F0008091AB039091AC0301969093AC038093DD
:10190000AB0338E8C32E33E0D32E870123E0000F6A
:10191000111F2A95E1F70E191F09035B1C4F5E0189
:101920000894A11CB11CF60161916F01F80161934B
:101930008F01C5014AE00E94C22286EB93E0B50107
:101940000E942322C5010E94F422FFE8CF16F3E093
:10195000DF0649F78E01085F1F4FC801B7014AE053
:101960000E9491228FEA93E0B8010E942322C801CD
:101970000E94F42285EA93E0E80EF91E81E0F70167
:10198000808327C08091AD039091AE030196909320
:10199000AE038093AD031091880387E793E00E9424
:1019A000B0141093870387E0189FD0011124AD5D18
:1019B000BC4FE8E8F3E08D91819383E0EF38F807BE
:1019C000D1F7389787E793E0BF014091A7020E94C3
:1019D0000C1987E793E00E94F01766960FB6F8940B
:1019E000DEBF0FBECDBFCF91DF911F910F91FF9052
:1019F000EF90DF90CF90BF90AF90089560939F03DA
:101A000087E793E00E94EC1564E670E080E090E0E8
:101A10000E94C71B0895CF92DF92EF92FF920F931F
:101A20001F93DF93CF93CDB7DEB727970FB6F89408
:101A3000DEBF0FBECDBF162F072F87E793E00E94B2
:101A4000B0148091A10380938703212F302FC90107
:101A50007C0100E010E06E010894C11CD11C809153
:101A6000A1039091A203FC0143E0EE0FFF1F4A95F2
:101A7000E1F7E81BF90BE00FF11FED5DFC4FD7011B
:101A80008C9180830F5F1F4FF70161917F01F801F7
:101A9000E957FC4F6083C6014AE00E94C2228DEBE9
:101AA00093E0B6010E942322C6010E94F42207306F
:101AB0001105A9F68091A1039091A203019690933C
:101AC000A2038093A10387E793E067E873E0409166
:101AD000A7020E940C1964E670E080E090E00E948A
:101AE000C71B27960FB6F894DEBF0FBECDBFCF91B0
:101AF000DF911F910F91FF90EF90DF90CF900895AD
:101B0000CF93DF938DE994E061E072E00E940921B8
:101B1000C0E0D0E0FE01EB55FC4F60818DE994E020
:101B200070E04AE050E00E94D7208DE994E060E246
:101B30000E94981F2196C630D10561F78DE994E087
:101B400060E20E94C01FDF91CF910895CF93DF9391
:101B50008DE994E06BE072E00E940921C3E2D3E0DA
:101B60008DE994E069914AE050E00E9467208DE998
:101B700094E060E20E94981F83E0CD34D80781F79B
:101B80008DE994E060E20E94C01F8DE994E066E177
:101B900072E00E940921CDE4D3E08DE994E06991DF
:101BA0004AE050E00E9467208DE994E060E20E94E4
:101BB000981F83E0C737D80781F78DE994E060E28A
:101BC0000E94C01FDF91CF910895EF92FF920F9373
:101BD0001F937C0187E793E00E940A1A0DE914E045
:101BE000C80161E272E00E9409216091AB0370912B
:101BF000AC03C8014AE050E00E94EA20C8016AE351
:101C000072E00E9409216091AD037091AE03C8019A
:101C10004AE050E00E94EA20C7010E94A60D0E94FF
:101C2000800DC8016FEA73E00E945221C80166EB83
:101C300073E00E945221C8016DEB73E00E945221B3
:101C4000C80162E672E00E940C211F910F91FF9083
:101C5000EF900895EF92FF920F931F93CF93DF932E
:101C6000EC0180919F03833709F45BC08091970357
:101C7000909198032091990330919A0340919B038E
:101C800050919C0360919D0370919E03892B822B40
:101C9000832B842B852B862B872B09F444C0E09063
:101CA0009703F09098030091990310919A03209163
:101CB0009B0330919C0340919D0350919E0387E7C5
:101CC00093E061E00E9426178091A003882301F52C
:101CD00087E793E00E94B01487E793E06FE873E032
:101CE0004091A7020E940C1900918F03109190035C
:101CF000209191033091920340919303509194036A
:101D0000609195037091960387E793E00E942116F6
:101D1000CE0163E770E00E94FE0C87E793E00E942B
:101D2000F01781E020C0CE0165E670E00E94FE0C55
:101D30008091A003882361F087E793E00E94B014AC
:101D400087E793E06FE873E04091A7020E940C19C7
:101D500087E793E00E94F01762E370E080E090E094
:101D60000E94C71B80E0DF91CF911F910F91FF90E0
:101D7000EF900895EF92FF920F931F9320E030E0D1
:101D8000F901ED5DFC4F1082F901E35BFC4F10821D
:101D90002F5F3F4F2A32310599F71092A503109219
:101DA000A6031092A7031092A8031092A903109201
:101DB000AA0365E670E00E94FE0C87E793E00E94AC
:101DC000F0178091A003882399F000918F03109160
:101DD000900320919103309192034091930350918D
:101DE0009403609195037091960387E793E00AC08E
:101DF00087E793E000E010E020E030E040E050E0D2
:101E000060E070E00E94211687E793E061E0EE2435
:101E1000FF2400E010E020E030E040E050E00E94CD
:101E2000261710929703109298031092990310921C
:101E30009A0310929B0310929C0310929D031092A0
:101E40009E031092A2031092A1031092A403109279
:101E5000A3031092AC031092AB031092AE03109246
:101E6000AD038FEA93E06AEC71E00E94782286EB82
:101E700093E06FED71E00E9478228DEB93E062EFCA
:101E800071E00E9478221F910F91FF90EF900895CA
:101E9000FF920F931F93F62E0DE914E0C8016DE732
:101EA00072E00E940921C8016F2D4AE050E00E94B3
:101EB000792007E713E0C8010E94B0148FEF8093E8
:101EC0008703F09288031092890310928A0310927C
:101ED0008B0310928C0310928D03C80167E873E0A6
:101EE0004091A7020E940C19C8010E94F0171F918F
:101EF0000F91FF900895CF92DF92EF92FF920F9390
:101F00001F93CF93DF937C016B010E94B91B8B0160
:101F1000EB01A091A303B091A403FD01EB55FC4F8D
:101F200080818823A1F4C01BD10BC05DD7407CF415
:101F30000E94B91BEB01C7016091A3030E94480FE7
:101F400064E670E080E090E00E94C71BE2CFAB55F2
:101F5000BC4F8C91882331F120E030E0D601A20FF4
:101F6000B31F8091A3039091A403FC0153E0EE0FF3
:101F7000FF1F5A95E1F7E81BF90BE20FF31FE35B34
:101F8000FC4F80818C932F5F3F4F2730310531F715
:101F90008091A3039091A40301969093A40380934E
:101FA000A30381E0DF91CF911F910F91FF90EF90FC
:101FB000DF90CF900895EF92FF920F931F93CF93EE
:101FC000DF93EC0180E090E0FC01ED5DFC4F1082BE
:101FD000FC01E35BFC4F108201968A329105A1F768
:101FE0001092A5031092A6031092A7031092A803C3
:101FF0001092A9031092AA0300938F0310939003E9
:10200000209391033093920340939303509394034E
:10201000609395037093960387E793E063E070E025
:102020000E94001787E793E061E070E00E948D1640
:1020300087E793E00E94901887E793E060E00E94B2
:10204000791587E793E06FE04FE00E946F1587E70F
:1020500093E068E00E94E31387E793E062E070E0BA
:102060000E94B916CE0165E670E00E94FE0C87E77B
:1020700093E00E94F01780E065E27CE042E050E0EF
:102080000E94F41AE092A003EE2099F000918F03D1
:10209000109190032091910330919203409193030A
:1020A00050919403609195037091960387E793E0B4
:1020B0000AC087E793E000E010E020E030E040E075
:1020C00050E060E070E00E94211687E793E061E055
:1020D000EE24FF2400E010E020E030E040E050E09B
:1020E0000E942617DF91CF911F910F91FF90EF90E3
:1020F00008950F931F93CF93DF93FC01738D769513
:102100007170A685B7859585772329F08C918923F1
:1021100009F454C004C08C91892309F04FC083890D
:10212000948920E001972FEF8F3F9207D9F7C58957
:10213000D689A685B785158560E031E040E050E09E
:1021400000E0CE01202F01972FEF8F3F9207D9F7A4
:102150008C91812311F0632B03C0832F809568231A
:10216000330F4F5F5F4F4830510559F78789908D86
:1021700020E001972FEF8F3F9207D9F771116095FB
:10218000809106042091070490E001968F7390706F
:1021900030E08217930779F0E0910604F0E0EA530B
:1021A000FC4F60838091060490E001968F739070DD
:1021B0008093060403C0838D8160838FDF91CF916C
:1021C0001F910F9108951F920F920FB60F92112435
:1021D0002F933F934F935F936F937F938F939F932F
:1021E000AF93BF93EF93FF938091C4039091C50386
:1021F000009711F00E947910FF91EF91BF91AF917C
:102200009F918F917F916F915F914F913F912F910E
:102210000F900FBE0F901F9018951F920F920FB640
:102220000F9211242F933F934F935F936F937F935C
:102230008F939F93AF93BF93EF93FF938091C403CA
:102240009091C503009711F00E947910FF91EF91D2
:10225000BF91AF919F918F917F916F915F914F91BE
:102260003F912F910F900FBE0F901F901895CF9216
:10227000DF92EF92FF920F931F93CF93DF93EC01C6
:102280007A018B011A8E198E188E1F8A1E8A1D8A5A
:102290001C8A1B8A20E030E06901CC0CDD1CC20ED8
:1022A000D31EB601660F771F660F771FAB01485923
:1022B0005F4FFA0185919591A591B4918E159F0577
:1022C000A007B107E9F4FB01E459FF4F8591949110
:1022D0009C8B8B8BFB01E259FF4F859194919E8BD8
:1022E0008D8BFB01E059FF4F85919491988F8F8BD7
:1022F000FB01EE58FF4F859194919A8F898F06C00C
:102300002F5F3F4F2D30310509F0C6CF8F89988D53
:10231000892B09F449C04C85463108F03DC09091A5
:102320006800483010F484E005C04E3010F082E0C0
:1023300001C081E0892B80936800483028F4EDE6E5
:10234000F0E0ADE6B0E00BC04E3028F0ECE6F0E097
:10235000ACE6B0E004C0EBE6F0E0ABE6B0E0508104
:10236000483040F481E090E002C0880F991F4A9500
:10237000E2F710C0242F30E04E3018F428503040DF
:1023800002C02E50304081E090E002C0880F991FBB
:102390002A95E2F7852B8C93898D9A8D20E0019701
:1023A0002FEF8F3F9207D9F78091C4039091C50317
:1023B0008C179D0781F08B8D8E7F8B8F9FB7F89444
:1023C000109206048091060480930704D093C503FD
:1023D000C093C4039FBFDF91CF911F910F91FF90D6
:1023E000EF90DF90CF900895FC014485463180F551
:1023F000483028F4EDE6F0E0ADE6B0E00BC04E303A
:1024000028F4EBE6F0E0ABE6B0E004C0ECE6F0E088
:10241000ACE6B0E05081483040F481E090E002C08A
:10242000880F991F4A95E2F710C0242F30E04E30F4
:1024300018F42850304002C02E50304081E090E027
:1024400002C0880F991F2A95E2F7809585238C9307
:102450000895FC0183EB92E091838083CF010E9479
:10246000F41108952091C4033091C503281739074A
:1024700031F49091070480910604981719F42FEF16
:102480003FEF0FC0E0910704F0E0EA53FC4F2081DA
:102490008091070490E001968F73907080930704F9
:1024A00030E0C90108952091C4033091C503281775
:1024B000390719F020E030E00EC080910604209129
:1024C000070490E0805C9F4F821B910960E470E0FC
:1024D0000E943B259C01C90108950F931F93DC01C5
:1024E00059968D919C915A97892B49F481E090E0FF
:1024F00013969C938E93129720E030E097C00FB70D
:10250000F8945B968C915B975196ED91FC91529764
:1025100050962C91509781FF8DC08081822B8083B3
:1025200059968D919C915A97059620E001972FEF2F
:102530008F3F9207D9F75B968C915B9781FF35C0EF
:1025400031E040E050E070E010E0832F90E086231F
:1025500097235196ED91FC91529750962C9150975C
:10256000892B29F0808120952823208303C0808136
:10257000822B808359968D919C915A97212F019798
:102580002FEF8F3F9207D9F7330F4F5F5F4F4830E0
:102590005105D9F65196ED91FC9152979081509644
:1025A0008C9150978095892333C031E040E050E012
:1025B00070E010E0832F90E0862397235196ED91F1
:1025C000FC91529750962C915097892B21F0808145
:1025D000822B808304C080812095282320835996F4
:1025E0008D919C915A97212F01972FEF8F3F920742
:1025F000D9F7330F4F5F5F4F48305105D9F65196E9
:10260000ED91FC915297808150969C915097892B27
:1026100080830FBF59968D919C915A9720E0019726
:102620002FEF8F3F9207D9F721E030E0C9011F91CA
:102630000F910895808120952823208371CF2091C8
:10264000C4033091C5032817390749F49FB7F8949C
:102650001092060480910604809307049FBF08959A
:102660002091C4033091C5032817390731F49091A4
:10267000070480910604981719F42FEF3FEF0AC062
:10268000E0910704F0E0EA53FC4F8081282F3327C4
:1026900027FD3095C90108951F93CF93DF93EC0177
:1026A000162F862F60E00E94651C8B8D81FD04C073
:1026B000812F61E00E94A41C1C87212F30E0C901FA
:1026C00087509D4FFC0184918D872B513D4FF9011F
:1026D0006491E62FF0E0EE0FFF1FE552FD4F85916C
:1026E00094919F878E87DF91CF911F910895FF92DC
:1026F0000F931F938C01F62E862F61E00E94651CBC
:102700008F2D61E00E94A41C8F2D90E0FC01E7500A
:10271000FD4FE491D8015096EC9350978B519D4F0B
:10272000FC016491E62FF0E0EE0FFF1FEF52FD4F2A
:102730008591949152969C938E9351971F910F91EE
:10274000FF900895FF920F931F938C01F62EFC01CA
:102750001382128288EE93E0A0E0B0E08483958338
:10276000A683B78383EB92E091838083148A138AD4
:10277000168A158A108E178A128E118E838D2170FB
:10278000220F8C7F822B838FC801642F0E947713C6
:10279000C8016F2D0E944C131F910F91FF90089557
:1027A000FC016083418381E08283138280E2848321
:1027B0001582168210861186128613861486158657
:1027C000168617860895FC01613208F060E2648382
:1027D000089570E08DB79EB70E970FB6F8949EBF20
:1027E0000FBE8DBFEDB7FEB7319685E292E0ADB773
:1027F000BEB712969C938E93119773836283CB011D
:1028000056E0969587955A95E1F78170907095837B
:102810008483CB0145E0969587954A95E1F78170D1
:10282000907097838683CB0134E0969587953A958F
:10283000E1F78170907091878087CB01959587959E
:1028400087709070938782876170707075876487D6
:102850000E9471028DB79EB70E960FB6F8949EBF78
:102860000FBE8DBF0895FF920F931F938C01F62E1C
:1028700081E00E94BE1A80E00E94C71A80E00E9498
:10288000CC1AF80181816F2D0E94A41C1F910F9119
:10289000FF9008951F93CF93DF93EC0160E070E009
:1028A0000E94331480E68EBD0DB407FEFDCF8EB5B9
:1028B0008FEF8EBD0DB407FEFDCF1EB5CE0161E0DA
:1028C00070E00E943314812FDF91CF911F91089502
:1028D0001F93CF93DF93EC0160E070E00E9433140C
:1028E0008FEF8EBD0DB407FEFDCF1EB5CE0161E0AA
:1028F00070E00E943314812FDF91CF911F910895D2
:102900001F93CF93DF93EC0160E070E00E943314DB
:1029100081EE8EBD0DB407FEFDCF1EB5CE0161E088
:1029200070E00E943314812FDF91CF911F910895A1
:102930001F93CF93DF93EC0160E070E00E943314AB
:1029400082EE8EBD0DB407FEFDCF1EB5CE0161E057
:1029500070E00E943314812FDF91CF911F91089571
:102960000F931F938C01FC01808160E00E94A41CE6
:10297000C8010E948014C8010E9498141F910F91F1
:102980000895EF92FF920F931F93CF93DF93EC0183
:10299000F62EE72E9C81142F941708F4192F8E81A0
:1029A000882311F000E002C0092F011BCE0160E076
:1029B00070E00E94331481E68EBD0DB407FEFDCF9A
:1029C0008F2D9E2D9C01F901FEB49FEF07C09EBD87
:1029D0000DB407FEFDCF8EB5819311501123B9F7C9
:1029E00007C08EBD0DB407FEFDCF9EB5015001C0DE
:1029F0008FEF0023B1F7CE0161E070E00E94331445
:102A00008F2DDF91CF911F910F91FF90EF9008953F
:102A1000EF92FF920F931F93CF93DF93EC01F62E6B
:102A2000E72E9C81142F941708F4192F8E81882388
:102A300011F000E002C0092F011BCE0160E070E040
:102A40000E94331480EA8EBD0DB407FEFDCF8F2D9A
:102A50009E2D9C01F901FEB408C080818EBD0DB48D
:102A600007FEFDCF31968EB511501123B1F706C088
:102A70001EBC0DB407FEFDCF8EB501500023C1F77B
:102A8000CE0161E070E00E9433148F2DDF91CF9171
:102A90001F910F91FF90EF9008950F931F93CF9385
:102AA000DF93EC01162F042F60E070E00E943314D6
:102AB0001F7110621EBD0DB407FEFDCF1EB50EBD09
:102AC0000DB407FEFDCF8EB5CE0161E070E00E942F
:102AD0003314812FDF91CF911F910F910895262FED
:102AE0004F702295207F242B64E0422F0E944D15C9
:102AF0000895662319F061E04FE302C061E040E011
:102B00000E944D150895CF92DF92EF92FF920F939E
:102B10001F938B017A01690167E040E70E944D1520
:102B200090E09C01E5E036952795EA95E1F7217064
:102B3000F801208374E0969587957A95E1F7282F20
:102B40002170F701208396958795969587958170DA
:102B5000F60180831F910F91FF90EF90DF90CF904F
:102B60000895DF92EF92FF920F931F93CF93DF931D
:102B70008C017B010E946814C82FD0E0CE01A6E032
:102B800096958795AA95E1F7DD24D394D82280FF06
:102B900015C0E114F10431F0CE0195958795877049
:102BA000F7018083C80167E040E40E944D15C5FF2E
:102BB00005C0C80167E040E20E944D158D2DDF91F0
:102BC000CF911F910F91FF90EF90DF90089560E0FB
:102BD00070E00E94B1150895462F603808F04FE765
:102BE00065E00E944D150895EF92FF920F931F9399
:102BF000CF93DF937C01162FEA01022F60E070E093
:102C00000E9433141F7110621EBD0DB407FEFDCF6C
:102C10001EB508C088818EBD0DB407FEFDCF21967C
:102C20008EB501500023B1F7C70161E070E00E944A
:102C30003314812FDF91CF911F910F91FF90EF906F
:102C40000895EF92FF920F931F93DF93CF93CDB729
:102C5000DEB728970FB6F894DEBF0FBECDBF7C015C
:102C600009831A832B833C834D835E836F8378872C
:102C70008E010F5F1F4F6AE0A80125E00E94F41546
:102C8000C70160E1A80125E00E94F415F701448125
:102C9000413208F040E2C70161E10E944D152896DB
:102CA0000FB6F894DEBF0FBECDBFCF91DF911F915D
:102CB0000F91FF90EF9008951F93CF93DF93EC0156
:102CC000162F60E070E00E9433141F711EBD0DB41A
:102CD00007FEFDCF8EB58FEF8EBD0DB407FEFDCF85
:102CE0001EB5CE0161E070E00E943314812FDF91A8
:102CF000CF911F91089560E00E945C168C7083FD57
:102D000003C020E030E007C082FD03C021E030E0D6
:102D100002C022E030E0C90108950F931F93CF93C2
:102D2000DF938C01EB0160E00E945C16482F437F2B
:102D3000209729F0219711F4486001C04C60C80128
:102D400060E00E944D15DF91CF911F910F91089582
:102D500066E00E945C168872803219F422E030E04E
:102D600006C020E030E0883011F421E030E0C901F5
:102D70000895FF920F931F93CF93DF93EC018B0184
:102D800066E00E945C161A82B7EDFB2EF822023034
:102D9000110511F480E206C00130110529F481E02B
:102DA0008A8388E0F82A01C01A82CE0166E04F2D9E
:102DB0000E944D15CE0166E00E945C168F1511F43D
:102DC00081E002C01A8280E0DF91CF911F910F91C4
:102DD000FF90089566E00E945C168670863019F4B4
:102DE00023E030E00BC0843019F422E030E006C06C
:102DF00020E030E0823011F421E030E0C901089594
:102E00000F931F93CF93DF938C01EB0166E00E9439
:102E10005C16482F497FC330D10571F0C230D1050F
:102E200011F444600AC0C130D10511F4426005C0FC
:102E3000209719F0249709F44660C80166E00E94C3
:102E40004D15DF91CF911F910F910895BF92CF92B1
:102E5000DF92EF92FF920F931F93DF93CF93CDB743
:102E6000DEB728970FB6F894DEBF0FBECDBF6C015A
:102E7000B62EE982FA820B831C832D833E834F8317
:102E80005887662389F4F601E0868A8181878B81E1
:102E900082878C8183878D8184878E8185878F81CE
:102EA00086878885878707C0F6E0F61708F43DC057
:102EB00081E0681761F4EB2DF0E0EC5FFE4FE491E8
:102EC000C6016E2FAE014F5F5F4F25E00BC0E62FAE
:102ED000F0E0EC5FFE4FE491C6016E2FAE014F5F54
:102EE0005F4F21E00E94F4150B2D10E0F801E65F22
:102EF000FE4FE491C6016E2FF60144810E944D15EC
:102F0000C60162E00E945C16005F1E4FF8016491EA
:102F100021E030E002C0220F331F6A95E2F7482F0C
:102F2000422BC60162E00E944D1528960FB6F89418
:102F3000DEBF0FBECDBFCF91DF911F910F91FF90EC
:102F4000EF90DF90CF90BF9008950F931F938C0167
:102F50000E94C114C80167E10E945C1681701F9134
:102F60000F910895DF92EF92FF920F931F938C01C0
:102F70007B01D42E60E00E945C16482F4C7F42609B
:102F8000C80160E00E944D1586E990E00E94201C77
:102F9000C801B7014D2D0E940815F801808161E03C
:102FA0000E94A41C8FE090E00E94201CF801808108
:102FB00060E00E94A41C1F910F91FF90EF90DF90A2
:102FC00008950F931F938C0160E00E945C16482FB8
:102FD0004D7FC80160E00E944D151F910F9108952B
:102FE000CF93DF93EC0160E00E945C16482F4360B2
:102FF000CE0160E00E944D15CE0167E040E70E94DF
:103000004D1588859985892B9A85892B9B85892BD8
:103010009C85892B9D85892B9E85892B9F85892B56
:1030200041F0AE01485F5F4FCE016AE025E00E94AB
:10303000F415CE010E949814CE010E94801488815C
:1030400061E00E94A41C82E890E00E94201CDF91B5
:10305000CF910895CF92DF92FF920F931F93CF935A
:10306000DF936C01EB01042FF22ECB010E94C00113
:10307000089710F020E001C029E000D000D000D077
:10308000EDB7FEB7319683EF91E0ADB7BEB71296BC
:103090009C938E931197D383C283822F992787FDA8
:1030A0009095958384830E947102EDB7FEB73696A2
:1030B0000FB6F894FEBF0FBEEDBFCBEED1E01BC044
:1030C000102F1F5FC601602F0E945C1600D000D039
:1030D000EDB7FEB73196ADB7BEB71296DC93CE937F
:1030E0001197828313820E947102FA94012F0F902C
:1030F0000F900F900F90FF2019F700D088EE91E00D
:10310000EDB7FEB7928381830E9471020F900F90FA
:10311000DF91CF911F910F91FF90DF90CF90089595
:10312000CF93DF93EC01888161E00E94651C898167
:1031300061E00E94651C0E94DD1A888160E00E94A7
:10314000A41CCE0161E070E00E94331465E070E0E1
:1031500080E090E00E94C71BCE0164E04FE40E9433
:103160004D15CE0163E070E00E940017CE0162E0D1
:1031700070E00E94B916882311F081E08B83CE01A4
:1031800060E070E00E94B916CE0162E070E00E943B
:103190008D16CE016CE140E00E944D15CE0167E036
:1031A00040E70E944D15CE016CE40E94EC15CE0163
:1031B0000E949814CE010E948014DF91CF9108954F
:1031C000EF92FF920F931F93CF93DF937C01162F03
:1031D000EA01022F60E070E00E9433141F711EBDEF
:1031E0000DB407FEFDCF1EB59FEF07C09EBD0DB409
:1031F00007FEFDCF8EB5899301500023B9F7C701B3
:1032000061E070E00E943314812FDF91CF911F9114
:103210000F91FF90EF900895AF92BF92CF92DF92FF
:10322000EF92FF920F931F93DF93CF9300D00F92F3
:10323000CDB7DEB78C010E94B2170E94B91B6B019B
:103240007C015E010894A11CB11CC80168E0A501C5
:1032500021E00E94E018807331F50E94B91B6C19BF
:103260007D098E099F09645F714080409040D8F4C9
:10327000ECCFC8010E944A14F8018783C8010E945C
:10328000E117C8010E9480148F2D0F900F900F90AE
:10329000CF91DF911F910F91FF90EF90DF90CF9032
:1032A000BF90AF90089598012B5F3F4FC801BE01BA
:1032B0006E5F7F4FAE014D5F5F4F0E948315FA80B6
:1032C000F80185818823D1F2D4CF4F925F926F921B
:1032D0007F928F929F92AF92BF92CF92DF92EF92A6
:1032E000FF920F931F93DF93CF9300D000D00F92E4
:1032F000CDB7DEB76C018B01E42EF22ECB010E941C
:10330000C001089710F020E001C029E000D000D0F3
:1033100000D0EDB7FEB7319680EE91E0ADB7BEB705
:1033200012969C938E93119713830283822F992771
:1033300087FD9095958384830E947102EDB7FEB757
:1033400036960FB6F894FEBF0FBEEDBF2E0108945F
:10335000411C511C8CED682E81E0782E06E0802EF9
:10336000912C8C0E9D1E17EDA12E11E0B12E2FC0B9
:10337000C6016E2DA20125E00E94E01800D0ADB775
:10338000BEB712967C926E9211970E9471028401D0
:103390000F900F9015C000D000D0EDB7FEB731965A
:1033A000ADB7BEB71296BC92AE921197D8018C9170
:1033B000828313820E9471020F900F900F900F90E2
:1033C000015010400C171D0731F7E394FA94FF20C9
:1033D00079F600D084ED91E0EDB7FEB7928381835A
:1033E0000E9471020F900F900F900F900F900F900E
:1033F0000F90CF91DF911F910F91FF90EF90DF9091
:10340000CF90BF90AF909F908F907F906F905F9084
:103410004F9008950F931F938C010E946814682F9A
:10342000C8010E94E913C80167EC71E04AE022E09C
:103430000E946519C8016AEB71E04CE024E00E942B
:103440002A18C80162EB71E040E121E00E94651991
:10345000C80167EA71E041E126E00E942A18C8012C
:1034600061EA71E041E021E00E942A18C80167E9A1
:1034700071E042E021E00E942A18C80161E971E090
:1034800045E021E00E942A18C80168E871E046E0A2
:1034900021E00E942A18C80161E871E040E021E0C3
:1034A0000E942A18C80163E771E04CE122E00E9403
:1034B0002A18C8010E94A816FC01EE0FFF1FEA5E41
:1034C000FE4F2591349100D000D081E691E0EDB718
:1034D000FEB792838183348323830E947102F801B3
:1034E0008381E82FF0E0EE0FFF1FE45EFE4F259191
:1034F000349182E591E0EDB7FEB792838183348306
:1035000023830E9471020F900F900F900F90C801BB
:103510000E947B16FC01EE0FFF1FE05EFE4F25911F
:10352000349100D000D08FE391E0EDB7FEB79283E5
:103530008183348323830E9471020F900F900F9038
:103540000F90C8010E94EA16FC01EE0FFF1FEA5D12
:10355000FE4F2591349100D000D08EE291E0EDB77E
:10356000FEB792838183348323830E9471020F907C
:103570000F900F900F901F910F910895882319F4C9
:103580008CB5806202C08CB58F7D8CBD08959CB5D2
:10359000937F982B9CBD08952CB5382F33702C7FCA
:1035A000322B3CBD2DB590E09595879595958795E7
:1035B00081702E7F822B8DBD08958AE061E00E948C
:1035C000A41C8AE061E00E94651C8CB580618CBD02
:1035D0008CB580648CBD8DE061E00E94651C8BE041
:1035E00061E00E94651C0895823000F5E82FF0E04C
:1035F000EE0FFF1FE85FFB4F71836083882319F094
:103600008130A1F408C0809169008C7F842B809365
:103610006900E89A089580916900440F551F440F8E
:10362000551F837F842B80936900E99A08951F9228
:103630000F920FB60F9211242F933F934F935F93E6
:103640006F937F938F939F93AF93BF93EF93FF936A
:103650008091080490910904892B29F0E0910804D5
:10366000F09109040995FF91EF91BF91AF919F915E
:103670008F917F916F915F914F913F912F910F901B
:103680000FBE0F901F9018951F920F920FB60F92BA
:1036900011242F933F934F935F936F937F938F9357
:1036A0009F93AF93BF93EF93FF9380910A04909100
:1036B0000B04892B29F0E0910A04F0910B04099581
:1036C000FF91EF91BF91AF919F918F917F916F91FA
:1036D0005F914F913F912F910F900FBE0F901F90D0
:1036E00018951F920F920FB60F9211242F933F93AC
:1036F0008F939F93AF93BF93809110049091110487
:10370000A0911204B0911304309114040196A11DEC
:10371000B11D232F2D5F2D3720F02D570196A11DB0
:10372000B11D209314048093100490931104A0936E
:103730001204B093130480910C0490910D04A09195
:103740000E04B0910F040196A11DB11D80930C04CD
:1037500090930D04A0930E04B0930F04BF91AF910A
:103760009F918F913F912F910F900FBE0F901F90BF
:1037700018958FB7F894209110043091110440915E
:103780001204509113048FBFB901CA0108959B011F
:10379000AC017FB7F89480910C0490910D04A09136
:1037A0000E04B0910F0466B5A89B05C06F3F19F0D9
:1037B0000196A11DB11D7FBFBA2FA92F982F882771
:1037C000860F911DA11DB11D62E0880F991FAA1FD0
:1037D000BB1F6A95D1F7BC012DC0FFB7F89480914B
:1037E0000C0490910D04A0910E04B0910F04E6B565
:1037F000A89B05C0EF3F19F00196A11DB11DFFBFA9
:10380000BA2FA92F982F88278E0F911DA11DB11DAA
:10381000E2E0880F991FAA1FBB1FEA95D1F7861B0C
:10382000970B885E9340C8F2215030404040504092
:1038300068517C4F211531054105510571F60895F8
:10384000019739F0880F991F880F991F02970197E8
:10385000F1F70895789484B5826084BD84B5816061
:1038600084BD85B5826085BD85B5816085BDEEE688
:10387000F0E0808181608083E1E8F0E01082808167
:1038800082608083808181608083E0E8F0E08081D5
:1038900081608083E1EBF0E0808184608083E0EBF5
:1038A000F0E0808181608083EAE7F0E080818460DD
:1038B0008083808182608083808181608083808139
:1038C000806880831092C1000895CF93DF93482FC2
:1038D00050E0CA0187509D4FFC0134914B515D4F20
:1038E000FA018491882369F190E0880F991FFC0107
:1038F000E953FD4FA591B491FC01EF52FD4FC591E5
:10390000D491662351F42FB7F8948C91932F90950E
:1039100089238C93888189230BC0623061F42FB78F
:10392000F8948C91932F909589238C938881832B85
:1039300088832FBF06C09FB7F8948C91832B8C93FC
:103940009FBFDF91CF910895482F50E0CA01835F58
:103950009C4FFC012491CA0187509D4FFC0194911A
:103960004B515D4FFA013491332309F440C02223B7
:1039700051F1233071F0243028F42130A1F02230AD
:1039800011F514C02630B1F02730C1F02430D9F43D
:1039900004C0809180008F7703C0809180008F7D6C
:1039A0008093800010C084B58F7702C084B58F7D6E
:1039B00084BD09C08091B0008F7703C08091B000B2
:1039C0008F7D8093B000E32FF0E0EE0FFF1FEF52EA
:1039D000FD4FA591B4912FB7F894662321F48C91F3
:1039E0009095892302C08C91892B8C932FBF0895C9
:1039F000682F70E0CB01835F9C4FFC012491CB01C9
:103A000087509D4FFC0144916B517D4FFB01949178
:103A1000992319F420E030E03CC0222351F12330F7
:103A200071F0243028F42130A1F0223011F514C0B7
:103A30002630B1F02730C1F02430D9F404C0809191
:103A400080008F7703C0809180008F7D80938000FD
:103A500010C084B58F7702C084B58F7D84BD09C046
:103A60008091B0008F7703C08091B0008F7D8093EC
:103A7000B000892F90E0880F991F85529D4FFC015F
:103A8000A591B4918C9120E030E0842311F021E0E5
:103A900030E0C901089508951F920F920FB60F925A
:103AA00011242F933F934F938F939F93EF93FF9303
:103AB0008091C00082FD1DC04091C6002091550438
:103AC000309156042F5F3F4F2F7330708091570411
:103AD000909158042817390771F0E0915504F0913E
:103AE0005604EB5EFB4F40833093560420935504FD
:103AF00002C08091C600FF91EF919F918F914F91ED
:103B00003F912F910F900FBE0F901F901895E0914D
:103B1000A904F091AA04E05CFF4F8191919120816A
:103B20003181821B930B8F739070892B11F00E944F
:103B30004B1D08951F920F920FB60F9211242F93D1
:103B40003F938F939F93EF93FF932091990430912C
:103B50009A0480919B0490919C042817390731F4B2
:103B60008091C1008F7D8093C10014C0E0919B04BF
:103B7000F0919C04E75AFB4F208180919B04909127
:103B80009C0401968F73907090939C0480939B0487
:103B90002093C600FF91EF919F918F913F912F91BC
:103BA0000F900FBE0F901F901895AF92BF92DF92AB
:103BB000EF92FF920F931F93CF93DF93EC017A0163
:103BC0008B01DD24403081EE580780E0680780E0FB
:103BD000780711F0DD24D39491E0A92EB12CEC8963
:103BE000FD89DD2069F0C50108A002C0880F991F7A
:103BF0000A94E2F7808360E079E08DE390E005C00D
:103C0000108260E874E88EE190E0A80197010E94BC
:103C10004E252150304040405040569547953795AD
:103C2000279580E12030380720F0DD2011F0DD24D9
:103C3000D6CFE889F9893083EA89FB89208319A2E4
:103C4000EE89FF89408121E030E0C9010C8C02C07F
:103C5000880F991F0A94E2F7482B4083EE89FF8969
:103C60004081C9010D8C02C0880F991F0A94E2F7A8
:103C7000482B4083EE89FF894081C9010E8C02C028
:103C8000880F991F0A94E2F7482B4083EE89FF8939
:103C900080810F8C02C0220F331F0A94E2F7209517
:103CA00028232083DF91CF911F910F91FF90EF90F8
:103CB000DF90BF90AF900895DC011C96ED91FC91D0
:103CC0001D97E05CFF4F2191319180819181281BEC
:103CD000390B2F733070C9010895DC011C96ED91EA
:103CE000FC911D97E05CFF4F20813181E054F04052
:103CF000DF01AE5BBF4F8D919C911197281739075B
:103D000019F42FEF3FEF07C08D919C91E80FF91F39
:103D10008081282F30E0C9010895DC011C96ED91C7
:103D2000FC911D97E05CFF4F20813181E054F04011
:103D3000DF01AE5BBF4F8D919C911197281739071A
:103D400019F42FEF3FEF10C08D919C911197E80F60
:103D5000F91F20818D919C91119701968F7390701E
:103D600011969C938E9330E0C9010895DC019196E1
:103D70008C919197882339F05496ED91FC91559749
:103D8000808186FFF9CF91961C920895CF93DF939F
:103D9000EC01EE85FF85E05CFF4F20813181E0542E
:103DA000F0402F5F3F4F2F733070DF01AE5BBF4F8E
:103DB0008D919C91119728173907D1F3E05CFF4F43
:103DC00080819181E054F040E80FF91F6083EE8517
:103DD000FF85E05CFF4F31832083EE89FF892081DE
:103DE00081E090E00F8C02C0880F991F0A94E2F7DF
:103DF000282B208381E089A3EC89FD898081806460
:103E0000808381E090E0DF91CF9108951092A0042B
:103E100010929F0488EE93E0A0E0B0E08093A104AC
:103E20009093A204A093A304B093A40483EC92E023
:103E300090939E0480939D0485E194E09093AA045E
:103E40008093A90489E594E09093AC048093AB043B
:103E500085EC90E09093AE048093AD0484EC90E008
:103E60009093B0048093AF0480EC90E09093B20400
:103E70008093B10481EC90E09093B4048093B304F8
:103E800082EC90E09093B6048093B50486EC90E0C9
:103E90009093B8048093B70484E08093B90483E0DE
:103EA0008093BA0487E08093BB0485E08093BC04D0
:103EB00081E08093BD040895CF93DF930E942A1C74
:103EC0000E949208C7E8DDE10E9437082097E1F3DD
:103ED0000E94871DF9CF0E94FA220895CF92DF92A7
:103EE000EF92FF920F931F93CF93DF937C016B01AF
:103EF0008A01C0E0D0E00FC0D6016D916D01D701FD
:103F0000ED91FC910190F081E02DC7010995C80F5A
:103F1000D91F015010400115110571F7CE01DF9135
:103F2000CF911F910F91FF90EF90DF90CF90089568
:103F3000DC01ED91FC910190F081E02D099508954F
:103F4000EF92FF920F931F938C01DC01ED91FC9196
:103F50000190F081E02D6DE009957C01D801ED9193
:103F6000FC910190F081E02DC8016AE009959C0167
:103F70002E0D3F1DC9011F910F91FF90EF900895E5
:103F8000EF92FF920F931F937C01DC01ED91FC9166
:103F90000190F081E02D09958C01C7010E94A01FBE
:103FA000080F191FC8011F910F91FF90EF900895FE
:103FB000CF93DF93EC016115710519F420E030E037
:103FC0000FC0DB010D900020E9F71197A61BB70B7E
:103FD000E881F9810280F381E02DAD0109959C0112
:103FE000C901DF91CF9108954F925F927F928F9296
:103FF0009F92AF92BF92CF92DF92EF92FF920F9378
:104000001F93DF93CF93CDB7DEB7A1970FB6F89488
:10401000DEBF0FBECDBF2C01742ECB01223008F4C1
:104020002AE019A231E2C32ED12CCC0EDD1E822E45
:104030009924AA24BB24672D752FA50194010E9401
:104040004E2579018A01C801B701A50194010E949A
:104050001025472D461B0894C108D1084A3014F496
:10406000405D01C0495CF6014083E114F1040105A3
:10407000110521F07E2C5F2DC801DDCFC201B601F4
:104080000E94D81FA1960FB6F894DEBF0FBECDBF19
:10409000CF91DF911F910F91FF90EF90DF90CF9024
:1040A000BF90AF909F908F907F905F904F900895BA
:1040B000DC012115310541F4ED91FC910190F08175
:1040C000E02D642F099508950E94F41F0895EF9242
:1040D000FF920F931F939A01E62EFF2400E010E059
:1040E000B801A7010E9458201F910F91FF90EF90F7
:1040F0000895CF92DF92EF92FF920F931F936C017E
:10410000E62E9A01FF2400E010E0B801A7010E940A
:1041100058208C01C6010E94A01F080F191FC8015A
:104120001F910F91FF90EF90DF90CF900895CF9265
:10413000DF92EF92FF920F931F93CF93DF93EC01E7
:104140006A017B012115310541F4E881F981019073
:10415000F081E02D642F09951FC02A303105D1F47C
:1041600077FF17C0E881F9810190F081E02D6DE2C1
:1041700009958C0144275527BA014C195D096E0930
:104180007F09CE012AE00E94F41F9801280F391FF1
:1041900004C02AE00E94F41F9C01C901DF91CF9165
:1041A0001F910F91FF90EF90DF90CF900895EF92C5
:1041B000FF920F931F937B019A010027F7FC009554
:1041C000102FB801A7010E9497201F910F91FF9017
:1041D000EF900895CF92DF92EF92FF920F931F938B
:1041E0006C017B019A010027F7FC0095102FB801A4
:1041F000A7010E9497208C01C6010E94A01F080FF2
:10420000191FC8011F910F91FF90EF90DF90CF9081
:1042100008950E94D81F0895EF92FF920F931F9365
:104220007C010E94D81F8C01C7010E94A01F080FAB
:10423000191FC8011F910F91FF90EF900895AF9241
:10424000BF92CF92DF92EF92FF920F931F93CF9383
:10425000DF935C016B01EE24FF24C0E0D0E010C0CE
:10426000D501ED91FC9100811181C601BE010E9432
:10427000AF21682FC501F8010995E80EF91E2196B6
:10428000F60184819581C817D90750F3C701DF91E2
:10429000CF911F910F91FF90EF90DF90CF90BF9043
:1042A000AF900895EF92FF920F931F937C010E94AD
:1042B0001F218C01C7010E94A01F9C01200F311FEC
:1042C000C9011F910F91FF90EF9008952F923F9297
:1042D0004F925F926F927F928F929F92AF92BF9216
:1042E000CF92DF92EF92FF920F931F93DF93CF93C2
:1042F000CDB7DEB73B014C0119012A016D897E89DA
:104300008F89988D6A197B098C099D09621A730A35
:10431000840A950AA40193010E941025E218F3086B
:1043200004091509A80197010E9470252A0D3B1D5B
:104330004C1D5D1DB901CA01CF91DF911F910F91F5
:10434000FF90EF90DF90CF90BF90AF909F908F90B5
:104350007F906F905F904F903F902F900895FC0159
:10436000848195816817790748F40190F081E02DE8
:10437000309721F0E60FF71F8081089580E00895BF
:104380000F931F93CF93DF93EC018B016F5F7F4FF0
:10439000888199810E942F24009711F480E005C044
:1043A000998388831B830A8381E0DF91CF911F91DA
:1043B0000F910895CF93DF93EC0188819981892B28
:1043C00029F08A819B818617970760F4CE010E94AD
:1043D000C021882341F08C819D81892B19F4E881CB
:1043E000F981108281E0DF91CF910895EF92FF92E1
:1043F0000F931F93CF93DF93EC017B016C817D8141
:10440000E114F104C1F04115510599F08A01060F3C
:10441000171FB8010E94DA21882369F088819981E9
:104420002C813D81820F931FB7010E94D2011D8311
:104430000C8381E001C080E0DF91CF911F910F914B
:10444000FF90EF900895FB01608171814481558157
:104450000E94F6210895CF93DF93EC018881998122
:10446000009711F00E949723198218821D821C82E6
:104470001B821A82DF91CF910895EF92FF920F93E2
:104480001F93CF93DF93EC017B018A01BA010E9455
:10449000DA21882321F4CE010E942B2207C01D833C
:1044A0000C8388819981B7010E94D201CE01DF91EE
:1044B000CF911F910F91FF90EF900895CF93DF93CD
:1044C000EC01198218821B821A821D821C821E82B4
:1044D0006115710551F0DB010D900020E9F711978E
:1044E000A61BB70BAD010E943D22DF91CF9108952D
:1044F0000F931F93182F092F6115710559F0DB01D8
:104500000D900020E9F71197A61BB70BAD010E9493
:104510003D2202C00E942B22812F902F1F910F91CC
:104520000895EF92FF920F931F93DF93CF93CDB730
:10453000DEB762970FB6F894DEBF0FBECDBF8C0119
:10454000CB01F8011182108213821282158214822B
:1045500016827E010894E11CF11CB70150E00E9414
:10456000D901C801B7010E94782262960FB6F8946B
:10457000DEBF0FBECDBFCF91DF911F910F91FF9096
:10458000EF900895EF92FF920F931F93DF93CF93D5
:10459000CDB7DEB729970FB6F894DEBF0FBECDBFFB
:1045A0008C01862FF80111821082138212821582EB
:1045B0001482168290E07E010894E11CF11CB70180
:1045C00050E00E94FA01C801B7010E9478222996A2
:1045D0000FB6F894DEBF0FBECDBFCF91DF911F9114
:1045E0000F91FF90EF900895FC01808191810E94CE
:1045F000972308950F931F93CF93DF93BC018230CD
:10460000910510F462E070E0E091C104F091C20401
:10461000A0E0B0E040E050E024C0808191818617A6
:104620009707D0F08617970771F4828193811097CE
:1046300029F013969C938E9312972CC09093C204EA
:104640008093C10427C04115510519F084179507BF
:1046500018F4EF018D01AC01DF01828193819C018F
:10466000F9013097D1F641155105F9F0CA01861BC1
:10467000970B8430910580F48A819B810115110587
:1046800021F0F8019383828304C09093C204809345
:10469000C104FE01329645C0FE01E80FF91F619387
:1046A00071930297998388833CC08091BF04909155
:1046B000C004892B41F48091AB029091AC0290939D
:1046C000C0048093BF044091AD025091AE024115E9
:1046D000510541F44DB75EB78091A9029091AA02AD
:1046E000481B590B2091BF043091C0042417350793
:1046F000B0F4CA01821B930B8617970780F0AB01B9
:104700004E5F5F4F8417950750F0420F531F509331
:10471000C0044093BF04F9016193719302C0E0E0CB
:10472000F0E0CF01DF91CF911F910F910895CF93CA
:10473000DF939C01009709F48FC0EC0122971B8244
:104740001A826091C1047091C2046115710581F4EF
:1047500088819981820F931F2091BF043091C004FA
:104760002817390739F5D093C004C093BF0474C02B
:10477000DB0140E050E0AC17BD0708F1BB83AA8322
:10478000FE0121913191E20FF31FAE17BF0779F4BB
:104790008D919C911197280F391F2E5F3F4F3983C0
:1047A000288312968D919C9113979B838A83411540
:1047B000510571F4D093C204C093C1044DC0129648
:1047C0008D919C911397AD01009711F0DC01D3CF2F
:1047D000DA011396DC93CE931297FA01219131916D
:1047E000E20FF31FCE17DF0769F488819981280F44
:1047F000391F2E5F3F4FFA01318320838A819B81CD
:1048000093838283E0E0F0E0DB0112968D919C912E
:104810001397009719F0BC01FD01F6CFAB014E5F75
:104820005F4FDB018D919C91840F951F2091BF04F8
:104830003091C0042817390779F4309729F4109281
:10484000C2041092C10402C013821282425050402E
:104850005093C0044093BF04DF91CF9108956F92AD
:104860007F928F929F92AF92BF92CF92DF92EF9200
:10487000FF920F931F93CF93DF938C01009729F43E
:10488000CB010E94FA228C01BBC08EEFE82E8FEF85
:10489000F82EE00EF11E4801860E971E8E149F041E
:1048A00008F4ACC0D7014D915C911197461757079A
:1048B000B8F04530510508F4A3C0CA010497861723
:1048C000970708F49DC042505040461B570BF40117
:1048D000419351936D937C93CF010E94972390C095
:1048E0005B01A41AB50A3801640E751EA091C104BB
:1048F000B091C204CC24DD24E0E0F0E047C0A6156E
:10490000B705A9F5CD91DC911197CE0102968A15D4
:104910009B0568F1CE018A199B09029612962C918B
:10492000129713963C91059758F0F4012283338334
:10493000CA19DB09D183C083D7016D937C9309C069
:104940004E5F5F4F4C0F5D1FF70151834083C901DC
:10495000FC01C114D10431F0D6011396FC93EE93FF
:1049600012974EC0F093C204E093C10449C08D91E8
:104970009C911197E817F90708F4FC016D01129654
:104980008C91129713969C919C01D901109709F074
:10499000B6CF8091BF049091C00486159705E9F4C5
:1049A000E617F707D0F42091AD023091AE02211541
:1049B000310541F42DB73EB78091A9029091AA022A
:1049C000281B390B82169306C8F49092C00480927B
:1049D000BF04F7017183608313C0CB010E94FA22E8
:1049E000EC01009759F0D7014D915C91B8010E94FC
:1049F000C901C8010E9497238E0102C000E010E0A7
:104A0000C801DF91CF911F910F91FF90EF90DF9040
:104A1000CF90BF90AF909F908F907F906F900895B0
:104A2000629FD001739FF001829FE00DF11D649F92
:104A3000E00DF11D929FF00D839FF00D749FF00D1E
:104A4000659FF00D9927729FB00DE11DF91F639FBF
:104A5000B00DE11DF91FBD01CF0111240895991B6F
:104A600079E004C0991F961708F0961B881F7A9565
:104A7000C9F78095089597FB092E07260AD077FD80
:104A800004D049D006D000201AF4709561957F4F6C
:104A90000895F6F7909581959F4F0895A1E21A2EFB
:104AA000AA1BBB1BFD010DC0AA1FBB1FEE1FFF1FD2
:104AB000A217B307E407F50720F0A21BB30BE40B22
:104AC000F50B661F771F881F991F1A9469F7609569
:104AD0007095809590959B01AC01BD01CF01089523
:104AE00097FB092E05260ED057FD04D0D7DF0AD03C
:104AF000001C38F450954095309521953F4F4F4F0D
:104B00005F4F0895F6F790958095709561957F4F6A
:104B10008F4F9F4F0895AA1BBB1B51E107C0AA1FCF
:104B2000BB1FA617B70710F0A61BB70B881F991F4E
:104B30005A95A9F780959095BC01CD010895EE0F87
:104B4000FF1F0590F491E02D09942F923F924F9210
:104B50005F926F927F928F929F92AF92BF92CF920D
:104B6000DF92EF92FF920F931F93CF93DF93CDB716
:104B7000DEB7CA1BDB0B0FB6F894DEBF0FBECDBF8E
:104B800009942A88398848885F846E847D848C845F
:104B90009B84AA84B984C884DF80EE80FD800C8168
:104BA0001B81AA81B981CE0FD11D0FB6F894DEBF4B
:104BB0000FBECDBFED01089513E0C8E2D3E004C0FD
:104BC000FE010E94A1252296CC32D107C9F7F894A4
:024BD000FFCF15
:104BD200494E534944452100494E534944452031E9
:104BE2002100494E5349444520322100524649444E
:104BF200205245414400496E74726F647563656466
:104C020020636F6465004C697374656E696E672E0C
:104C12002E2E0049442072656365697665643A25E3
:104C22006C750A00776974686472617720616363E6
:104C320065707465640049442072656365697665D0
:104C4200643A256C0A0072657475726E2061636342
:104C52006570746564007375636365737320776947
:104C620074686472617721006661696C757265208F
:104C72007769746864726177210073756363657321
:104C8200732072657475726E21006661696C75724B
:104C9200652072657475726E21005245434549560E
:104CA2004544205041434B4554205345513A00520C
:104CB20045434549564544204441544120534551BA
:104CC2003A00444154412053454E44204C4F473A08
:104CD20000424F4F4C2041434B3A0054582042551A
:104CE200464645523A005258204255464645523AA7
:104CF200005061636B6574207265636569766564F3
:104D020020636F756E7465723A005061636B6574EF
:104D1200206D697373656420726563656976656485
:104D2200207175657269657320636F756E74657243
:104D32003A002D2D2D2D2D2D2D2D2D2D2D2D2D2DC1
:104D42002D2D2D2D2D2D2D2D2D2D2D2D0041534B66
:104D5200494E4720666F722072657472616E736D80
:104D6200697373696F6E3A008E00000000000000E4
:104D72002223242526270108008000C90400000000
:104D82000000006D126E1F5312321230131F1300F7
:104D9200000000C61E6E1F5C1E8D1E6D1EB61E001C
:00000001FF
