:100000000C9463000C949E010C94CB010C948B0017
:100010000C948B000C948B000C948B000C948B0034
:100020000C948B000C948B000C948B000C948B0024
:100030000C948B000C948B000C948B000C948B0014
:100040000C94F8010C948B000C9414030C94620330
:100050000C948B000C948B000C948B000C948B00F4
:100060000C948B000C948B000000000024002700EF
:100070002A0000000000250028002B0000000000DE
:1000800023002600290004040404040404040202DA
:100090000202020203030303030301020408102007
:1000A0004080010204081020010204081020000012
:1000B0000007000201000003040600000000000029
:1000C00000008D00CE0411241FBECFEFD8E0DEBFAC
:1000D000CDBF11E0A0E0B1E0EAE7FFE002C005908B
:1000E0000D92AA34B107D9F712E0AAE4B1E001C039
:1000F0001D92A633B107E1F710E0C6ECD0E004C0D2
:100100002297FE010E94B707C23CD107C9F70E949F
:1001100024050C94BB070C9400008AE491E00E9433
:10012000400608959C018091680190E08217930732
:1001300041F0209368016AEF70E080E090E00E9457
:10014000400208958AE491E060E070E00E945B065E
:100150009091680180917E019817C1F480914A01C5
:1001600080937B0180917B0190E090936401809368
:1001700063018091310190E0909366018093650165
:100180008AE491E061E00E9402070895909168017D
:1001900080913801981741F480914A0180937C0145
:1001A00080914B0180937D0108958AE491E061E0A4
:1001B0000E94170780917B01882361F480917E0162
:1001C00090E00E94920084E192E060E071E00E9481
:1001D0002D06089584E192E06DE071E00E942A0608
:1001E00060917B0184E192E04AE050E00E940C06BD
:1001F0008AE491E061E00E940207809131018093DE
:100200004A018AE491E060E070E00E94300780914A
:10021000380190E00E9492008AE491E066E00E943A
:1002200002078AE280934A018091320180934B0158
:100230008091330180934C018091340180934D0172
:100240008091350180934E018091360180934F015A
:1002500080913701809350018AE491E060E070E082
:100260000E9430078AE491E062E00E94170784E16F
:1002700092E06EE171E00E942D0660917D0184E1C3
:1002800092E04AE050E00E940C0610927B0110922E
:10029000660110926501109264011092630184E17D
:1002A00092E06DE271E00E942D0660ED77E080E063
:1002B00090E00E944002089584E192E040E855E217
:1002C00060E070E00E949D038DE061E00E94D40236
:1002D00080E062EA70E043E050E00E947B0110920F
:1002E0006701E5E6F1E011821082CF014B9761E0F2
:1002F0000E9417070895823000F5E82FF0E0EE0F16
:10030000FF1FE158FE4F71836083882319F081300D
:10031000A1F408C0809169008C7F842B80936900D0
:10032000E89A089580916900440F551F440F551FA6
:10033000837F842B80936900E99A08951F920F921E
:100340000FB60F9211242F933F934F935F936F93A8
:100350007F938F939F93AF93BF93EF93FF9380917E
:100360007F0190918001892B29F0E0917F01F0912C
:1003700080010995FF91EF91BF91AF919F918F916E
:100380007F916F915F914F913F912F910F900FBE91
:100390000F901F9018951F920F920FB60F92112475
:1003A0002F933F934F935F936F937F938F939F937D
:1003B000AF93BF93EF93FF9380918101909182015E
:1003C000892B29F0E0918101F09182010995FF913B
:1003D000EF91BF91AF919F918F917F916F915F91BD
:1003E0004F913F912F910F900FBE0F901F90189536
:1003F0001F920F920FB60F9211242F933F938F935A
:100400009F93AF93BF938091870190918801A091B2
:100410008901B0918A0130918B010196A11DB11D16
:10042000232F2D5F2D3720F02D570196A11DB11DD3
:1004300020938B018093870190938801A093890179
:10044000B0938A018091830190918401A0918501EC
:10045000B09186010196A11DB11D809383019093F7
:100460008401A0938501B0938601BF91AF919F91C4
:100470008F913F912F910F900FBE0F901F90189565
:100480009B01AC017FB7F894809183019091840126
:10049000A0918501B091860166B5A89B05C06F3F0C
:1004A00019F00196A11DB11D7FBFBA2FA92F982F5A
:1004B0008827860F911DA11DB11D62E0880F991F2D
:1004C000AA1FBB1F6A95D1F7BC012DC0FFB7F894D6
:1004D0008091830190918401A0918501B091860162
:1004E000E6B5A89B05C0EF3F19F00196A11DB11D0F
:1004F000FFBFBA2FA92F982F88278E0F911DA11DFE
:10050000B11DE2E0880F991FAA1FBB1FEA95D1F722
:10051000861B970B885E9340C8F2215030404040C4
:10052000504068517C4F211531054105510571F648
:100530000895789484B5826084BD84B5816084BD5B
:1005400085B5826085BD85B5816085BDEEE6F0E04C
:10055000808181608083E1E8F0E0108280818260A8
:100560008083808181608083E0E8F0E08081816029
:100570008083E1EBF0E0808184608083E0EBF0E059
:10058000808181608083EAE7F0E0808184608083FD
:1005900080818260808380818160808380818068A7
:1005A00080831092C1000895CF93DF93482F50E0CD
:1005B000CA0186569F4FFC0134914A575F4FFA019A
:1005C0008491882369F190E0880F991FFC01E85914
:1005D000FF4FA591B491FC01EE58FF4FC591D49106
:1005E000662351F42FB7F8948C91932F909589231B
:1005F0008C93888189230BC0623061F42FB7F89403
:100600008C91932F909589238C938881832B888359
:100610002FBF06C09FB7F8948C91832B8C939FBFFC
:10062000DF91CF91089508951F920F920FB60F9208
:1006300011242F933F934F938F939F93EF93FF93A7
:100640008091C00082FD1DC04091C6002091CC0168
:100650003091CD012F5F3F4F2F7330708091CE01CD
:100660009091CF012817390771F0E091CC01F091FA
:10067000CD01E457FE4F40833093CD012093CC0150
:1006800002C08091C600FF91EF919F918F914F9191
:100690003F912F910F900FBE0F901F901895E091F2
:1006A0002002F0912102E05CFF4F81919191208125
:1006B0003181821B930B8F739070892B11F00E94F4
:1006C000130308951F920F920FB60F9211242F93C8
:1006D0003F938F939F93EF93FF932091100230915C
:1006E000110280911202909113022817390731F4F8
:1006F0008091C1008F7D8093C10014C0E0911202EF
:10070000F0911302E053FE4F2081809112029091EC
:10071000130201968F7390709093130280931202CC
:100720002093C600FF91EF919F918F913F912F9160
:100730000F900FBE0F901F901895AF92BF92DF924F
:10074000EF92FF920F931F93CF93DF93EC017A0107
:100750008B01DD24403081EE580780E0680780E09F
:10076000780711F0DD24D39491E0A92EB12CEC8907
:10077000FD89DD2069F0C50108A002C0880F991F1E
:100780000A94E2F7808360E079E08DE390E005C0B1
:10079000108260E874E88EE190E0A80197010E9461
:1007A000930721503040404050405695479537952B
:1007B000279580E12030380720F0DD2011F0DD247E
:1007C000D6CFE889F9893083EA89FB89208319A289
:1007D000EE89FF89408121E030E0C9010C8C02C024
:1007E000880F991F0A94E2F7482B4083EE89FF890E
:1007F0004081C9010D8C02C0880F991F0A94E2F74D
:10080000482B4083EE89FF894081C9010E8C02C0CC
:10081000880F991F0A94E2F7482B4083EE89FF89DD
:1008200080810F8C02C0220F331F0A94E2F72095BB
:1008300028232083DF91CF911F910F91FF90EF909C
:10084000DF90BF90AF900895DC011C96ED91FC9174
:100850001D97E05CFF4F2191319180819181281B90
:10086000390B2F733070C9010895DC011C96ED918E
:10087000FC911D97E05CFF4F20813181E054F040F6
:10088000DF01AE5BBF4F8D919C91119728173907FF
:1008900019F42FEF3FEF07C08D919C91E80FF91FDE
:1008A0008081282F30E0C9010895DC011C96ED916C
:1008B000FC911D97E05CFF4F20813181E054F040B6
:1008C000DF01AE5BBF4F8D919C91119728173907BF
:1008D00019F42FEF3FEF10C08D919C911197E80F05
:1008E000F91F20818D919C91119701968F739070C3
:1008F00011969C938E9330E0C9010895DC01919686
:100900008C919197882339F05496ED91FC915597ED
:10091000808186FFF9CF91961C920895CF93DF9343
:10092000EC01EE85FF85E05CFF4F20813181E054D2
:10093000F0402F5F3F4F2F733070DF01AE5BBF4F32
:100940008D919C91119728173907D1F3E05CFF4FE7
:1009500080819181E054F040E80FF91F6083EE85BB
:10096000FF85E05CFF4F31832083EE89FF89208182
:1009700081E090E00F8C02C0880F991F0A94E2F783
:10098000282B208381E089A3EC89FD898081806404
:10099000808381E090E0DF91CF910895109217025B
:1009A0001092160288EE93E0A0E0B0E08093180267
:1009B00090931902A0931A02B0931B028DE391E069
:1009C00090931502809314028CE891E09093210299
:1009D0008093200280ED91E0909323028093220285
:1009E00085EC90E0909325028093240284EC90E0C3
:1009F000909327028093260280EC90E09093290246
:100A00008093280281EC90E090932B0280932A023D
:100A100082EC90E090932D0280932C0286EC90E083
:100A200090932F0280932E0284E08093300283E023
:100A30008093310287E08093320285E08093330215
:100A400081E0809334020895CF93DF930E9499024E
:100A50000E945C01CFE4D3E00E94D5002097E1F32F
:100A60000E944F03F9CFCF92DF92EF92FF920F9344
:100A70001F93CF93DF937C016B018A01C0E0D0E02C
:100A80000FC0D6016D916D01D701ED91FC910190E0
:100A9000F081E02DC7010995C80FD91F0150104002
:100AA0000115110571F7CE01DF91CF911F910F91C3
:100AB000FF90EF90DF90CF900895EF92FF920F9309
:100AC0001F938C01DC01ED91FC910190F081E02DF0
:100AD0006DE009957C01D801ED91FC910190F081C8
:100AE000E02DC8016AE009959C012E0D3F1DC9014A
:100AF0001F910F91FF90EF900895CF93DF93EC013A
:100B00006115710519F420E030E00FC0DB010D9094
:100B10000020E9F71197A61BB70BE881F981028045
:100B2000F381E02DAD0109959C01C901DF91CF91C1
:100B300008954F925F927F928F929F92AF92BF9251
:100B4000CF92DF92EF92FF920F931F93DF93CF9399
:100B5000CDB7DEB7A1970FB6F894DEBF0FBECDBFFD
:100B60002C01742ECB01223008F42AE019A231E2C4
:100B7000C32ED12CCC0EDD1E822E9924AA24BB2498
:100B8000672D752FA50194010E94930779018A01B1
:100B9000C801B701A50194010E947407472D461BA7
:100BA0000894C108D1084A3014F4405D01C0495C82
:100BB000F6014083E114F1040105110521F07E2CBA
:100BC0005F2DC801DDCFC201B6010E947D05A1964F
:100BD0000FB6F894DEBF0FBECDBFCF91DF911F914E
:100BE0000F91FF90EF90DF90CF90BF90AF909F90CC
:100BF0008F907F905F904F900895DC012115310513
:100C000041F4ED91FC910190F081E02D642F099564
:100C100008950E9499050895CF92DF92EF92FF9276
:100C20000F931F936C01E62E9A01FF2400E010E061
:100C3000B801A7010E94FD058C01C6010E945D0557
:100C4000080F191FC8011F910F91FF90EF90DF90BF
:100C5000CF9008950E947D050895EF92FF920F9323
:100C60001F937C010E947D058C01C7010E945D05D8
:100C7000080F191FC8011F910F91FF90EF90089561
:100C8000FC015298539A549A559A569A128E118E84
:100C9000148E138E11A281E0858F8FE6868F83E0FC
:100CA000878F10A28AEE81A78FED82A784ED83A79C
:100CB0005B985C9808951F93CF93DF93DC016115D7
:100CC000710509F4BC015B9880E49FE10197F1F79D
:100CD000FB0160E070E0C1E0D0E015E020C01082D0
:100CE00047E050E04E9B0AC09E01042E02C0220F36
:100CF000331F0A94E2F78081822B8083812F8A95AB
:100D0000F1F75D9A812F8A95F1F75D984150504037
:100D10008FEF4F3F580731F76F5F7F4F31969196B6
:100D20008C91919790E068177907CCF25B9A85E0F7
:100D30008A95F1F7DF91CF911F91089527E030E078
:100D400070E045E0CB01022E02C0959587950A948C
:100D5000E2F780FD02C05E9801C05E9A842F8A95FA
:100D6000F1F75D9A842F8A95F1F75D982150304014
:100D70008FEF2F3F380731F708950F931F93CF93CD
:100D8000DF938C015B985C9A8AE18A95F1F7662380
:100D900031F0F80160A9C8010E949E060DC0C0E0B4
:100DA000D0E0F801EC0FFD1F62A1C8010E949E0671
:100DB0002196CF30D105A9F75C98DF91CF911F9193
:100DC0000F910895FC0181A1880F880F880F83A3DC
:100DD000838D948D94A7838D948D85A783EA86A7B0
:100DE000978D858D9C648295880F807E892B87A73F
:100DF00090A1868D880F892B80ABCF0160E00E9487
:100E0000BD060895FC01569A10A2662321F061A345
:100E10000E94E20607C080A98E7F80ABCF0161E00F
:100E20000E94BD0688EE93E00197F1F70895FC015A
:100E3000569A81E080A3662329F061A3CF010E9426
:100E4000E20607C080A9816080ABCF0161E00E940B
:100E5000BD0656985B9A88EE93E00197F1F70895E6
:100E6000EF92FF920F931F93CF93DF93EC017B01DF
:100E70006115710509F47C015B9A8AE18A95F1F7A5
:100E800069A5CE010E949E066AA5CE010E949E061B
:100E90006BA5CE010E949E06298D3A8DCE01632F4F
:100EA0000E949E06698D7A8DCE010E949E0600E00A
:100EB00010E009C0F701E00FF11FCE0160810E9430
:100EC0009E060F5F1F4F89A190E00817190794F342
:100ED0005B9888EE93E00197F1F7DF91CF911F9136
:100EE0000F91FF90EF900895629FD001739FF001E2
:100EF000829FE00DF11D649FE00DF11D929FF00DAA
:100F0000839FF00D749FF00D659FF00D9927729FE0
:100F1000B00DE11DF91F639FB00DE11DF91FBD016B
:100F2000CF0111240895A1E21A2EAA1BBB1BFD01BB
:100F30000DC0AA1FBB1FEE1FFF1FA217B307E407B8
:100F4000F50720F0A21BB30BE40BF50B661F771F10
:100F5000881F991F1A9469F76095709580959095F0
:100F60009B01AC01BD01CF010895EE0FFF1F05905D
:0A0F7000F491E02D0994F894FFCFEE
:100F7A004C495354454E494E472E2E2E00424F524D
:100F8A004E4520464F554E44212049443A00636F4E
:100F9A0064652072656365697665643A00454E4406
:100FAA0000C80A14220C0B2A64000000008E0433C5
:0A0FBA00052404550435047E0400EC
:00000001FF
