:100000000C9445010C946D010C946D010C946D01E0
:100010000C946D010C946D010C946D010C946D01A8
:100020000C946D010C946D010C946D010C946D0198
:100030000C946D010C946D010C946D010C946D0188
:100040000C94E20E0C946D010C946A100C94BC108C
:100050000C946D010C946D010C946D010C946D0168
:100060000C946D010C946D010001020304050A0B50
:100070000C0D0E0F111213141516CF01D501DB0153
:10008000E301EC01F601FF0106020E0215021C025B
:100090002402504120506F77657209203D2025537E
:1000A0000D0A00435243204C656E67746809203D79
:1000B0002025530D0A004D6F64656C0909203D2011
:1000C00025530D0A00446174612052617465092052
:1000D0003D2025530D0A0044594E50442F464541BA
:1000E0005455524500434F4E4649470052465F53D0
:1000F000455455500052465F434800454E5F5258A4
:100100004144445200454E5F41410052585F5057B0
:100110005F50302D360054585F41444452005258CD
:100120005F414444525F50322D350052585F414484
:1001300044525F50302D31000D0A002530327800D6
:10014000203078002553092563203D000D0A00204A
:10015000307825303278002553092563203D004F43
:100160004253455256455F54583D253032783A2027
:10017000504F4C535F434E543D2578204152435FCE
:10018000434E543D25780D0A0053544154555309AC
:1001900009203D203078253032782052585F445273
:1001A0003D25782054585F44533D2578204D4158D3
:1001B0005F52543D25782052585F505F4E4F3D2589
:1001C000782054585F46554C4C3D25780D0A003137
:1001D0004D42505300324D425053003235304B4265
:1001E0005053006E524632344C3031006E5246321B
:1001F000344C30312B0044697361626C65640038A3
:100200002062697473003136206269747300504152
:100210005F4D494E0050415F4C4F570050415F4881
:100220004947480050415F4D4158000000000024FC
:100230000027002A0000000000250028002B0000F5
:100240000000002300260029000404040404040420
:100250000402020202020203030303030301020475
:100260000810204080010204081020010204081038
:100270002000000007000201000003040600000047
:1002800000000000000027052B1211241FBECFEF35
:10029000D8E0DEBFCDBF12E0A0E0B1E0EAEFF8E2C7
:1002A00002C005900D92AA3DB107D9F713E0AAED5F
:1002B000B2E001C01D92AF3AB107E1F712E0CAE81F
:1002C000D2E004C02297FE010E944014C638D10734
:1002D000C9F70E9482120C947B140C940000FC015C
:1002E00005900020E9F7809590958E0F9F1F089547
:1002F000FB01DC0102C001900D9241505040D8F743
:100300000895FB01DC018D91019080190110D9F352
:10031000990B08950F931F93CF93DF938C01EB01FB
:10032000009731F46115710519F420E030E038C010
:1003300081E090E06EE070E00E94F503FC019C011A
:10034000009771F180E88383209771F0D387C2878B
:1003500081E883838091A9039091AA03892B21F4DA
:10036000F093AA03E093A90301151105C9F01187C1
:1003700000878381826083838091AB039091AC037B
:10038000892B71F4F093AC03E093AB038091AD0340
:100390009091AE03892B21F4F093AE03E093AD036B
:1003A000C901DF91CF911F910F910895A0E0B0E0B6
:1003B000ECEDF1E00C945414FE01359661917191CD
:1003C0008091AB039091AC03AF010E94180220967C
:1003D000E2E00C947014A0E0B0E0E1EFF1E00C94E6
:1003E0005414FE01359661917191A091AB03B091C7
:1003F000AC0313968C911397886013968C9380911D
:10040000AB039091AC03AF010E941802E091AB03E3
:10041000F091AC032381277F23832096E2E00C94A4
:1004200070146091AB037091AC030E942E04089588
:10043000ABE0B0E0EEE1F2E00C9444143C012B019F
:100440005A01FC0117821682838181FD03C06FEF80
:100450007FEFC6C19AE0892E1E010894211C311C31
:10046000F3012381F20123FD859123FF81912F0167
:10047000882309F4B2C1853239F423FD859123FF25
:1004800081912F01853229F490E0B3010E942E045E
:10049000E7CF982FFF24EE249924FFE1FF15D0F039
:1004A0009B3269F09C3228F4903259F0933291F4E7
:1004B0000EC09D3249F0903369F441E024C052E00F
:1004C000F52A84E0F82A28C098E0F92A25C0E0E15E
:1004D000FE2A22C0F7FC29C0892F80538A3070F48D
:1004E000F6FE05C0989C902C1124980E15C0E89C2F
:1004F000E02C1124E80EF0E2FF2A0EC09E3229F40F
:10050000F6FC6BC140E4F42A07C09C3619F450E8AD
:10051000F52A02C0983649F4F20123FD959123FF94
:1005200091912F01992309F0B8CF892F85548330F9
:1005300018F08052833038F444E050E0A40EB51E29
:100540005FE359830FC0933631F0933779F09335D9
:1005500009F056C020C0F5018081898342E050E057
:10056000A40EB51E610101E010E012C0F501C080CB
:10057000D180F6FC03C06FEF7FEF02C0692D70E001
:1005800042E050E0A40EB51EC6010E9423048C0177
:100590005FE7F52214C0F501C080D180F6FC03C0EE
:1005A0006FEF7FEF02C0692D70E042E050E0A40ED3
:1005B000B51EC6010E9411048C0150E8F52AF3FE15
:1005C00007C01AC080E290E0B3010E942E04EA94B2
:1005D0008E2D90E008171907A8F30EC0F601F7FC5E
:1005E0008591F7FE81916F0190E0B3010E942E0486
:1005F000E110EA94015010400115110579F7EAC0A5
:10060000943611F0993669F5F7FE08C0F50120819E
:1006100031814281538184E090E00AC0F5018081FC
:1006200091819C01442737FD4095542F82E090E052
:10063000A80EB91E9FE6F92257FF09C050954095B4
:10064000309521953F4F4F4F5F4FE0E8FE2ACA019A
:10065000B901A1012AE030E00E945A04D82ED21834
:1006600040C0953729F41F2D1F7E2AE030E01DC0C1
:100670001F2D197F9F3661F0903720F4983509F0CF
:10068000ACC00FC0903739F0983709F0A6C004C04D
:1006900028E030E00AC0106114FD146020E130E071
:1006A00004C014FD166020E132E017FF08C0F50118
:1006B000608171818281938144E050E008C0F5013E
:1006C00080819181BC0180E090E042E050E0A40E86
:1006D000B51EA1010E945A04D82ED2188FE7F82E19
:1006E000F122F6FE0BC05EEFF522D91438F4F4FEC9
:1006F00007C0F2FC05C08FEEF82202C01D2D01C01C
:10070000192DF4FE0DC0FE01ED0DF11D8081803329
:1007100019F499EEF92208C01F5FF2FE05C003C06C
:100720008F2D867809F01F5F0F2DF3FC14C0F0FEAB
:100730000FC01E1510F09D2C0BC09D2C9E0C911A05
:100740001E2D06C080E290E0B3010E942E041F5FC0
:100750001E15C0F304C01E1510F4E11A01C0EE24EA
:1007600004FF0FC080E390E0B3010E942E0402FF5B
:100770001DC001FD03C088E790E00EC088E590E051
:100780000BC0802F867891F001FF02C08BE201C080
:1007900080E2F7FC8DE290E0B3010E942E0406C0D7
:1007A00080E390E0B3010E942E049A94D914C0F320
:1007B000DA94F101ED0DF11D808190E0B3010E940A
:1007C0002E04DD20A9F706C080E290E0B3010E946C
:1007D0002E04EA94EE20C1F743CEF30166817781BF
:1007E000CB012B96E2E10C9460140F931F93CF93EF
:1007F000DF93689F8001699F100D789F100D112471
:10080000C8010E94C012EC01009729F060E070E07E
:10081000A8010E941C04CE01DF91CF911F910F917E
:100820000895FC010590615070400110D8F7809543
:1008300090958E0F9F1F0895DC0101C06D9341506C
:100840005040E0F70895FC016150704001900110A4
:10085000D8F7809590958E0F9F1F08950F931F9343
:10086000CF93DF938C01EB018B8181FF1BC082FF53
:100870000DC02E813F818C819D812817390764F43A
:10088000E881F9810193F983E88306C0E885F98559
:10089000802F0995892B31F48E819F8101969F834A
:1008A0008E8302C00FEF1FEFC801DF91CF911F9120
:1008B0000F910895FA01AA27283051F1203181F1D2
:1008C000E8946F936E7F6E5F7F4F8F4F9F4FAF4F58
:1008D000B1E03ED0B4E03CD0670F781F891F9A1F6B
:1008E000A11D680F791F8A1F911DA11D6A0F711D1F
:1008F000811D911DA11D20D009F468943F912AE02B
:10090000269F11243019305D3193DEF6CF01089512
:10091000462F4770405D4193B3E00FD0C9F7F6CF43
:10092000462F4F70405D4A3318F0495D31FD40520B
:10093000419302D0A9F7EACFB4E0A69597958795A1
:1009400077956795BA95C9F7009761057105089580
:100950009B01AC010A2E069457954795379527952C
:10096000BA95C9F7620F731F841F951FA01D0895C4
:100970008091DB029091DC020E94F0058093DA0204
:10098000882351F100D080E091E0EDB7FEB792836B
:1009900081830E94D6010F900F9064EF71E080E098
:1009A00090E00E94380F8091DB029091DC020E945F
:1009B0009806882389F000D085E191E0EDB7FEB775
:1009C000928381830E94D6010F900F908091DB0269
:1009D0009091DC020E942E0568EE73E080E090E0CA
:1009E0000E94380F089588E195E060E070E00E9471
:1009F0008A0108950F931F9383E893E040E051EE3E
:100A000060E070E00E94F7100E94F30481E090E043
:100A10000E949312182F092F68E070E040E00E94B6
:100A200035071093DB020093DC021F910F910895AC
:100A30000F931F93082F112707FD109583E893E06C
:100A4000602F0E94EB11C8011F910F9108958FED47
:100A500092E069E04AE00E94FE0708958F929F921B
:100A6000AF92BF92CF92DF92EF92FF920F931F93BC
:100A7000DF93CF93CDB7DEB72D970FB6F894DEBFD7
:100A80000FBECDBF8091DD029091DE020196909362
:100A9000DE028093DD029CE49E838FE48F8398873F
:100AA000198600D081E092E0EDB7FEB79283818392
:100AB0000E94D6010F900F900E942A0F7B018FEDAC
:100AC00092E00E94D70B8FED92E005E01DEC2BEA3F
:100AD0003BEB4BEB50E060E070E00E94F00954E12A
:100AE000852E52E0952E46E0A42EB12CAC0EBD1EF4
:100AF0008E010F5F1F4F39E2C32E32E0D32E0E94CA
:100B00002A0F6E197F09615375474CF000D0EDB77D
:100B1000FEB7928281820E94D6010F900F908FEDD6
:100B200092E00E94D70B8FED92E0B50148E00E9461
:100B3000B9098FED92E00E940F0C64E170E080E053
:100B400090E00E94380F8FED92E00E94930B882373
:100B500029F48EE290E00E941102D1CF8FED92E055
:100B6000B80145E00E948B0900D000D0EDB7FEB778
:100B7000D282C182148303830E94D6010F900F900A
:100B80000F900F90C8016CEB72E00E9481010097FA
:100B900009F0B5CF00D088E392E0EDB7FEB79283BD
:100BA00081830E94D6018CE492E0EDB7FEB7928378
:100BB00081830E94D6010F900F902D960FB6F89466
:100BC000DEBF0FBECDBFCF91DF911F910F91FF9080
:100BD000EF90DF90CF90BF90AF909F908F9008954F
:100BE0000F931F93DF93CF9300D00F92CDB7DEB753
:100BF0008091EF02882309F091C08FED92E00E946E
:100C0000D70B8FED92E001E01DEC2BEA3BEB4BEBB9
:100C100050E060E070E00E94F00900D08FE492E0C4
:100C2000EDB7FEB7928381830E94D6010F900F909B
:100C30000E942A0F8B012CC000D080E692E0EDB715
:100C4000FEB7928381830E94D60180E00F900F90BF
:100C500067C08FED92E00E94D70B8FED92E060EFBE
:100C600072E042E00E94B9098FED92E00E940F0C01
:100C700064E170E080E090E00E94380F8FED92E038
:100C80000E94930B882361F48EE290E00E9411028F
:100C90000E942A0F601B710B695B7B40D4F2CCCFA2
:100CA00000D08CE492E0EDB7FEB7928381830E947E
:100CB000D6010F900F908E010F5F1F4F28C08FED50
:100CC00092E0B80143E00E948B09C80169EB72E031
:100CD0000E948101009739F0C80161EC72E00E9426
:100CE00081010097A1F400D000D08AE692E0EDB730
:100CF000FEB792838183CE010196948383830E9401
:100D0000D60181E00F900F900F900F9009C08FEDEA
:100D100092E00E94930B882391F601C001C080E00D
:100D20000F900F900F90CF91DF911F910F91089529
:100D3000EF92FF920F931F93DF93CF9300D00F9208
:100D4000CDB7DEB78FED92E00E94D70B8FED92E02A
:100D500003E01DEC2BEA3BEB4BEB50E060E070E076
:100D60000E94F00900D08BE892E0EDB7FEB79283C5
:100D700081830E94D6010F900F900E942A0F8B0151
:100D80002CC000D080E692E0EDB7FEB7928381835D
:100D90000E94D60180E00F900F905DC08FED92E031
:100DA0000E94D70B8FED92E060EF72E042E00E946C
:100DB000B9098FED92E00E940F0C64E170E080E0D1
:100DC00090E00E94380F8FED92E00E94930B8823F1
:100DD00061F48EE290E00E9411020E942A0F601BD3
:100DE000710B695B7B40D4F2CCCF00D08CE492E0F5
:100DF000EDB7FEB7928381830E94D6010F900F90CA
:100E00008E010F5F1F4F6AE9E62E62E0F62E1BC0CF
:100E10008FED92E0B80143E00E948B0900D000D032
:100E2000EDB7FEB7F282E182148303830E94D601FC
:100E30000F900F900F900F90C80169EB72E00E9425
:100E40008101009739F08FED92E00E94930B882387
:100E5000F9F601C081E00F900F900F90CF91DF91D4
:100E60001F910F91FF90EF900895EF92FF920F93D3
:100E70001F937093F1026093F0024093EF028FEDA5
:100E800092E00E94A90C8FED92E061E00E9481093E
:100E90008FED92E068E00E9408088FED92E06FE02D
:100EA0004FE00E9477098FED92E061E041E020E0A1
:100EB0000E94980B8FED92E06CE30E94BD098FEDCC
:100EC00092E061E00E94C10A8FED92E062E070E082
:100ED0000E94780A8091EF02882321F18FED92E041
:100EE00061E0EE24E394BDECFB2E0BEA1BEB2BEB55
:100EF00030E040E050E00E94F80A8FED92E062E0BE
:100F0000A3E0EA2E2BEB30E040E050E00E94F80A2C
:100F10008FED92E063E0F5E0EF2E2BEB30E040E068
:100F200050E059C08FED92E001E01DEC2BEA3BEB65
:100F30004BEB50E060E070E00E94F0098091F0021D
:100F40009091F1029C0140E050E060E070E080E0B0
:100F500090E0E7E0EE2EE20EF1E0E21608F0F0E0BD
:100F6000E32FE35301E0E31708F000E0FF2EFE0E4D
:100F7000F1E0FE1608F0F0E00F2B11E04C3A08F417
:100F800010E00555E1E00B3A08F0E0E01E2BE1E04F
:100F90005C3B08F4E0E01554F1E01B3B08F0F0E0A6
:100FA000EF2BF1E06C3B08F4F0E0BE2FB554E1E02C
:100FB000BB3B08F0E0E0FE2BA1E0772309F4A0E0C2
:100FC000E1E0882309F4E0E08FED92E061E02B2F6F
:100FD0003F2F4A2F5E2F0E94F80A8091EF0288234C
:100FE00021F08FED92E00E940F0C8FED92E00E94B5
:100FF000F70D1F910F91FF90EF900895FC01608312
:101000004183128280E28383148285E0828708957F
:10101000FC01613208F060E26383089570E08DB7EF
:101020009EB70E970FB6F8949EBF0FBE8DBFEDB75B
:10103000FEB7319689E891E0ADB7BEB712969C93A2
:101040008E93119773836283CB0156E096958795B3
:101050005A95E1F78170907095838483CB0145E0C8
:10106000969587954A95E1F781709070978386836E
:10107000CB0134E0969587953A95E1F781709070B1
:1010800091878087CB01959587958770907093871E
:10109000828761707070758764870E94EB018DB7DD
:1010A0009EB70E960FB6F8949EBF0FBE8DBF0895E3
:1010B000FC0190818181981719F0892F0E941510E9
:1010C0000895FF920F931F938C01F62E81E00E94EA
:1010D000AC0E80E00E94B50E84E00E94BA0EF801CA
:1010E00081816F2D0E94151085E090E00E94910F84
:1010F0001F910F91FF900895CF93DF93EC0160E073
:101100000E94610880E58EBD0DB407FEFDCF8EB54F
:1011100083E78EBD0DB407FEFDCF8EB5CE0161E035
:101120000E946108DF91CF9108951F93CF93DF93C1
:10113000EC01162F60E00E9461081EBD0DB407FE91
:10114000FDCF1EB5CE0161E00E946108812FDF91C5
:10115000CF911F9108956FEF0E949508089561EE59
:101160000E949508089562EE0E9495080895EF92F6
:10117000FF920F931F93CF93DF93EC01F62EE72E90
:101180009B81142F941708F4192F8C81882311F058
:1011900000E002C0092F011BCE0160E00E9461083F
:1011A00081E68EBD0DB407FEFDCF8F2D9E2D9C01D7
:1011B000F901FEB49FEF07C09EBD0DB407FEFDCF41
:1011C0008EB5819311501123B9F707C08EBD0DB4B0
:1011D00007FEFDCF9EB5015001C08FEF0023B1F790
:1011E000CE0161E00E9461088F2DDF91CF911F91A8
:1011F0000F91FF90EF900895DF92EF92FF920F937F
:101200001F93CF93DF93EC01E62ED72EF22E9B8116
:10121000142F941708F4192F8C81882311F000E003
:1012200002C0092F011BCE0160E00E946108FEBCD4
:101230000DB407FEFDCF8E2D9D2D9C01F901FEB44E
:1012400008C080818EBD0DB407FEFDCF31968EB5EE
:1012500011501123B1F706C01EBC0DB407FEFDCF1F
:101260008EB501500023C1F7CE0161E00E946108F4
:101270008F2DDF91CF911F910F91FF90EF90DF9015
:1012800008950F93CF93DF93EC01222311F420EA0A
:1012900001C020EBCE010E94FC08002321F0CE010A
:1012A00061E00E945808DF91CF910F9108950F934C
:1012B0001F93CF93DF93EC01162F042F60E00E9461
:1012C00061081F7110621EBD0DB407FEFDCF1EB573
:1012D0000EBD0DB407FEFDCF8EB5CE0161E00E94BC
:1012E0006108812FDF91CF911F910F910895262FD3
:1012F0004F702295207F242B64E0422F0E945709D3
:101300000895662319F061E04FE302C061E040E018
:101310000E94570908950F931F938C010E94B708EC
:10132000C80167E040E70E9457091F910F91089597
:101330000F93CF93DF93EC0101E00E944109CE01AE
:101340000E94AB088073D9F3CE0160E00E94580878
:10135000CE0167E040E70E94570984FD02C081E0AA
:1013600004C0CE010E94AF0880E0DF91CF910F91C1
:10137000089520E00E9498090895462F603808F0EB
:101380004FE765E00E9457090895EF92FF920F938F
:101390001F93CF93DF937C01162FEA01022F60E0A9
:1013A0000E9461081F7110621EBD0DB407FEFDCFC3
:1013B0001EB508C088818EBD0DB407FEFDCF2196F5
:1013C0008EB501500023B1F7C70161E00E946108AA
:1013D000812FDF91CF911F910F91FF90EF90089592
:1013E000EF92FF920F931F93DF93CF93CDB7DEB7AA
:1013F00028970FB6F894DEBF0FBECDBF7C010983DE
:101400001A832B833C834D835E836F8378878E01A1
:101410000F5F1F4F6AE0A801F70122850E94C509EE
:10142000C70160E1A801F70122850E94C509C70133
:1014300061E1F70143810E94570928960FB6F8949D
:10144000DEBF0FBECDBFCF91DF911F910F91FF90F7
:10145000EF9008951F93CF93DF93EC01162F60E078
:101460000E9461081F711EBD0DB407FEFDCF8EB531
:101470008FEF8EBD0DB407FEFDCF1EB5CE0161E02E
:101480000E946108812FDF91CF911F910895EF9203
:10149000FF921F937C0160E00E942A0A182FC70167
:1014A00061E00E942A0A1C7013FD05C0882319F40C
:1014B00020E030E007C012FD03C021E030E002C0B0
:1014C00022E030E0C9011F91FF90EF90089566E09F
:1014D0000E942A0A8872803219F422E030E006C0A5
:1014E00020E030E0883011F421E030E0C9010895B7
:1014F000FF920F931F93CF93DF93EC018B0166E074
:101500000E942A0AF7EDFF2EF82285E590E0A0E080
:10151000B0E08B879C87AD87BE870230110539F418
:1015200080E2F82A8BE990E0A0E0B0E009C0013049
:10153000110551F488E0F82A81E490E0A0E0B0E0E1
:101540008B879C87AD87BE87CE0166E04F2D0E94BA
:101550005709CE0166E00E942A0A90E08F1509F42F
:1015600091E0892FDF91CF911F910F91FF90089506
:1015700066E00E942A0A90E08670907095958795A3
:1015800008951F93CF93DF93EC01162F66E00E941E
:101590002A0A143010F047E003C0412F440F4F5F78
:1015A000887F482BCE0166E00E945709DF91CF91DA
:1015B0001F910895FF920F931F938C01F62E62E006
:1015C0000E942A0AE8E6F0E0EF0DF11DE49141E007
:1015D00050E002C0440F551FEA95E2F740954823BA
:1015E000C80162E00E9457091F910F91FF90089572
:1015F000BF92CF92DF92EF92FF920F931F93DF93F0
:10160000CF93CDB7DEB728970FB6F894DEBF0FBEE5
:10161000CDBF6C01B62EE982FA820B831C832D8329
:101620003E834F835887662369F49C012B5F3F4FAD
:10163000FC014285C901BE016F5F7F4F50E00E94EF
:10164000780107C0F6E0F61708F43EC081E068179D
:1016500069F4EB2DF0E0E259FF4FE491C6016E2FE3
:10166000AE014F5F5F4FF60122850BC0E62FF0E021
:10167000E259FF4FE491C6016E2FAE014F5F5F4FFD
:1016800021E00E94C5090B2D10E0F801EC58FF4F36
:10169000E491C6016E2FF60143810E945709C601ED
:1016A00062E00E942A0A08591F4FF801649121E064
:1016B00030E002C0220F331F6A95E2F7482F422B19
:1016C000C60162E00E94570928960FB6F894DEBF63
:1016D0000FBECDBFCF91DF911F910F91FF90EF9083
:1016E000DF90CF90BF9008950F931F93CF93DF9318
:1016F000EC018B0167E10E942A0A80FF02C080E0B2
:101700000DC00115110549F0CE010E94AB0890E013
:10171000959587958770F801808381E0DF91CF915F
:101720001F910F91089560E070E00E94740B08957E
:10173000CF92DF92FF920F931F936C01062FF42E2E
:10174000122F60E00E942A0AF29490EFF92202958B
:10175000000F007E0F291295110F110F107C102B16
:10176000182BC60160E0412F0E9457091F910F916D
:10177000FF90DF90CF900895CF93DF93EC0160E06E
:101780000E942A0A81FD10C0CE0160E00E942A0A50
:10179000482F4260CE0160E00E94570965E070E08A
:1017A00080E090E00E94380FDF91CF910895CF93B1
:1017B000DF93EC0160E00E9458088B859C850E94B5
:1017C000910FCE016DE10E942A0A81FF07C08B852F
:1017D0009C850E94910FCE010E94AF08CE0160E06F
:1017E0000E942A0A482F4E7FCE0160E00E945709CE
:1017F000CE0162E00E942A0AE8E6F0E0E49121E0EE
:1018000030E002C0220F331FEA95E2F7482F422B47
:10181000CE0162E00E945709DF91CF910895CF93E6
:10182000DF93EC010E94BC0BCE0160E00E942A0A0B
:10183000482F4160CE0160E00E945709CE0167E069
:1018400040E70E945709CE0161E00E9458088D814F
:10185000882349F0AE014B5F5F4FCE016AE02A85D5
:101860000E94C50904C0CE0160E00E94DA0ACE01E0
:101870006DE10E942A0A81FF03C0CE010E94AF08D9
:10188000DF91CF910895CF92DF92FF920F931F9334
:10189000CF93DF936C01EB01042FF22ECB010E945A
:1018A0006F01089710F027E001C029E000D000D0B8
:1018B00000D0EDB7FEB7319687E591E0ADB7BEB782
:1018C00012969C938E931197D383C283822F99276C
:1018D00087FD9095958384830E94EB01EDB7FEB759
:1018E00036960FB6F894FEBF0FBEEDBFCFE4D1E041
:1018F0001BC0102F1F5FC601602F0E942A0A00D054
:1019000000D0EDB7FEB73196ADB7BEB71296DC93F7
:10191000CE931197828313820E94EB01FA94012FD8
:101920000F900F900F900F90FF2019F700D08CE4CC
:1019300091E0EDB7FEB7928381830E94EB010F9097
:101940000F90DF91CF911F910F91FF90DF90CF907B
:101950000895CF93DF93EC0198818981981721F046
:10196000892F61E00E94D60F99818881891721F023
:10197000892F61E00E94D60F0E94CB0ECE0160E05D
:101980000E945808CE0161E00E94610865E070E0A5
:1019900080E090E00E94380FCE0160E04CE00E94B1
:1019A0005709CE0165E04FE00E947709CE0162E061
:1019B00070E00E94780A882311F081E08A83CE01CA
:1019C00060E070E00E94780ACE010E947C08CE019F
:1019D0006DE140E00E945709CE016CE140E00E94B9
:1019E0005709CE0167E040E70E945709CE016CE439
:1019F0000E94BD09CE010E94B308CE010E94AF082B
:101A0000CE010E94BC0BCE0160E00E942A0A482F42
:101A10004E7FCE0160E00E945709DF91CF9108957B
:101A2000EF92FF920F931F93CF93DF937C01162FBA
:101A3000EA01022F60E00E9461081F711EBD0DB413
:101A400007FEFDCF1EB59FEF07C09EBD0DB407FE7C
:101A5000FDCF8EB5899301500023B9F7C70161E02E
:101A60000E946108812FDF91CF911F910F91FF900C
:101A7000EF9008952F923F924F925F926F927F92D4
:101A80008F929F92AF92BF92CF92DF92EF92FF928E
:101A90000F931F93DF93CF93CDB7DEB75C018B011C
:101AA000C42ED22E6DB67EB6CB010E946F01089770
:101AB00010F027E001C029E000D000D000D0EDB741
:101AC000FEB7319684E491E0ADB7BEB712969C9311
:101AD0008E93119713830283822F992787FD909508
:101AE000958384830E94EB01EDB7FEB736960FB65F
:101AF000F894FEBF0FBEEDBF40E4242E41E0342E2B
:101B00003BE3432E31E0532E4CC09DB68EB6D5013B
:101B10001A960C9110E0EDB7FEB7E01BF10B0FB673
:101B2000F894FEBF0FBEEDBFEDB6FEB60894E11C03
:101B3000F11C202FC5016C2DA7010E94100D00D0B3
:101B4000ADB7BEB712963C922E9211970E94EB0150
:101B50000E0D1F1D0F900F9015C000D000D0EDB7D7
:101B6000FEB73196ADB7BEB712965C924E92119702
:101B7000D8018C91828313820E94EB010F900F9009
:101B80000F900F90015010400E151F0530F7C394B1
:101B9000892D982D9C010FB6F8943EBF0FBE2DBF26
:101BA000DA94DD2009F0B1CF00D088E391E0EDB701
:101BB000FEB7928381830E94EB010F900F900FB6C6
:101BC000F8947EBE0FBE6DBECF91DF911F910F9135
:101BD000FF90EF90DF90CF90BF90AF909F908F904D
:101BE0007F906F905F904F903F902F9008950F934C
:101BF0001F938C010E94AB08682FC8010E940E0839
:101C0000C8016BE271E04AE022E00E943A0DC8018F
:101C10006EE171E04CE024E00E94430CC80166E1F3
:101C200071E040E121E00E943A0DC8016BE071E0F3
:101C300041E126E00E94430CC80165E071E041E00B
:101C400021E00E94430CC8016BEF70E042E021E00C
:101C50000E94430CC80165EF70E045E021E00E945E
:101C6000430CC8016CEE70E046E021E00E94430C9A
:101C7000C80165EE70E040E021E00E94430CC8011D
:101C800067ED70E04CE122E00E94430CC8010E9425
:101C9000670AFC01EE0FFF1FE658FF4F25913491B4
:101CA00000D000D085EC90E0EDB7FEB79283818341
:101CB000348323830E94EB01F8018281E82FF0E056
:101CC000EE0FFF1FE058FF4F2591349186EB90E017
:101CD000EDB7FEB792838183348323830E94EB01A7
:101CE0000F900F900F900F90C8010E94470AFC01BF
:101CF000EE0FFF1FEC57FF4F2591349100D000D01D
:101D000083EA90E0EDB7FEB7928381833483238327
:101D10000E94EB010F900F900F900F90C8010E944E
:101D2000B80AE82FF0E0EE0FFF1FE657FF4F2591AE
:101D3000349100D000D082E990E0EDB7FEB79283F5
:101D40008183348323830E94EB010F900F900F90C7
:101D50000F901F910F910895882319F48CB580621C
:101D600002C08CB58F7D8CBD08959CB5937F982B58
:101D70009CBD08952CB5382F33702C7F322B3CBD81
:101D80002DB590E0959587959595879581702E7FD7
:101D9000822B8DBD08958AE061E00E9415108AE0D3
:101DA00061E00E94D60F8CB580618CBD8CB58064DB
:101DB0008CBD8DE061E00E94D60F8BE061E00E9457
:101DC000D60F08951F920F920FB60F9211242F93E2
:101DD0003F938F939F93AF93BF938091F60290911F
:101DE000F702A091F802B091F9023091FA0201963F
:101DF000A11DB11D232F2D5F2D3720F02D570196EA
:101E0000A11DB11D2093FA028093F6029093F70270
:101E1000A093F802B093F9028091F2029091F3023C
:101E2000A091F402B091F5020196A11DB11D80931D
:101E3000F2029093F302A093F402B093F502BF91E3
:101E4000AF919F918F913F912F910F900FBE0F9067
:101E50001F9018958FB7F8942091F6023091F702F1
:101E60004091F8025091F9028FBFB901CA0108955B
:101E70009B01AC017FB7F8948091F2029091F3023C
:101E8000A091F402B091F50266B5A89B05C06F3F22
:101E900019F00196A11DB11D7FBFBA2FA92F982F50
:101EA0008827860F911DA11DB11D62E0880F991F23
:101EB000AA1FBB1F6A95D1F7BC012DC0FFB7F894CC
:101EC0008091F2029091F302A091F402B091F50298
:101ED000E6B5A89B05C0EF3F19F00196A11DB11D05
:101EE000FFBFBA2FA92F982F88278E0F911DA11DF4
:101EF000B11DE2E0880F991FAA1FBB1FEA95D1F719
:101F0000861B970B885E9340C8F2215030404040BA
:101F1000504068517C4F211531054105510571F63E
:101F20000895019739F0880F991F880F991F02971C
:101F30000197F1F70895789484B5826084BD84B5E3
:101F4000816084BD85B5826085BD85B5816085BDB4
:101F5000EEE6F0E0808181608083E1E8F0E01082CD
:101F6000808182608083808181608083E0E8F0E00E
:101F7000808181608083E1EBF0E0808184608083F8
:101F8000E0EBF0E0808181608083EAE7F0E080812F
:101F9000846080838081826080838081816080838F
:101FA0008081806880831092C1000895CF93DF9371
:101FB000482F50E0CA01835A9D4FFC013491475B82
:101FC0005D4FFA018491882369F190E0880F991F91
:101FD000FC01E55DFD4FA591B491FC01EB5CFD4F6B
:101FE000C591D491662351F42FB7F8948C91932F17
:101FF000909589238C93888189230BC0623061F48A
:102000002FB7F8948C91932F909589238C93888186
:10201000832B88832FBF06C09FB7F8948C91832BA6
:102020008C939FBFDF91CF910895482F50E0CA0154
:102030008F589D4FFC012491CA01835A9D4FFC018A
:102040009491475B5D4FFA013491332309F440C00A
:10205000222351F1233071F0243028F42130A1F0F3
:10206000223011F514C02630B1F02730C1F02430F1
:10207000D9F404C0809180008F7703C080918000E4
:102080008F7D8093800010C084B58F7702C084B5A7
:102090008F7D84BD09C08091B0008F7703C080918F
:1020A000B0008F7D8093B000E32FF0E0EE0FFF1FB4
:1020B000EB5CFD4FA591B4912FB7F894662321F402
:1020C0008C919095892302C08C91892B8C932FBF82
:1020D000089508951F920F920FB60F9211242F9317
:1020E0003F934F938F939F93EF93FF938091C00003
:1020F00082FD1DC04091C60020913B0330913C03FE
:102100002F5F3F4F2F73307080913D0390913E03BE
:102110002817390771F0E0913B03F0913C03E5503B
:10212000FD4F408330933C0320933B0302C08091DA
:10213000C600FF91EF919F918F914F913F912F9109
:102140000F900FBE0F901F901895E0918F03F091A4
:102150009003E05CFF4F8191919120813181805CFF
:102160009F4F821B930B60E470E00E94F513892B54
:1021700011F00E94691008951F920F920FB60F92EE
:1021800011242F933F938F939F93EF93FF9320916D
:102190007F033091800380918103909182032817FF
:1021A000390731F48091C1008F7D8093C10014C044
:1021B000E0918103F0918203E15CFC4F20818091EA
:1021C00081039091820301968F73907090938203A4
:1021D000809381032093C600FF91EF919F918F918F
:1021E0003F912F910F900FBE0F901F901895AF92B7
:1021F000BF92DF92EF92FF920F931F93CF93DF93E3
:10220000EC017A018B01DD24403081EE580780E03B
:10221000680780E0780711F0DD24D39491E0A92EBF
:10222000B12CEC89FD89DD2069F0C50108A002C050
:10223000880F991F0A94E2F7808360E079E08DE3CC
:1022400090E005C0108260E874E88EE190E0A8019B
:1022500097010E940814215030404040504056954C
:1022600047953795279580E12030380720F0DD200D
:1022700011F0DD24D6CFE889F9893083EA89FB891A
:10228000208319A2EE89FF89408121E030E0C90155
:102290000C8C02C0880F991F0A94E2F7482B4083E8
:1022A000EE89FF894081C9010D8C02C0880F991FFA
:1022B0000A94E2F7482B4083EE89FF894081C901E7
:1022C0000E8C02C0880F991F0A94E2F7482B4083B6
:1022D000EE89FF8980810F8C02C0220F331F0A9480
:1022E000E2F7209528232083DF91CF911F910F9152
:1022F000FF90EF90DF90BF90AF900895DC011C96A7
:10230000ED91FC911D97E05CFF4F819191912081AF
:102310003181805C9F4F821B930B60E470E00E94D0
:10232000F5130895DC011C96ED91FC911D97E05C7E
:10233000FF4F20813181E054F040DF01AE5BBF4FA1
:102340008D919C9111972817390719F42FEF3FEFC2
:1023500007C08D919C91E80FF91F8081282F30E0F4
:10236000C9010895DC011C96ED91FC911D97E05C7C
:10237000FF4F20813181E054F040DF01AE5BBF4F61
:102380008D919C9111972817390719F42FEF3FEF82
:1023900010C08D919C911197E80FF91F20818D91AC
:1023A0009C91119701968F73907011969C938E93C8
:1023B00030E0C9010895DC0191968C9191978823B2
:1023C00039F05496ED91FC915597808186FFF9CFB5
:1023D00091961C920895CF93DF93EC01EE85FF85D3
:1023E000E05CFF4F20813181E054F0402F5F3F4F90
:1023F0002F733070DF01AE5BBF4F8D919C911197B1
:1024000028173907D1F3E05CFF4F80819181E054B8
:10241000F040E80FF91F6083EE85FF85E05CFF4F19
:1024200031832083EE89FF89208181E090E00F8C49
:1024300002C0880F991F0A94E2F7282B208381E0BD
:1024400089A3EC89FD8980818064808381E090E0AC
:10245000DF91CF910895109286031092850388EE44
:1024600093E0A0E0B0E08093870390938803A0936B
:102470008903B0938A038EEC92E090938403809357
:1024800083038BEF92E09093900380938F038FE30D
:1024900093E0909392038093910385EC90E0909366
:1024A00094038093930384EC90E09093960380933D
:1024B000950380EC90E0909398038093970381ECD0
:1024C00090E090939A038093990382EC90E090932C
:1024D0009C0380939B0386EC90E090939E038093F3
:1024E0009D0384E080939F0383E08093A00387E0B3
:1024F0008093A10385E08093A20381E08093A303EE
:1025000008950895CF93DF930E949B0F0E9481123C
:102510000E94FA04C5EAD0E10E94B8042097E1F3D2
:102520000E94A510F9CF0E94C0120895CF92DF92A9
:10253000EF92FF920F931F93CF93DF937C016B0178
:102540008A01C0E0D0E00FC0D6016D916D01D701C6
:10255000ED91FC910190F081E02DC7010995C80F24
:10256000D91F015010400115110571F7CE01DF91FF
:10257000CF911F910F91FF90EF90DF90CF90089532
:102580000F931F93CF93DF93BC018230910510F41A
:1025900062E070E0E091A703F091A803A0E0B0E052
:1025A00040E050E024C08081918186179707D0F0E9
:1025B0008617970771F482819381109729F01396FB
:1025C0009C938E9312972CC09093A8038093A7039B
:1025D00027C04115510519F08417950718F4EF012C
:1025E0008D01AC01DF01828193819C01F90130975B
:1025F000D1F641155105F9F0CA01861B970B8430BD
:10260000910580F48A819B810115110521F0F80163
:102610009383828304C09093A8038093A703FE0151
:10262000329645C0FE01E80FF91F6193719302973E
:10263000998388833CC08091A5039091A603892B40
:1026400041F48091C6029091C7029093A6038093B3
:10265000A5034091C8025091C9024115510541F4AA
:102660004DB75EB78091C4029091C502481B590BCB
:102670002091A5033091A60324173507B0F4CA01B1
:10268000821B930B8617970780F0AB014E5F5F4F5D
:102690008417950750F0420F531F5093A6034093A1
:1026A000A503F9016193719302C0E0E0F0E0CF016E
:1026B000DF91CF911F910F910895CF93DF939C01EC
:1026C000009709F48FC0EC0122971B821A82609157
:1026D000A7037091A8036115710581F48881998120
:1026E000820F931F2091A5033091A6032817390765
:1026F00039F5D093A603C093A50374C0DB0140E075
:1027000050E0AC17BD0708F1BB83AA83FE012191FD
:102710003191E20FF31FAE17BF0779F48D919C91B1
:102720001197280F391F2E5F3F4F39832883129648
:102730008D919C9113979B838A834115510571F468
:10274000D093A803C093A7034DC012968D919C917E
:102750001397AD01009711F0DC01D3CFDA01139686
:10276000DC93CE931297FA0121913191E20FF31F7E
:10277000CE17DF0769F488819981280F391F2E5FF2
:102780003F4FFA01318320838A819B819383828327
:10279000E0E0F0E0DB0112968D919C911397009799
:1027A00019F0BC01FD01F6CFAB014E5F5F4FDB01BD
:1027B0008D919C91840F951F2091A5033091A603C4
:1027C0002817390779F4309729F41092A80310924A
:1027D000A70302C013821282425050405093A603B6
:1027E0004093A503DF91CF91089597FB092E07260B
:1027F0000AD077FD04D02ED006D000201AF47095B0
:1028000061957F4F0895F6F7909581959F4F0895B4
:10281000A1E21A2EAA1BBB1BFD010DC0AA1FBB1FE4
:10282000EE1FFF1FA217B307E407F50720F0A21B56
:10283000B30BE40BF50B661F771F881F991F1A94C3
:1028400069F760957095809590959B01AC01BD01ED
:10285000CF010895AA1BBB1B51E107C0AA1FBB1FD4
:10286000A617B70710F0A61BB70B881F991F5A951C
:10287000A9F780959095BC01CD010895EE0FFF1F3B
:102880000590F491E02D09942F923F924F925F9220
:102890006F927F928F929F92AF92BF92CF92DF9270
:1028A000EF92FF920F931F93CF93DF93CDB7DEB7D5
:1028B000CA1BDB0B0FB6F894DEBF0FBECDBF099469
:1028C0002A88398848885F846E847D848C849B84C0
:1028D000AA84B984C884DF80EE80FD800C811B81CE
:1028E000AA81B981CE0FD11D0FB6F894DEBF0FBEFD
:0A28F000CDBFED010895F894FFCF6D
:1028FA005465726D696E616C20696E2072616E67D3
:10290A0065210A0D00737563636573732068616ED0
:10291A00647368616B65210A0D005061636B6574AD
:10292A0020726563656976656420636F756E746588
:10293A00723A005061636B6574206D6973736564E4
:10294A00207265636569766564207175657269656B
:10295A007320636F756E7465723A00736F6D657478
:10296A0068696E67002D2D2D2D2D2D2D2D2D2D2DC8
:10297A002D2D2D2D2D2D2D2D2D2D2D2D2D2D2D0AA0
:10298A000D0053657373696F6E20436F756E7465BE
:10299A00723A202564202C20697271312025642C1A
:1029AA0020697271322025642C20697271333A25AC
:1029BA00640A0D0064617461206F6E20706970652D
:1029CA002025750A0D0052656365697665642025C0
:1029DA00732C202041434B20464F52204C4F2E0A45
:1029EA000D0053454E44204241434B2025730A0DA6
:1029FA0000636C6F73696E672073657373696F6EBA
:102A0A002E2E2E0054494D454F555420534F2042E7
:102A1A004144212125640A0D005245434549564542
:102A2A00443A2025730A0D004C6F67206F75742095
:102A3A007375636365737321210A0D000A0D0052D1
:102A4A00616E67652074657374696E672E2E2E0039
:102A5A0054494D454F55540A0D0057656C6C207208
:102A6A006563656976656420696E2072616E676563
:102A7A0020746573743A25730A0D0048616E647395
:102A8A0068616B696E672E2E2E00476F742072651F
:102A9A0073706F6E736520696E2048414E445348C7
:102AAA00414B452025730A0D004F4B004F4B4C4FAD
:102ABA00004B4F008000AF03000000000000EB1144
:0A2ACA0096127E11B2119211DB1179
:00000001FF
